:020000040800F2
:10000000000008245111000865100008671000085E
:10001000691000086B1000086D1000080000000057
:10002000000000000000000000000000D1470008B0
:100030006F1000080000000061480008F14000084F
:10004000A1110008A1110008A1110008A1110008C8
:10005000A1110008A1110008A1110008A1110008B8
:10006000A1110008A1110008A1110008A1110008A8
:10007000A1110008A1110008A1110008A111000898
:10008000A1110008A1110008A1110008A111000888
:10009000A1110008A1110008A1110008A111000878
:1000A000A1110008A1110008A1110008A111000868
:1000B000A1110008A1110008A1110008A111000858
:1000C000A1110008A1110008A1110008A111000848
:1000D000A1110008A1110008A1110008A111000838
:1000E000A1110008A111000800000000A1110008E2
:1000F000A1110008A1110008A1110008A111000818
:10010000A1110008A1110008A1110008A111000807
:10011000A1110008A111000871100008A111000828
:10012000A1110008A1110008A1110008A1110008E7
:10013000A1110008A1110008A1110008A1110008D7
:10014000A1110008A111000800000000000000003B
:10015000A1110008A1110008A1110008A1110008B7
:10016000A1110008A1110008A1110008A1110008A7
:10017000A1110008A1110008A11100080000000051
:10018000A1110008A1110008A1110008A111000887
:10019000A1110008A1110008A1110008A111000877
:1001A0007D100008A111000889100008A1110008A5
:1001B00095100008A1110008A1110008A111000864
:1001C000A1110008A1110008A1110008A111000847
:1001D000A1110008A1110008A1110008A111000837
:1001E000A1110008A1110008A1110008A111000827
:1001F000A1110008A1110008A1110008A111000817
:10020000A1110008A1110008A1110008A111000806
:10021000A1110008A1110008A1110008A1110008F6
:10022000A1110008A1110008A111000800000000A0
:10023000A1110008A1110008A1110008A1110008D6
:10024000A1110008A1110008A1110008A1110008C6
:10025000A1110008A1110008A1110008A1110008B6
:10026000A1110008A1110008A1110008A1110008A6
:10027000A1110008A1110008A1110008A111000896
:10028000A1110008A1110008A11100080000000040
:08029000A1110008A1110008F2
:1002A00010B5054C237833B9044B13B10448AFF3B0
:1002B00000800123237010BD3001002400000000E5
:1002C00034FA010808B5034B1BB103490348AFF3E7
:1002D000008008BD000000003401002434FA010849
:1002E00001F0FF01102A2BDB10F0070F08D010F8E7
:1002F000013B013A8B422DD010F0070F42B3F6D1EB
:10030000F0B441EA012141EA014122F007047FF003
:1003100000070023F0E80256083C85EA010586EA5A
:10032000010685FA47F5A3FA87F586FA47F6A5FA96
:1003300087F68EB9EED1F0BC01F0FF0102F00702A2
:1003400032B110F8013B013A83EA010313B1F8D14D
:100350000020704701387047002D06BF354603382E
:10036000073815F0010F07D1013015F4807F02BF67
:10037000013015F4C03F0130F0BC0138704700BFB8
:1003800072B6FEE708B5012003F033FFFBE700007B
:10039000F0B59DB04C22002109A81EF0D0FC20220F
:1003A000002101A81EF0CBFC042008F097FB0023DD
:1003B00000932A4BDA6A22F00102DA62DB6A03F068
:1003C00001030093264B9A6942F440429A619A696C
:1003D00002F440420092009A9A699104FCD5214AA5
:1003E000032740250224936A082609A823F0030363
:1003F00043F0020393624FF4803305221694CDE953
:1004000009730123CDE90C35A023CDE9142304237E
:10041000CDE917340023CDE91244CDE919631B93CC
:1004200008F068FF08B172B6FEE73F232146CDE928
:1004300001374FF48063CDE9030601A8CDE90555E6
:10044000CDE9073509F0F2FA014608B172B6FEE7C8
:100450004FF4802209F0FAF91DB0F0BD00040058F5
:1004600000480258004402582DE9F0439DB0102284
:1004700000214FF050460FA801241EF060FC07F049
:1004800033FAA44B0FA8ADF83C40CDE91063A24B62
:10049000129307F047FA4FF010430FA88DF83D4034
:1004A00010931A238DF8443007F03CFA042007F02B
:1004B00029FA9A4B5A6912F4003211D1BFF34F8FC7
:1004C000BFF36F8FC3F85022BFF34F8FBFF36F8F0F
:1004D0005A6942F400325A61BFF34F8FBFF36F8FF6
:1004E0008E4A536913F4803323D1C2F88430BFF3AA
:1004F0004F8FD2F8803043F6E074C3F3C900C3F3E2
:100500004E335B0103EA0406014646EA8175013970
:10051000C2F86052F9D2203B13F1200FF2D1BFF3A1
:100520004F8F536943F480335361BFF34F8FBFF351
:100530006F8F4FF480337A4C2268150401D5013B4C
:10054000FAD107F027F9FFF723FFD4F8E0300020B5
:1005500043F00073C4F8E030D4F8E030704C03F09E
:1005600000730193019B07F0C9FC0021084607F0C6
:10057000D3FC4FF480332268100400F1F180013B7A
:10058000F9D172B6FEE772B6FEE7664840F2152969
:1005900000F070FA644C00F0F9F9342229460FA8F3
:1005A0001EF0CDFB614B4FF0280C4FF0350E40F2A2
:1005B00035222046A586256184F83650C4E90035E9
:1005C0000923C4E905C30B23C4E907E340F21B1365
:1005D000C4E9099340F21D13C4E90255C4E90B2391
:1005E00008F0C4F8024608B172B6FEE74FF4F071A5
:1005F0000F904FF480654FF48873ADF86C201A9318
:100600008DF86E20CDE91010FF20CDE914020520F1
:10061000CDE916504FF05040CDE918010FA9204602
:10062000CDE9123708F06DF908B172B6FEE7404B1C
:10063000404A98801A60C3F82080C3E90500184634
:1006400007F09CF908B172B6FEE73B4B4FF440321D
:100650003A49C3E902701846C3E9001207F0EEF9FF
:10066000044608B172B6FEE7014614220FA8344DC5
:100670001EF065FB334B28460E94AC60AC61C5E9B7
:1006800000344FF6FF73CDE90C44C5E903340AF09A
:100690002DFB08B172B6FEE7072313900FA9284679
:1006A000CDE90F360AF0EEFB08B172B6FEE70C900A
:1006B0000CA90E9028460AF00DFC08B172B6FEE7B0
:1006C00000F06FFD1F4B9A6822F4803222F007027F
:1006D0009A609A6842F003029A609A6942F48072C2
:1006E00042F001029A611A6842F001021A6003F0B6
:1006F0000DFD154A0021154803F034FD144B154A31
:1007000000211860144803F02DFD144B186003F00D
:100710000FFDFEE7130000030100010100ED00E002
:100720000044025881030008E0010024001000503A
:1007300054010024004C025878010024001000529B
:100740000803002400080040D8FA010885030008C7
:1007500050010024B4FA0108A71100084C0100243C
:10076000142200210FA808261EF0E9FAD4F8E03080
:100770000022402143F48063754802274FF48075BE
:10078000C4F8E0304FF00108D4F8E0304FF0100921
:1007900003F480630293029BD4F8E03043F04003FB
:1007A000C4F8E030D4F8E03003F040030393039B37
:1007B000D4F8E03043F48073C4F8E030D4F8E0308B
:1007C00003F480730493049BD4F8E03043F01003E7
:1007D000C4F8E030D4F8E03003F010030593059B33
:1007E000D4F8E03043F40073C4F8E030D4F8E030DB
:1007F00003F400730693069BD4F8E03043F008033B
:10080000C4F8E030D4F8E03003F008030793079B06
:10081000D4F8E03043F00403C4F8E030D4F8E0301A
:1008200003F004030893089BD4F8E03043F001037D
:10083000C4F8E030D4F8E03003F001030993099BD9
:10084000D4F8E03043F02003C4F8E030D4F8E030CE
:1008500003F020030A930A9BD4F8E03043F08003AE
:10086000C4F8E030D4F8E030002403F080030B93A8
:100870000B9B07F03DFB0FA936481194CDE90F649F
:1008800007F0A6F94FF400530FA933481194CDE9AE
:100890000F3407F09DF90FA92D481394CDE91144A9
:1008A000CDE90F5707F094F90FA92C48CDF84480F3
:1008B000CDE90F6407F08CF940260FA92848CDF840
:1008C0004480CDE90F7407F083F90FA92048CDE9E2
:1008D0001144CDE90F6807F07BF92248224BC0F89C
:1008E00008800662C0E900381A23C0E903934FF478
:1008F0000073C0E9053408F00FFA044600287FF4BD
:1009000042AE1A4800F0A0F819481A4B4FF40061A3
:1009100004228460C46184620F97C0E900384FF4F8
:100920008053C0E9081306230FA9C0E90565C0E993
:100930000329CDE91032CDE91237CDE914770AF059
:100940000FF8054600283FF420AE72B6FEE700BF60
:1009500000000258002002580008025800180258EF
:100960000028025888020024005000528103000829
:10097000D4020024404100520268034B9A4201D144
:1009800006F036BF704700BF001000402C4B2D48CA
:10099000D3F8E42042F0080230B5C3F8E4208DB06B
:1009A000D3F8E4208024012507A902F0080201926F
:1009B000019AD3F8E02042F48072C3F8E020D3F823
:1009C000E02002F480720292029AD3F8E02042F40E
:1009D0000072C3F8E020D3F8E02002F40072039222
:1009E000039AD3F8E02042F48062C3F8E020D3F801
:1009F000E02002F480620492049AD3F8E02042F0EE
:100A00008002C3F8E020D3F8E02002F080020592D3
:100A1000059AD3F8E02042F00802C3F8E020D3F8AA
:100A2000E03003F008030693069BCDE9074507F085
:100A3000CFF82A462146034807F05AFA0DB030BDD8
:100A400000440258000C025840F2031313B5ADF8ED
:100A500004304023044601A900208DF8063006F03A
:100A6000C9FA00B1A047002006F070FA00B1A04713
:100A700002B010BD10B50446002006F071FC002045
:100A800006F0B8FC18B12346BDE81040184710BD69
:100A90000A4B82B00F216FF00100D3F8F42042F02E
:100AA0000202C3F8F4200022D3F8F43003F002036A
:100AB0000193019B02B006F0C5BE00BF004402587E
:100AC000026882B0094B9A420DD1A3F50063D3F8B6
:100AD000E02042F40022C3F8E020D3F8E03003F431
:100AE00000230193019B02B0704700BF004C0258E5
:100AF0000F4B07B502689A4217D10E4B05215A20B9
:100B0000D3F8D42042F01002C3F8D4200022D3F846
:100B1000D43003F010030193019B06F093FE5A209A
:100B200003B05DF804EB06F0BFBE03B05DF804FB54
:100B3000001000520044025870B51422BAB00446A6
:100B400000210DEB02001EF0FAF8C02200210AA8D5
:100B50001EF0F5F82268484B9A4240F08A804FF028
:100B60000052002353210AA8CDE90A23A02305221D
:100B7000CDE914230223CDE916334FF40063CDE908
:100B8000181309F0D9F908B1FFF7FAFB3B4B02241F
:100B900000250E26D3F8E42005A9394842F00802C2
:100BA000C3F8E420D3F8E42002F008020092009A8F
:100BB000D3F8E02042F48062C3F8E020D3F8E020CC
:100BC00002F480620192019AD3F8E02042F480722C
:100BD000C3F8E020D3F8E02002F480720292029A77
:100BE000D3F8E02042F40072C3F8E020D3F8E0200C
:100BF00002F400720392039AD3F8E02042F08002DC
:100C0000C3F8E020D3F8E030099603F080030493A2
:100C1000049BFC23CDE90754CDE9053406F0D8FF49
:100C20004DF2032305A917480996CDE90534CDE90E
:100C3000075406F0CDFF4FF6FB7305A9124809963D
:100C4000CDE90534CDE9075406F0C2FF4FF4007337
:100C500005A90E480996CDE90534CDE9075406F0FB
:100C6000B7FF58202A46052106F0ECFD582006F073
:100C70001BFE3AB070BD00BF001000500044025887
:100C8000002802580020025800240258001C025874
:100C90002DE9F0411422BAB0044600210DEB020008
:100CA0001EF04DF8C02200210AA81EF048F8226864
:100CB0004F4B9A4240F099804FF0007200230AA8EF
:100CC000CDE90A2309F038F908B1FFF759FB494B80
:100CD000022600240325D3F8D420092705A9464875
:100CE00042F480424FF00A08C3F8D420D3F8D4204D
:100CF00002F480420092009AD3F8E02042F04002D1
:100D0000C3F8E020D3F8E02002F040020192019AFB
:100D1000D3F8E02042F02002C3F8E020D3F8E0202E
:100D200002F020020292029AD3F8E02042F0800200
:100D3000C3F8E020D3F8E02002F080020392039A87
:100D4000D3F8E02042F00802C3F8E020D3F8E03006
:100D5000099703F008030493049B4FF48443CDE9FF
:100D60000745CDE9053606F033FF402305A92248A3
:100D7000CDF82480CDE905360123CDE9073506F00D
:100D800027FF4FF4986305A91C480997CDE905365C
:100D9000CDE9074506F01CFF4FF4007305A917487D
:100DA000CDF82480CDE90536CDE9074506F010FFE2
:100DB0000C2305A912480997CDE90536CDE9074569
:100DC00006F006FF4FF4006305A90E480997CDE928
:100DD0000536CDE9074506F0FBFE5C2022460521DD
:100DE00006F030FD5C2006F05FFD3AB0BDE8F08112
:100DF00000500052004402580018025800140258D3
:100E0000001C0258000C025810B588B00446142289
:100E1000002103A81DF093FF2268144B9A4222D1AF
:100E2000134B03A91348D3F8E82042F00402C3F897
:100E3000E820D3F8E82002F004020192019AD3F8E6
:100E4000E02042F00802C3F8E0204FF44052D3F80B
:100E5000E03003F008030293029B0223CDE9032351
:100E6000079306F0B5FE08B010BD00BF00080040B3
:100E700000440258000C0258F0B5B7B0002114220B
:100E800001A81DF05CFF2F4B1968002957D10122E2
:100E900008A81A60B8221DF052FF4FF0807200239C
:100EA00006A8CDE9062309F047F808B1FFF768FA6C
:100EB000254B022700260325D3F8D4200C2401A9B2
:100EC000224842F48052C3F8D420D3F8D430059499
:100ED00003F480530093009B4FF68373CDE90365C1
:100EE000CDE9013706F074FE48F2331301A9184822
:100EF0000594CDE90137CDE9036506F069FE4CF2B2
:100F0000037301A913480594CDE90137CDE90365C1
:100F100006F05EFE4FF63F0301A90F480594CDE9A8
:100F20000137CDE9036506F053FEE02301A90B4824
:100F30000594CDE90137CDE9036506F049FE37B0E8
:100F4000F0BD00BF580300240044025800100258AE
:100F500000180258000C025800140258001C0258D5
:100F600008B5134B1A6812BB01224FF68371114862
:100F70001A60114AD2F8D43023F48053C2F8D43026
:100F800006F010FF48F233110C4806F00BFF4CF24C
:100F900003710B4806F006FF4FF63F01094806F0C3
:100FA00001FFE0210848BDE8084006F0FBBE08BD8F
:100FB000540300240010025800440258001802583C
:100FC000000C025800140258001C02580F2810B5DB
:100FD00004468AB002D901200AB010BD01460022A1
:100FE000362006F02FFC362006F05EFC184B6946D2
:100FF00002A81C60174BD3F8E82042F01002C3F897
:10100000E820D3F8E83003F010030193019B08F0C7
:1010100079FE079BC3B908F051FE0F4C0F4B2360BC
:1010200040F2E733E3600E4BB0FBF3F001380023EE
:10103000606020462361A36009F058FE0028CAD1F1
:10104000204609F0FBFCC7E708F038FE4000E4E763
:1010500054000024004402585C03002400100040A7
:1010600040420F00FEE7FEE7FEE7FEE7FEE77047BF
:10107000014809F025BD00BF5C030024014807F0CA
:10108000E3BB00BFE0010024014806F016BD00BF2D
:1010900078010024014808F03DB800BF8802002410
:1010A0000120704708B51DF043FF162303604FF081
:1010B000FF3008BD08B51DF03BFF16230360FEE7B7
:1010C00070B50D4614460E46731B9C4201DC20464B
:1010D00070BDAFF3008006F8010BF5E770B50D4663
:1010E00014460E46731B9C4201DC204670BD16F868
:1010F000010BAFF30080F5E74FF0FF3070474FF47E
:10110000005300204B60704701207047002070475B
:101110000B4A0346116810B509B90A4911601068F5
:1011200009490A4C0344091B8B4206D91DF000FFF4
:101130000C2303604FF0FF3010BD1360FCE700BFCD
:10114000A8030024B0BC0024000008240010000004
:10115000DFF834D005F0DAF80C480D490D4A0023C9
:1011600002E0D458C4500433C4188C42F9D30A4A5C
:101170000A4C002301E013600432A242FBD31DF0AD
:10118000DDFEFFF771F9704700000824000000241D
:1011900030010024003D020830010024ACBC0024D2
:1011A000FEE700F081BB00F0EFBB704700F0BCB879
:1011B0000846114600F0D0B810B5044604211DF0D1
:1011C0008BFB204610BD704770477047012380F8A5
:1011D000741080F875307047002070470020704709
:1011E000836B0BB10846184770474FF6FF70704786
:1011F000406803689B691847704700F065BC00F0C1
:1012000055BC00F059BC00F0ADBC00F07BBC00F058
:1012100029BC00F0C9BC00F0B3BC00F02DBC10B577
:1012200004460BF07BFE23682046D3F8A430BDE8CB
:10123000104018470BF027B810B504467C211DF06C
:101240004BFB204610BD90F877301BB14068036817
:101250001B6818471846704790F834100D4B10B5AE
:1012600090F874401A788C4209D03AB90A490B4A6E
:1012700008881488108001220C801A7010BD002A82
:10128000FCD0064A0449148808880C80108000228B
:10129000F3E700BFC4B80024C2B80024C0B80024DB
:1012A00008B531B90A4B4FF42B710A4A0A481DF0B0
:1012B00041FBC0E90F12003A0849436418BF0122FC
:1012C000003B0A7018BF0123054A137008BD00BF18
:1012D00014FB01084CFB01089AFB0108CAB8002462
:1012E000CBB8002408B5094B1B888B4203D8084BA8
:1012F0001B88934205D9074B9E21074A07481DF0DA
:1013000019FB074B1980074B1A8008BDC0B8002491
:10131000C2B80024EDFB010850FC01089AFB01084B
:10132000C6B80024C8B800241FB54FF488734FF422
:10133000F07200206946CDE900230823CDE9023090
:1013400006F044F910B9034B01221A7005B05DF89C
:1013500004FB00BFAC030024F8B50A4B07460E4659
:101360001D7815B900252846F8BD074C00202146F8
:1013700006F0AEF92368002BF4D063683B60A368E5
:101380003360F0E7AC030024B00300240121002205
:1013900008B5084602F039FF0A4B186028B90A4B15
:1013A00028210A4A0A481DF0C5FA0022042101201A
:1013B00002F0C8FF074B186018B9074B2C21034AED
:1013C000F0E708BDC003002464FD0108ADFD01087D
:1013D000DCFD0108BC03002424FE0108024B4FF091
:1013E000FF31186802F05BBFC0030024014B18688E
:1013F00002F080BFC0030024024B0021186802F0F5
:101400004EBF00BFC0030024FFF7F0BF0023034816
:1014100003491A46006802F0D0BF00BFBC03002495
:101420000400002413B50023074C01A91A462068C4
:1014300002F0F3FF4FF0FF33002201A9206802F011
:10144000ECFF02B010BD00BFBC03002403685B6C5E
:1014500018470120704703689B6A184740F2EF3035
:1014600070470000054B4FF080620360044BC3F8E7
:101470008820BFF34F8FBFF36F8F7047BCFF010809
:1014800000E100E010B504464FF44261FFF7EAFFC7
:1014900020461DF021FA204610BD00000F4B82B0FF
:1014A000D3F8D42042F01002C3F8D420D3F8D420CB
:1014B00002F010020192019ADA6F42F01002DA672C
:1014C000DA6F22F01002DA67054B064A1A62064B01
:1014D0004FF080629A6002B0704700BF004402582B
:1014E00078010024ED14000800E100E0024B1B68C5
:1014F000586803685B691847CCB8002470B5044687
:101500000A4B0C3000262546602260602672667207
:1015100045F8203B29460BF06BFE04F54263EE6074
:101520002035AB42FBD1204670BD00BFBCFF010897
:1015300008B50B290BD8DFE801F01206100A0A0AD9
:101540000A0808080808012008BD0520FCE7054B2B
:101550006621054A05481DF0EDF90020F4E7022058
:10156000F2E700BF66FE010881FE0108CBFE01081C
:1015700008B50A2909D8DFE801F010060E080808A6
:10158000080606060600012008BD054B8721054A0E
:1015900005481DF0CFF90020F6E70220F4E700BF70
:1015A00066FE010811FF0108CBFE01082DE9F84392
:1015B00091F81D800C4607464146FFF7B9FF94F8A5
:1015C0001E90054638464946FFF7B2FF4946064693
:1015D0003846FFF7CDFFA18A628B434B521A1A643B
:1015E0009A61228B521A1A61E28A586342EA0142D6
:1015F00020695A646268D863DA602768802F28D02F
:10160000227F0FD8202F65D0402F63D0042F1AD00F
:1016100045EA0265344BC84545F40035DD615FD0CD
:10162000324A44E0B7F5807F04D0B7F5007FEFD1B0
:101630002F4900E02F4941EA0262DA61E2681A624A
:101640005E62586132E045EA026242F40032DA61D9
:10165000F6E7A7683A1DDA62217F3A7845EA016524
:1016600045F40035DD615E62586142B1012A21D046
:10167000214B40F21111214A21481DF05BF9DA6932
:10168000798822F47F42013922F0100242EA0122D5
:101690000121DA61144BDA6942F02002DA61DA6979
:1016A0009206FCD410229A600029B9D0154A1A601B
:1016B000BDE8F883DA69FF39788822F47F4218BFE1
:1016C0000121013822F0100242EA002242F0100209
:1016D000DA61DFE745EA0262034B42F40032B6E723
:1016E00040F20122E3E700BF0010005201020100B6
:1016F000090002000A0002005CFF010876FF0108F1
:10170000CBFE01080102020038B50C46897FFFF7C5
:101710002FFF174BA58AE28A586342EA05422169E6
:101720005A64628BD963521B1A642568082D0ED146
:101730009A611A6158620F4A207F42EA0062DA61B8
:10174000E2681A620C4A5961D9601A6038BD0022F9
:10175000D8611A61E1680A0A4809C1F3C40102F4B8
:10176000784200F4FC6002430A439A63034AECE7C0
:1017700000100052090001000102020001020300F2
:101780000120704738207047382303FB01000830E0
:101790007047382303FB0100083070470120704771
:1017A00040F61830704740F6183303FB010008304C
:1017B000704740F6183303FB0100083070470120E2
:1017C00070471020704700EB01100830704700EBA5
:1017D000011008307047084600F0BEBE034B10B53C
:1017E0000446036009F0E2FC204610BD74000208C4
:1017F00010B50446FFF7F2FF402120461DF06CF8BB
:10180000204610BD034B10B50446036009F0CEFC22
:10181000204610BD4000020810B50446FFF7F2FF55
:101820004FF4326120461DF057F8204610BD0000ED
:10183000034B10B50446036009F0B8FC204610BD08
:101840000C00020810B50446FFF7F2FF18212046ED
:101850001DF042F8204610BD084B10B50446036049
:1018600000F64C30FFF7BAFF04F12C00FFF7CAFF77
:1018700004F11400FFF7DCFF204610BDA8000208A9
:1018800008B50248FFF7E8FF08BD00BFC803002401
:1018900010B50446FFF7E0FF40F6E84120461DF092
:1018A0001BF8204610BD00002DE9F34100F0DCF9E3
:1018B0000024054600F0DCF923460146224628466E
:1018C000009410F089FF254B254A2046254D1A60CB
:1018D00002F06CF9244810F0C1FE2B68BFF35B8F57
:1018E000DB0735D428461CF0F9FF88B31F4C204B8A
:1018F00004F68C3604F1140004F12C0804F64C377D
:1019000023606060C4F80880E760266109F050FC3D
:10191000184B4046636109F04BFC174B3846E362B5
:1019200009F046FC154B224604F6E441C4F84C3B52
:10193000304602F0B3F904F6E44002F059FB3046B9
:1019400000F00AFE0E481DF013F828461CF0D2FFE6
:101950000C4802B0BDE8F041FFF74FBC28B90024A5
:10196000501D0024C403002408000024C8030024E0
:10197000A80002080C0002084000020874000208D7
:1019800081180008D41C002401480AF0E4BC00BF00
:10199000D41C002470B5234E234B244C3046244DD8
:1019A0002360FFF7ABFD284613F0E8FF214B002230
:1019B0004FF4807120481A861A6683F86C201A67E3
:1019C000DC60C3E912121D49C3E919124FF080719E
:1019D0005967012183F8781019490B604FF4F071B1
:1019E0000180184801804FF488711748C3E9042228
:1019F000C3E90622C3E90822C3E90A22C3E90E2289
:101A0000C3E91022C3E91422C3E91622C3E9016520
:101A100001800E4883F8342001800D490A700D4A78
:101A20001A6070BDB410002404FB0108B01000243B
:101A3000541D0024D41C0024C0B80024010000015F
:101A4000CCB80024C6B80024C2B80024C8B800240A
:101A5000C4B800249CFC01080148FFF703BD00BF87
:101A6000B4100024034B902283F85A2383F85823A0
:101A7000704700BF00E100E0094A0A49D3680A48FC
:101A8000C3F30A03013B9BB20B801169C1F30A0146
:101A9000013901801364536B43F0010353637047B2
:101AA00000100050CE1D0024CC1D0024014BD3F8A3
:101AB000AC00704700100050024B0122C3F8AC107C
:101AC0005A6270470010005070B504460AF031FCAD
:101AD00023681D6E0DF090FD01462046A84723683F
:101AE0002046054AD3F884504FF050410023AC46BD
:101AF000BDE87040604700BF000020D00AF000BC85
:101B00000AF00ABC0AF031BD1049002370B5C1F8D3
:101B10008430BFF34F8FD1F8803043F6E074C3F3C5
:101B2000C900C3F34E335B0103EA0406024646EAEA
:101B30008275013AC1F87452F9D2203B13F1200F9B
:101B4000F2D1BFF34F8FBFF36F8F70BD00ED00E098
:101B5000034B5B69DB0301D5FFF7D6BF704700BFBE
:101B600000ED00E008B50AF094FB044B5B69DB0371
:101B700003D5BDE80840FFF7C7BF08BD00ED00E092
:101B8000084B4FF08062C3F88820BFF34F8FBFF33C
:101B90006F8F4FF08072C3F88820BFF34F8FBFF371
:101BA0006F8F704700E100E0034B4FF080629A6056
:101BB0004FF080729A60704700E100E0134B144AC6
:101BC0001B6C11888B4210B5124C13D1124B198823
:101BD00006F0C4FE226892F86630013382F866305F
:101BE000FFF714FC20680BF099F90020BDE81040C5
:101BF000FFF7E9BA06F0B2FE0020FFF7E5FA206829
:101C00000368BDE810401B6A184700BF0010005071
:101C1000CE1D0024CCB80024CC1D0024704708B58C
:101C2000052918D8DFE801F00F03070B0F1302F0A6
:101C300009F8406808BD02F005F88068FAE702F08C
:101C400001F8C068F6E701F0FDFF0068F2E701F077
:101C5000F9FF0069EEE70020ECE710B50446042127
:101C60001CF03AFE204610BD00487047C80002082C
:101C70000E20704713B5002451B1036801AA0194E6
:101C80008DF803409C680DF10303A04702B010BD1E
:101C90000846FBE740897047808970478088704715
:101CA00083798288981880B27047C07900F07F00ED
:101CB0007047C079C0097047704710B504460821C5
:101CC0001CF00AFE204610BD704700F596730868A8
:101CD000496803C370470020704781807047C18006
:101CE0007047018170474181704770477047704766
:101CF0007047704710B4C4880368121B84881B6D3A
:101D0000091B12B25DF8044B09B218474FF6FF7376
:101D100083814FF0FF3303621368C3611060704723
:101D200070477047416070477047012303727047E6
:101D300090F825201AB190F8242002B1186070475D
:101D4000704770477047704770477047014640685A
:101D5000036810311B6E1847014640680368103154
:101D6000DB6D184770477047002210B5B1F9084085
:101D7000B1F90A10028042808480C18010BD014602
:101D80004068036810311B6E1847014640680368BD
:101D90001031DB6D184770477047002210B5B1F95C
:101DA0000840B1F90A10028042808480C18010BDD1
:101DB00010B441680346C2689B68541001EB62008E
:101DC000D20748BF0A595DF8044B48BFD35818479B
:101DD00043682BB183682BB9C06800F001007047DD
:101DE000184670470120704710B504460C211CF0BE
:101DF00073FD204610BD10B5044610211CF06CFD8B
:101E0000204610BD10B504464FF4AC711CF064FDC3
:101E1000204610BD10B5044638211CF05DFD20465B
:101E200010BD10B5044628211CF056FD204610BDFB
:101E300010B5044638211CF04FFD204610BD10B5EA
:101E4000044628211CF048FD204610BD10B50DF0B9
:101E5000D3FB0368BDE810401B6B184710B5044660
:101E6000D0F83C0158B10368DB68984738B1D4F822
:101E70003C0103689B6898470023C4F83C3110BDBF
:101E80002DE9F14FD0E9545A0746A86803681B6A48
:101E9000984740F61733984205D8454BA321454A49
:101EA00045481CF047FD686803681B6A98470F287F
:101EB00003D8424BA4213F4AF2E7E86803681B6A53
:101EC00098470B2803D83E4BA5213A4AE8E7DFF8AC
:101ED000F8900DF091FB0DF0DDFBD9F8000010B18A
:101EE0000368DB689847D9F8000010B103681B68E5
:101EF0009847DFF8D880D8F8000010B103685B6914
:101F00009847D7F8380110B103685B689847D8F84C
:101F1000000010B103681B689847D7F8380110B16A
:101F200003689B689847E86800214FF0000B03683E
:101F30005B6A9847234B0446C0F804B003605946D7
:101F400080F808B0A86803685B6A9847064602F004
:101F500045F86868594603685B6A98470546314604
:101F600001F0E6FEC9F80040C7F83851C8F8006033
:101F7000E5B12B1DCAF8003030463368C5F808A01B
:101F8000DB68F56398472B6828461B68984721460D
:101F900030460EF0CDFF236820461B699847236822
:101FA00020465B6901B0BDE8F04F18472B46E1E7DA
:101FB000F00102087E0202087C030208D103020835
:101FC00074040208B80702080CB9002408B90024F8
:101FD0002DE9F0411D46036804461646DB6ABDF94B
:101FE000187098472368314620461B6B9847236832
:101FF000294620465B6B98472368394620469B6BF1
:10200000BDE8F041184700002DE9F74FD0E954BA78
:102010000746DBF8080003681B6A984740F6173349
:10202000984205D8554BA321554A56481CF082FCCE
:10203000DBF8040003681B6A98470F2803D8524B4B
:10204000A4214F4AF1E7DBF80C0003681B6A9847AC
:10205000372803D84D4BA521494AE6E7DFF84091E0
:102060000DF0CAFA0DF016FBD9F8000010B10368A4
:10207000DB689847D9F8000010B103681B689847DF
:10208000DFF82081D8F8000010B103685B69984739
:10209000D7F8380110B103685B689847D8F800009A
:1020A00010B103681B689847D7F8380110B103686E
:1020B0009B689847DBF80C000021002503685B6AE9
:1020C0009847334B45602A4603604FF4A05385720E
:1020D000294603814FF48073C581044643632D4B29
:1020E00003612D4BB3F90030C0E905558381C0E988
:1020F0000755C0E90955C0E90B5500931030274B2F
:10210000B3F90030FFF764FFDBF8080029460368E5
:102110005B6A9847064601F061FFDBF80400294638
:1021200003685B6A98470546314601F001FEC9F82D
:102130000040C7F83851C8F80060E5B12B1DCAF857
:10214000003030463368C5F808A0DB68F56398476F
:102150002B6828461B689847214630460EF0E8FE5B
:10216000236820461B699847236820465B6903B0B3
:10217000BDE8F04F18472B46E1E700BFF001020829
:10218000170502087C030208D10302087404020840
:10219000C808020864080208C2B80024C0B80024B5
:1021A0000CB9002408B900242DE9F74FD0E954BA3E
:1021B0000746DBF8080003681B6A9847B0F5707F94
:1021C00005D2554BA321554A55481CF0B3FBDBF80B
:1021D000040003681B6A98470F2803D8514BA421B9
:1021E0004E4AF1E7DBF80C0003681B6A9847372872
:1021F00003D84D4BA521494AE6E7DFF840910DF0A1
:10220000FBF90DF047FAD9F8000010B10368DB685C
:102210009847D9F8000010B103681B689847DFF8A9
:102220002081D8F8000010B103685B699847D7F89F
:10223000380110B103685B689847D8F8000010B106
:1022400003681B689847D7F8380110B103689B688A
:102250009847DBF80C000021002503685B6A98476B
:10226000324B45602A4603604FF4A05385722946DD
:1022700003814FF48073C581044643632C4B036193
:102280002C4BB3F90030C0E905558381C0E90755EF
:10229000C0E90955C0E90B5500931030264BB3F93E
:1022A0000030FFF795FEDBF80800294603685B6AFB
:1022B0009847064601F024FDDBF804002946036830
:1022C0005B6A98470546314601F000FDC9F80040B9
:1022D000C7F83851C8F80060E5B12B1DCAF80030C6
:1022E00030463368C5F808A0DB68F56398472B686B
:1022F00028461B689847214630460EF019FE236891
:1023000020461B699847236820465B6903B0BDE8F7
:10231000F04F18472B46E1E7F001020828060208B3
:102320007C030208D1030208740402084008020872
:10233000DC070208C2B80024C0B800240CB900248D
:1023400008B90024044B1B6893F876200AB1D86CB6
:1023500000B99868704700BFCCB80024F0B50446B7
:10236000807A89B00130637AC0B29842A0724CD8AA
:10237000B4F90C2000210EF0E1FD10F0010283B24F
:1023800049D04FF6FF710028D8BF0A461344E381B5
:10239000E0890025638B214E0344214F3188B7F932
:1023A00000C00A1A5B1A606806A912B2ADF81E30A6
:1023B000036862831B69ADF81850ADF81A20ADF8B8
:1023C0001CC09847A37A012B23D1164B1B7803B36B
:1023D000A16904AB606903C3134B186803681B6BE6
:1023E00098473B880390ADF81C3033880695ADF8CC
:1023F0001E30FFF7A7FFFF2203680399009206AA89
:102400000195DC6804ABA04703E00123237200239D
:10241000A37209B0F0BDE081BAE700BFC2B80024E2
:10242000C0B80024CAB80024CCB80024F0B50446D3
:10243000807A89B00130637AC0B29842A0724ED8D7
:10244000B4F90C2000210EF079FD10F0010283B2E6
:102450004BD04FF6FF710028D8BF0A461344E381E2
:10246000234E0025B4F91610B4F90E00E389328822
:10247000E082D21A60685B1A1E4F6283ADF81E308C
:10248000B7F900200368ADF81A1006A91B69ADF86A
:102490001850ADF81C209847A37A012B23D1164B76
:1024A0001B7803B3A16904AB606903C3134B1868BD
:1024B00003681B6B98473B880390ADF81C3033884A
:1024C0000695ADF81E30FFF73DFFFF220368039924
:1024D000009206AA0195DC6804ABA04703E0012343
:1024E00023720023A37209B0F0BDE081B8E700BFFA
:1024F000C2B80024C0B80024CAB80024CCB8002454
:10250000F8B5044617460E460DF0E0F80E4B0025D0
:102510001C6029460D4B23600D4BC4E950350D4B13
:102520001868C4E952550368C4E94E559B68C4E96C
:1025300054769847284601F039FBFFF703FF15F062
:1025400068F82046F8BD00BF18B9002474070208D7
:102550005C070208CCB80024064BC0F84401C0F860
:1025600048310023C0F84C3100F5A073C0F83C316D
:10257000704700BF811E0008064BC0F84401C0F838
:1025800048310023C0F84C3100F5A073C0F83C314D
:10259000704700BF09200008064BC0F84401C0F88E
:1025A00048310023C0F84C3100F5A073C0F83C312D
:1025B000704700BFA9210008006A7047406A704751
:1025C00070478B888069DB0A0A6850F82300104442
:1025D000704710B5C2B1137BB3B1547BD27A2402D9
:1025E00004F4E0641443C26998B202EB84021388D5
:1025F0008B4202D192F9020010BD05D80138043295
:1026000080B20028F3D1F7E70020F5E710B50446C3
:1026100028211CF061F9204610BD000030B589B0BA
:102620000446BDF850500695BDF84C5005959DF8F0
:10263000405004959DF83C5003959DF83850029504
:102640009DF8345001959DF8305000950EF048F8F3
:10265000064B20462360119BA361129BE361159BEF
:102660002362169B636209B030BD00BFEC0802080C
:1026700070477047704770477047704770477047A2
:102680000368DB6A1847704730B444680346C26881
:102690009B68551004EB6200D20748BF625930BCFA
:1026A00048BFD358184743682BB183682BB9C0681B
:1026B00000F001007047184670470120704710B5C0
:1026C000044610211CF008F9204610BD10B5044640
:1026D0004FF470711CF000F9204610BD00F5FA703F
:1026E000884208B505D10CF087FFBDE80840FFF728
:1026F00043BF08BD036870B50446DB6A15469847BA
:102700002368204629461B6BBDE87040184700002F
:102710004FF4807100228184054982620160C0E922
:102720000122C0E90322C0E90522C0E9072270475F
:10273000B81302080022C0E90122C0E90322C0E95F
:102740000522C0E907224FF480728284014A0260A8
:10275000704700BF4409020810B504462622002134
:102760001CF0EDFA2046FFF7E5FF044B20462360FE
:10277000FF2384F826300023A36210BD9C220208A8
:1027800038B504460D46262200211CF0D8FA204612
:10279000FFF7D0FF064B2046294623602B88E384B1
:1027A000FF2384F828300BF009FA204638BD00BF1B
:1027B000B024020810B50446FFF7CEFF034B2046B5
:1027C00023600023E362238610BD00BF4C2402086F
:1027D00010B50446262200211CF0B1FA2046FFF76E
:1027E000A9FF074B4FF47F0220462360054BA362ED
:1027F0004FF6FF73A3850023C4E90C32238710BD75
:10280000F4210208E80102082DE9F04F04460025F2
:102810004FF6FF7604F1980804F1C40B04F1F809AF
:1028200004F5FA7704F5227A2DED0E8B89B00EF0BF
:10283000D3F92246EB4BE56342F8403B104608EEE5
:10284000102AFFF789FF04F16C0306A9ADF81860A0
:1028500018460AEE103AFFF793FF4046FFF758FF7D
:102860005846FFF7A7FF4846FFF752FF04F592735B
:1028700018460CEE103AFFF79DFF04F5AC731846AE
:1028800008EE903AFFF744FF04F5C27318460CEEC9
:10289000903AFFF78FFF04F5DC7318460AEE903A82
:1028A000FFF796FF2622294638461CF048FA38469C
:1028B000FFF740FF4FF00103A4F8226284F81832BA
:1028C000C94BA4F82462C4F8F43104F50A7384F8FF
:1028D00026621846C4F81C5284F8205209EE103AB9
:1028E000FFF716FF04F5157318460DEE103AFFF7C3
:1028F00061FF5046FFF70CFF04F52D7318460DEEEF
:10290000903AFFF757FF04F53A7306A9ADF818603F
:1029100018460BEE103AFFF733FF04F545734D26CA
:10292000184609EE903AFFF7F3FE04F55073184687
:102930000EEE103AFFF73EFF04F55D7318460BEEFE
:10294000903AFFF745FFA94B2A46294618EE100A90
:10295000C4E9EC34A64BC4E9EE354FF48873009318
:102960004FF4F073FFF734FB4FF07F432A462946BC
:10297000A3661AEE100AFFF7BDFE06A91AEE100AAA
:10298000ADF818500BF01AF9404600964FF4E67374
:10299000BB220A21FFF71CFB2A462946584600960F
:1029A0004FF4E673FFF714FB0526924A5946924B03
:1029B0004046A4F8F4604FF0020BC4E93B2308F052
:1029C00035FF492331464846009304224FF4E17312
:1029D000FFF7FEFA4323012229461CEE100A00935A
:1029E0004FF4E173FFF7F4FA84494FF07F40A4F805
:1029F00054B1C4E953101CEE101A484608F016FFF3
:102A0000494640464FF0030908F010FF1420B12357
:102A10002F2200908E2118EE900AFFF7D9FA11208C
:102A2000032229460090B1231CEE900AFFF7D0FA4A
:102A3000714B4FF07F401CEE901AA4F8B491C4E99A
:102A40006B0318EE900A08F0F1FE32461AEE900A77
:102A50000721FFF74FFE4FF0FF300DF1180C072351
:102A6000C4F8E80166486146A4F8EC5106901AEEF5
:102A7000900AADF81C300AF004FE1AEE901A18EE17
:102A8000900A08F0D3FE18EE901A404608F0CEFEE9
:102A900038460F22BC21FFF72DFE06AA05A93846AD
:102AA000ADF81490ADF818B00AF02BFE04F56C7375
:102AB00039464046AF27C4F81C3208F0B7FEC2239F
:102AC00019EE100A082200930A214FF4E673FFF76B
:102AD0007FFAB7232A4629461DEE100A00934FF4C9
:102AE000E673FFF775FA434A434B1DEE101A19EED1
:102AF000100AA4F88462C4E99F2308F097FE3146C7
:102B000050464FF4E17304220097FFF761FA4FF447
:102B1000E1732A4629461DEE900A0097FFF758FAFE
:102B20004FF07F4235495046A4F8E4B2C4E9B712E9
:102B30001DEE901A08F07AFE09221BEE100A5F21A2
:102B4000FFF7D8FD0C2306A91BEE100AADF81830CC
:102B50000BF034F81BEE101A504608F067FE1422F2
:102B600019EE900A75230092A7212A46FFF730FA42
:102B7000112229461EEE100A009275234A46FFF7DD
:102B800027FA1D4B4FF07F421EEE101A19EE900AE5
:102B9000A4F87093C4E9DA2308F048FE32461BEE2D
:102BA000900A0421FFF7A6FD4FF0FF33144806A951
:102BB000C4F8A433082306901BEE900AA4F8A85387
:102BC000ADF81C300AF05DFD1BEE901A19EE900A6C
:102BD00008F02CFE19EE901A504608F027FE5146D8
:102BE00010E000BFC009020800230208A80902087B
:102BF000DD260008AE894EFF6366EDFF8B6543FF5F
:102C0000E801020819EE100A08F010FE201D18EE67
:102C1000101A039008F00AFE1AEE101A039808F032
:102C200005FE4146039808F001FE039819EE101ABC
:102C300008F0FCFD204609B0BDEC0E8BBDE8F08F1E
:102C40007047704770477047704770477047572903
:102C500002D103681B6B1847582904D0592905D0A5
:102C60005A2906D070470368DB6BF4E703685B6B97
:102C7000F1E703689B6BEEE77047704770B44568F7
:102C80000346C4689B68661005EB6400E40744BF14
:102C9000AC59E35870BC184743682BB183682BB913
:102CA000C06800F001007047184670470120704767
:102CB00030B444680346C2689B68551004EB620058
:102CC000D20748BF625930BC48BFD3581847436841
:102CD0002BB183682BB9C06800F00100704718461B
:102CE00070470120704710B5044610211BF0F4FD19
:102CF000204610BD10B5044610211BF0EDFD204606
:102D000010BD10B5044640F618311BF0E5FD204615
:102D100010BD10B400F57E748C4205D103681146D5
:102D20005DF8044BDB6A18475DF8044B704700F20E
:102D3000F442914210B504D103685B6BBDE81040CA
:102D4000184700F6F412914202D103689B6BF5E735
:102D500000F62823994205D10CF04EFCBDE8104046
:102D6000FFF71ABC10BD000010B504462622002152
:102D70001BF0E5FF2046FFF7DDFC00232046A362A1
:102D800084F82C30012384F82430044B23604FF660
:102D9000FF73E385238684F8323010BD00230208D8
:102DA0002DE9F04F044600254FF6FF794FF0050B53
:102DB00004F1C40A04F1F80704F5AC7804F51576BB
:102DC0002DED108BA1B00DF007FF2246E34BE5631C
:102DD00042F8403B10460AEE902AFFF7BDFC04F192
:102DE0006C031EA9ADF8789018460EEE103AFFF766
:102DF000C7FC04F1980318460AEE103AFFF788FC66
:102E00005046FFF7D7FC3846FFF782FC04F5927373
:102E100018460E93FFF7CEFC4046FFF779FC04F509
:102E2000C27318460F93FFF7C5FC04F5DC73184610
:102E30000EEE903AFFF7CCFC04F5FA7318460BEE51
:102E4000103AFFF765FC04F5087318461093FFF776
:102E5000B1FC304608F052FA04F5577318460BEEF1
:102E6000903AFFF755FC04F5627318461193FFF78B
:102E7000A1FC04F56F7318460FEE103AFFF7A8FC9B
:102E800004F57E73184608EE103A09F057F904F27B
:102E9000F44318460FEE903AFFF766FFB04BA4F8E4
:102EA0002895C4F8F43404F22C5318460293FFF723
:102EB0002FFC04F5AB6318461293FFF77BFC04F27A
:102EC0008C5318460CEE103AFFF722FC04F5B7635A
:102ED00018461393FFF76EFC04F2EC53184608EE05
:102EE000903AFFF715FC04F5C36318461493FFF7F7
:102EF00061FC04F24C6318460CEE903AFFF708FCB4
:102F000004F5CF6318461593FFF754FC04F2AC6345
:102F100018460393FFF75CFC04F5DD63184609EEE1
:102F2000103AFFF7F5FB04F2147318461693FFF7F7
:102F300041FC04F5E96318461793FFF73BFC04F2E4
:102F40007C7318460493FFF743FC04F5F7631846B7
:102F50000593FFF73DFC04F2F473184609EE903A2E
:102F6000FFF7D6FB04F5026318461893FFF722FC1F
:102F700004F6540318461993FFF71CFC04F6880363
:102F800018460693FFF724FC04F6C403184607937B
:102F9000FFF71EFC04F5106318460DEE103AFFF71C
:102FA000B7FB04F62C1318461A93FFF703FC04F53D
:102FB000166318460893FFF70BFC04F69C131EA932
:102FC000ADF8789018460993FFF7DAFB04F6C813BA
:102FD0001EA9ADF8789018460A93FFF7D1FB04F6C6
:102FE000F4134FF0520918460B93FFF7BDFE04F699
:102FF000282318460C93FFF7B7FE04F65C23184607
:103000000DEE903AFFF784FB04F6882318461B93D5
:10301000FFF7D0FB04F6BC2318460D93FFF7D8FB4F
:10302000504B2A462946C4F8F83A1AEE900A4E4BFD
:10303000C4F8045BC4F8003B4C4BC4F8145BC4F800
:10304000083B4B4BC4F8FC4AC4F8103B4FF4887360
:10305000C4F80C4B00934FF4F073FEF7B9FF4FF038
:103060007F432A462946A3661EEE100AFFF742FB5D
:103070001EA91EEE100AADF878500AF09FFDAA2393
:103080001AEE100A5E2200930A214FF4E673FEF74F
:103090009FFF992329465046009312224FF4E6736E
:1030A000FEF796FF334A344B51461AEE100AA4F845
:1030B000F4B04FF0020AC4E93B2308F0B7FB5946CD
:1030C0003846CDF800904FF4E1735422FEF780FFAC
:1030D0004FF4E1732A4629460E98CDF800904FF040
:1030E0000309FEF775FF4FF07F4224493846A4F8E4
:1030F00054A1C4E953120E9908F098FB14224046DB
:10310000892300929D212A46FEF762FF11220F9823
:103110008A2300924FF0FF310322FEF759FF164B2E
:103120004FF07F420F994046A4F8B491C4E96B2355
:1031300008F07CFB5A461EEE900A0721FFF7DAFAE8
:103140004FF0FF3201231EA9C4F8E8211EEE900AB9
:103150000B4AA4F8EC511E9214E000BF280A0208A2
:10316000C4200208F80902082F2D0008100A0208DE
:10317000132D0008AE894EFF6366EDFF8B6543FF9C
:10318000E8010208ADF87C300AF07BFA1EEE901AD6
:10319000404608F04BFB414638464FF00D0808F01A
:1031A00045FB10211BEE100A462300913A228F2185
:1031B000FEF70EFF10212A4610980091462329465B
:1031C000FEF706FFE04B4FF07F411BEE100AA4F81C
:1031D0005092C4E99213109908F028FB4A464946D8
:1031E0003046FFF787FA14212A46304600914023E3
:1031F000294608F065F82B4664222946304600959A
:1032000008F06EF930464FF0FF3107F0E3FF294632
:10321000304607F0E5FF4FF0090CCC4A1EA93046B6
:10322000ADF87CC01E9207F0FAFF1EA93046ADF83B
:10323000788008F027FA3046322107F0FBFF31464C
:103240001BEE100A112608F0F1FA1BEE101A384690
:1032500008F0ECFA009610261BEE900A27233A227B
:103260004FF4C271FEF7B4FE2A4629461198009623
:103270002623FEF7ADFE4FF07F46B34B1BEE900AC0
:103280001199A4F8B893C4E9EC6308F0CFFA4FF0B1
:10329000FF364A461FEE100A0421FFF72BFAAB4A0D
:1032A0001EA91FEE100AC4F8EC634FF00406A4F840
:1032B000F0531E92ADF87C500AF0E3F91FEE101A9D
:1032C0001BEE900A08F0B2FA1BEE901A384608F08E
:1032D000ADFA18EE100A19220821FFF70BFA0DF1CA
:1032E000780E4FF00B0C1CA973460DF1740E18EEFE
:1032F000100AADF878C07246ADF87060ADF874B0E1
:1033000008F078FF4FF49B73514618EE100A09221B
:103310000A26CDE900532B4608F0E0FD6422294639
:1033200018EE100A08F047FD18EE100A322108F0D6
:10333000CEFC04F6083318EE101A3846C4F8F03400
:1033400008F074FA1FEE900A17224FF4BA71FFF7D3
:10335000D1F94FF0080E1DA91FEE900AADF878E0E4
:10336000A4F828E50DF1780EADF8746072460AF005
:10337000C8F904F6F82138460E91C4F81C151FEE62
:10338000901A08F053FA39461AEE100A4FF07F47A8
:1033900008F04CFA432359460298009317224FF441
:1033A000E173FEF715FE3F232A4629461298009343
:1033B0004FF4E173FEF70CFE65490298C4F88015DE
:1033C000C4F884756D271299A4F888A508F02EFA20
:1033D00002991AEE100A08F029FA31461CEE100A7A
:1033E00000974FF4E6730822FEF7F2FD2A462946BD
:1033F000139800974FF4E673FEF7EAFD524B5548D9
:1034000064271399C4F8E0051CEE100AC4F8E435EB
:10341000A4F8E8B508F00AFA594618EE900A0097A1
:103420004FF4E1730422FEF7D3FD2A464FF4E17313
:10343000294614980097FEF7CBFD45494FF07F4091
:10344000A4F848A6C4F84016C4F8440618EE900A3A
:10345000149908F0EBF914202A4663230090B02158
:103460001CEE900A384FFEF7B3FD112063234A4645
:10347000294600901598FEF7ABFD4FF07F40159957
:10348000C4F8A0061CEE900AC4F8A476A4F8A89686
:1034900008F0CCF95A4603980721FFF72BF94FF0B3
:1034A000FF332A4AC4F8DC361EAB03981946A4F849
:1034B000E0561E92ADF87CA00AF0E3F803991CEEEA
:1034C000900A08F0B3F91CEE901A18EE900A08F072
:1034D000ADF962232A4619EE100A00934FF4937156
:1034E0007223FEF775FD60235246514616980093ED
:1034F0007023FEF76DFD4FF07F40C4F83C775027F6
:103500001699C4F8400719EE100AA4F8449708F079
:103510008DF954233246179800971021FEF758FD75
:103520004FF07F400A49C4F8700719EE100AC4F83A
:103530007417A4F87897179908F078F94246049818
:103540002421FFF7D7F807E06366EDFFE8010208E2
:103550008B6543FFAE894EFF4FF0FF30C14AC4F880
:10356000AC071EA8A4F8B057014604981E92ADF807
:103570007CB00AF086F8049919EE100A08F056F9A2
:10358000424605982421FFF7B5F84FF0FF30B54AC1
:10359000C4F8E8071EA884F8DD570146A4F8EC57E4
:1035A00005981E92ADF87C600AF06BF8059919EE4B
:1035B000100A08F03BF919EE101A18EE900A08F0FC
:1035C00035F962202A46752300902A2119EE900AC7
:1035D000FEF7FEFC60205246514600907323189877
:1035E000FEF7F6FCA04B4FF07F401899C4F848381E
:1035F000C4F84C0819EE900AA4F8509808F016F98F
:1036000059233246199800971021FEF7E1FC4FF03C
:103610007F409649C4F87C0819EE900AC4F88018D7
:10362000A4F88498199908F001F9424606981D21DA
:10363000FFF760F84FF0FF3106238A4F0698C4F871
:10364000B8181EA9A4F8BC58ADF87C301E970AF033
:1036500018F8069919EE900A08F0E8F8424607981B
:103660001E21FFF747F84FF0FF324FF00B0C1EA959
:10367000C4F8F428079884F8E958A4F8F858ADF885
:103680007CC01E9709F0FDFF079919EE900A08F01B
:10369000CDF819EE901A18EE900A734E08F0C6F89D
:1036A00018EE901A1CEE100A08F0C0F814221DEE55
:1036B000100A8123009240217522FEF789FC112215
:1036C000812329461A9800924A46FEF781FC4FF062
:1036D0007F421A991DEE100AC4F85429C4F858699B
:1036E000A4F85C9908F0A2F85A4608980921FFF757
:1036F00001F84FF0FF331EA90898C4F89039A4F8D8
:1037000094591E97ADF87C9009F0BBFF08991DEE07
:10371000100A08F08BF88C2209985C21FEF7EAFF6A
:103720001EA90998ADF878A00AF048FA8D220A98E7
:1037300040F23511FEF7DEFF1EA90A98ADF878A019
:103740000AF03CFA0B988C225C21FEF7D3FF1EAAEC
:103750001DA90B98ADF87490ADF878A009F0D1FFD1
:103760000E9B8C220C9840F23511C4F81C3AFEF7DF
:10377000C1FF1EAA1DA90C98ADF87490ADF878A0F1
:1037800009F0BFFF0E9B1DEE900A752240F21B113F
:10379000C4F8503A142300938123FEF719FC112337
:1037A0004A4629461B9800938123FEF711FC4FF0EF
:1037B0007F431B991DEE900AC4F8B03AC4F8B46A6E
:1037C0004FF00406A4F8B89A08F030F85A460D985D
:1037D0000F21FEF78FFF4FF0FF331EA90D98C4F89D
:1037E000EC3AA4F8F05A251D1E97ADF87C6009F05C
:1037F00048FF0D991DEE900A08F018F81AEE901A7D
:10380000284608F013F81EEE101A284608F00EF8A5
:103810001AEE101A284608F009F81CEE101A28466D
:1038200008F004F81DEE101A284607F0FFFF09996A
:10383000284607F0FBFF0A99284607F0F7FF0B9987
:10384000284607F0F3FF0C99284607F0EFFF2846BB
:103850001DEE901A07F0EAFF204621B0BDEC108B58
:10386000BDE8F08FE80102086366EDFF8B6543FF5A
:103870007047000030B5154D8DB02C68BFF35B8FDD
:1038800014F001041ED128461BF028F8D0B13F23C4
:1038900001220F4907930F4B0F4806930F4B0894D3
:1038A00003940094CDE904430423CDE90944CDE910
:1038B00001321423FEF7B2FE09481BF059F82846DE
:1038C0001BF018F804480DB030BD00BFD01D002417
:1038D000EC070090BC3C0208D41D0024D03C020838
:1038E000713800087047000030B5154D8DB02C6858
:1038F000BFF35B8F14F001041ED128461AF0EEFFCF
:10390000D0B13F2301220F4907930F4B0F48069375
:103910000F4B089403940094CDE904430423CDE9AC
:103920000944CDE901322823FEF778FE09481BF04F
:103930001FF828461AF0DEFF04480DB030BD00BF66
:10394000FC1D0024FC070090C03C0208001E00245F
:10395000D43C0208E53800087047000030B5164D29
:103960008DB02C68BFF35B8F14F0010420D1284682
:103970001AF0B4FFE0B13F23042210490793104B23
:1039800010480693104B089405930123CDE9034397
:1039900002930223CDE90944CDE900320A231A2219
:1039A000FEF73CFE09481AF0E3FF28461AF0A2FF92
:1039B00004480DB030BD00BF281E00240C08009044
:1039C000C43C02082C1E0024D83C020859390008C7
:1039D0007047000030B5164D8DB02C68BFF35B8F7B
:1039E00014F0010420D128461AF078FFE0B13F23FB
:1039F000042210490793104B10480693104B08946B
:103A000005930123CDE9034302930223CDE9094441
:103A1000CDE900320C231522FEF700FE09481AF00A
:103A2000A7FF28461AF066FF04480DB030BD00BF5E
:103A3000541E002478090090C83C0208581E002437
:103A4000DC3C0208D13900087047000030B5164D43
:103A50008DB02C68BFF35B8F14F0010420D1284691
:103A60001AF03CFFE0B13F23042210490793104BAA
:103A700010480693104B089405930123CDE90343A6
:103A800002930223CDE90944CDE90032082316222E
:103A9000FEF7C4FD09481AF06BFF28461AF02AFF0A
:103AA00004480DB030BD00BF801E0024A00A009065
:103AB000CC3C0208841E0024E03C0208493A00087D
:103AC00000207047002070470EB403B503AB0021FF
:103AD00053F8042B01930CF037FC02B05DF804EBB3
:103AE00003B070470CB407B504AB53F8042B019333
:103AF0000CF02AFC03B05DF804EB02B07047000044
:103B0000436C10B5044673B3038F2BB9184BC02117
:103B1000184A19481AF00EFFC38E00EB43035B8C62
:103B20000BB30DF0D5FF238F012B03D8134BC52109
:103B3000134AEEE7E28E40F63F10531C9BB2092B6E
:103B4000194688BFA3F10A0104EB4101498C814267
:103B500009D10A2B04EB420228BF0023508C04EB4E
:103B60004303588451842046BDE810400DF094BEB4
:103B7000680A0208710A02081C0B0208740B02088A
:103B8000820B02080DF040BE10B586B002AC84E88E
:103B900006001A460AAB214605930193099B009340
:103BA000089B0BF09FF806B010BD000038B518BB9D
:103BB000124B13481C681349B4B1226822440260B6
:103BC000626822440A60A26814440F4B00221A80E3
:103BD00000F038F8054600F033F80C4B1C600C4B35
:103BE0001D600C4B188007E00B4B03600B4B0B6008
:103BF0000B4B1C68002CE8D138BD00BFAC1E002464
:103C0000B01E0024B41E0024B81E00241CB90024D9
:103C100024B9002420B90024040C0090D40B009097
:103C2000EC0D0090044B1B6853F82100034B1B68FC
:103C300003EB4000704700BFB41E0024B01E0024F8
:103C40000C20704700487047BC1E002410B5084C7B
:103C5000FFF710FE2060FFF747FE6060FFF7F6FEFB
:103C6000A060FFF77BFEE060FFF7B4FE206110BDAF
:103C7000BC1E0024704710B504464FF4AC711AF016
:103C80002BFE204610BD10B50446D0F8540100F0BC
:103C9000B3F92046BDE810400BF082BB10B50446D6
:103CA000FEF72EFC014B2046236010BD5C0C020881
:103CB000704704387047704710B5044610211AF059
:103CC0000BFE204610BDA0F10400F5E70022C16004
:103CD0008260044A10B502F1080420320460426098
:103CE00010BD00BF980C020870477047FEF7C7BCB4
:103CF00010B504464FF470711AF0EEFD204610BD69
:103D000010B50446FEF780FD014B2046236010BD30
:103D1000C80C0208704704387047704710B5044655
:103D200010211AF0D9FD204610BDA0F10400F5E7DE
:103D30000022C1608260044A10B502F108042032FA
:103D40000460426010BD00BFF80C02087047704765
:103D500038B5204D044600F2F4706B7983F001030E
:103D60006B716B79AB716B7980F825300CF00EFCC0
:103D7000AB7904F6880084F8AD380CF007FCAB7919
:103D800004F6C40083F0010384F8E9380CF0FEFB6C
:103D90006B7904F6282084F84D3A0CF0F7FB6B7928
:103DA00004F6F41084F8193A0CF0F0FB6B7904F681
:103DB000C81083F0010384F8ED390CF0E7FB6B7950
:103DC00004F69C1083F0010384F8C139BDE8384043
:103DD0000CF0DCBB0C000024024B00F515701960E0
:103DE00007F028BA0C00002437B50E4B04460E4DE0
:103DF00000F515701B682968194421EAE1716429EE
:103E0000A8BF6421296007F015FA04F57E702968BF
:103E1000019007F05CFF019803B0BDE830400CF062
:103E2000B5BB00BFD01E00240C00002473B5314D7B
:103E300004462B79ABB9012680F8A13700F27C70DB
:103E400080F861600CF0A2FB04F5F7600CF09EFBBB
:103E500004F2F4403146019009F005FA01980CF0A3
:103E600095FB296804F5157007F0E4F904F57E70F8
:103E70002968019007F02BFF01980CF087FB6B7904
:103E800004F2F47084F819380CF080FBAB7904F676
:103E9000880084F8AD380CF079FBAB7904F6C400E7
:103EA00083F0010384F8E9380CF070FB6B7904F6B9
:103EB000282084F84D3A0CF069FB6B7904F6F41075
:103EC00084F8193A0CF062FB6B7904F6C81083F0A1
:103ED000010384F8ED390CF059FB6B7904F69C1062
:103EE00083F0010384F8C13902B0BDE870400CF0E2
:103EF0004DBB00BF0C00002410B5044640F618313D
:103F00001AF0EAFC204610BD38B50C4D0446AB79DA
:103F100093B1002300F6880080F82530AB710CF0D7
:103F200035FBAB7904F6C40083F0010384F8E9386B
:103F3000BDE838400CF02ABB38BD00BF0C0000249F
:103F400008B5054B1B682BB9044B8721044A05486B
:103F50001AF0F0FC008808BD54B90024200D0208B6
:103F60005C0D02088F0D0208F8B51B4E04460122B5
:103F700000F27C70337904F5F76583F00103337147
:103F800023B3002384F8A12784F8DD370CF0FEFA70
:103F900028460CF0FBFA04F22250FFF7D1FF054649
:103FA00004F5A56004F2F447FFF7CAFF2A1A337933
:103FB0005042504198420ED180F00101384609F03C
:103FC00052F93846BDE8F8400CF0E0BA84F8A13761
:103FD00084F8DD27DAE7F8BD0C00002410B50446AC
:103FE000FEF7DEFE014B2046236010BDEC0D0208FB
:103FF00000220260704700004FF40051304810B5B5
:1040000003F070FF2F4B00381A7818BF012082424E
:104010000DD02D4C187023782BB10BF0EDFA0368FE
:104020005721DB689847237883F001032370082128
:10403000264803F057FF264B00381A7818BF012096
:1040400082420DD0234C187023782BB10BF0D4FA98
:1040500003685921DB689847237883F001032370B4
:1040600002211D4803F03EFF1C4B00381A7818BF90
:10407000012082420DD01A4C187023782BB10BF01E
:10408000BBFA03685A21DB689847237883F0010361
:104090002370144A1448536A01888B420ED0536A25
:1040A000526A5B1A02801BB2104A13600BF0A4FA2A
:1040B00003685821DB68BDE81040184710BD00BFF9
:1040C00000080258D51E0024D41E002400180258EF
:1040D000DB1E0024DA1E002400280258D91E00240A
:1040E000D81E002400080040D61E0024D01E002444
:1040F00008B54FF0E0231B6901F02CFE012803D026
:10410000BDE8084000F0DEBB08BD0000EFF305830A
:104110002BB9064B186828B901221A6070476FF056
:10412000050070474FF0FF30704700BF8421002426
:1041300010B5EFF305845CB9084B1A68012A0AD15F
:10414000074AD47702221A6001F06EFB204610BDA8
:104150006FF00500FBE74FF0FF30F8E78421002403
:1041600000ED00E0F0B50B4687B000210591EFF3BC
:104170000584CCB9C0B16AB395698D4208BF1825D2
:10418000691EAC4637292AD85168C90727D4566911
:104190006EB1B4081168D2E9027E57B1BEF1A70F23
:1041A00002D9126902B1E6B9059807B0F0BD8024C2
:1041B000F0E7BEF1000FF7D11269002AF4D105AA89
:1041C000CDE900C2A2B201F001FB01281CBF00230F
:1041D0000593E9E711464FF0180C8024EFE72046DD
:1041E000E3E7CDE901270095224601F0B7FA0590F3
:1041F000DAE710B5EFF3058424B910B101F07CFCC7
:10420000204610BD6FF00500FBE7F7B504460E46EB
:104210001546EFF305821AB10024204603B0F0BD25
:104220000028F9D08842F7D3E5B1D5E90237BBB110
:104230004F2FF1D901282AD103210091114600F016
:10424000E9FC04460028E7D0DEB100231A461946EF
:1042500000F095FD012814D0204601F0D1F8DBE7ED
:10426000002FD9D1012C05D103220021204600F0D6
:104270001FFDE6E72046314600F063FD04460028B6
:10428000CAD055B92946204601F094F8C5E71A4628
:1042900000F035FD04460028BED02D68F2E713B5C6
:1042A0000C4608B3EFF30583B3B1E9B901AA019154
:1042B00001F030F8012814D1019B13B9002002B09D
:1042C00010BD4FF0E0234FF08052C3F8042DBFF330
:1042D0004F8FBFF36F8FF1E700F059FF0128EDD04A
:1042E0002CB96FF00200EAE76FF00300E7E76FF028
:1042F0000100E4E713B510B3EFF30583B3B1002475
:1043000001A9019400F050FE012815D1019B13B9B9
:10431000002002B010BD4FF0E0234FF08052C3F8F0
:10432000042DBFF34F8FBFF36F8FF1E71A46194685
:1043300000F025FD0128EBD06FF00200E9E76FF0F7
:104340000300E6E7F7B505460E461446EFF305878A
:104350001FB10025284603B0F0BD0028F9D0002980
:10436000F7D0DAB1D2E9023283B14F2AF1D922690A
:10437000002AEED04D436669AE42EAD3009700F0C2
:1043800049FC05460028E4D0246811E0002AE0D169
:104390002369002BDDD16369002BDAD12846002286
:1043A000314600F085FC05460028D2D0002CEBD128
:1043B0002146284600F0FEFFCCE773B51C46EFF31C
:1043C0000586C6B118B311B30BBB01AA019300F067
:1043D00089FD012818D1019B13B9002002B070BDDE
:1043E0004FF0E0234FF08052C3F8042DBFF34F8FFE
:1043F000BFF36F8FF1E750B149B13346224600F069
:10440000BEFC0128E9D02CB96FF00200E6E76FF09E
:104410000300E3E76FF00100E0E737B51C46EFF378
:104420000583C3B110B309B304BB01AA019400F022
:1044300071FF012817D1019B13B9002003B030BDD3
:104440004FF0E0234FF08052C3F8042DBFF34F8F9D
:10445000BFF36F8FF1E748B141B1224600F0F8FD9C
:104460000128EAD02CB96FF00200E7E76FF00300F3
:10447000E4E76FF00100E1E7034B0360034B0B60DF
:1044800080231360704700BFDC200024DC1E002462
:10449000034B0360034B0B604FF480731360704752
:1044A0008825002488210024104B10B51A461B686B
:1044B0008342FBD354681119884201BF41681046FA
:1044C00009195160446801198B420CD108490968E7
:1044D0008B4203D0596821444160196890420160C1
:1044E00018BF106010BD1946F8E700BF48A60024A9
:1044F000302600242DE9F041044601F0E5F9424957
:10450000424D0B680BBB424A5607424E1BBFD01DA3
:1045100002F500424FF4004320F007001CBF131ABD
:1045200002460020134432607060083B23F007030A
:10453000C3E90000981A0B60C2E90030364B1860DE
:10454000364B18604FF000432B602E68264255D141
:10455000002C46D004F1080360071CBF23F00703BA
:104560000833002B4AD02D4F3C689C4246D3294A41
:1045700015686868984204D2D5F800C0BCF1000FF5
:1045800015D10968A94239D02968D2F80080116094
:10459000C21A102A12D9E81841070BD04FF0500365
:1045A00083F31188BFF36F8FBFF34F8FFEE72A4667
:1045B0006546DEE742606B60FFF776FF6A680023BE
:1045C0001549A41A16430868154A84422B601368DB
:1045D0003C6003F1010338BF0C6008F108046E6011
:1045E000136001F015FA63070AD04FF0500383F30C
:1045F0001188BFF36F8FBFF34F8FFEE70024F0E702
:104600002046BDE8F08100BF3026002434A60024F7
:104610003426002448A600243CA6002438A6002402
:1046200040A6002410B5044690B31A4A50F8043C42
:104630001268134208D14FF0500383F31188BFF37F
:104640006F8FBFF34F8FFEE750F8081C41B14FF05A
:10465000500383F31188BFF36F8FBFF34F8FFEE7D3
:1046600023EA020340F8043C01F02EF90A4A54F808
:10467000043CA4F1080011680B441360FFF714FF19
:10468000064A13680133BDE81040136001F0C0B959
:1046900010BD00BF34A6002438A6002444A6002480
:1046A00000F108034FF0FF3243600361C0E90223C9
:1046B00000230360704700230361704743689A68D2
:1046C0004B608A609A6851609960036808610133A1
:1046D0000360704730B50C68631C0AD103695A68DF
:1046E0004A6091608B605960036808610133036020
:1046F00030BD00F10802134652681568A542FAD988
:10470000EDE70369D0E901128A605160596881427E
:1047100008BF5A60002202611A68013A1A601868DC
:104720007047000008480068006880F308884FF070
:10473000000080F3148862B661B6BFF34F8FBFF3F9
:104740006F8F00DF00BF000008ED00E0DFF80C0015
:10475000016841F4700101607047000088ED00E0DD
:10476000002382B001930D4B1B68013308D04FF03A
:10477000500383F31188BFF36F8FBFF34F8FFEE7B2
:104780004FF0500383F31188BFF36F8FBFF34F8F48
:10479000019B002BFCD002B0704700BF1400002426
:1047A0004FF0807321F0010140F8202C443803645D
:1047B000034BC16383636FF002030362704700BF62
:1047C0006147000800000000000000000000000039
:1047D000074B19680868B0E8F04F80F30988BFF309
:1047E0006F8F4FF0000080F311887047AFF30080A7
:1047F00098A600244FF0500383F31188BFF36F8F06
:10480000BFF34F8F0A4A13680133012B13600ED197
:104810004FF0E023D3F8043DDBB243B14FF0500337
:1048200083F31188BFF36F8FBFF34F8FFEE770479D
:1048300014000024084A136843B94FF0500383F36F
:104840001188BFF36F8FBFF34F8FFEE7013B1360FB
:104850000BB983F311887047140000240000000096
:10486000EFF30980BFF36F8F154B1A681EF0100F1E
:1048700008BF20ED108A20E9F04F10602DE90900F3
:104880004FF0500080F31188BFF34F8FBFF36F8F4D
:1048900001F056F94FF0000080F3118809BC196847
:1048A0000868B0E8F04F1EF0100F08BFB0EC108A97
:1048B00080F30988BFF36F8F704700BFAFF30080AC
:1048C00098A6002408B54FF0500383F31188BFF376
:1048D0006F8FBFF34F8F01F005F828B14FF0E02341
:1048E0004FF08052C3F8042D002383F3118808BDD4
:1048F0004FF0E02200234FF47A7113619361044B6F
:104900001B68B3FBF1F3013B53610723136170474D
:10491000180000244FF0E02337B5D3F8001D3A4AC1
:10492000914208D14FF0500383F31188BFF36F8F8A
:10493000BFF34F8FFEE7D3F8002D344B9A4208D1D6
:104940004FF0500383F31188BFF36F8FBFF34F8F86
:10495000FEE72F4B00211A78D2B20192FF221A7083
:104960001B782C4ADBB28DF803309DF8033003F03E
:10497000500313700723284A13609DF803005C1E40
:1049800000060CD411B1032B136011D04FF050036B
:1049900083F31188BFF36F8FBFF34F8FFEE79DF84E
:1049A000033001215B00DBB28DF803302346E4E7DE
:1049B0004FF440734FF0E02400251360019B144A2C
:1049C000DBB21370D4F8203D43F47003C4F8203DEB
:1049D000D4F8203D43F07043C4F8203DFFF788FF32
:1049E0000E4B1D60FFF7B2FED4F8343F43F0404356
:1049F000C4F8343FFFF796FE01F0A2F82846FFF70F
:104A0000AFFE03B030BD00BF71C20F4170C20F4195
:104A100000E400E050A6002454A600241400002462
:104A2000EFF305830F2B0ED9114A9B5C114A1278C4
:104A30009A4208D94FF0500383F31188BFF36F8F68
:104A4000BFF34F8FFEE74FF0E0230B4AD3F80C3D46
:104A5000126803F4E063934208D94FF0500383F3E4
:104A60001188BFF36F8FBFF34F8FFEE7704700BF12
:104A7000F0E300E050A6002454A6002410B504463C
:104A8000FFF7B8FEA46BFFF7D5FEB4FA84F0400937
:104A900010BDF8B51546026C0446866B52B907681E
:104AA00047BB806801F0A6F90546A7600136284695
:104AB000A663F8BD65B940681AF067FA6368226CAE
:104AC0001344A26893426360F0D323686360EDE708
:104AD000C0681AF05AFA226CE36851429B1A2268A5
:104AE0009342E3603EBFA3685B18E360022D01D1EF
:104AF00016B1013E0025D9E73546D7E703460846FB
:104B00001A6C10B462B1DC68996814448C42DC60A1
:104B10005DF8044B24BF1968D960D9681AF035BA1A
:104B20005DF8044B704770B50446FFF763FE94F8D8
:104B3000455004F124066DB2002D14DCFF2304F16E
:104B4000100684F84530FFF775FEFFF753FE94F822
:104B500044506DB2002D12DCFF2384F84430BDE8D0
:104B60007040FFF767BE636A002BE7D0304601F064
:104B70005FF808B101F0E8F8013D6DB2DCE72369A8
:104B8000002BE9D0304601F053F808B101F0DCF811
:104B9000013D6DB2DEE738B50D46044640B94FF031
:104BA000500383F31188BFF36F8FBFF34F8FFEE77E
:104BB000FFF720FE2268D4E90F3162604B43D01822
:104BC0005B1AA0601A440020FF23E260A06384F80F
:104BD000443084F84530A5B9236973B104F110005D
:104BE00001F026F848B14FF0E0234FF08052C3F8AF
:104BF000042DBFF34F8FBFF36F8FFFF71BFE012014
:104C000038BD04F11000FFF74BFD04F12400FFF75D
:104C100047FDF2E713B51C4640B94FF0500383F34C
:104C20001188BFF36F8FBFF34F8FFEE743B94FF08B
:104C3000500383F31188BFF36F8FBFF34F8FFEE7ED
:104C40004AB191B94FF0500383F31188BFF36F8FCE
:104C5000BFF34F8FFEE741B14FF0500383F311884C
:104C6000BFF36F8FBFF34F8FFEE750230193019B7C
:104C7000502B08D04FF0500383F31188BFF36F8F90
:104C8000BFF34F8FFEE7002908BF2246019B012397
:104C9000226084F84630C4E90F0119462046FFF728
:104CA0007AFF9DF81030204684F84C3002B010BDD9
:104CB000F8B50D461746064640B94FF0500383F34A
:104CC0001188BFF36F8FBFF34F8FFEE7484350301B
:104CD000FFF710FC044670B1002380F8463065B140
:104CE00000F15003012120462360C4E90F65FFF75E
:104CF00052FF84F84C702046F8BD0346F2E713B526
:104D000013460C4640B94FF0500383F31188BFF3AC
:104D10006F8FBFF34F8FFEE7884208D24FF05003EA
:104D200083F31188BFF36F8FBFF34F8FFEE702222B
:104D3000009200221146FFF76DFF00B1846302B0BC
:104D400010BD10B50C4640B94FF0500383F31188E5
:104D5000BFF36F8FBFF34F8FFEE7884208D24FF04B
:104D6000500383F31188BFF36F8FBFF34F8FFEE7BC
:104D700002220021FFF79CFF00B1846310BD2DE9E2
:104D8000F04385B088461F460446019240B94FF073
:104D9000500383F31188BFF36F8FBFF34F8FFEE78C
:104DA00051B9036C43B14FF0500383F31188BFF343
:104DB0006F8FBFF34F8FFEE7022F0BD1E36B012BF9
:104DC00008D04FF0500383F31188BFF36F8FBFF308
:104DD0004F8FFEE700F0BEFF064650B9019B4BB176
:104DE0004FF0500383F31188BFF36F8FBFF34F8FE2
:104DF000FEE700264FF0000937E0019D1DB9FFF7DF
:104E000019FD002052E016B902A800F055FFFFF787
:104E100011FD00F059FDFFF7EDFC94F84430FF2B35
:104E200001D184F8449094F84530FF2B01D184F8E7
:104E30004590FFF7FFFC01A902A800F049FF0028F8
:104E40004AD1FFF7D7FCA26BE36B9A4231D1FFF74F
:104E5000F1FC019904F1100000F0B2FE2046FFF7CA
:104E600062FE00F0D5FD60B30126FFF7C3FCA26B24
:104E7000E36B9A4201D3022FBFD13A464146204606
:104E8000FFF707FE636A1BB104F1240000F0D0FEB7
:104E900048B14FF0E0234FF08052C3F8042DBFF328
:104EA0004F8FBFF36F8FFFF7C5FC012005B0BDE842
:104EB000F083FFF7BFFC2046FFF735FE00F0A8FDAA
:104EC000D2E74FF0E0234FF08052C3F8042DBFF338
:104ED0004F8FBFF36F8FC7E72046FFF724FE00F028
:104EE00097FD8EE72DE9F843894690461F46044614
:104EF00040B94FF0500383F31188BFF36F8FBFF3B6
:104F00004F8FFEE751B9036C43B14FF0500383F369
:104F10001188BFF36F8FBFF34F8FFEE7022F0BD1C6
:104F2000E36B012B08D04FF0500383F31188BFF3DC
:104F30006F8FBFF34F8FFEE7FFF772FDEFF3118620
:104F40004FF0500383F31188BFF36F8FBFF34F8F80
:104F5000A26BE36B9A4201D3022F23D194F8455000
:104F60003A46494620466DB2A36BFFF792FD6B1C93
:104F700013D1636A0BB901200BE004F1240000F0A7
:104F800057FE0028F7D0B8F1000FF4D00120C8F880
:104F9000000086F31188BDE8F88301356DB284F80E
:104FA0004550E8E70020F4E770B50D46044640B9E7
:104FB0004FF0500383F31188BFF36F8FBFF34F8F10
:104FC000FEE7036C43B14FF0500383F31188BFF346
:104FD0006F8FBFF34F8FFEE7036853B9836843B108
:104FE0004FF0500383F31188BFF36F8FBFF34F8FE0
:104FF000FEE7FFF715FDEFF311864FF0500383F343
:105000001188BFF36F8FBFF34F8FA26BE36B934297
:105010001CD994F845100132FF294BB2A26310D17C
:10502000636A0BB9012009E004F1240000F000FEDE
:105030000028F7D0002DF5D00120286086F31188D4
:1050400070BD01335BB284F84530EBE70020F5E733
:105050002DE9FF410F460446019240B94FF050033D
:1050600083F31188BFF36F8FBFF34F8FFEE751B902
:10507000036C43B14FF0500383F31188BFF36F8F7C
:10508000BFF34F8FFEE700F065FE064650B9019B67
:105090004BB14FF0500383F31188BFF36F8FBFF311
:1050A0004F8FFEE700264FF000083DE0019D1DB93F
:1050B000FFF7C0FB002056E016B902A800F0FCFD87
:1050C000FFF7B8FB00F000FCFFF794FB94F84430C6
:1050D000FF2B01D184F8448094F84530FF2B01D197
:1050E00084F84580FFF7A6FB01A902A800F0F0FDB7
:1050F000002841D12046FFF7C1FCB8B3019904F163
:10510000240000F05DFD2046FFF70DFD00F080FC5F
:1051100048B94FF0E0234FF08052C3F8042DBFF39D
:105120004F8FBFF36F8F0126FFF764FBA56B002D38
:10513000BCD0013D39462046FFF7E0FCA56323695A
:1051400073B104F1100000F073FD48B14FF0E0239B
:105150004FF08052C3F8042DBFF34F8FBFF36F8F12
:10516000FFF768FB012004B0BDE8F0812046FFF79F
:10517000DAFC00F04DFCD6E72046FFF7D4FC00F047
:1051800047FC2046FFF77AFC0028CCD092E7F0B528
:1051900085B00446019140B94FF0500383F3118864
:1051A000BFF36F8FBFF34F8FFEE7056C45B14FF034
:1051B000500383F31188BFF36F8FBFF34F8FFEE768
:1051C00000F0C8FD064650B9019B5BB14FF050039B
:1051D00083F31188BFF36F8FBFF34F8FFEE72E4627
:1051E000002753E00546FBE7019B63B945B14FF04B
:1051F000500383F31188BFF36F8FBFF34F8FFEE728
:10520000FFF718FB62E016B902A800F055FDFFF7A2
:1052100011FB00F059FBFFF7EDFA94F84430FF2B37
:1052200001D184F8447094F84530FF2B01D184F803
:105230004570FFF7FFFA01A902A800F049FD002818
:105240004DD12046FFF71AFC002842D023683BB915
:10525000FFF7D0FAA06800F08DFD0546FFF7EAFAE7
:10526000019904F1240000F0ABFC2046FFF75BFC41
:1052700000F0CEFB48B94FF0E0234FF08052C3F866
:10528000042DBFF34F8FBFF36F8F0126FFF7B2FAE4
:10529000A36B002BA8D0013BA363236813B900F0D4
:1052A0003FFEA060236973B104F1100000F0C0FC60
:1052B00048B14FF0E0234FF08052C3F8042DBFF304
:1052C0004F8FBFF36F8F0125FFF7B4FA284605B063
:1052D000F0BD2046FFF727FC00F09AFBD5E72046FB
:1052E000FFF721FC00F094FB2046FFF7C7FB0028E6
:1052F000CBD0002DEAD0FFF77DFA616A19B1236B9C
:105300001968C1F13801A068002500F0B7FDFFF76A
:1053100091FADBE72DE9F84389469046054640B906
:105320004FF0500383F31188BFF36F8FBFF34F8F9C
:10533000FEE751B9036C43B14FF0500383F311887A
:10534000BFF36F8FBFF34F8FFEE7FFF769FBEFF3FC
:1053500011874FF0500383F31188BFF36F8FBFF3B2
:105360004F8FAC6B1CB395F8446049462846013C0E
:1053700076B2FFF7C3FBAC63731C13D12B690BB977
:1053800001200BE005F1100000F052FC0028F7D0DE
:10539000B8F1000FF4D00120C8F8000087F311889D
:1053A000BDE8F883013676B285F84460E8E7204628
:1053B000F4E700000023074A10B552F833402CB937
:1053C00042F8331002EBC302506010BD0133082BCA
:1053D000F3D1FAE758A600240023084A10B502EBDF
:1053E000C3014C68844204D1002042F83300486075
:1053F00010BD0133082BF2D1FAE700BF58A60024F4
:1054000010B5044640B94FF0500383F31188BFF341
:105410006F8FBFF34F8FFEE7FFF7DEFF94F8463044
:1054200023B92046BDE81040FFF7FCB810BD70B5A9
:1054300004460D461646FFF7DDF994F84430FF2B7D
:1054400002D1002384F8443094F84530FF2B02D178
:10545000002384F84530FFF7EDF9A36B2BB93246F2
:10546000294604F1240000F0C5FB2046BDE8704049
:10547000FFF759BB2DE9F0410446FFF7BBF92F4B6D
:105480002F4E1A682F4F01321A603568002D4AD10D
:1054900034601B68012B1FD1B84601354046FFF729
:1054A000FFF808F11408382DF7D1DFF8C080264D39
:1054B0004046FFF7F5F82846FFF7F2F82348FFF7D4
:1054C000EFF82348FFF7ECF82248FFF7E9F8224B02
:1054D000C3F80080214B1D60214A1368013313601B
:1054E000204A63641168E36A8B4200D91360142078
:1054F000211D00FB0370FFF7E1F8FFF79BF91A4B42
:105500001B6873B13368DA6AE36A9A4209D24FF0D2
:10551000E0234FF08052C3F8042DBFF34F8FBFF349
:105520006F8FBDE8F081104B1A68E36A002AD3D16F
:105530003268D26A9A42CFD83460CDE704AB0024F7
:1055400098A60024A4A600242CAB00244CAB002475
:1055500078AB002464AB00249CA60024A0A6002401
:1055600010AB002414AB002460AB002418AB002463
:10557000F8B5154B0646154D0F461C6828680430D3
:10558000FFF7BFF8731C07D137B129681048043101
:10559000BDE8F840FFF792B8A4192B685C6007D308
:1055A0000C4B18682968BDE8F8400431FFF792B841
:1055B000094B186829680431FFF78CF8074B1A6803
:1055C000A24200D91C60F8BD8CAB002498A6002430
:1055D00064AB0024A0A600249CA6002440AB0024B9
:1055E000064A13681968064B19B94FF0FF321A6062
:1055F00070471268D268D2685268F8E79CA6002407
:1056000040AB002410B50446543019F0E1FB94F887
:10561000A5303BB9206BFFF705F82046BDE81040E8
:10562000FFF700B8012BF8D0022B08D04FF0500341
:1056300083F31188BFF36F8FBFF34F8FFEE710BD69
:1056400080B5134C134F144D236873B9134B1B686B
:10565000012BF8D94FF0E0234FF08052C3F8042D0E
:10566000BFF34F8FBFF36F8FEDE7FFF7C3F8FB6812
:10567000DE68301DFFF745F82B68013B2B6023687F
:10568000013B2360FFF7D6F83046FFF7BBFFDBE7AF
:1056900008AB002478AB002404AB0024A4A60024AB
:1056A0002DE9F0474FEA820906460D46A5214A46F4
:1056B0001F46A9F10409DDE90984206B19F03FFBBD
:1056C000236B4B4423F00709002D41D06B1E04F1DE
:1056D00033020F3513F8011F02F8011F09B1AB4265
:1056E000F8D1002384F84330089D4FF0000A201DB4
:1056F000372DC4F850A028BF3725E562E564C5F111
:105700003805FEF7D8FF04F11800FEF7D4FF4C224D
:105710005146C4F8A0A004F154002461A56164625C
:1057200084F8A4A019F00BFB0B4B3146484603F15B
:105730006802A365D033E2653A462366FFF730F886
:105740002060B8F1000F01D0C8F80040BDE8F08734
:1057500084F83450C8E700BFD0B9002470B586B0D3
:10576000DDE90B5445B94FF0500383F31188BFF3C3
:105770006F8FBFF34F8FFEE744B94FF0500383F3B1
:105780001188BFF36F8FBFF34F8FFEE7A8260596F2
:10579000059EA82E08D04FF0500383F31188BFF365
:1057A0006F8FBFF34F8FFEE725630225059E84F8B8
:1057B000A55004AD029401950A9D0095FFF770FF76
:1057C0002046FFF757FE049806B070BD2DE9F04360
:1057D000074685B09000884616469946FEF78AFE31
:1057E0000546E8B1A820FEF785FE0446A8B10023CF
:1057F00005633246414680F8A5300D9B029038463D
:1058000001930C9B00934B46FFF74AFF2046FFF79E
:1058100031FE012005B0BDE8F0832846FEF702FF07
:105820004FF0FF30F6E7000010B588B0002407AA5B
:1058300006A905A8CDE90544FEF71EFE059B079ABB
:105840000293069B19491A48CDE900432346FFF706
:1058500085FF40B300F0C2FB012819D14FF050037F
:1058600083F31188BFF36F8FBFF34F8F114B124A31
:105870001B68543313604FF0FF32104B1A60104B0B
:105880001860104B1C6008B0BDE81040FFF742B82C
:10589000013008D14FF0500383F31188BFF36F8FAD
:1058A000BFF34F8FFEE708B010BD00BF2C0E0208FB
:1058B0004156000898A600242801002440AB00248B
:1058C00060AB00248CAB0024024A136801331360E0
:1058D000704700BF0CAB0024014B1868704700BF35
:1058E0008CAB00243F4B1B682DE9F74F002B72D186
:1058F0003D4B1D6801351D60BDB93C4B1A681268EF
:1059000042B14FF0500383F31188BFF36F8FBFF3A1
:105910004F8FFEE7364A1968106818601160354AE3
:10592000136801331360FFF75BFE334E0024334FDF
:105930003368DFF8D4809D4211D2D8F800301422A9
:10594000DB6A5343FB58022B2D4B1B6828BF0124F5
:10595000002B18BF0124204603B0BDE8F08FDFF80C
:105960008C90DFF8A8A0D9F800301B681BB94FF065
:10597000FF333360E1E7D9F80030DB68D3F80CB0CF
:10598000DBF80420954201D23260D6E70BF1040126
:1059900008460191FEF7B5FEDBF82820019922B1F7
:1059A0000BF11800FEF7ADFE0199DBF82C00DAF8D8
:1059B0000020904201D9CAF80000142303FB0070B4
:1059C000FEF77CFED8F80010DBF82C20CB6A9A4258
:1059D00028BF0124C7E70B4A002413680133136072
:1059E000B9E700BF0CAB00248CAB00249CA60024BC
:1059F000A0A6002444AB002440AB0024A4A60024AD
:105A000090AB002448AB002498A6002414AB0024DB
:105A1000F7B5314C236843B94FF0500383F3118835
:105A2000BFF36F8FBFF34F8FFEE7FEF7E3FE2368F0
:105A3000013B236024682CB10024FEF7FBFE2046C6
:105A400003B0F0BD254B1B68002BF5D0244D254E2F
:105A5000254F1EE0EB68DC6804F11800FEF751FEEC
:105A6000211D08460191FEF74CFEE36A3268019958
:105A7000934200D93360142000FB0370FEF71EFE32
:105A80001A4BE26A1B68DB6A9A4202D3184B012266
:105A90001A602B68002BDDD10CB1FFF7A1FD154D6D
:105AA0002C6844B1124E0127FFF71CFF00B137608C
:105AB000013CF9D12C600E4B1B68002BBCD04FF081
:105AC000E0234FF08052C3F8042DBFF34F8FBFF394
:105AD0006F8F0124B1E700BF0CAB002404AB00249E
