:020000040800F2
:10000000000008241D180008151600081B1600081B
:1000100021160008271600082D1600080000000011
:1000200000000000000000000000000071B10008A6
:100030003316000800000000C1B300083DA400080A
:100040006D1800086D1800086D1800086D1800087C
:100050006D1800086D1800086D1800086D1800086C
:100060006D1800086D1800086D1800086D1800085C
:100070006D1800086D1800086D1800086D1800084C
:100080006D1800086D1800086D1800086D1800083C
:100090006D1800086D1800086D1800086D1800082C
:1000A0006D1800086D1800086D1800086D1800081C
:1000B0006D1800086D1800086D1800086D1800080C
:1000C0006D1800086D1800086D1800086D180008FC
:1000D0006D1800086D1800086D1800086D180008EC
:1000E0006D1800086D180008000000006D18000869
:1000F0006D1800086D1800086D1800086D180008CC
:100100006D1800086D1800086D1800086D180008BB
:100110006D1800086D180008411600086D180008D9
:100120006D1800086D1800086D1800086D1800089B
:100130006D1800086D1800086D1800086D1800088B
:100140006D1800086D180008000000000000000095
:100150006D1800086D1800086D1800086D1800086B
:100160006D1800086D1800086D1800086D1800085B
:100170006D1800086D1800086D18000800000000D8
:100180006D1800086D1800086D1800086D1800083B
:100190006D1800086D1800086D1800086D1800082B
:1001A000551600086D180008691600086D1800083B
:1001B0007D1600086D1800086D1800086D180008FD
:1001C0006D1800086D1800086D1800086D180008FB
:1001D0006D1800086D1800086D1800086D180008EB
:1001E0006D1800086D1800086D1800086D180008DB
:1001F0006D1800086D1800086D1800086D180008CB
:100200006D1800086D1800086D1800086D180008BA
:100210006D1800086D1800086D1800086D180008AA
:100220006D1800086D1800086D1800080000000027
:100230006D1800086D1800086D1800086D1800088A
:100240006D1800086D1800086D1800086D1800087A
:100250006D1800086D1800086D1800086D1800086A
:100260006D1800086D1800086D1800086D1800085A
:100270006D1800086D1800086D1800086D1800084A
:100280006D1800086D1800086D18000800000000C7
:080290006D1800086D1800084C
:1002A00010B5054C237833B9044B13B10448AFF3B0
:1002B00000800123237010BD3401002400000000E1
:1002C000ACB1020808B5034B1BB103490348AFF3B7
:1002D000008008BD0000000038010024ACB1020815
:1002E00001F0FF01102A2BDB10F0070F08D010F8E7
:1002F000013B013A8B422DD010F0070F42B3F6D1EB
:10030000F0B441EA012141EA014122F007047FF003
:1003100000070023F0E80256083C85EA010586EA5A
:10032000010685FA47F5A3FA87F586FA47F6A5FA96
:1003300087F68EB9EED1F0BC01F0FF0102F00702A2
:1003400032B110F8013B013A83EA010313B1F8D14D
:100350000020704701387047002D06BF354603382E
:10036000073815F0010F07D1013015F4807F02BF67
:10037000013015F4C03F0130F0BC0138704700BFB8
:1003800080B586B000AF00F029FC6F4B5B6903F4C9
:100390000033002B1BD1BFF34F8F00BFBFF36F8F14
:1003A00000BF694B0022C3F85022BFF34F8F00BF3C
:1003B000BFF36F8F00BF644B5B69634A43F4003344
:1003C0005361BFF34F8F00BFBFF36F8F00E000BFDB
:1003D0005D4B5B6903F48033002B38D15A4B00220C
:1003E000C3F88420BFF34F8F00BF574BD3F8803042
:1003F0003B613B695B0BC3F30E03FB603B69DB08AE
:10040000C3F30903BB60FB685A0143F6E073134072
:10041000BA6892074C491343C1F86032BB685A1E50
:10042000BA60002BEFD1FB685A1EFA60002BE5D1B1
:10043000BFF34F8F00BF444B5B69434A43F48033A3
:100440005361BFF34F8F00BFBFF36F8F00E000BF5A
:100450004FF6FF737B6100BF3C4B1B6803F4004306
:10046000002B04D07B695A1E7A61002BF4DC10F05B
:1004700027F800F07DF8354BD3F8E030334A43F0ED
:100480000073C2F8E030314BD3F8E03003F0007372
:100490007B607B68002010F053FF0021002010F0EB
:1004A00069FF4FF6FF737B6100BF284B1B6803F4A5
:1004B0000043002B04D17B695A1E7A61002BF4DCC7
:1004C0007B69002B01DA00F0D3FB00F079FA00F031
:1004D000A1F900F01FFA00F019F900F0D7F800F0C8
:1004E000F7F800F0C5F901F0C2F9194B9A681849FC
:1004F000184B13408B60164B9B68154A43F003035F
:100500009360134B9A69124940F2011313438B61B4
:100510000F4B1B680E4A43F00103136009F0A8FF5C
:100520000D4A00210D4809F0EDFF03460C4A136007
:100530000C4A00210C4809F0E5FF03460B4A136002
:1005400009F0BAFFFEE700BF00ED00E000440258EA
:1005500000080040F8FFFEFFC4BF0208CD0B0008F2
:100560006CB80024E8BF02087B180008BCB900245E
:1005700080B59CB000AF07F124034C22002118463F
:1005800029F0B6FE3B1D20220021184629F0B0FEBE
:10059000042012F059FA00233B60394BDB6A384AD9
:1005A00023F00103D362364BDB6A03F001033B60A7
:1005B000344B9B69334A43F440439361314B9B690D
:1005C00003F440433B603B6800BF2E4B9B6903F440
:1005D0000053B3F5005FF8D12B4B9B6A23F0030364
:1005E000294A43F00203936203237B624FF4803372
:1005F000BB6201233B6340237B630223BB64022372
:10060000FB6405233B65A0237B650223BB650423B4
:10061000FB6502233B6608237B660023BB66002341
:10062000FB6607F12403184613F04AF90346002B32
:1006300001D000F01DFB3F237B600323BB60002340
:10064000FB6008233B6140237B614023BB614FF487
:100650008063FB6140233B623B1D0221184613F07F
:100660005BFD0346002B01D000F002FB4FF480221B
:100670000021002013F006FF00BF7037BD4680BD8B
:1006800000040058004802580044025880B500AFEA
:100690000D4B0E4A1A600C4B00221A710A4B0022B5
:1006A0005A71094B00225A61074B00229A61064B8E
:1006B00001221A62044810F0F9F80346002B01D019
:1006C00000F0D6FA00BF80BDBCB80024004C025830
:1006D00080B500AF0B4B0C4A1A600A4B4FF4403206
:1006E0005A60084B02229A60064B0022DA600548E5
:1006F00010F0C6F90346002B01D000F0B9FA00BF94
:1007000080BD00BFC0B900240010005280B58EB07B
:1007100000AF00F0B3FA3B1D34220021184629F047
:10072000E7FD3A4B3A4A1A60384B00225A60374B81
:1007300000229A60354B0022DA60344B00221A61A5
:10074000324B28225A61314B09229A612F4B3522B4
:10075000DA612E4B0B221A622C4B40F215225A62A0
:100760002A4B40F21B129A62284B40F23522DA6281
:10077000264B40F21D121A63244B002283F83420CA
:10078000224B002283F83520204B002283F83620AC
:100790001E4811F05DFC0346002B01D000F068FA02
:1007A00000237B604FF4F073BB600023FB604FF4C9
:1007B00088733B6102237B61FF23BB610023FB61E4
:1007C0004FF480633B6205237B624FF05043BB6272
:1007D0004FF4F073FB624FF488733B63002387F898
:1007E0003430002387F83530002387F836303B1D3E
:1007F00000221946054811F0B3FD0346002B01D035
:1008000000F036FA00BF3837BD4680BDE0B800249E
:100810000010005080B500AF124B134A1A60114B04
:1008200001225A600F4B01229A600E4B1022DA60AF
:100830000C4B1A221A610B4B4FF400725A61094B90
:1008400000229A61074B40221A62064812F056F9BC
:100850000346002B01D000F00BFA044800F082FAA6
:1008600000BF80BD28BA002400500052710C00085F
:1008700080B588B000AF07F10C0300221A605A60FF
:100880009A60DA601A613B4600221A605A609A60E8
:100890001E4B1F4A1A601D4B00225A601B4B002240
:1008A0009A601A4B4FF6FF72DA60184B00221A61F9
:1008B000164B00229A61154815F0BFF90346002B2C
:1008C00001D000F0D5F90723FB6040233B610023F2
:1008D000FB6107F10C0319460C4815F09CFB03461D
:1008E000002B01D000F0C4F900233B600023BB6063
:1008F0003B461946054815F0FDFD0346002B01D087
:1009000000F0B6F900BF2037BD4680BD70B80024A6
:100910000008004080B588B000AF3B1D00221A607F
:100920005A609A60DA601A615A619A61214B224AD0
:100930001A60204B01225A601E4B00229A601D4B08
:100940000422DA601B4B10221A611A4B40225A61B2
:10095000184B4FF480729A61164B0022DA61154BE6
:100960004FF400621A62134B4FF480525A62114BDB
:1009700000229A6202237B600623BB600423FB6093
:1009800006233B6102237B610223BB610223FB61DF
:100990003B1D1946074815F09BF80346002B01D074
:1009A00000F066F9054800F0FEF900BF2037BD46AB
:1009B00080BD00BF88B9002440410052710C00087E
:1009C00080B590B000AF07F12C0300221A605A6086
:1009D0009A60DA601A61774BD3F8E030754A43F4D5
:1009E0008063C2F8E030734BD3F8E03003F48063E7
:1009F000BB62BB6A6F4BD3F8E0306E4A43F04003F2
:100A0000C2F8E0306B4BD3F8E03003F040037B6278
:100A10007B6A684BD3F8E030664A43F48073C2F8CF
:100A2000E030644BD3F8E03003F480733B623B6A00
:100A3000604BD3F8E0305F4A43F01003C2F8E03077
:100A40005C4BD3F8E03003F01003FB61FB69594BBA
:100A5000D3F8E030574A43F40073C2F8E030554B06
:100A6000D3F8E03003F40073BB61BB69514BD3F89A
:100A7000E030504A43F00803C2F8E0304D4BD3F861
:100A8000E03003F008037B617B694A4BD3F8E03028
:100A9000484A43F00403C2F8E030464BD3F8E03054
:100AA00003F004033B613B69424BD3F8E030414A19
:100AB00043F00103C2F8E0303E4BD3F8E03003F0DE
:100AC0000103FB60FB683B4BD3F8E030394A43F04D
:100AD0002003C2F8E030374BD3F8E03003F02003B6
:100AE000BB60BB68334BD3F8E030324A43F080033D
:100AF000C2F8E0302F4BD3F8E03003F080037B6086
:100B00007B68002240212C4810F000FC0823FB6287
:100B100000233B6300237B6307F12C03194627481E
:100B200010F022F94FF40053FB6200233B630023D3
:100B30007B6307F12C031946214810F015F94FF497
:100B40008073FB6202233B6300237B630023BB6350
:100B50000023FB6307F12C031946174810F004F932
:100B60000823FB6200233B6301237B6307F12C0313
:100B70001946144810F0F8F80223FB6200233B6387
:100B800001237B6307F12C0319460F4810F0ECF8A2
:100B90004023FB6201233B6300237B630023BB6391
:100BA00007F12C031946044810F0DEF800BF403767
:100BB000BD4680BD00440258000002580020025883
:100BC00000080258001802580028025880B582B068
:100BD00000AF7860012009F027FDFBE780B584B005
:100BE00000AF3B4600221A605A609A60DA600FF04C
:100BF000E1FD01233B7000237B704FF050437B608D
:100C000013233B7200237B720023BB720323FB720E
:100C100001233B7300237B730123BB730123FB730D
:100C20003B4618460FF0FEFD01237B704FF010434A
:100C30007B601A233B723B4618460FF0F3FD0420FD
:100C40000FF0D0FD00BF1037BD4680BD80B582B02B
:100C500000AF78607B681B68044A934201D10FF0B3
:100C60006BFC00BF0837BD4680BD00BF00100040D0
:100C700080B400AF72B600BFFEE7000080B58CB054
:100C800000AF364BD3F8E430344A43F00803C2F8DF
:100C9000E430324BD3F8E43003F00803BB61BB69A6
:100CA0002E4BD3F8E0302D4A43F48073C2F8E03085
:100CB0002A4BD3F8E03003F480737B617B69274BC8
:100CC000D3F8E030254A43F40073C2F8E030234BF8
:100CD000D3F8E03003F400733B613B691F4BD3F85A
:100CE000E0301E4A43F48063C2F8E0301B4BD3F877
:100CF000E03003F48063FB60FB68184BD3F8E0300E
:100D0000164A43F08003C2F8E030144BD3F8E030C9
:100D100003F08003BB60BB68104BD3F8E0300F4A90
:100D200043F00803C2F8E0300C4BD3F8E03003F096
:100D300008037B607B688023FB6101233B6207F132
:100D40001C031946064810F00FF8012280210448C0
:100D500010F0DCFA00BF3037BD4680BD00440258B9
:100D6000000C025880B584B000AF786003233B7359
:100D700001237B734023BB7307F10C03194600204A
:100D80000EF058FB0346002B01D07B6898470020EB
:100D90000EF02AFC0346002B01D07B68984700BF69
:100DA0001037BD4680BD80B582B000AF78600020AE
:100DB0000EF088FF00200EF029FF0346002B01D023
:100DC0007B68984700BF0837BD4680BD80B582B0BC
:100DD00000AF0C4BD3F8F4300A4A43F00203C2F8D8
:100DE000F430084BD3F8F43003F002037B607B68E7
:100DF00000220F216FF001000FF0A6FC00BF0837A2
:100E0000BD4680BD0044025880B485B000AF786014
:100E10007B681B680B4A93420ED10B4BD3F8E03032
:100E2000094A43F40023C2F8E030074BD3F8E0301E
:100E300003F40023FB60FB6800BF1437BD465DF878
:100E4000047B7047004C02580044025880B584B0BF
:100E500000AF78607B681B680E4A934216D10E4B38
:100E6000D3F8D4300C4A43F01003C2F8D4300A4B04
:100E7000D3F8D43003F01003FB60FB680022052197
:100E80005A200FF061FC5A200FF078FC00BF103799
:100E9000BD4680BD001000520044025880B5BCB071
:100EA00000AF786007F1DC0300221A605A609A6094
:100EB000DA601A6107F12003BC220021184629F0EC
:100EC00017FA7B681B68684A934240F0C8804FF06D
:100ED00000533B6205237B64A023BB640223FB64B5
:100EE00002233B6553237B654FF40063BB650023FE
:100EF000FB6500233B6607F12003184613F044FD11
:100F00000346002B01D0FFF7B3FE584BD3F8E43073
:100F1000564A43F00803C2F8E430544BD3F8E430A7
:100F200003F00803FB61FB69504BD3F8E0304F4AF4
:100F300043F48063C2F8E0304C4BD3F8E03003F464
:100F40008063BB61BB69494BD3F8E030474A43F447
:100F50008073C2F8E030454BD3F8E03003F480737F
:100F60007B617B69414BD3F8E030404A43F4007326
:100F7000C2F8E0303D4BD3F8E03003F400733B613E
:100F80003B693A4BD3F8E030384A43F08003C2F86B
:100F9000E030364BD3F8E03003F08003FB60FB68B1
:100FA000FC23C7F8DC300223C7F8E0300023C7F881
:100FB000E4300223C7F8E8300E23C7F8EC3007F11D
:100FC000DC0319462A480FF0CFFE4DF20323C7F881
:100FD000DC300223C7F8E0300023C7F8E4300223F6
:100FE000C7F8E8300E23C7F8EC3007F1DC031946E8
:100FF00020480FF0B9FE4FF6FB73C7F8DC30022330
:10100000C7F8E0300023C7F8E4300223C7F8E8301F
:101010000E23C7F8EC3007F1DC03194616480FF031
:10102000A3FE4FF40073C7F8DC300223C7F8E030AA
:101030000023C7F8E4300223C7F8E8300E23C7F8CE
:10104000EC3007F1DC0319460C480FF08DFE00224E
:10105000052158200FF078FB58200FF08FFB00BFC0
:10106000F037BD4680BD00BF00100050004402585C
:10107000002802580020025800240258001C025880
:1010800080B5BCB000AF786007F1DC0300221A60C5
:101090005A609A60DA601A6107F12003BC220021CD
:1010A000184629F025F97B681B68764A934240F080
:1010B000E4804FF000733B620023BB6607F120031E
:1010C000184613F061FC0346002B01D0FFF7D0FD5A
:1010D0006D4BD3F8D4306C4A43F48043C2F8D4301B
:1010E000694BD3F8D43003F48043FB61FB69664B52
:1010F000D3F8E030644A43F04003C2F8E030624B7A
:10110000D3F8E03003F04003BB61BB695E4BD3F81A
:10111000E0305D4A43F02003C2F8E0305A4BD3F888
:10112000E03003F020037B617B69574BD3F8E0305C
:10113000554A43F08003C2F8E030534BD3F8E03017
:1011400003F080033B613B694F4BD3F8E0304E4ADC
:1011500043F00803C2F8E0304B4BD3F8E03003F023
:101160000803FB60FB684FF48443C7F8DC300223BC
:10117000C7F8E0300023C7F8E4300323C7F8E830AD
:101180000923C7F8EC3007F1DC0319463F480FF09C
:10119000EBFD4023C7F8DC300223C7F8E030012321
:1011A000C7F8E4300323C7F8E8300A23C7F8EC3067
:1011B00007F1DC03194635480FF0D6FD4FF498636C
:1011C000C7F8DC300223C7F8E0300023C7F8E4306A
:1011D0000323C7F8E8300923C7F8EC3007F1DC0334
:1011E00019462B480FF0C0FD4FF40073C7F8DC30F0
:1011F0000223C7F8E0300023C7F8E4300323C7F820
:10120000E8300A23C7F8EC3007F1DC031946204820
:101210000FF0AAFD0C23C7F8DC300223C7F8E0303A
:101220000023C7F8E4300323C7F8E8300923C7F8E0
:10123000EC3007F1DC03194616480FF095FD4FF42A
:101240000063C7F8DC300223C7F8E0300023C7F89A
:10125000E4300323C7F8E8300923C7F8EC3007F17E
:10126000DC0319460C480FF07FFD002205215C20AD
:101270000FF06AFA5C200FF081FA00BFF037BD462C
:1012800080BD00BF005000520044025800180258B0
:1012900000140258001C0258000C025880B58AB095
:1012A00000AF786007F1140300221A605A609A6058
:1012B000DA601A617B681B681A4A93422DD11A4B77
:1012C000D3F8E830184A43F00403C2F8E830164B6C
:1012D000D3F8E83003F004033B613B69124BD3F8C9
:1012E000E030114A43F00203C2F8E0300E4BD3F86D
:1012F000E03003F00203FB60FB68C0237B61022344
:10130000BB610123FB6100233B6202237B6207F187
:101310001403194605480FF027FD00BF2837BD46C6
:1013200080BD00BF0008004000440258000402587D
:1013300080B5B6B000AF07F1C40300221A605A604E
:101340009A60DA601A614F4B1B68002B40F0968060
:101350004C4B01221A6007F10803BC2200211846F9
:1013600028F0C6FF4FF08073BB600023FB6407F1D9
:101370000803184613F008FB0346002B01D0FFF7C3
:1013800077FC414BD3F8D4303F4A43F48053C2F842
:10139000D4303D4BD3F8D43003F480537B607B686A
:1013A0004FF68373C7F8C4300223C7F8C830002350
:1013B000C7F8CC300323C7F8D0300C23C7F8D4309B
:1013C00007F1C403194631480FF0CEFC48F233133D
:1013D000C7F8C4300223C7F8C8300023C7F8CC30A0
:1013E0000323C7F8D0300C23C7F8D43007F1C40367
:1013F000194627480FF0B8FC4CF20373C7F8C43005
:101400000223C7F8C8300023C7F8CC300323C7F83D
:10141000D0300C23C7F8D43007F1C40319461D4857
:101420000FF0A2FC4FF63F03C7F8C4300223C7F801
:10143000C8300023C7F8CC300323C7F8D0300C23C2
:10144000C7F8D43007F1C403194613480FF08CFCD9
:10145000E023C7F8C4300223C7F8C8300023C7F818
:10146000CC300323C7F8D0300C23C7F8D43007F1B1
:10147000C403194609480FF077FC00E000BFD837D5
:10148000BD4680BD5001002400440258001002589F
:1014900000180258000C025800140258001C025890
:1014A00080B582B000AF7860FFF742FF00BF083719
:1014B000BD4680BD80B500AF144B1B68002B23D107
:1014C000124B01221A60124BD3F8D430104A23F485
:1014D0008053C2F8D4304FF683710E480FF0F4FDFC
:1014E00048F233110C480FF0EFFD4CF203710B483A
:1014F0000FF0EAFD4FF63F0109480FF0E5FDE0214E
:1015000008480FF0E1FD00E000BF80BD5401002459
:10151000004402580010025800180258000C0258EB
:1015200000140258001C025880B582B000AF7860E9
:10153000FFF7C0FF00BF0837BD4680BD80B590B043
:1015400000AF78607B680F2B27D80022796836209F
:101550000FF0FAF836200FF011F9294A7B68136072
:10156000284BD3F8E830274A43F01003C2F8E8309C
:10157000244BD3F8E83003F01003FB60FB6807F15D
:10158000100207F114031146184613F0BBF9BB6AA9
:10159000BB63BB6B002B06D101E001232BE013F0F2
:1015A00085F9F86304E013F081F903465B00FB63FF
:1015B000FB6B154AA2FB03239B0C013B7B63134B84
:1015C000134A1A60114B40F2E732DA600F4A7B6B24
:1015D00053600E4B00221A610C4B00229A600B489C
:1015E00014F02BFB0346002B04D1084814F07CFBBD
:1015F000034600E0012318464037BD4680BD00BFCA
:10160000500000240044025883DE1B4374BA0024B7
:101610000010004080B400AFFEE780B400AFFEE7EA
:1016200080B400AFFEE780B400AFFEE780B400AF47
:10163000FEE780B400AF00BFBD465DF8047B704795
:1016400080B500AF024814F0C7FB00BF80BD00BFEB
:1016500074BA002480B500AF024810F0C9FD00BF85
:1016600080BD00BFE0B8002480B500AF02480FF095
:101670006BFA00BF80BD00BFC0B9002480B500AFC9
:10168000024811F0AFFA00BF80BD00BF28BA0024A5
:1016900080B400AF01231846BD465DF8047B704757
:1016A00080B582B000AF7860396028F0CDFC034689
:1016B00016221A604FF0FF3318460837BD4680BD2A
:1016C00080B582B000AF78604FF0FF317868FFF7E7
:1016D000E7FFFEE780B586B000AFF860B9607A60DA
:1016E00000237B610AE0AFF300800146BB685A1C0F
:1016F000BA60CAB21A707B6901337B617A697B6810
:101700009A42F0DB7B6818461837BD4680BD80B52D
:1017100086B000AFF860B9607A6000237B6109E0B1
:10172000BB685A1CBA601B781846AFF300807B690F
:1017300001337B617A697B689A42F1DB7B681846EA
:101740001837BD4680BD80B483B000AF78604FF0DD
:10175000FF3318460C37BD465DF8047B704780B4F4
:1017600083B000AF786039603B684FF400525A6034
:10177000002318460C37BD465DF8047B704780B4E3
:1017800083B000AF7860012318460C37BD465DF882
:10179000047B704780B485B000AFF860B9607A60B0
:1017A000002318461437BD465DF8047B70470000DF
:1017B00080B586B000AF7860144A154BD31A7B61B0
:1017C0007B693B61134B1B68002B02D1114B124A02
:1017D0001A60104B1A687B6813443A699A4207D220
:1017E00028F032FC03460C221A604FF0FF3309E068
:1017F000084B1B68FB60074B1A687B681344054A5B
:101800001360FB6818461837BD4680BD00000824E9
:101810000010000058010024A0BB0024DFF834D0E1
:101820000CF014FA0C480D490D4A002302E0D4587C
:10183000C4500433C4188C42F9D30A4A0A4C00231A
:1018400001E013600432A242FBD328F00BFDFEF747
:1018500097FD704700000824000000243401002494
:1018600080FC020834010024A0BB0024FEE780B500
:1018700000AF01F069FC00BF80BD80B582B000AF51
:10188000786001F08BFC00BF0837BD4680BD0000CA
:1018900080B483B000AF7860044A7B681A607B68CC
:1018A00018460C37BD465DF8047B70472CC0020813
:1018B00080B582B000AF78607868FFF7E9FF042157
:1018C000786828F060FB7B6818460837BD4680BD05
:1018D00080B582B000AF786000F0A8FA00BF08378A
:1018E000BD4680BD80B584B000AFF860B9607A6055
:1018F0007968B86800F0BEFA034618461037BD464E
:1019000080BD000080B582B000AF7860054A7B687A
:101910001A607B681846FFF7BBFF7B6818460837DC
:10192000BD4680BD14C0020880B582B000AF7860AB
:101930007868FFF7E7FF0421786828F024FB7B68CC
:1019400018460837BD4680BD80B483B000AF03465B
:10195000FB71FB79032B0CD801A252F823F000BFD6
:10196000711900087119000871190008711900082F
:1019700000BF00BF0C37BD465DF8047B704700BF59
:1019800080B483B000AF0346FB71FB79032B0CD806
:1019900001A252F823F000BFA9190008A9190008F4
:1019A000A9190008A919000800BF00BF0C37BD46DF
:1019B0005DF8047B704700BF80B483B000AF03467E
:1019C000FB71FB79032B0CD801A252F823F000BF66
:1019D000E1190008E1190008E1190008E1190008FF
:1019E00000BF00BF0C37BD465DF8047B704700BFE9
:1019F00080B483B000AF7860044A7B681A607B686B
:101A000018460C37BD465DF8047B704704D80208C1
:101A100080B582B000AF78607868FFF7E9FF7C217D
:101A2000786828F0B0FA7B6818460837BD4680BD54
:101A300080B483B000AF78600B46FB707B68FA78A7
:101A400083F874207B68012283F8752000BF0C376F
:101A5000BD465DF8047B704780B582B000AF78600A
:101A60000B467B8013463B800C4B1B887A889A423E
:101A700004D30B4B1B883A889A4205D2094B0A4A79
:101A80009E210A4828F0AEFA094A7B881380094A49
:101A90003B88138000BF0837BD4680BDC4B5002415
:101AA000C6B50024E0B1020844B2020888B20208B8
:101AB000CAB50024CCB5002480B582B000AF7860F0
:101AC0007B6893F87730002B09D07B685A687B6875
:101AD0005B681B681B6810469847034600E00023BC
:101AE00018460837BD4680BD80B582B000AF78602B
:101AF000786816F0C7FD7B681B68A4331B6878689C
:101B0000984700BF0837BD4680BD80B483B000AFA2
:101B100078603960002318460C37BD465DF8047BB9
:101B20007047000080B584B000AFF860B9607A609B
:101B30003B60BB68002B06D1114B124A4FF42B714E
:101B4000114828F04FFAFB68BA68DA63FB687A68D4
:101B50001A64FB683A685A647B68002B14BF01233F
:101B60000023DAB2094B1A703B68002B14BF012323
:101B70000023DAB2064B1A7000BF1037BD4680BD95
:101B8000DCB2020814B3020888B20208CEB5002401
:101B9000CFB5002480B483B000AF7860002318462E
:101BA0000C37BD465DF8047B704780B582B000AF4E
:101BB00078600B467B807B689B6B002B04D07B6836
:101BC0009B6B7A881046984700BF0837BD4680BD9A
:101BD00080B483B000AF78604FF6FF7318460C37BF
:101BE000BD465DF8047B704780B582B000AF786079
:101BF0007B685A687B685B681B6818331B681046F3
:101C00009847034618460837BD4680BD80B485B066
:101C100000AF78607B6893F874207B6893F8343069
:101C20009A4211D0144B1B78002B1ED1134B1B88EA
:101C3000BB81134B1A88114B1A80114ABB89138040
:101C40000D4B01221A7010E00B4B1B78002B0CD0AF
:101C50000A4B1B88FB810A4B1A88084B1A80084ADA
:101C6000FB891380044B00221A7000BF1437BD4655
:101C70005DF8047B704700BFC8B50024C6B50024DA
:101C8000C4B5002480B582B000AF78607B68184688
:101C900015F0ADFE00BF0837BD4680BD80B582B0EF
:101CA00000AF7860054A7B681A607B681846FFF7CA
:101CB0009FFE7B6818460837BD4680BD94C3020866
:101CC00080B582B000AF78607868FFF7E7FF7C21CD
:101CD000786828F058F97B6818460837BD4680BDFB
:101CE00080B582B000AF78607B681846FFF7CAFF06
:101CF00000BF0837BD4680BD80B582B000AF7860B8
:101D00007B68184601F03AFD00BF0837BD4680BD2C
:101D100080B582B000AF78607B68184601F0C6FDE0
:101D2000034618460837BD4680BD80B582B000AF77
:101D3000786039607B683968184601F0C5FD00BFDE
:101D40000837BD4680BD80B582B000AF786039608D
:101D50007B683968184601F0CDFD00BF0837BD46E5
:101D600080BD80B584B000AFF860B9607A603B6038
:101D7000F8683B687A68B96801F014FE03461846B3
:101D80001037BD4680BD80B582B000AF78607B68FB
:101D9000184601F017FD00BF0837BD4680BD80B56D
:101DA00082B000AF78607B68184601F01BFD00BF71
:101DB0000837BD4680BD80B582B000AF78607B68D3
:101DC000184601F01DFD00BF0837BD4680BD80B537
:101DD00082B000AF78607B68184601F01FFD00BF3D
:101DE0000837BD4680BD000080B582B000AF786086
:101DF000054A7B681A607B681846FFF74FFF7B68CF
:101E000018460837BD4680BD44C0020880B582B080
:101E100000AF78607868FFF7E7FF7C21786828F0EA
:101E2000B2F87B6818460837BD4680BD80B584B0DF
:101E300000AF4FF4F0733B604FF488737B6008236E
:101E4000BB600023FB603B46194600200EF0C0F843
:101E50000346002B14BF01230023DBB2002B03D168
:101E6000034B01221A7000E000BF1037BD4680BD51
:101E70005C01002480B582B000AF78603960114BFE
:101E80001B7883F00103DBB2002B01D0002314E0A8
:101E90000D4900200EF058F90B4B1B68002B01D1A7
:101EA00000230AE0084B5B681A467B681A60064B01
:101EB0009B681A463B681A60012318460837BD46DE
:101EC00080BD00BF5C0100246001002480B500AF2C
:101ED00000220121012008F0C2FB03460F4A1360D3
:101EE0000E4B1B68002B05D10D4B0E4A28210E48C6
:101EF00028F078F800220421012008F0CFFC0346E6
:101F00000A4A1360094B1B68002B05D1084B054A90
:101F10002C21054828F066F800BF80BD6C01002424
:101F200064B30208B0B30208E0B3020870010024F1
:101F300084B4020880B500AF044B1B684FF0FF313A
:101F4000184608F015FC00BF80BD00BF6C010024DE
:101F500080B500AF034B1B68184608F05BFC00BF60
:101F600080BD00BF6C01002480B500AF034B1B682F
:101F70000021184608F0FCFB00BF80BD6C01002466
:101F800080B500AF034B1B68184608F043FC00BF48
:101F900080BD00BF6C01002480B500AF044B186801
:101FA00000230022034908F0EDFC00BF80BD00BF04
:101FB000700100240400002480B582B000AF094BFA
:101FC0001868391D0023002208F03CFD054B1868F5
:101FD000391D4FF0FF33002208F034FD00BF0837F1
:101FE000BD4680BD7001002480B483B000AF0346BD
:101FF000FB80B7F90630002B0BDBFB8803F01F02D8
:102000000749B7F906305B09012000FA02F241F8EE
:10201000232000BF0C37BD465DF8047B704700BF2E
:1020200000E100E080B483B000AF0346FB80B7F965
:102030000630002B12DBFB8803F01F020A49B7F9B8
:1020400006305B09012000FA02F2203341F8232018
:10205000BFF34F8F00BFBFF36F8F00BF00BF0C37C0
:10206000BD465DF8047B704700E100E080B483B0BA
:1020700000AF78607B6800221A607B6818460C37D6
:10208000BD465DF8047B704780B483B000AF7860D4
:102090007B681B6818460C37BD465DF8047B7047AB
:1020A00080B483B000AF7860044A7B681A607B68B4
:1020B00018460C37BD465DF8047B704764C10208C2
:1020C00080B582B000AF78607868FFF7E9FF04213F
:1020D000786827F058FF7B6818460837BD4680BDF2
:1020E00080B582B000AF78607B681B6844331B68A2
:1020F0007868984700BF0837BD4680BD80B483B07C
:1021000000AF7860044A7B681A607B6818460C3719
:10211000BD465DF8047B70475CDD020880B582B087
:1021200000AF78607868FFF7E9FF0C21786827F046
:102130002AFF7B6818460837BD4680BD80B483B04F
:1021400000AF78603960094A7B681A607B683A683A
:102150005A607B6800221A727B6800225A727B6880
:1021600018460C37BD465DF8047B70475CDD0208FD
:1021700080B483B000AF7860012318460C37BD46A9
:102180005DF8047B704780B582B000AF78607A68F4
:102190007B681B6828331B681046984700BF0837C8
:1021A000BD4680BD80B400AF034B1B681846BD46DA
:1021B0005DF8047B704700BFD0B5002480B582B0C5
:1021C00000AF78607B685A687B685B681B68143373
:1021D0001B681046984700BF0837BD4680BD80B5D4
:1021E00082B000AF7860FFF7DDFF03461846FFF7C7
:1021F000E5FF00BF0837BD4680BD80B582B000AFA7
:1022000078607B680C331846FFF730FF7B68184610
:102210000837BD4680BD0000B0B582B000AF786021
:102220007A687B680C3319461046FFF787FF0E4A21
:102230007B681A607B6803F10C007B6820336022A6
:10224000194616F085FB7B6820335F241D46002C61
:1022500005DB2846FFF7D1FF2035013CF7E77B6817
:1022600018460837BD46B0BD14C1020880B582B01B
:1022700000AF7860094A7B681A605A20FFF7D2FEE7
:102280007B680C33184600F0C7FA7B681846FFF7E6
:1022900035FF7B6818460837BD4680BD14C102086B
:1022A00080B582B000AF78607868FFF7DFFF4FF449
:1022B0004261786827F067FE7B6818460837BD469C
:1022C00080BD000080B584B000AF7860124BD3F8B9
:1022D000D430114A43F01003C2F8D4300E4BD3F877
:1022E000D43003F01003FB60FB680B4BDB6F0A4A32
:1022F00043F01003D367084BDB6F074A23F010034A
:10230000D367064B064A1A625A20FFF76DFE00BFDC
:102310001037BD4680BD00BF00440258C0B900243C
:10232000DF21000880B584B000AF78600B46FB70F9
:102330000023FB60FB780B2B26D801A252F823F078
:102340007D230008772300087123000889230008F3
:1023500089230008892300088923000883230008B3
:1023600083230008832300088323000883230008B5
:102370000023FB600EE00123FB600BE00223FB6007
:1023800008E00523FB6005E0054B064A6621064888
:1023900027F028FEFB6818461037BD4680BD00BFF9
:1023A000C8B40208E4B4020830B5020880B584B0AD
:1023B00000AF78600B46FB700023FB60FB780A2BB4
:1023C00021D801A252F823F001240008FB230008C1
:1023D000F523000807240008072400080724000844
:1023E00007240008FB230008FB230008FB23000848
:1023F000FB2300080023FB600BE00123FB6008E0E7
:102400000223FB6005E0054B054A8721054827F0BC
:10241000E9FDFB6818461037BD4680BDC8B4020808
:10242000D0B5020830B5020880B483B000AF786040
:1024300040F2EF3318460C37BD465DF8047B704719
:1024400090B589B000AF786039603B685B7F194612
:102450007868FFF767FFB8613B689B7F194678682B
:10246000FFF760FF78613B689B7F19467868FFF74C
:102470009DFF38613B685B8B1A463B689B8AD21A8A
:10248000964B1A643B685B8B1A463B689B8AD21A50
:10249000924B9A613B681B8B1A463B689B8AD21A07
:1024A0008E4B1A618D4A3B6953633B68DB8A1A463F
:1024B0003B689B8A1B041A43884B5A643B681A6921
:1024C000864BDA633B685A68844BDA603B681B686A
:1024D000B3F5007F36D0B3F5007F00F2E280B3F5AC
:1024E000807F14D0B3F5807F00F2DB80802B59D041
:1024F000802B00F2D680402B00F0BE80402B00F2F3
:10250000D080042B39D0202B00F0B680C9E03B6886
:102510001B7F1B061946714A714B0B43D3613B6805
:102520000C336E4C1846FFF7AFFD034623626B4A2F
:102530007B6953623B681A69684B5A61674B694A09
:102540001A60C7E03B681B7F1B061946634A664B4F
:102550000B43D3613B680C33604C1846FFF794FD86
:10256000034623625D4A7B6953623B681A695B4B91
:102570005A615A4B5B4A1A60ACE03B681B7F1B06F2
:102580001A46BB691343554A43F40033D361534A97
:102590007B6953623B681A69504B5A614F4B514AF1
:1025A0001A6097E00123FB773B689B68FB60FB6840
:1025B0001A1D4A4BDA623B681B7F1B061A46BB6931
:1025C0001343464A43F40033D361444A7B69536260
:1025D0003B681A69414B5A61FB681B88DBB2002BD0
:1025E00002D0012B0DD020E03C4BDA693F4B134069
:1025F000FA685288013A12021146384A0B43D361F5
:102600001AE03B681B7FFF2B01D10023FB77334B84
:10261000DA69364B1340FA685288013A12021343C2
:102620002E4A43F01003D36106E0314B314A40F2A9
:102630001111314827F0D6FC284BDB69274A43F0BB
:102640002003D361254BDB6903F02003002B14BF6B
:1026500001230023DBB2002B00D0F3E71F4B102235
:102660009A60FB7F002B03D01C4B1E4A1A6031E09E
:102670001A4B224A1A602DE03B681B7F1B061A4644
:10268000BB691343154A43F40033D361134A7B6992
:1026900053623B681A69114B5A61104B114A1A6018
:1026A00018E03B681B7F1B061A46BB6913430B4AA5
:1026B00043F40033D3613B685A7F3B689B7F9A4267
:1026C00003D0064B0D4A1A6003E0044B40F201228E
:1026D0001A6000BF00BF2437BD4690BD00100052F5
:1026E0000A0002000102020009000200EF00FFFFE1
:1026F0001CB6020838B6020830B502080102010013
:1027000090B585B000AF786039603B689B7F194613
:102710007868FFF74BFEF8603B4AFB6853633B6801
:10272000DB8A1A463B689B8A1B041A43364B5A6461
:102730003B681A69344BDA633B685B8B1A463B682B
:102740009B8AD21A304B1A643B681B68082B2ED127
:102750003B685B8B1A463B689B8AD21A2A4B9A616C
:102760003B685B8B1A463B689B8AD21A264B1A61E0
:10277000254AFB6853623B681B7F1B061946224AA9
:10278000224B0B43D3613B680C331F4C1846FFF7B9
:102790007BFC034623623B681A691B4B5A613B680A
:1027A0001A69194BDA60184B194A1A6027E0164A61
:1027B000FB68D361144B00221A613B680C33184646
:1027C000FFF762FC03461B0A03F478443B680C33B2
:1027D0001846FFF759FC03465B0903F4FC631C43EE
:1027E0003B680C331846FFF74FFC0346DB0803F049
:1027F0001F03054A23439363034B064A1A6000BF35
:102800001437BD4690BD00BF001000520900010002
:10281000010202000102030080B582B000AF7860BF
:10282000054A7B681A607B681846FFF739FC7B68AD
:1028300018460837BD4680BDACDD020880B582B0C1
:1028400000AF78607868FFF7E7FF1421786827F019
:102850009AFB7B6818460837BD4680BD80B483B0BC
:1028600000AF78607B6800221A807B6800225A8063
:102870007B6800229A807B680022DA807B68184699
:102880000C37BD465DF8047B7047000080B483B010
:1028900000AF7860044A7B68136000BF0C37BD4608
:1028A0005DF8047B704700BF2CB6002480B483B071
:1028B00000AF7860044A7B681A607B6818460C3762
:1028C000BD465DF8047B704780C3020880B582B0C6
:1028D00000AF78607868FFF7E9FF0421786827F097
:1028E00052FB7B6818460837BD4680BD80B485B072
:1028F00000AFF860B9607A603B600B4AFB681A6011
:10290000FB68BA685A60FB687A689A60FB683A6844
:10291000DA60FB68BA691A61FB6818461437BD466D
:102920005DF8047B704700BF70C3020880B483B0B9
:1029300000AF7860044A7B681A607B6818460C37E1
:10294000BD465DF8047B704770C3020880B582B055
:1029500000AF78607868FFF7E9FF1421786827F006
:1029600012FB7B6818460837BD4680BD80B483B033
:1029700000AF7860396000BF0C37BD465DF8047B5E
:10298000704780B483B000AF7860396000BF0C3707
:10299000BD465DF8047B704780B483B000AF7860BB
:1029A000396000BF0C37BD465DF8047B704780B4CA
:1029B00083B000AF78600B46FB7000BF0C37BD469C
:1029C0005DF8047B704780B483B000AF786000BFCF
:1029D0000C37BD465DF8047B704780B483B000AF10
:1029E000786000BF0C37BD465DF8047B704700007F
:1029F00080B483B000AF7860044A7B681A607B685B
:102A000018460C37BD465DF8047B704748C3020882
:102A100080B582B000AF78607868FFF7E9FF0421E5
:102A2000786827F0B0FA7B6818460837BD4680BD45
:102A300080B483B000AF7860044A7B681A607B681A
:102A400018460C37BD465DF8047B7047A4E30208C6
:102A500080B582B000AF78607868FFF7E9FF0821A1
:102A6000786827F090FA7B6818460837BD4680BD25
:102A700080B483B000AF78600B46FB7000BF0C37AA
:102A8000BD465DF8047B704780B483B000AF7860CA
:102A900039607B683A6803F596731068516803C320
:102AA00000BF0C37BD465DF8047B704780B483B02F
:102AB00000AF7860044A7B681A607B6818460C3760
:102AC000BD465DF8047B704730C3020880B582B014
:102AD00000AF78607868FFF7E9FF0421786827F095
:102AE00052FA7B6818460837BD4680BD80B483B073
:102AF00000AF78607B6800221A807B6800225A80D1
:102B00007B6800229A807B680022DA807B68002242
:102B10001A817B6800225A817B6800229A817B6837
:102B200000229A737B6818460C37BD465DF8047B1B
:102B3000704780B582B000AF78607B681846FFF7B9
:102B4000D5FF7B6800221A617B6800229A827B682D
:102B500018460837BD4680BD80B584B000AFF86028
:102B6000B9607A603B60554AFB681A60FB68BA68D6
:102B70005A60FB687A689A60FB683A68DA60FB68BA
:102B800000221A61FB6800225A61FB6800229A61E8
:102B9000FB681C331846FFF7CCFFFB68002283F864
:102BA0003420FB6800229A63FB680022DA63FB682A
:102BB00000221A64FB6800225A64FB68002283F832
:102BC0004820FB68012283F84920FB68002283F833
:102BD0004A20FB68002283F84B20FB680022DA645D
:102BE000FB6850331846FFF739FEFB6800229A65F0
:102BF000FB680022DA65FB6800221A66FB68012286
:102C000083F86420FB68002283F86520FB680022BB
:102C100083F86620FB68012283F86720FB680022A6
:102C200083F86820FB68002283F86920FB68002293
:102C300083F86A20FB68002283F86B20FB6800227F
:102C400083F86C20FB6800221A67FB68002283F877
:102C50007420FB68002283F87520FB68002283F84B
:102C60007620FB68012283F87720FB68012283F835
:102C70007820134AFB681360124A3B8B1380114B78
:102C80001A88114B1A80114ABB8B13800F4B1A887C
:102C90000F4B1A800F4B00221A703A8BBB8B9A4253
:102CA00034BF01230023DBB21A46FB6883F83420CB
:102CB000FB6818461037BD4680BD00BF04D8020827
:102CC000D0B50024C4B50024CAB50024C6B500247C
:102CD000CCB50024C8B5002480B582B000AF7860C0
:102CE000054A7B681A607B681846FFF781FE7B689F
:102CF00018460837BD4680BDB8E4020880B582B0EA
:102D000000AF78607868FFF7E7FF4FF49C71786850
:102D100027F039F97B6818460837BD4680BD80B575
:102D200082B000AF7860786800F004F800BF083720
:102D3000BD4680BD80B582B000AF78607B68D3F8B7
:102D40003C31002B0FD07B68D3F83C217B68D3F853
:102D50003C311B680C331B68104698470346002B18
:102D600001D0012300E00023002B0ED07B68D3F8B4
:102D70003C217B68D3F83C311B6808331B68104644
:102D800098477B680022C3F83C2100BF0837BD4646
:102D900080BD000080B582B000AF7860054A7B68D6
:102DA0001A607B681846FFF797FF7B68184608375C
:102DB000BD4680BDECC2020880B582B000AF78602D
:102DC0007868FFF7E7FF4FF4A071786827F0DBF829
:102DD0007B6818460837BD4680BD000080B582B0CC
:102DE00000AF7860084A7B681A607B6803F5A073BF
:102DF000184600F0E9FA7B681846FFF7CBFF7B68BE
:102E000018460837BD4680BD90C2020880B582B022
:102E100000AF78607868FFF7E1FF4FF4AC71786835
:102E200027F0B1F87B6818460837BD4680BD000022
:102E300080B582B000AF7860054A7B681A607B6815
:102E40001846FFF7CBFF7B6818460837BD4680BDA4
:102E50004CC2020880B582B000AF78607868FFF796
:102E6000E7FF4FF4AC71786827F08DF87B6818465F
:102E70000837BD4680BD80B582B000AF78607B6802
:102E8000D3F85431184607F0F3F97B68184617F069
:102E90000FFE00BF0837BD4680BD80B582B000AFD1
:102EA000786039603B68184601F028FB00BF08379E
:102EB000BD4680BD80B586B002AFF860B9607A606B
:102EC0003B60F868BB6900933B687A68B968FFF7B4
:102ED0000DFD044AFB681A60FB6818461037BD46B2
:102EE00080BD00BF38C2020880B500AF014800F0C5
:102EF0005FF980BD7401002480B500AF124B1B78D0
:102F0000BFF35B8FDBB203F00103002B0CBF012387
:102F10000023DBB2002B13D00B4827F036F8034612
:102F2000002B14BF01230023DBB2002B08D007487D
:102F300000F068F8044827F034F8054827F070F8E6
:102F4000024B184680BD00BF5C0E002474010024B3
:102F5000E92E000880B582B000AF7860054A7B6832
:102F60001A607B681846FFF7E1FC7B681846083753
:102F7000BD4680BD38C2020880B582B000AF78601F
:102F80007868FFF7E7FF1421786826F0FCFF7B687C
:102F900018460837BD4680BD80B582B000AF786066
:102FA0007B68184613F0FCFC034A7B681A607B6858
:102FB00018460837BD4680BD04C2020880B582B0FD
:102FC00000AF78607B68184613F0EAFC034A7B6820
:102FD0001A607B6818460837BD4680BDD0C102081C
:102FE00080B582B000AF78607B68184613F0D8FCDB
:102FF000034A7B681A607B6818460837BD4680BD67
:103000009CC1020890B585B002AF786078687B6893
:1030100003F114017B6803F12C027B6803F64C3446
:103020007B6803F68C3300932346FFF743FF184A6F
:103030007B681A607B6814331846FFF7ADFF7B6826
:103040002C331846FFF7BAFF7B6803F64C3318465B
:10305000FFF7C6FF7B6803F68C307B6803F6E4431A
:103060007A68194606F090FC7B6803F6E44318463C
:1030700007F0F0F87A687B6803F68C33194610463F
:10308000FFF70BFF7B6818460C37BD4690BD00BFAD
:1030900088C1020880B586B002AFF860B9607A6076
:1030A0003B60F868BB8B01933B8B00933B687A686D
:1030B000B968FFF751FD044AFB681A60FB681846BF
:1030C0001037BD4680BD00BF94C3020880B586B0EE
:1030D00002AFF860B9607A603B60F868BB8B01931F
:1030E0003B8B00933B687A68B968FFF7D3FF044ACB
:1030F000FB681A60FB6818461037BD4680BD00BFEC
:1031000044C0020880B483B000AF7860044A7B6892
:103110001A607B6818460C37BD465DF8047B704723
:103120002CC0020880B582B000AF78607B6818467A
:10313000FFF7E8FF034A7B681A607B681846083788
:10314000BD4680BD14C0020890B585B002AF00F046
:103150005FFD044600F066FD034619460023009318
:103160000023002220461AF0B7FE0948FFF78EFB25
:10317000002006F053FB07481AF0F0FDFFF7BCFEF5
:1031800078600548FEF7B8FD00BF0C37BD4690BD1E
:10319000FC1A002408000024001B002480B500AFA6
:1031A000024814F08CFC00BF80BD00BF001B00244F
:1031B00080B582B000AF7860104A7B681A607B6887
:1031C00003F68C331846FFF733FE7B6803F64C3367
:1031D000184600F027F87B682C33184600F044F8B6
:1031E0007B681433184600F063F87B681846FFF7D5
:1031F000B1FE7B6818460837BD4680BD88C102080D
:1032000080B582B000AF78607868FFF7D1FF40F6F4
:10321000E841786826F0B7FE7B6818460837BD4657
:1032200080BD000080B582B000AF7860054A7B6841
:103230001A607B68184613F0B1FB7B6818460837A4
:10324000BD4680BD9CC1020880B582B000AF7860E9
:103250007868FFF7E7FF4021786826F094FE7B68E6
:1032600018460837BD4680BD80B582B000AF786093
:10327000054A7B681A607B68184613F08FFB7B68F1
:1032800018460837BD4680BDD0C1020880B582B05F
:1032900000AF78607868FFF7E7FF4FF43261786835
:1032A00026F071FE7B6818460837BD4680BD0000D9
:1032B00080B582B000AF7860054A7B681A607B6891
:1032C000184613F06BFB7B6818460837BD4680BD77
:1032D00004C2020880B582B000AF78607868FFF75A
:1032E000E7FF1821786826F04EFE7B6818460837FD
:1032F000BD4680BD80B582B000AF7860054A7B686E
:103300001A607B681846FFF793FB7B6818460837FE
:10331000BD4680BD48F6020880B582B000AF786037
:103320007868FFF7E7FF7821786826F02CFE7B6845
:1033300018460837BD4680BD80B584B002AF7860BE
:1033400039607B68012B19D13B684FF6FF729342BD
:1033500014D11848FFF7E6FE1748FEF75DFF17483F
:103360001DF082FE4FF4887301934FF4F0730093C5
:10337000104B124A10491248FFF7A8FE7B68002B39
:1033800013D13B684FF6FF7293420ED10C48FEF703
:103390002BFD0C4800F03AF80848FFF7ABFF064851
:1033A000FEF764FF0348FEF7ADFA00BF0837BD46DD
:1033B00080BD00BF600E0024640E0024841A002427
:1033C000001B00240800002480B582B000AF7860A4
:1033D000054A7B681A607B681846FFF767FB7B68C5
:1033E00018460837BD4680BDD4C2020880B582B0F9
:1033F00000AF78607868FFF7E7FF1021786826F063
:10340000C2FD7B6818460837BD4680BD80B582B0D6
:1034100000AF7860054A7B681A607B681846FFF742
:1034200045FA7B6818460837BD4680BD64C402086B
:1034300080B582B000AF78607868FFF7E7FF0421BD
:10344000786826F0A0FD7B6818460837BD4680BD29
:1034500080B483B000AF7860012318460C37BD46B6
:103460005DF8047B704780B483B000AF7860382388
:1034700018460C37BD465DF8047B704780B483B0B6
:1034800000AF78600B467B807A881346DB009B1A7E
:10349000DB0008337A68134418460C37BD465DF8E4
:1034A000047B704780B483B000AF78600B467B80AC
:1034B0007A881346DB009B1ADB0008337A681344D2
:1034C00018460C37BD465DF8047B704780B483B066
:1034D00000AF7860012318460C37BD465DF8047BC9
:1034E000704780B483B000AF786040F61833184658
:1034F0000C37BD465DF8047B704780B483B000AFE5
:1035000078600B467B807B8840F6183202FB03F321
:1035100008337A68134418460C37BD465DF8047BBF
:10352000704780B483B000AF78600B467B807B88A7
:1035300040F6183202FB03F308337A681344184646
:103540000C37BD465DF8047B704780B483B000AF94
:103550007860012318460C37BD465DF8047B704740
:1035600080B483B000AF7860102318460C37BD4696
:103570005DF8047B704780B483B000AF78600B4681
:103580007B807B881B0108337A68134418460C370C
:10359000BD465DF8047B704780B483B000AF7860AF
:1035A0000B467B807B881B0108337A6813441846DE
:1035B0000C37BD465DF8047B704780B582B000AF24
:1035C00078607B685B687A68D268521099187B686B
:1035D000DB6803F00103002B02D17B689B680AE0E3
:1035E0007B685B687A68D268521013441B687A68FB
:1035F000926813441B680846984700BF0837BD46C9
:1036000080BD80B483B000AF78607B685B68002BBE
:1036100010D07B689B68002B07D17B68DB6803F0C8
:103620000103002B01D1012300E00023012B01D075
:10363000012300E0002318460C37BD465DF8047BEB
:10364000704780B500AF4FF6FF710120FFF774FEA1
:1036500080BD80B500AF4FF6FF710020FFF76CFE14
:1036600080BD80B582B000AF78607B681B68203376
:103670001B687868984700BF0837BD4680BD80B496
:1036800083B000AF78607B6893F866300133DAB2BC
:103690007B6883F8662000BF0C37BD465DF8047B6D
:1036A0007047000080B483B000AF0346FB80B7F9D9
:1036B0000630002B0BDBFB8803F01F020749B7F92C
:1036C00006305B09012000FA02F241F8232000BF16
:1036D0000C37BD465DF8047B704700BF00E100E099
:1036E00080B483B000AF0346FB80B7F90630002BEF
:1036F00012DBFB8803F01F020A49B7F906305B09A9
:10370000012000FA02F2203341F82320BFF34F8F4B
:1037100000BFBFF36F8F00BF00BF0C37BD465DF821
:10372000047B704700E100E080B483B000AF034643
:103730003960FB80B7F90630002B0ADB3B68DAB250
:103740000C49B7F906301201D2B20B4483F80023BA
:103750000AE03B68DAB20849FB8803F00F03043B38
:103760001201D2B20B441A7600BF0C37BD465DF889
:10377000047B704700E100E000ED00E0B0B582B0EE
:1037800000AF78607B68184614F087F97D687B6825
:103790001B6860331C6817F0B7FA034619462846C1
:1037A000A04778687B681B6884331C680023044A40
:1037B0004FF05041A04700BF0837BD46B0BD00BF25
:1037C000000020D080B582B000AF786009215A2077
:1037D000FFF7AAFF09215820FFF7A6FF00BF08370F
:1037E000BD4680BD80B582B000AF78605A20FFF73B
:1037F00059FF5820FFF756FF00BF0837BD4680BD70
:1038000080B582B000AF78605A20FFF769FF58207A
:10381000FFF766FF00BF0837BD4680BD80B483B0A8
:1038200000AF7860114BDB689BB2C3F30A039BB215
:10383000013B9AB20E4B1A800C4B1B699BB2C3F32F
:103840000A039BB2013B9AB20A4B1A80084B1A88B2
:10385000064B1A64054B5B6B044A43F00103536348
:1038600000BF0C37BD465DF8047B70470010005068
:103870007C1B00247E1B002480B582B000AF7860E2
:103880007B68184614F0F0F8034618460837BD4622
:1038900080BD80B582B000AF78607B68184614F0B8
:1038A000EFF800BF0837BD4680BD000080B483B08C
:1038B00000AF7860034B9B6A18460C37BD465DF835
:1038C000047B70478410005080B483B000AF7860F0
:1038D0003960064A3B689362054B01225A6200BF79
:1038E0000C37BD465DF8047B704700BF8410005064
:1038F0000010005080B586B000AF786039607B68FA
:103900003968184614F079F8254B5B6903F4803365
:10391000002B14BF01230023DBB2002B3CD0204B33
:103920000022C3F88420BFF34F8F00BF1C4BD3F895
:1039300080307B617B695B0BC3F30E033B617B696A
:10394000DB08C3F30903FB603B695A0143F6E073EC
:103950001340FA68920712491343C1F87432FB68A6
:103960005A1EFA60002B14BF01230023DBB2002B88
:1039700000D0E9E73B695A1E3A61002B14BF0123CE
:103980000023DBB2002B00D0D9E7BFF34F8F00BF7D
:10399000BFF36F8F00BF00BF00BF1837BD4680BDAB
:1039A00000ED00E080B584B000AFF860B9607A60E7
:1039B0003B60F8683B687A68B96814F08AF9034696
:1039C00018461037BD4680BD80B487B000AF786020
:1039D000264B5B6903F48033002B14BF01230023C3
:1039E000DBB2002B3CD0214B0022C3F88420BFF374
:1039F0004F8F00BF1D4BD3F880307B617B695B0B21
:103A0000C3F30E033B617B69DB08C3F30903FB606F
:103A10003B695A0143F6E0731340FA689207134971
:103A20001343C1F87432FB685A1EFA60002B14BFAE
:103A300001230023DBB2002B00D0E9E73B695A1ECB
:103A40003A61002B14BF01230023DBB2002B00D00E
:103A5000D9E7BFF34F8F00BFBFF36F8F00BF00BF29
:103A600000BF1C37BD465DF8047B704700ED00E0E9
:103A700080B487B000AF7860264B5B6903F4803375
:103A8000002B14BF01230023DBB2002B3CD0214BC1
:103A90000022C3F88420BFF34F8F00BF1D4BD3F823
:103AA00080307B617B695B0BC3F30E033B617B69F9
:103AB000DB08C3F30903FB603B695A0143F6E0737B
:103AC0001340FA68920713491343C1F87432FB6834
:103AD0005A1EFA60002B14BF01230023DBB2002B17
:103AE00000D0E9E73B695A1E3A61002B14BF01235D
:103AF0000023DBB2002B00D0D9E7BFF34F8F00BF0C
:103B0000BFF36F8F00BF00BF00BF1C37BD465DF81D
:103B1000047B704700ED00E080B582B000AF7860B4
:103B20001A4B1B6C1A4A128893420CBF01230023C4
:103B3000DBB2002B17D0174B1B88194678680EF0A4
:103B40004DFCFEF72FFB03461846FFF798FDFEF7E6
:103B500023FAFEF727FB0346184614F093FD0020D6
:103B6000FDF7F2FE0EE00A4B1B88194678680EF04E
:103B700035FC0020FDF704FFFEF714FB0346184652
:103B8000FFF76FFD00BF0837BD4680BD0010005035
:103B90007C1B00247E1B002480B582B000AF7860BF
:103BA0000B467B807B88052B2CD801A252F823F092
:103BB000C93B0008D33B0008DD3B0008E73B000899
:103BC000F13B0008FB3B000805F0A0FE03461B6824
:103BD00019E005F09BFE03465B6814E005F096FED5
:103BE00003469B680FE005F091FE0346DB680AE0A0
:103BF00005F08CFE03461B6805E005F087FE0346D2
:103C00001B6900E0002318460837BD4680BD00BF91
:103C100080B400AF024B1846BD465DF8047B704788
:103C200070C4020880B400AF0E231846BD465DF88C
:103C3000047B704780B483B000AF7860044A7B682F
:103C40001A607B6818460C37BD465DF8047B7047E8
:103C500014C9020880B582B000AF78607868FFF7B9
:103C6000E9FF1021786826F08EF97B68184608373E
:103C7000BD4680BD90B587B000AF78600B467B80B5
:103C80007B88002B01D1002310E000233B6100233F
:103C9000FB737B681B6808331C6807F10F0307F18F
:103CA000100279887868A04778617B6918461C37CC
:103CB000BD4690BD80B483B000AF78607B685B89FF
:103CC00018460C37BD465DF8047B704780B483B05E
:103CD00000AF78607B689B8918460C37BD465DF85D
:103CE000047B704780B483B000AF78607B689B88AA
:103CF00018460C37BD465DF8047B704780B483B02E
:103D000000AF78607B689A887B689B799BB213448C
:103D10009BB218460C37BD465DF8047B704780B4F3
:103D200083B000AF78607B68DB79C3F30603DBB256
:103D300018460C37BD465DF8047B704780B483B0ED
:103D400000AF78607B68DB79C3F3C013DBB2184641
:103D50000C37BD465DF8047B7047000080B582B02B
:103D600000AF7860054A7B681A607B681846FFF7E9
:103D700061FF7B6818460837BD4680BD7CE70208B6
:103D800080B582B000AF78607868FFF7E7FF182150
:103D9000786826F0F8F87B6818460837BD4680BD7D
:103DA00080B582B000AF7860054A7B681A607B6896
:103DB0001846FFF7D3FF7B6818460837BD4680BD1D
:103DC0005CC7020880B582B000AF78607868FFF702
:103DD000E7FF2821786826F0D6F87B681846083770
:103DE000BD4680BD80B483B000AF7860044A7B6874
:103DF0001A607B6818460C37BD465DF8047B704737
:103E000090C5020880B582B000AF78607868FFF78F
:103E1000E9FF0821786826F0B6F87B68184608376D
:103E2000BD4680BD80B483B000AF786039603B6828
:103E300018460C37BD465DF8047B704780B485B0EA
:103E400000AFF860084611461A4603467B810B46D0
:103E50003B811346FB80FB687A891A80FB683A89AC
:103E60005A80FB68FA889A80FB683A8BDA80FB6894
:103E700018461437BD465DF8047B704780B582B0A4
:103E800000AF7860144A7B681A607B680433184678
:103E9000FEF7E4FC7B680C331846FEF7DFFC7B681A
:103EA00000225A617B6800229A617B680022DA61F5
:103EB0007B6800221A847B6800225A847B68002277
:103EC00083F824207B68012283F825207B6818462C
:103ED0000837BD4680BD00BF18E7020880B483B034
:103EE00000AF7860044A7B681A607B6818460C371C
:103EF000BD465DF8047B704718E7020880B582B0C4
:103F000000AF78607868FFF7E9FF2821786826F02D
:103F10003AF87B6818460837BD4680BD80B483B048
:103F200000AF7860002318460C37BD465DF8047B6F
:103F3000704780B483B000AF78607B680433184664
:103F40000C37BD465DF8047B704780B584B000AF88
:103F5000F860084611461A4603467B810B463B81B2
:103F60001346FB80B7F90820B7F90A301946F868FC
:103F700000F044F8B7F91820B7F906301946F86888
:103F800000F098F800BF1037BD4680BD80B483B004
:103F900000AF78607B68B3F9063018460C37BD4631
:103FA0005DF8047B704780B483B000AF78607B68B5
:103FB000B3F90A3018460C37BD465DF8047B7047EC
:103FC00080B483B000AF78600B467B807B687A88D2
:103FD0009A8000BF0C37BD465DF8047B704780B403
:103FE00083B000AF78600B467B807B687A88DA808C
:103FF00000BF0C37BD465DF8047B704780B582B0CA
:1040000000AF78600B467B8013463B807B681B6863
:104010002C331B68B7F902201146786898477B68F3
:104020001B6830331B68B7F9002011467868984741
:1040300000BF0837BD4680BD80B483B000AF786054
:104040000B467B807B687A881A8100BF0C37BD469F
:104050005DF8047B704780B483B000AF78600B4696
:104060007B807B687A885A8100BF0C37BD465DF83B
:10407000047B704780B483B000AF786000BF0C371A
:10408000BD465DF8047B704780B483B000AF7860B4
:10409000396000BF0C37BD465DF8047B704780B4C3
:1040A00083B000AF7860396000BF0C37BD465DF863
:1040B000047B704780B582B000AF78600B467B8090
:1040C00013463B807B681B6834331B68B7F90220BA
:1040D0001146786898477B681B6838331B68B7F9C6
:1040E000002011467868984700BF0837BD4680BD5C
:1040F00080B483B000AF7860396000BF0C37BD4634
:104100005DF8047B704780B483B000AF786000BF77
:104110000C37BD465DF8047B704780B483B000AFB8
:1041200078607B6893F8253018460C37BD465DF8FB
:10413000047B704780B483B000AF78607B6893F8ED
:10414000243018460C37BD465DF8047B704780B5B7
:1041500082B000AF78600B467B8013463B807B6863
:104160001B6850331B6879887A68B2F9042092B2D0
:104170008A1A92B210B239887A68B2F9062092B2DD
:104180008A1A92B212B201467868984700BF08377F
:10419000BD4680BD80B483B000AF78607B684FF6C9
:1041A000FF729A817B684FF6FF721A847B684FF624
:1041B000FF725A8400BF0C37BD465DF8047B704720
:1041C00080B584B000AFF860B9607A60F868FFF736
:1041D000E1FF7B681A68FB68DA617B68FA681A603D
:1041E00000BF1037BD4680BD80B400AF0B4B1B68CD
:1041F00093F87630002B08D0084B1B68DB6C002B43
:1042000003D0064B1B68DB6C02E0044B1B689B6809
:104210001846BD465DF8047B704700BFD0B500244A
:1042200080B483B000AF7860074A7B681A607B680F
:1042300000225A607B6800221A727B6818460C378D
:10424000BD465DF8047B704738C7020880B483B070
:1042500000AF7860044A7B681A607B6818460C37A8
:10426000BD465DF8047B704738C7020880B582B050
:1042700000AF78607868FFF7E9FF0C21786825F0D7
:1042800082FE7B6818460837BD4680BD80B483B087
:1042900000AF786000BF0C37BD465DF8047B704707
:1042A00080B483B000AF786000BF0C37BD465DF8C6
:1042B000047B704780B483B000AF786000BF0C37D8
:1042C000BD465DF8047B704780B582B000AF786072
:1042D00016F01AFD03461A683032126818469047E5
:1042E00000BF0837BD4680BD80B483B000AF7860A2
:1042F00039607B683A685A6000BF0C37BD465DF88C
:10430000047B704780B582B000AF78607B68184648
:1043100016F064FD094A7B681A607B680022C3F8C6
:1043200038217B680022C3F83C217B68044A136073
:104330007B6818460837BD4680BD00BFECC2020846
:104340001CB6002480B483B000AF786039607B680D
:104350003A681A6000BF0C37BD465DF8047B7047B1
:1043600080B483B000AF78607B6801221A7200BF0E
:104370000C37BD465DF8047B704780B584B000AF54
:10438000F8607B600B467B8113463B81FB681846D7
:10439000FFF7C3FE0346002B08D0FB681846FFF763
:1043A000C9FE0346002B01D0012300E00023002BAF
:1043B00002D0FA687B681A6000BF1037BD4680BD26
:1043C00080B483B000AF786039607B683A685A6027
:1043D00000BF0C37BD465DF8047B704780B582B0E6
:1043E00000AF78607B681846FFF748FD034A7B689A
:1043F0001A607B6818460837BD4680BDB0C6020803
:1044000080B582B000AF7860054A7B681A607B682F
:104410001846FFF763FD7B6818460837BD4680BD28
:10442000B0C6020880B582B000AF78607868FFF748
:10443000E7FF2821786825F0A6FD7B681846083735
:10444000BD4680BD80B584B000AFF860B9607A60C9
:10445000FB681846FFF756FF134AFB681A60FB68B3
:1044600003F5A073184600F02BF9FB687A68C3F8CF
:104470005021FB68BA68C3F85421FDF793FE034648
:104480001A6808321268002118469047002005F08B
:10449000C5F9FFF7A9FE034618461EF030FCFB687D
:1044A00018461037BD4680BD90C2020880B483B064
:1044B00000AF786039607B6818460C37BD465DF800
:1044C000047B704780B582B000AF786039607B684C
:1044D0003A6811461846FFF7E9FF3B685A687B685F
:1044E0005A607B683A680833083292E8030083E830
:1044F00003007B6818460837BD4680BD90B589B07B
:1045000000AF78607B6803F5A074104BBB6100239B
:10451000FB6107F1080007F118030CCB796800F084
:10452000EBF807F1080319462046FFF7CBFF07F128
:1045300008031846FEF748FF7B6803F5A0727B6806
:10454000C3F83C2100BF2437BD4690BD514500084B
:1045500080B584B002AF78607B6803F59C717B689E
:10456000D3F850311A467B68D3F854310093044B8A
:10457000044800F0F3F800BF0837BD4680BD00BF17
:1045800010B600240CB6002490B589B000AF786056
:104590007B6803F5A074104BBB610023FB6107F13E
:1045A000080007F118030CCB796800F0A5F807F1B3
:1045B000080319462046FFF785FF07F10803184650
:1045C000FEF702FF7B6803F5A0727B68C3F83C210D
:1045D00000BF2437BD4690BDDD45000880B584B0DE
:1045E00002AF78607B6803F59C717B68D3F850312B
:1045F0001A467B68D3F854310093044B044800F00A
:10460000CBF900BF0837BD4680BD00BF10B60024FF
:104610000CB6002490B589B000AF78607B6803F5D4
:10462000A074104BBB610023FB6107F1080007F188
:1046300018030CCB796800F05FF807F108031946FE
:104640002046FFF73FFF07F108031846FEF7BCFEC0
:104650007B6803F5A0727B68C3F83C2100BF243758
:10466000BD4690BD6946000880B584B002AF786051
:104670007B6803F59C717B68D3F850311A467B68E0
:10468000D3F854310093044B044800F0A3FA00BF60
:104690000837BD4680BD00BF10B600240CB600240C
:1046A00080B483B000AF7860044A7B681A607B688E
:1046B00018460C37BD465DF8047B704730C30208CE
:1046C00080B582B000AF78607B681846FFF7E8FFDE
:1046D000084A7B681A607B6800225A607B68002267
:1046E0009A607B680022DA607B6818460837BD460E
:1046F00080BD00BFD4C2020880B584B000AFF860AE
:10470000B960394681E80C00FB681846FFF7C8FF1E
:10471000084AFB681A60FB68BA685A60FB6808338D
:104720003A4692E8030083E80300FB681846103716
:10473000BD4680BDD4C2020880B582B000AF7860AB
:104740007B681846FFF76CFD034A7B681A607B683C
:1047500018460837BD4680BD14C7020890B58FB013
:1047600000AFF860B9607A603B607B689A687B68EC
:104770009B681B6820331B6810469847034640F629
:104780001732934205D87F4B7F4AA3217F4825F0FB
:1047900029FC00BF7B685A687B685B681B68203314
:1047A0001B681046984703460F2B05D8784B764A6E
:1047B000A421764825F016FC00BF7B68DA687B6888
:1047C000DB681B6820331B681046984703460B2B99
:1047D00005D8704B6C4AA5216C4825F003FC00BF3E
:1047E000FB68BB62BB687B623B683B6216F08CFA7D
:1047F0000346184616F0D6FA3B6A1B68002B08D011
:104800003B6A1A683B6A1B681B680C331B681046BE
:1048100098473B6A1B68002B07D03B6A1A683B6AC3
:104820001B681B681B6810469847BB6A1B68002BF7
:1048300008D0BB6A1A68BB6A1B681B6814331B6804
:10484000104698477B6A1B68002B08D07B6A1A6861
:104850007B6A1B681B6804331B6810469847BB6A59
:104860001B68002B07D0BB6A1A68BB6A1B681B68F1
:104870001B68104698477B6A1B68002B08D07B6A30
:104880001A687B6A1B681B6808331B6810469847C8
:1048900000BF7B68DB680021184600F0B9FA0346C8
:1048A00019460C20FFF7BEFA04462046FFF744FFE6
:1048B0007C637B689B680021184600F0BCFA0346C5
:1048C000194640F61830FFF7ADFA0446204605F0C9
:1048D00061FA3C637B685B680021184600F0BEFA11
:1048E000034619461020FFF79DFA0446396B20460F
:1048F00005F0C2F9FC623B687A6B1A60BB68FA6A21
:104900001A60FB683A6B1A60FB6A002B02D0FB6AE4
:10491000043300E000231946B86CFFF713FDFB6A6F
:104920000433B96C1846FFF74BFD3B6BF96A184628
:1049300000F0A7FA3B6BFB61FB6ABB617B6B7B61A1
:10494000FB691B680C331B68F8699847BB691B68D7
:104950001B68B86998477969F86917F069FE7B693F
:104960001B6810331B68786998477B691B68143390
:104970001B687869984700BFFB6A18463C37BD46FC
:1049800090BD00BF78B6020808B7020808B8020850
:1049900060B8020804B9020890B58FB000AFF860A3
:1049A000B9607A603B607B689A687B689B681B682B
:1049B00020331B6810469847034640F6173293424F
:1049C00005D87F4B7F4AA3217F4825F00BFB00BF12
:1049D0007B685A687B685B681B6820331B681046DD
:1049E000984703460F2B05D8784B764AA421764882
:1049F00025F0F8FA00BF7B68DA687B68DB681B6823
:104A000020331B68104698470346372B05D8704B58
:104A10006C4AA5216C4825F0E5FA00BFFB68BB6233
:104A2000BB687B623B683B6216F06EF90346184632
:104A300016F0B8F93B6A1B68002B08D03B6A1A686D
:104A40003B6A1B681B680C331B68104698473B6A1F
:104A50001B68002B07D03B6A1A683B6A1B681B68FF
:104A60001B6810469847BB6A1B68002B08D0BB6ABE
:104A70001A68BB6A1B681B6814331B68104698478A
:104A80007B6A1B68002B08D07B6A1A687B6A1B68EC
:104A90001B6804331B6810469847BB6A1B68002BD1
:104AA00007D0BB6A1A68BB6A1B681B681B68104684
:104AB00098477B6A1B68002B08D07B6A1A687B6A60
:104AC0001B681B6808331B681046984700BF7B684B
:104AD000DB680021184600F0E2F903461946382049
:104AE000FFF7A0F904461421204600F01FFA7C636A
:104AF0007B689B680021184600F09DF90346194623
:104B000040F61830FFF78EF90446204605F042F9CA
:104B10003C637B685B680021184600F09FF9034600
:104B200019461020FFF77EF90446396B204605F040
:104B3000A3F8FC623B687A6B1A60BB68FA6A1A6079
:104B4000FB683A6B1A60FB6A002B02D0FB6A0433E5
:104B500000E000231946B86CFFF7F4FBFB6A04334E
:104B6000B96C1846FFF72CFC3B6BF96A184600F04D
:104B700088F93B6BFB61FB6ABB617B6B7B61FB690B
:104B80001B680C331B68F8699847BB691B681B6876
:104B9000B86998477969F86917F04AFD7B691B681D
:104BA00010331B68786998477B691B6814331B684E
:104BB0007869984700BFFB6A18463C37BD4690BDF0
:104BC00078B60208A8B9020808B8020860B8020856
:104BD00004B9020890B58FB000AFF860B9607A6090
:104BE0003B607B689A687B689B681B6820331B6806
:104BF000104698470346B3F5707F05D27F4B804A35
:104C0000A321804825F0EEF900BF7B685A687B68D5
:104C10005B681B6820331B681046984703460F2BC0
:104C200005D8794B764AA421764825F0DBF900BFF8
:104C30007B68DA687B68DB681B6820331B6810467A
:104C400098470346372B05D8704B6D4AA5216D4810
:104C500025F0C8F900BFFB68BB62BB687B623B689C
:104C60003B6216F051F80346184616F09BF83B6A73
:104C70001B68002B08D03B6A1A683B6A1B681B68DC
:104C80000C331B68104698473B6A1B68002B07D003
:104C90003B6A1A683B6A1B681B681B68104698478A
:104CA000BB6A1B68002B08D0BB6A1A68BB6A1B680A
:104CB0001B6814331B68104698477B6A1B68002BDF
:104CC00008D07B6A1A687B6A1B681B6804331B6800
:104CD00010469847BB6A1B68002B07D0BB6A1A684E
:104CE000BB6A1B681B681B68104698477B6A1B6879
:104CF000002B08D07B6A1A687B6A1B681B68083324
:104D00001B681046984700BF7B68DB680021184687
:104D100000F04EF9034619463820FFF783F80446A1
:104D20001421204600F08CF97C637B689B6800218D
:104D3000184600F0C7F9034619464FF47070FFF7A4
:104D400071F80446204604F039FF3C637B685B68D9
:104D50000021184600F0C9F9034619461020FFF754
:104D600061F80446396B204604F0D0FEFC623B68D3
:104D70007A6B1A60BB68FA6A1A60FB683A6B1A6051
:104D8000FB6A002B02D0FB6A043300E000231946C3
:104D9000B86CFFF7D7FAFB6A0433B96C1846FFF713
:104DA0000FFB3B6BF96A184600F0B2F93B6BFB61F5
:104DB000FB6ABB617B6B7B61FB691B680C331B6807
:104DC000F8699847BB691B681B68B8699847796997
:104DD000F86917F02DFC7B691B6810331B68786934
:104DE00098477B691B6814331B687869984700BF34
:104DF000FB6A18463C37BD4690BD00BF78B6020836
:104E0000BCBA020808B8020860B8020804B902086F
:104E100080B582B000AF78600B467B807B681B68F2
:104E200024331B687A8811467868984703461846E9
:104E30000837BD4680BD80B582B000AF78600B46B4
:104E40007B807B681B6824331B687A8811467868EE
:104E50009847034618460837BD4680BD80B582B0E6
:104E600000AF78600B467B807B681B6824331B682F
:104E70007A88114678689847034618460837BD4631
:104E800080BD80B483B000AF786039607B683A68D9
:104E9000DA6300BF0C37BD465DF8047B704780B510
:104EA00082B000AF78600B467B807B681B68243340
:104EB0001B687A8811467868984703461846083771
:104EC000BD4680BD80B582B000AF78607B68184673
:104ED000FFF784FA034A7B681A607B681846083734
:104EE000BD4680BDC4C5020880B582B000AF786001
:104EF000054A7B681A607B681846FFF781FA7B6871
:104F000018460837BD4680BDC4C5020880B582B0CA
:104F100000AF78607868FFF7E7FF2821786825F010
:104F200032F87B6818460837BD4680BD80B584B02E
:104F300002AF78600B46FB707B681846FFF770F98C
:104F4000184A7B681A607B68FA785A727B6800227C
:104F50009A727B680022DA817B6810332822002154
:104F6000184625F0C5F97B6810331846FFF7AAFFED
:104F70000D4B1B881AB27B689A8100BF7B6803F1D6
:104F800010000A4B1B881AB2074B1B881BB20093F8
:104F9000134600220021FEF7D8FF7B681846083729
:104FA000BD4680BDA0C50208C6B50024C4B5002416
:104FB00080B582B000AF78600B467B807B681B6851
:104FC00024331B687A881146786898470346184648
:104FD0000837BD4680BD000080B582B000AF786064
:104FE0007B681846FFF7FAF9034A7B681A607B680A
:104FF00018460837BD4680BD4CC6020880B582B051
:1050000000AF7860054A7B681A607B681846FFF736
:10501000F7F97B6818460837BD4680BD4CC60208C4
:1050200080B582B000AF78607868FFF7E7FF28218D
:10503000786824F0A8FF7B6818460837BD4680BD15
:1050400080B584B002AF78600B46FB707B68184671
:10505000FFF7E6F8184A7B681A607B68FA785A729C
:105060007B6800229A727B680022DA817B681033A9
:1050700028220021184625F03BF97B68103318469A
:10508000FFF7AAFF0D4B1B881AB27B689A8100BFFD
:105090007B6803F110000A4B1B881AB2074B1B8870
:1050A0001BB20093134600220021FEF74EFF7B68DF
:1050B00018460837BD4680BD28C60208C6B500247C
:1050C000C4B5002480B582B000AF78600B467B8009
:1050D0007B681B6824331B687A8811467868984778
:1050E000034618460837BD4680BD80B582B000AF84
:1050F00078600B467B807B681B6824331B687A884A
:10510000114678689847034618460837BD4680BD63
:1051100080B483B000AF786039607B683A68DA6346
:1051200000BF0C37BD465DF8047B704780B582B088
:1051300000AF7860084A7B681A607B6810331846B5
:10514000FFF7D2FE7B681846FFF780F87B681846A9
:105150000837BD4680BD00BFA0C5020880B582B03B
:1051600000AF78607868FFF7E1FF3821786824F0B5
:105170000AFF7B6818460837BD4680BD80B582B0FF
:1051800000AF7860084A7B681A607B681033184665
:10519000FFF734FF7B681846FFF758F87B6818461E
:1051A0000837BD4680BD00BF28C6020880B582B062
:1051B00000AF78607868FFF7E1FF3821786824F065
:1051C000E2FE7B6818460837BD4680BD80B582B0D8
:1051D00000AF7860054A7B681A607B681846FFF765
:1051E00035F87B6818460837BD4680BD14C70208ED
:1051F00080B582B000AF78607868FFF7E7FF0C21D8
:10520000786824F0C0FE7B6818460837BD4680BD2C
:1052100090B593B002AF78607B681846FFF736F818
:105220007B689B7A0133DAB27B689A727B689A7AE0
:105230007B685B7A9A422BD87B689B7A98B27B68B2
:10524000B3F90C207B685B7A9BB2002117F0F6F96A
:1052500003461A467B68DA817B68B3F90E309BB24D
:1052600003F001039BB2002B19D07B68B3F90E3019
:105270009BB27A68B2F90E20002A01DD012201E01A
:105280004FF6FF7213449BB21AB27B68DA8106E0D4
:105290007B6801221A727B6800229A727EE07B682A
:1052A00010331846FEF77FFE03467B877B6803F1C9
:1052B00010003C4B1A887B68B3F90E309BB2D31AAE
:1052C0009BB21BB21946FEF7C6FE7B681033184628
:1052D000FEF769FE03469BB27A8FD31A3B877B6841
:1052E00010331846FEF75FFE034619462E4B1B8807
:1052F0001AB2B7F9383007F11800009313460A467E
:105300000021FEF79BFD7B685B6818467B685B6845
:105310001B6810331B6807F118021146984700BF3D
:105320007B689B7A012B39D1204B1B78002B35D021
:105330007B6810331846FEF7FCFD024607F11003A8
:105340001068516803C3FCF72DFF03461A6830321A
:10535000126818469047F86307F108031846FDF7EE
:105360007DFA00233B8100237B810F4B1B881BB2FE
:10537000BB810C4B1B881BB2FB81FCF713FFFEF7B4
:1053800033FF03680C331C6807F1100307F10802B0
:1053900000210191FF210091F96BA0474437BD46E0
:1053A00090BD00BFC6B50024C4B50024CEB500240E
:1053B00080B582B000AF78607B6858687B685B68B6
:1053C0001B6860331B687A6810321146984700BF2B
:1053D0000837BD4680BD80B582B000AF78607B687D
:1053E0001846FEF767FF7B6858687B685B681B6838
:1053F0005C331B687A6810321146984700BF083743
:10540000BD4680BD80B483B000AF786000BF0C376C
:10541000BD465DF8047B704780B483B000AF786010
:10542000396000BF0C37BD465DF8047B704780B51E
:1054300084B002AF786039603B68B3F908203B68FC
:10544000B3F90A3000931346002200217868FEF772
:10545000F5FC78680837BD4680BD000090B593B074
:1054600002AF78607B681846FEF710FF7B689B7A76
:105470000133DAB27B689A727B689A7A7B685B7ACE
:105480009A422BD87B689B7A98B27B68B3F90C2040
:105490007B685B7A9BB2002117F0D0F803461A466E
:1054A0007B68DA817B68B3F90E309BB203F00103AD
:1054B0009BB2002B19D07B68B3F90E309BB27A688F
:1054C000B2F90E20002A01DD012201E04FF6FF7241
:1054D00013449BB21AB27B68DA8106E07B68012232
:1054E0001A727B6800229A727FE07B68103318463C
:1054F000FEF74CFD03467B877B6803F110003C4BB5
:105500001A887B68B3F90E309BB2D31A9BB21BB2D8
:105510001946FEF7A0FD7B6803F110027B68B3F922
:105520000E3019461046FEF75AFD7B68B3F90E306F
:105530009AB27B8FD31A3B87B7F93A202D4B1B8841
:1055400019B2B7F9383007F1200000930B4600215B
:10555000FEF774FC7B685B6818467B685B681B68B9
:1055600010331B6807F120021146984700BF7B6883
:105570009B7A012B39D1204B1B78002B35D07B68CF
:1055800010331846FEF7D5FC024607F110031068E9
:10559000516803C3FCF706FE03461A6830321268EE
:1055A00018469047F86307F108031846FDF756F9C7
:1055B00000233B8100237B810E4B1B881BB2BB81E8
:1055C0000B4B1B881BB2FB81FCF7ECFDFEF70CFEBE
:1055D00003680C331C6807F1100307F1080200216F
:1055E0000191FF210091F96BA0474437BD4690BD62
:1055F000C6B50024C4B50024CEB5002480B582B061
:1056000000AF78607B6858687B685B681B686033B4
:105610001B687A6810321146984700BF0837BD46AC
:1056200080BD80B582B000AF78607B681846FEF719
:1056300041FE7B6858687B685B681B685C331B684D
:105640007A6810321146984700BF0837BD4680BDC2
:1056500080B483B000AF786000BF0C37BD465DF802
:10566000047B704780B483B000AF7860396000BFBE
:105670000C37BD465DF8047B704780B584B002AF3F
:10568000786039603B68B3F908203B68B3F90A30A9
:1056900000931346002200217868FEF7CFFB78685C
:1056A0000837BD4680BD80B483B000AF78607B68AA
:1056B0001B6A18460C37BD465DF8047B704780B402
:1056C00083B000AF78607B685B6A18460C37BD46D4
:1056D0005DF8047B7047000080B58CB008AFF860BF
:1056E000B96011461A460B46FB801346BB80F8682A
:1056F000B988FA883B8F0693BB8E059397F82830BC
:10570000049397F82430039397F8203002933B7F5B
:1057100001933B7E00930B46B96816F069FB0A4A79
:10572000FB681A60FB68FA6A9A61FB683A6BDA6197
:10573000FB68FA6B1A62FB683A6C5A62FB6818469F
:105740001037BD4680BD00BF5CC7020880B485B07D
:1057500000AF786039607B689B69FB603B689B8821
:10576000DB0A9BB29B00FA6813441A683B681B680B
:10577000134418461437BD465DF8047B704780B467
:1057800089B000AFF8600B467A607B817B68002BA4
:1057900003D07B681B7B002B01D1002330E0FB682A
:1057A000DA697B687B617B695B7B1B021BB203F45C
:1057B000E06319B27B69DB7A1BB20B431BB29BB26D
:1057C0009B001344FB617B681B7B7B837B8B002BE3
:1057D00015D0FB691B887A899A4203D1FB6993F93A
:1057E00002300DE0FB691B887A899A4206D37B8BD5
:1057F000013B7B83FB690433FB61E7E700BF0023C8
:1058000018462437BD465DF8047B704780B483B0EA
:1058100000AF786039607B683A681A607B68184628
:105820000C37BD465DF8047B704780B483B000AF91
:1058300078600B467B807B687A881A807B68184684
:105840000C37BD465DF8047B704780B483B000AF71
:1058500078600B46FB707B68FA7883F8242000BFE1
:105860000C37BD465DF8047B7047000080B582B000
:1058700000AF78607B681846FEF700FB054A7B683E
:105880001A607B6800229A627B6818460837BD461A
:1058900080BD00BF50D0020880B582B000AF7860F4
:1058A000064A7B681A607B680433184601F020F8CA
:1058B0007B6818460837BD4680BD00BF10E8020867
:1058C00080B582B000AF78607868FFF7E5FF3C21D3
:1058D000786824F058FB7B6818460837BD4680BDC1
:1058E00080B483B000AF786000BF0C37BD465DF870
:1058F000047B704780B483B000AF786000BF0C3782
:10590000BD465DF8047B704780B483B000AF78601B
:1059100000BF0C37BD465DF8047B704780B483B090
:1059200000AF786000BF0C37BD465DF8047B704760
:1059300080B483B000AF78600B46FB7000BF0C37BB
:10594000BD465DF8047B704780B582B000AF7860DB
:1059500039607B6804333968184611F021FB00BFB9
:105960000837BD4680BD000080B582B000AF7860CA
:105970007B68184626231A46002124F0B9FC7B6870
:105980001846FEF72BFD094A7B681A607B68FF22E8
:1059900083F826207B68283300211846FFF736FF5E
:1059A0007B6818460837BD4680BD00BFC4E00208CA
:1059B00080B483B000AF786039607B683A689A62DF
:1059C00000BF0C37BD465DF8047B704780B582B0E0
:1059D00000AF786039607B68184626231A4600219C
:1059E00024F086FC7B681846FEF7F8FC094A7B68C1
:1059F0001A607B683A681288DA847B68FF2283F831
:105A000028203968786813F070FC7B6818460837DE
:105A1000BD4680BD3CE3020880B582B000AF78602F
:105A2000054A7B681A607B681846FEF7E9FC7B68CC
:105A300018460837BD4680BDC4E0020880B582B074
:105A400000AF78607868FFF7E7FF2C21786824F0D2
:105A50009AFA7B6818460837BD4680BD80B582B08B
:105A600000AF78607B681846FFF77EFF084A7B68C6
:105A70001A607B682C3300211846FFF7C7FE7B684D
:105A800000221A867B6818460837BD4680BD00BFD5
:105A9000D8E2020880B483B000AF786039607B68D8
:105AA0003A68DA6200BF0C37BD465DF8047B704788
:105AB00080B483B000AF78600B467B807B687A88C7
:105AC0001A8600BF0C37BD465DF8047B70470000A6
:105AD00080B483B000AF78600B467B80064A7B6859
