:020000040800F2
:1000000000000824891800088116000887160008D7
:100010008D160008931600089916000800000000CD
:10002000000000000000000000000000E1BE000829
:100030009F1600080000000031C10008B5B100089B
:10004000D9180008D9180008D9180008D9180008CC
:10005000D9180008D9180008D9180008D9180008BC
:10006000D9180008D9180008D9180008D9180008AC
:10007000D9180008D9180008D9180008D91800089C
:10008000D9180008D9180008D9180008D91800088C
:10009000D9180008D9180008D9180008D91800087C
:1000A000D9180008D9180008D9180008D91800086C
:1000B000D9180008D9180008D9180008D91800085C
:1000C000D9180008D9180008D9180008D91800084C
:1000D000D9180008D9180008D9180008D91800083C
:1000E000D9180008D918000800000000D918000825
:1000F000D9180008D9180008D9180008D91800081C
:10010000D9180008D9180008D9180008D91800080B
:10011000D9180008D9180008AD160008D918000829
:10012000D9180008D9180008D9180008D9180008EB
:10013000D9180008D9180008D9180008D9180008DB
:10014000D9180008D91800080000000000000000BD
:10015000D9180008D9180008D9180008D9180008BB
:10016000D9180008D9180008D9180008D9180008AB
:10017000D9180008D9180008D91800080000000094
:10018000D9180008D9180008D9180008D91800088B
:10019000D9180008D9180008D9180008D91800087B
:1001A000C1160008D9180008D5160008D91800088B
:1001B000E9160008D9180008D9180008D91800084D
:1001C000D9180008D9180008D9180008D91800084B
:1001D000D9180008D9180008D9180008D91800083B
:1001E000D9180008D9180008D9180008D91800082B
:1001F000D9180008D9180008D9180008D91800081B
:10020000D9180008D9180008D9180008D91800080A
:10021000D9180008D9180008D9180008D9180008FA
:10022000D9180008D9180008D918000800000000E3
:10023000D9180008D9180008D9180008D9180008DA
:10024000D9180008D9180008D9180008D9180008CA
:10025000D9180008D9180008D9180008D9180008BA
:10026000D9180008D9180008D9180008D9180008AA
:10027000D9180008D9180008D9180008D91800089A
:10028000D9180008D9180008D91800080000000083
:08029000D9180008D918000874
:1002A00010B5054C237833B9044B13B10448AFF3B0
:1002B00000800123237010BD3401002400000000E1
:1002C0006CD7020808B5034B1BB103490348AFF3D1
:1002D000008008BD00000000380100246CD702082F
:1002E00001F0FF01102A2BDB10F0070F08D010F8E7
:1002F000013B013A8B422DD010F0070F42B3F6D1EB
:10030000F0B441EA012141EA014122F007047FF003
:1003100000070023F0E80256083C85EA010586EA5A
:10032000010685FA47F5A3FA87F586FA47F6A5FA96
:1003300087F68EB9EED1F0BC01F0FF0102F00702A2
:1003400032B110F8013B013A83EA010313B1F8D14D
:100350000020704701387047002D06BF354603382E
:10036000073815F0010F07D1013015F4807F02BF67
:10037000013015F4C03F0130F0BC0138704700BFB8
:1003800080B483B000AF87ED010A044A7B68136034
:1003900000BF0C37BD465DF8047B7047000000309D
:1003A00080B483B000AF0346FB71044AFB7913713C
:1003B00000BF0C37BD465DF8047B7047000000307D
:1003C00080B400AF034B5B79DBB21846BD465DF8E5
:1003D000047B70470000003080B400AF034B9B7972
:1003E000DBB21846BD465DF8047B70470000003064
:1003F00080B483B000AF0346FB71044AFB7993716C
:1004000000BF0C37BD465DF8047B7047000000302C
:1004100080B584B000AF00F017FC4FF6FF73FB60AF
:1004200000BF464B1B6803F40043002B04D0FB685D
:100430005A1EFA60002BF4DCFB68002B01DA00F096
:100440004DFC10F0EDFE00F08BF800F013F93B4B83
:10045000D3F8E030394A43F00073C2F8E030374B4C
:10046000D3F8E03003F00073BB60BB68002011F0EC
:1004700017FE0021002011F02DFE4FF6FF73FB60E8
:1004800000BF2E4B1B6803F40043002B04D1FB6814
:100490005A1EFA60002BF4DCFB68002B01DA00F036
:1004A0001DFC264BD3F8D830244A43F00103C2F890
:1004B000D830224BD3F8D83003F001037B607B683F
:1004C00000F09EFA00F0C6F900F044FA00F03EF9A0
:1004D00000F0FCF800F01CF900F0EAF901F0FDF979
:1004E000174B9A681649174B13408B60144B9B6847
:1004F000134A43F003039360114B9A69104940F289
:10050000011313438B610E4B1B680D4A43F001032B
:1005100013600AF069FE0C4A00210C480AF0AEFE96
:1005200003460B4A13600B4A00210B480AF0A6FE53
:1005300003460A4A13600AF07BFEFEE700440258B5
:1005400000080040F8FFFEFFF8E50208390C00083B
:10055000500300241CE60208E71800085403002496
:1005600080B59CB000AF07F124034C22002118464F
:100570002CF081FA3B1D2022002118462CF07BFA3A
:10058000042013F011F900233B60374BDB6A364A35
:1005900023F00103D362344BDB6A03F001033B60B9
:1005A000324B9B69314A43F4404393612F4B9B6923
:1005B00003F440433B603B6800BF2C4B9B6903F452
:1005C0000053B3F5005FF8D1294B9B6A23F0030376
:1005D000274A43F00203936201237B624FF4803386
:1005E000BB620223BB640223FB6405233B659023AB
:1005F0007B650223BB650423FB6504233B6608235C
:100600007B660023BB660023FB6607F124031846C4
:1006100014F006F80346002B01D000F05FFB3F23E7
:100620007B600323BB600023FB6008233B61402306
:100630007B614023BB614FF48063FB6140233B62DD
:100640003B1D0221184614F019FC0346002B01D073
:1006500000F044FB4FF480220021002014F0C4FD80
:1006600000BF7037BD4680BD0004005800480258E6
:100670000044025880B5B0B000AF3B1DBC22002141
:1006800018462CF0F8F94FF400237B600523BB607B
:100690006423FB600A233B610A237B610223BB6165
:1006A0008023FB6100233B6200237B620023C7F8A9
:1006B000A4303B1D184615F019F80346002B01D055
:1006C00000F00CFB00BFC037BD4680BD80B500AF59
:1006D0000D4B0E4A1A600C4B00221A710A4B002275
:1006E0005A71094B00225A61074B00229A61064B4E
:1006F00001221A62044810F089FF0346002B01D042
:1007000000F0ECFA00BF80BD50010024004C0258FC
:1007100080B500AF0B4B0C4A1A600A4B4FF44032C5
:100720005A60084B02229A60064B0022DA600548A4
:1007300011F056F80346002B01D000F0CFFA00BFAD
:1007400080BD00BF740100240010005280B58EB03F
:1007500000AF00F0C9FA3B1D3422002118462CF0EE
:100760008AF93A4B3A4A1A60384B00225A60374BA2
:1007700000229A60354B0022DA60344B00221A6165
:10078000324B28225A61314B09229A612F4B352274
:10079000DA612E4B0B221A622C4B40F215225A6260
:1007A0002A4B40F21B129A62284B40F23522DA6241
:1007B000264B40F21D121A63244B002283F834208A
:1007C000224B002283F83520204B002283F836206C
:1007D0001E4812F0EDFA0346002B01D000F07EFA1D
:1007E00000237B604FF4F073BB600023FB604FF489
:1007F00088733B6102237B61FF23BB610023FB61A4
:100800004FF480633B6205237B624FF05043BB6231
:100810004FF4F073FB624FF488733B63002387F857
:100820003430002387F83530002387F836303B1DFD
:1008300000221946054812F043FC0346002B01D064
:1008400000F04CFA00BF3837BD4680BDDC01002403
:100850000010005080B500AF124B134A1A60114BC4
:1008600001225A600F4B01229A600E4B1022DA606F
:100870000C4B1A221A610B4B4FF400725A61094B50
:1008800000229A61074B40221A62064812F0E6FFE6
:100890000346002B01D000F021FA044800F098FA3A
:1008A00000BF80BD8402002400500052DD0C00080F
:1008B00080B588B000AF07F10C0300221A605A60BF
:1008C0009A60DA601A613B4600221A605A609A60A8
:1008D0001E4B1F4A1A601D4B00225A601B4B002200
:1008E0009A601A4B4FF6FF72DA60184B00221A61B9
:1008F000164B00229A61154816F057F80346002B54
:1009000001D000F0EBF90723FB6040233B6100239B
:10091000FB6107F10C0319460C4816F034FA034644
:10092000002B01D000F0DAF900233B600023BB600C
:100930003B461946054816F095FC0346002B01D0AE
:1009400000F0CCF900BF2037BD4680BDD0020024A6
:100950000008004080B588B000AF3B1D00221A603F
:100960005A609A60DA601A615A619A61214B224A90
:100970001A60204B01225A601E4B00229A601D4BC8
:100980000422DA601B4B10221A611A4B40225A6172
:10099000184B4FF480729A61164B0022DA61154BA6
:1009A0004FF400621A62134B4FF480525A62114B9B
:1009B00000229A6202237B600623BB600423FB6053
:1009C00006233B6102237B610223BB610223FB619F
:1009D0003B1D1946074815F033FF0346002B01D095
:1009E00000F07CF9054800F014FA00BF2037BD463E
:1009F00080BD00BF1C03002440410052DD0C0008F4
:100A000080B590B000AF07F12C0300221A605A6045
:100A10009A60DA601A61814BD3F8E0307F4A43F480
:100A20008063C2F8E0307D4BD3F8E03003F480639C
:100A3000BB62BB6A794BD3F8E030784A43F040039D
:100A4000C2F8E030754BD3F8E03003F040037B622E
:100A50007B6A724BD3F8E030704A43F48073C2F87B
:100A6000E0306E4BD3F8E03003F480733B623B6AB6
:100A70006A4BD3F8E030694A43F01003C2F8E03023
:100A8000664BD3F8E03003F01003FB61FB69634B66
:100A9000D3F8E030614A43F40073C2F8E0305F4BB2
:100AA000D3F8E03003F40073BB61BB695B4BD3F850
:100AB000E0305A4A43F00803C2F8E030574BD3F80D
:100AC000E03003F008037B617B69544BD3F8E030DE
:100AD000524A43F00403C2F8E030504BD3F8E03000
:100AE00003F004033B613B694C4BD3F8E0304B4AC5
:100AF00043F00103C2F8E030484BD3F8E03003F094
:100B00000103FB60FB68454BD3F8E030434A43F0F8
:100B10002003C2F8E030414BD3F8E03003F020036B
:100B2000BB60BB683D4BD3F8E0303C4A43F08003E8
:100B3000C2F8E030394BD3F8E03003F080037B603B
:100B40007B68364BD3F8E030344A43F00203C2F8F6
:100B5000E030324BD3F8E03003F002033B603B68F7
:100B6000002240212E4811F081FA0823FB62002365
:100B70003B6300237B6307F12C031946294810F0DF
:100B8000A3FF4FF48073FB6202233B6300237B636C
:100B90000023BB630023FB6307F12C0319462048A5
:100BA00010F092FF0823FB6200233B6301237B6369
:100BB00007F12C0319461C4810F086FF0223FB6244
:100BC00000233B6301237B6307F12C03194617487D
:100BD00010F07AFF4023FB6201233B6300237B6319
:100BE0000023BB6307F12C0319460D4810F06CFF7E
:100BF0000823FB6207F12C0319460D4810F064FF2F
:100C00004FF40043FB6207F12C031946094810F02A
:100C10005BFF00BF4037BD4680BD00BF00440258A7
:100C200000000258002002580018025800280258FC
:100C300000100258001C025880B582B000AF7860E6
:100C400001200AF0ADFBFBE780B584B000AF3B4666
:100C500000221A605A609A60DA6010F05BFC01238F
:100C60003B7000237B704FF050437B6013233B723B
:100C700000237B720023BB720323FB7201233B73AF
:100C800000237B730123BB730123FB733B46184690
:100C900010F078FC01237B704FF010437B601A2327
:100CA0003B723B46184610F06DFC042010F04AFCE5
:100CB00000BF1037BD4680BD80B582B000AF786000
:100CC0007B681B68044A934201D110F0E5FA00BF2B
:100CD0000837BD4680BD00BF0010004080B400AFA3
:100CE00072B600BFFEE7000080B58CB000AF364B97
:100CF000D3F8E430344A43F00803C2F8E430324B0E
:100D0000D3F8E43003F00803BB61BB692E4BD3F882
:100D1000E0302D4A43F48073C2F8E0302A4BD3F818
:100D2000E03003F480737B617B69274BD3F8E030BC
:100D3000254A43F40073C2F8E030234BD3F8E03087
:100D400003F400733B613B691F4BD3F8E0301E4A4C
:100D500043F48063C2F8E0301B4BD3F8E03003F477
:100D60008063FB60FB68184BD3F8E030164A43F011
:100D70008003C2F8E030144BD3F8E03003F0800376
:100D8000BB60BB68104BD3F8E0300F4A43F0080358
:100D9000C2F8E0300C4BD3F8E03003F008037B607E
:100DA0007B688023FB6101233B6207F11C0319462A
:100DB000064810F089FE01228021044811F056F9FE
:100DC00000BF3037BD4680BD00440258000C0258B9
:100DD00080B584B000AF786003233B7301237B733D
:100DE0004023BB7307F10C03194600200FF0D2F922
:100DF0000346002B01D07B68984700200FF0A4FA2F
:100E00000346002B01D07B68984700BF1037BD46D2
:100E100080BD80B582B000AF786000200FF002FE88
:100E200000200FF0A3FD0346002B01D07B689847FC
:100E300000BF0837BD4680BD80B582B000AF0C4B07
:100E4000D3F8F4300A4A43F00203C2F8F430084BF6
:100E5000D3F8F43003F002037B607B6800220F219B
:100E60006FF0010010F020FB00BF0837BD4680BDC9
:100E70000044025880B485B000AF78607B681B687E
:100E80000B4A93420ED10B4BD3F8E030094A43F49E
:100E90000023C2F8E030074BD3F8E03003F400231E
:100EA000FB60FB6800BF1437BD465DF8047B7047EC
:100EB000004C02580044025880B584B000AF7860FE
:100EC0007B681B680E4A934216D10E4BD3F8D43080
:100ED0000C4A43F01003C2F8D4300A4BD3F8D43094
:100EE00003F01003FB60FB68002205215A2010F07C
:100EF000DBFA5A2010F0F2FA00BF1037BD4680BD71
:100F0000001000520044025880B5BCB000AF7860B9
:100F100007F1DC0300221A605A609A60DA601A61F5
:100F200007F12003BC22002118462BF0A4FD7B68AA
:100F30001B68684A934240F0C8804FF000533B6200
:100F400005237B64A023BB640223FB6402233B656F
:100F500053237B654FF40063BB650023FB650023CF
:100F60003B6607F12003184614F0C0FB0346002B34
:100F700001D0FFF7B3FE584BD3F8E430564A43F0A4
:100F80000803C2F8E430544BD3F8E43003F008030C
:100F9000FB61FB69504BD3F8E0304F4A43F4806368
:100FA000C2F8E0304C4BD3F8E03003F48063BB610F
:100FB000BB69494BD3F8E030474A43F48073C2F829
:100FC000E030454BD3F8E03003F480737B617B69FC
:100FD000414BD3F8E030404A43F40073C2F8E030AC
:100FE0003D4BD3F8E03003F400733B613B693A4B6F
:100FF000D3F8E030384A43F08003C2F8E030364B93
:10100000D3F8E03003F08003FB60FB68FC23C7F8F3
:10101000DC300223C7F8E0300023C7F8E4300223B5
:10102000C7F8E8300E23C7F8EC3007F1DC031946A7
:101030002A4810F049FD4DF20323C7F8DC300223A3
:10104000C7F8E0300023C7F8E4300223C7F8E830DF
:101050000E23C7F8EC3007F1DC031946204810F0E6
:1010600033FD4FF6FB73C7F8DC300223C7F8E030DE
:101070000023C7F8E4300223C7F8E8300E23C7F88E
:10108000EC3007F1DC031946164810F01DFD4FF453
:101090000073C7F8DC300223C7F8E0300023C7F83C
:1010A000E4300223C7F8E8300E23C7F8EC3007F12C
:1010B000DC0319460C4810F007FD002205215820DA
:1010C00010F0F2F9582010F009FA00BFF037BD46D1
:1010D00080BD00BF00100050004402580028025894
:1010E0000020025800240258001C025880B5BCB0F1
:1010F00000AF786007F1DC0300221A605A609A6042
:10110000DA601A6107F12003BC22002118462BF097
:10111000B2FC7B681B68764A934240F0E4804FF053
:1011200000733B620023BB6607F12003184614F0EE
:10113000DDFA0346002B01D0FFF7D0FD6D4BD3F84D
:10114000D4306C4A43F48043C2F8D430694BD3F8AE
:10115000D43003F48043FB61FB69664BD3F8E03085
:10116000644A43F04003C2F8E030624BD3F8E03009
:1011700003F04003BB61BB695E4BD3F8E0305D4ACE
:1011800043F02003C2F8E0305A4BD3F8E03003F0CC
:1011900020037B617B69574BD3F8E030554A43F01D
:1011A0008003C2F8E030534BD3F8E03003F0800303
:1011B0003B613B694F4BD3F8E0304E4A43F00803A4
:1011C000C2F8E0304B4BD3F8E03003F00803FB608B
:1011D000FB684FF48443C7F8DC300223C7F8E030E3
:1011E0000023C7F8E4300323C7F8E8300923C7F821
:1011F000EC3007F1DC0319463F4810F065FC402352
:10120000C7F8DC300223C7F8E0300123C7F8E43028
:101210000323C7F8E8300A23C7F8EC3007F1DC03F2
:101220001946354810F050FC4FF49863C7F8DC308D
:101230000223C7F8E0300023C7F8E4300323C7F8DF
:10124000E8300923C7F8EC3007F1DC0319462B48D6
:1012500010F03AFC4FF40073C7F8DC300223C7F8F3
:10126000E0300023C7F8E4300323C7F8E8300A234E
:10127000C7F8EC3007F1DC031946204810F024FCD5
:101280000C23C7F8DC300223C7F8E0300023C7F88E
:10129000E4300323C7F8E8300923C7F8EC3007F13E
:1012A000DC031946164810F00FFC4FF40063C7F832
:1012B000DC300223C7F8E0300023C7F8E430032312
:1012C000C7F8E8300923C7F8EC3007F1DC0319460A
:1012D0000C4810F0F9FB002205215C2010F0E4F826
:1012E0005C2010F0FBF800BFF037BD4680BD00BFAA
:1012F00000500052004402580018025800140258CE
:10130000001C0258000C025880B58AB000AF78600B
:1013100007F1140300221A605A609A60DA601A61B9
:101320007B681B681A4A93422DD11A4BD3F8E830D8
:10133000184A43F00403C2F8E830164BD3F8E830FB
:1013400003F004033B613B69124BD3F8E030114AD0
:1013500043F00203C2F8E0300E4BD3F8E03003F064
:101360000203FB60FB68C0237B610223BB61012396
:10137000FB6100233B6202237B6207F114031946E1
:10138000054810F0A1FB00BF2837BD4680BD00BF57
:1013900000080040004402580004025880B5B6B06E
:1013A00000AF07F1C40300221A605A609A60DA6045
:1013B0001A614F4B1B68002B40F096804C4B01226A
:1013C0001A6007F10803BC22002118462BF053FBDA
:1013D0004FF08073BB600023FB6407F108031846DD
:1013E00014F084F90346002B01D0FFF777FC414B42
:1013F000D3F8D4303F4A43F48053C2F8D4303D4B45
:10140000D3F8D43003F480537B607B684FF683734A
:10141000C7F8C4300223C7F8C8300023C7F8CC305F
:101420000323C7F8D0300C23C7F8D43007F1C40326
:101430001946314810F048FB48F23313C7F8C4305E
:101440000223C7F8C8300023C7F8CC300323C7F8FD
:10145000D0300C23C7F8D43007F1C403194627480D
:1014600010F032FB4CF20373C7F8C4300223C7F804
:10147000C8300023C7F8CC300323C7F8D0300C2382
:10148000C7F8D43007F1C40319461D4810F01CFBFF
:101490004FF63F03C7F8C4300223C7F8C830002313
:1014A000C7F8CC300323C7F8D0300C23C7F8D430AA
:1014B00007F1C4031946134810F006FBE023C7F8F0
:1014C000C4300223C7F8C8300023C7F8CC30032348
:1014D000C7F8D0300C23C7F8D43007F1C40319463D
:1014E000094810F0F1FA00E000BFD837BD4680BDD2
:1014F00058030024004402580010025800180258F3
:10150000000C025800140258001C025880B582B02A
:1015100000AF7860FFF742FF00BF0837BD4680BDCF
:1015200080B500AF144B1B68002B23D1124B012256
:101530001A60124BD3F8D430104A23F48053C2F807
:10154000D4304FF683710E4810F06EFC48F2331120
:101550000C4810F069FC4CF203710B4810F064FC6D
:101560004FF63F01094810F05FFCE021084810F0F9
:101570005BFC00E000BF80BD5C0300240044025817
:101580000010025800180258000C025800140258AB
:10159000001C025880B582B000AF7860FFF7C0FF32
:1015A00000BF0837BD4680BD80B590B000AF786001
:1015B0007B680F2B27D80022796836200FF074FF44
:1015C00036200FF08BFF294A7B681360284BD3F835
:1015D000E830274A43F01003C2F8E830244BD3F830
:1015E000E83003F01003FB60FB6807F1100207F11D
:1015F00014031146184614F037F8BB6ABB63BB6B83
:10160000002B06D101E001232BE014F001F8F86370
:1016100004E013F0FDFF03465B00FB63FB6B154A20
:10162000A2FB03239B0C013B7B63134B134A1A6001
:10163000114B40F2E732DA600F4A7B6B53600E4B7E
:1016400000221A610C4B00229A600B4815F0ADF98C
:101650000346002B04D1084815F0FEF9034600E0CC
:10166000012318464037BD4680BD00BF500000240E
:101670000044025883DE1B43600300240010004036
:1016800080B400AFFEE780B400AFFEE780B400AFE7
:10169000FEE780B400AFFEE780B400AFFEE780B4A1
:1016A00000AF00BFBD465DF8047B704780B500AF5A
:1016B000024815F049FA00BF80BD00BF6003002456
:1016C00080B500AF024811F043FC00BF80BD00BFF1
:1016D000DC01002480B500AF024810F0E5F800BF3F
:1016E00080BD00BF7401002480B500AF024812F035
:1016F00029F900BF80BD00BF8402002480B400AF80
:1017000001231846BD465DF8047B704780B582B062
:1017100000AF786039602BF0A7FA034616221A60F2
:101720004FF0FF3318460837BD4680BD80B582B004
:1017300000AF78604FF0FF317868FFF7E7FFFEE712
:1017400080B586B000AFF860B9607A6000237B6135
:101750000AE0AFF300800146BB685A1CBA60CAB207
:101760001A707B6901337B617A697B689A42F0DB8E
:101770007B6818461837BD4680BD80B586B000AF7F
:10178000F860B9607A6000237B6109E0BB685A1C8D
:10179000BA601B781846AFF300807B6901337B6128
:1017A0007A697B689A42F1DB7B6818461837BD4638
:1017B00080BD80B483B000AF78604FF0FF3318462F
:1017C0000C37BD465DF8047B704780B483B000AF32
:1017D000786039603B684FF400525A600023184625
:1017E0000C37BD465DF8047B704780B483B000AF12
:1017F0007860012318460C37BD465DF8047B7047BE
:1018000080B485B000AFF860B9607A6000231846F4
:101810001437BD465DF8047B7047000080B586B084
:1018200000AF7860144A154BD31A7B617B693B612A
:10183000134B1B68002B02D1114B124A1A60104B3C
:101840001A687B6813443A699A4207D22BF00CFA63
:1018500003460C221A604FF0FF3309E0084B1B6867
:10186000FB60074B1A687B681344054A1360FB68EA
:1018700018461837BD4680BD00000824001000003F
:10188000AC03002420C70024DFF834D00DF096F814
:101890000C480D490D4A002302E0D458C4500433CB
:1018A000C4188C42F9D30A4A0A4C002301E01360A1
:1018B0000432A242FBD32BF0DDF9FEF7A9FD7047FD
:1018C00000000824000000243401002494FF0208D2
:1018D0003401002420C70024FEE780B500AF01F0EA
:1018E000D9FC00BF80BD80B582B000AF786001F048
:1018F000FBFC00BF0837BD4680BD000080B483B04C
:1019000000AF7860044A7B681A607B6818460C3721
:10191000BD465DF8047B704760E6020880B582B082
:1019200000AF78607868FFF7E9FF042178682AF053
:101930006EFE7B6818460837BD4680BD80B582B014
:1019400000AF786000F002FB00BF0837BD4680BDE5
:1019500080B584B000AFF860B9607A607968B86823
:1019600000F018FB034618461037BD4680BD000046
:1019700080B582B000AF7860054A7B681A607B68EA
:101980001846FFF7BBFF7B6818460837BD4680BD89
:1019900048E6020880B582B000AF78607868FFF74B
:1019A000E7FF042178682AF032FE7B681846083782
:1019B000BD4680BD80B582B000AF00237B6015E0DE
:1019C0007B68DBB2184600F06FF80346002B0AD0A4
:1019D0000A4A7B6852F82330012B04D0074A7B68FF
:1019E000012142F823107B6801337B607B68032B65
:1019F000E6DD00BF00BF0837BD4680BDB003002450
:101A000080B483B000AF0346FB71FB79032B0CD885
:101A100001A252F823F000BF291A0008291A000871
:101A2000291A0008291A000800BF00BF0C37BD465C
:101A30005DF8047B704700BF80B483B000AF0346FD
:101A4000FB71FB79032B0CD801A252F823F000BFE5
:101A5000611A0008611A0008611A0008611A00087A
:101A600000BF00BF0C37BD465DF8047B704700BF68
:101A700080B483B000AF0346FB71FB79032B0CD815
:101A800001A252F823F000BF991A0008991A000821
:101A9000991A0008991A000800BF00BF0C37BD460C
:101AA0005DF8047B704700BF80B485B000AF03468B
:101AB000FB710023FB73FB79032B0BD801A252F8B7
:101AC00023F000BFD51A0008D51A0008D51A00085F
:101AD000D51A0008FB7B012B0CBF01230023DBB2CE
:101AE00018461437BD465DF8047B704780B483B058
:101AF00000AF7860044A7B681A607B6818460C3730
:101B0000BD465DF8047B704724F5020880B582B0BD
:101B100000AF78607868FFF7E9FF7C2178682AF0E9
:101B200076FD7B6818460837BD4680BD80B483B01B
:101B300000AF78600B46FB707B68FA7883F87820FA
:101B40007B68012283F8792000BF0C37BD465DF821
:101B5000047B704780B582B000AF78600B467B8015
:101B600013463B800C4B1B887A889A4204D30B4B5C
:101B70001B883A889A4205D2094B0A4A9E210A4894
:101B80002AF074FD094A7B881380094A3B88138038
:101B900000BF0837BD4680BDE4BA0024E6BA002481
:101BA000A0D7020804D8020848D80208EABA0024DC
:101BB000ECBA002480B582B000AF78607B6893F8FF
:101BC0007A30002B09D07B685A687B685B681B6899
:101BD0001B6810469847034600E000231846083764
:101BE000BD4680BD80B582B000AF7860786817F0E0
:101BF0008DFA7B681B68AC331B687868984700BF18
:101C00000837BD4680BD80B483B000AF78603960CE
:101C1000002318460C37BD465DF8047B7047000072
:101C200080B584B000AFF860B9607A603B60BB6893
:101C3000002B06D10F4B104A40F2D2210F482AF058
:101C400015FDFB68BA68DA63FB687A681A647B681A
:101C5000002B14BF01230023DAB2094B1A70FB6872
:101C60001B688C331B683968F868984700BF1037C9
:101C7000BD4680BD90D80208C8D8020848D80208DE
:101C8000EEBA002480B483B000AF786039607B681E
:101C90003A685A643B68002B14BF01230023DAB270
:101CA000034B1A7000BF0C37BD465DF8047B7047CC
:101CB000EFBA002480B483B000AF786000231846E8
:101CC0000C37BD465DF8047B704780B582B000AF2D
:101CD00078600B467B807B689B6B002B04D07B6815
:101CE0009B6B7A881046984700BF0837BD4680BD79
:101CF00080B483B000AF78604FF6FF7318460C379E
:101D0000BD465DF8047B704780B582B000AF786057
:101D10007B685A687B685B681B6818331B681046D1
:101D20009847034618460837BD4680BD80B485B045
:101D300000AF78607B6893F878207B6893F8343044
:101D40009A4211D0144B1B78002B1ED1134B1B88C9
:101D5000BB81134B1A88114B1A80114ABB8913801F
:101D60000D4B01221A7010E00B4B1B78002B0CD08E
:101D70000A4B1B88FB810A4B1A88084B1A80084AB9
:101D8000FB891380044B00221A7000BF1437BD4634
:101D90005DF8047B704700BFE8BA0024E6BA00246F
:101DA000E4BA002480B582B000AF78607B68184642
:101DB00016F009FC00BF0837BD4680BD80B582B073
:101DC00000AF7860054A7B681A607B681846FFF7A9
:101DD0008DFE7B6818460837BD4680BD00EA0208C4
:101DE00080B582B000AF78607868FFF7E7FF7C21AC
:101DF00078682AF00CFC7B6818460837BD4680BD21
:101E000080B582B000AF78607B681846FFF7CAFFE4
:101E100000BF0837BD4680BD80B582B000AF786096
:101E20007B68184601F050FD00BF0837BD4680BDF5
:101E300080B582B000AF78607B68184601F0DCFDA9
:101E4000034618460837BD4680BD80B582B000AF56
:101E5000786039607B683968184601F0DBFD00BFA7
:101E60000837BD4680BD80B582B000AF786039606C
:101E70007B683968184601F0E3FD00BF0837BD46AE
:101E800080BD80B584B000AFF860B9607A603B6017
:101E9000F8683B687A68B96801F028FE034618467E
:101EA0001037BD4680BD80B582B000AF78607B68DA
:101EB000184601F02DFD00BF0837BD4680BD80B536
:101EC00082B000AF78607B68184601F031FD00BF3A
:101ED0000837BD4680BD80B582B000AF78607B68B2
:101EE000184601F033FD00BF0837BD4680BD80B500
:101EF00082B000AF78607B68184601F035FD00BF06
:101F00000837BD4680BD000080B582B000AF786064
:101F1000054A7B681A607B681846FFF74FFF7B68AD
:101F200018460837BD4680BD78E6020880B582B005
:101F300000AF78607868FFF7E7FF7C2178682AF0C7
:101F400066FB7B6818460837BD4680BD80B584B007
:101F500000AF4FF4F0733B604FF488737B6008234D
:101F6000BB600023FB603B46194600200EF0E0FEFC
:101F70000346002B14BF01230023DBB2002B03D147
:101F8000034B01221A7000E000BF1037BD4680BD30
:101F9000C003002480B582B000AF78603960114B77
:101FA0001B7883F00103DBB2002B01D0002314E087
:101FB0000D4900200EF078FF0B4B1B68002B01D160
:101FC00000230AE0084B5B681A467B681A60064BE0
:101FD0009B681A463B681A60012318460837BD46BD
:101FE00080BD00BFC0030024C403002480B500AF3F
:101FF00000220121012009F0EEF903460F4A136087
:102000000E4B1B68002B05D10D4B0E4A28210E48A4
:102010002AF02CFB00220421012009F0FBFA0346E0
:102020000A4A1360094B1B68002B05D1084B054A6F
:102030002C2105482AF01AFB00BF80BDD0030024E4
:1020400018D9020864D9020894D90208D4030024DC
:1020500008DA020880B500AF044B1B684FF0FF316F
:10206000184609F041FA00BF80BD00BFD00300242C
:1020700080B500AF034B1B68184609F087FA00BF14
:1020800080BD00BFD003002480B500AF034B1B68A8
:102090000021184609F028FA00BF80BDD0030024B3
:1020A00080B500AF034B1B68184609F06FFA00BFFC
:1020B00080BD00BFD003002480B500AF044B18687A
:1020C00000230022034909F019FB00BF80BD00BFB7
:1020D000D40300240400002480B582B000AF094B73
:1020E0001868391D0023002209F068FB054B1868A9
:1020F000391D4FF0FF33002209F060FB00BF0837A5
:10210000BD4680BDD403002480B483B000AF034635
:10211000FB80B7F90630002B0BDBFB8803F01F02B6
:102120000749B7F906305B09012000FA02F241F8CD
:10213000232000BF0C37BD465DF8047B704700BF0D
:1021400000E100E080B483B000AF0346FB80B7F944
:102150000630002B12DBFB8803F01F020A49B7F997
:1021600006305B09012000FA02F2203341F82320F7
:10217000BFF34F8F00BFBFF36F8F00BF00BF0C379F
:10218000BD465DF8047B704700E100E080B483B099
:1021900000AF78607B6800221A607B6818460C37B5
:1021A000BD465DF8047B704780B483B000AF7860B3
:1021B0007B681B6818460C37BD465DF8047B70478A
:1021C00080B483B000AF7860044A7B681A607B6893
:1021D00018460C37BD465DF8047B7047A0E702083F
:1021E00080B582B000AF78607868FFF7E9FF04211E
:1021F00078682AF00CFA7B6818460837BD4680BD1F
:1022000080B582B000AF78607B681B6844331B6880
:102210007868984700BF0837BD4680BD80B483B05A
:1022200000AF7860044A7B681A607B6818460C37F8
:10223000BD465DF8047B7047FCF5020880B582B0AE
:1022400000AF78607868FFF7E9FF0C2178682AF022
:10225000DEF97B6818460837BD4680BD80B483B080
:1022600000AF78603960094A7B681A607B683A6819
:102270005A607B6800221A727B6800225A727B685F
:1022800018460C37BD465DF8047B7047FCF5020824
:1022900080B483B000AF7860012318460C37BD4688
:1022A0005DF8047B704780B582B000AF78607A68D3
:1022B0007B681B6828331B681046984700BF0837A7
:1022C000BD4680BD80B400AF034B1B681846BD46B9
:1022D0005DF8047B704700BFF0BA002480B582B07F
:1022E00000AF78607B685A687B685B681B68143352
:1022F0001B681046984700BF0837BD4680BD80B5B3
:1023000082B000AF7860FFF7DDFF03461846FFF7A5
:10231000E5FF00BF0837BD4680BD80B582B000AF85
:1023200078607B680C331846FFF730FF7B681846EF
:102330000837BD4680BD0000B0B582B000AF786000
:102340007A687B680C3319461046FFF787FF0E4A00
:102350007B681A607B6803F10C007B682033602285
:10236000194617F00DF87B6820335F241D4604E002
:102370002846FFF7D2FF2435013C002CF8DA7B68B1
:1023800018460837BD46B0BD50E7020880B582B098
:1023900000AF7860094A7B681A605A20FFF7D2FEC6
:1023A0007B680C33184600F0CBFA7B681846FFF7C1
:1023B00035FF7B6818460837BD4680BD50E70208E8
:1023C00080B582B000AF78607868FFF7DFFF4FF428
:1023D0005A6178682AF01BF97B6818460837BD46B1
:1023E00080BD000080B584B000AF7860124BD3F898
:1023F000D430114A43F01003C2F8D4300E4BD3F856
:10240000D43003F01003FB60FB680B4BDB6F0A4A10
:1024100043F01003D367084BDB6F074A23F0100328
:10242000D367064B064A1A625A20FFF76DFE00BFBB
:102430001037BD4680BD00BF00440258740100241F
:10244000FF22000880B584B000AF78600B46FB70B7
:102450000023FB60FB780B2B26D801A252F823F057
:102460009D2400089724000891240008A92400084E
:10247000A9240008A9240008A9240008A32400080E
:10248000A3240008A3240008A3240008A324000810
:102490000023FB600EE00123FB600BE00223FB60E6
:1024A00008E00523FB6005E0054B064A6621064867
:1024B0002AF0DCF8FB6818461037BD4680BD00BF27
:1024C0004CDA020868DA0208B4DA020880B584B08F
:1024D00000AF78600B46FB700023FB60FB780A2B93
:1024E00021D801A252F823F0212500081B2500085D
:1024F000152500082725000827250008272500089E
:10250000272500081B2500081B2500081B2500089F
:102510001B2500080023FB600BE00123FB6008E0A3
:102520000223FB6005E0054B054A872105482AF098
:102530009DF8FB6818461037BD4680BD4CDA02088E
:1025400028DB0208B4DA020880B483B000AF7860F8
:1025500040F2EF3318460C37BD465DF8047B7047F8
:1025600090B589B000AF786039603B685B7F1946F1
:102570007868FFF767FFB8613B689B7F194678680A
:10258000FFF760FF78613B689B7F19467868FFF72B
:102590009DFF38613B685B8B1A463B689B8AD21A69
:1025A000924B1A643B685B8B1A463B689B8AD21A33
:1025B0008E4B9A613B681B8B1A463B689B8AD21AEA
:1025C0008A4B1A61894A3B6953633B68DB8A1A4626
:1025D0003B689B8A1B041A43844B5A643B681A6904
:1025E000824BDA633B685A68804BDA603B681B6851
:1025F000B3F5007F36D0B3F5007F00F2E280B3F58B
:10260000807F14D0B3F5807F00F2DB80802B59D01F
:10261000802B00F2D680402B00F0BE80402B00F2D1
:10262000D080042B39D0202B00F0B680C9E03B6865
:102630001B7F1B0619466D4A6D4B0B43D3613B68EC
:102640000C336A4C1846FFF7AFFD03462362674A16
:102650007B6953623B681A69644B5A61634B654AF4
:102660001A60DAE03B681B7F1B0619465F4A624B23
:102670000B43D3613B680C335C4C1846FFF794FD69
:1026800003462362594A7B6953623B681A69574B78
:102690005A61564B574A1A60BFE03B681B7F1B06C6
:1026A0001A46BB691343514A43F40033D3614F4A7E
:1026B0007B6953623B681A694C4B5A614B4B4D4ADC
:1026C0001A60AAE00123FB773B689B68FB60FB680C
:1026D0001A1D464BDA623B681B7F1B061A46BB6914
:1026E0001343424A43F40033D361404A7B69536247
:1026F0003B681A693D4B5A61FB681B88DBB2002BB3
:1027000002D0012B0DD020E0384BDA693B4B13404F
:10271000FA685288013A12021146344A0B43D361D7
:102720001AE03B681B7FFF2B01D10023FB772F4B67
:10273000DA69324B1340FA685288013A12021343A5
:102740002A4A43F01003D36106E02D4B2D4A40F294
:1027500011112D4829F08AFF244BDB69234A43F0ED
:102760002003D36100BF214BDB6903F02003002B62
:1027700014BF01230023DBB2002BF4D11B4B10222A
:102780009A60FB7F002B03D0184B1A4A1A6044E072
:10279000164B1E4A1A6040E03B681B7F1B061A4618
:1027A000BB691343114A43F40033D3610F4A7B6979
:1027B00053623B681A690D4B5A610C4B0D4A1A6003
:1027C0002BE03B681B7F1B061A46BB691343074A75
:1027D00043F40033D3613B685A7F3B689B7F9A4246
:1027E00016D0024B094A1A6016E000BF00100052D2
:1027F0000A0002000102020009000200EF00FFFFD0
:1028000074DB020890DB0208B4DA0208010201005E
:10281000044B40F201221A6000BF00BF2437BD46BE
:1028200090BD00BF0010005290B585B000AF786039
:1028300039603B689B7F19467868FFF747FEF86070
:102840003B4AFB6853633B68DB8A1A463B689B8ABA
:102850001B041A43364B5A643B681A69344BDA63DB
:102860003B685B8B1A463B689B8AD21A304B1A64D2
:102870003B681B68082B2ED13B685B8B1A463B6874
:102880009B8AD21A2A4B9A613B685B8B1A463B683B
:102890009B8AD21A264B1A61254AFB6853623B6811
:1028A0001B7F1B061946224A224B0B43D3613B6810
:1028B0000C331F4C1846FFF777FC034623623B6836
:1028C0001A691B4B5A613B681A69194BDA60184B3D
:1028D000194A1A6027E0164AFB68D361144B00229C
:1028E0001A613B680C331846FFF75EFC03461B0A6F
:1028F00003F478443B680C331846FFF755FC034655
:102900005B0903F4FC631C433B680C331846FFF778
:102910004BFC0346DB0803F01F03054A2343936384
:10292000034B064A1A6000BF1437BD4690BD00BF76
:102930000010005209000100010202000102030020
:1029400080B582B000AF7860054A7B681A607B680A
:102950001846FFF735FC7B6818460837BD4680BD32
:102960004CF6020880B582B000AF78607868FFF757
:10297000E7FF1421786829F04AFE7B68184608377B
:10298000BD4680BD80B483B000AF78607B68002214
:102990001A807B6800225A807B6800229A807B68BC
:1029A0000022DA807B6818460C37BD465DF8047B50
:1029B0007047000080B483B000AF7860044A7B6841
:1029C000136000BF0C37BD465DF8047B704700BF45
:1029D0004CBB002480B483B000AF7860044A7B68AD
:1029E0001A607B6818460C37BD465DF8047B70475B
:1029F000ECE9020880B582B000AF78607868FFF734
:102A0000E9FF0421786829F002FE7B681846083740
:102A1000BD4680BD80B485B000AFF860B9607A6013
:102A20003B600B4AFB681A60FB68BA685A60FB6837
:102A30007A689A60FB683A68DA60FB68BA691A617A
:102A4000FB6818461437BD465DF8047B704700BF2D
:102A5000DCE9020880B483B000AF7860044A7B6888
:102A60001A607B6818460C37BD465DF8047B7047DA
:102A7000DCE9020880B582B000AF78607868FFF7C3
:102A8000E9FF1421786829F0C2FD7B6818460837F1
:102A9000BD4680BD80B483B000AF7860396000BFB0
:102AA0000C37BD465DF8047B704780B483B000AF3F
:102AB0007860396000BF0C37BD465DF8047B704715
:102AC00080B483B000AF7860396000BF0C37BD467A
:102AD0005DF8047B704780B483B000AF78600B462C
:102AE000FB7000BF0C37BD465DF8047B704780B4B7
:102AF00083B000AF786000BF0C37BD465DF8047B43
:102B0000704780B483B000AF786000BF0C37BD461B
:102B10005DF8047B7047000080B483B000AF78603C
:102B2000044A7B681A607B6818460C37BD465DF81E
:102B3000047B7047B4E9020880B582B000AF7860CA
:102B40007868FFF7E9FF0421786829F060FD7B6869
:102B500018460837BD4680BD80B483B000AF7860AA
:102B6000044A7B681A607B6818460C37BD465DF8DE
:102B7000047B704724FA020880B582B000AF786009
:102B80007868FFF7E9FF0821786829F040FD7B6845
:102B900018460837BD4680BD80B483B000AF78606A
:102BA00000BF0C37BD465DF8047B704780B483B02E
:102BB00000AF78600B46FB7000BF0C37BD465DF878
:102BC000047B704780B483B000AF786039607B6865
:102BD0003A6803F598731068516803C300BF0C3757
:102BE000BD465DF8047B704780B483B000AF786069
:102BF000044A7B681A607B6818460C37BD465DF84E
:102C0000047B70479CE9020880B582B000AF786011
:102C10007868FFF7E9FF0421786829F0F8FC7B6801
:102C200018460837BD4680BD80B483B000AF7860D9
:102C30007B6800221A807B6800225A807B68002211
:102C40009A807B680022DA807B6800221A817B6888
:102C500000225A817B6800229A817B6800229A7345
:102C60007B6818460C37BD465DF8047B704780B51D
:102C700082B000AF78607B681846FFF7D5FF7B68AD
:102C800000221A617B6800229A827B681846083706
:102C9000BD4680BD80B584B000AFF860B9607A6091
:102CA0003B60554AFB681A60FB68BA685A60FB686B
:102CB0007A689A60FB683A68DA60FB6800221A61F9
:102CC000FB6800225A61FB6800229A61FB681C3392
:102CD0001846FFF7CCFFFB68002283F83420FB681E
:102CE00000229A63FB680022DA63FB6800221A6400
:102CF000FB6800225A64FB68002283F84820FB68C6
:102D0000012283F84920FB68002283F84A20FB68EF
:102D1000002283F84B20FB680022DA64FB68503302
:102D20001846FFF72FFEFB68002283F85820FB6847
:102D30000022DA65FB6800221A66FB6800225A66E8
:102D4000FB68012283F86820FB68002283F8692071
:102D5000FB68002283F86A20FB68012283F86B205D
:102D6000FB68002283F86C20FB68002283F86D204A
:102D7000FB68002283F86E20FB68002283F86F2036
:102D8000FB68002283F87020FB6800225A67FB680A
:102D9000002283F87820FB68002283F87920FB6802
:102DA000012283F87A20FB68012283F87B20134AF2
:102DB000FB681360124A3B8B1380114B1A88114B2E
:102DC0001A80114ABB8B13800F4B1A880F4B1A8045
:102DD0000F4B00221A703A8BBB8B9A4234BF0123EF
:102DE0000023DBB21A46FB6883F83420FB681846E0
:102DF0001037BD4680BD00BF24F50208F0BA00249C
:102E0000E4BA0024EABA0024E6BA0024ECBA0024AA
:102E1000E8BA002480B582B000AF7860054A7B68CC
:102E20001A607B681846FFF777FE7B6818460837FC
:102E3000BD4680BD7CFA020880B582B000AF7860E4
:102E40007868FFF7E7FF4FF49E71786829F0DFFBA1
:102E50007B6818460837BD4680BD80B582B000AF9C
:102E60007860786800F004F800BF0837BD4680BD80
:102E700080B582B000AF78607B68D3F84031002B1A
:102E80000FD07B68D3F840217B68D3F840311B68B2
:102E90000C331B68104698470346002B01D00123D2
:102EA00000E00023002B0ED07B68D3F840217B6824
:102EB000D3F840311B6808331B68104698477B687D
:102EC0000022C3F8402100BF0837BD4680BD000086
:102ED00080B582B000AF7860054A7B681A607B6875
:102EE0001846FFF797FF7B6818460837BD4680BD38
:102EF00048E9020880B582B000AF78607868FFF7D3
:102F0000E7FF4FF4A271786829F081FB7B681846CF
:102F10000837BD4680BD000080B582B000AF786044
:102F2000084A7B681A607B6803F5A273184600F0B4
:102F300013FB7B681846FFF7CBFF7B681846083702
:102F4000BD4680BDDCE8020880B582B000AF786085
:102F50007868FFF7E1FF4FF4AE71786829F057FB0E
:102F60007B6818460837BD4680BD80B582B000AF8B
:102F70007860786801F09AFB00BF0837BD4680BDD5
:102F800080B582B000AF7860054A7B681A607B68C4
:102F90001846FFF7C1FF7B6818460837BD4680BD5D
:102FA00088E8020880B582B000AF78607868FFF7E3
:102FB000E7FF4FF4AE71786829F029FB7B6818466B
:102FC0000837BD4680BD80B582B000AF78607B68B1
:102FD000D3F85831184607F0D3FF7B68184618F02D
:102FE0009DFD00BF0837BD4680BD80B582B000AFF3
:102FF000786039603B68184601F058FB00BF08371D
:10300000BD4680BD80B586B002AFF860B9607A6019
:103010003B60F868BB6900933B687A68B968FFF762
:10302000F9FC044AFB681A60FB6818461037BD4675
:1030300080BD00BF74E8020880B500AF014800F011
:103040005DF980BDD803002480B500AF114B1B682B
:10305000BFF35B8F03F00103002B0CBF01230023A0
:10306000DBB2002B13D00B4829F0D3FA0346002B18
:1030700014BF01230023DBB2002B08D0064800F068
:1030800067F8064829F010FB024829F0CEFA024BF7
:10309000184680BD34110024D803002439300008BC
:1030A00080B582B000AF7860054A7B681A607B68A3
:1030B0001846FFF7CFFC7B6818460837BD4680BD31
:1030C00074E8020880B582B000AF78607868FFF7D6
:1030D000E7FF1421786829F09AFA7B6818460837C8
:1030E000BD4680BD80B582B000AF78607B68184671
:1030F00014F0ACFA034A7B681A607B6818460837FC
:10310000BD4680BD40E8020880B582B000AF78605F
:103110007B68184614F09AFA034A7B681A607B6849
:1031200018460837BD4680BD0CE8020880B582B05D
:1031300000AF78607B68184614F088FA034A7B6811
:103140001A607B6818460837BD4680BDD8E702087C
:1031500090B585B002AF786078687B6803F11401A0
:103160007B6803F12C027B6803F6BC347B6803F6B2
:10317000FC3300932346FFF745FF184A7B681A602B
:103180007B6814331846FFF7ADFF7B682C33184675
:10319000FFF7BAFF7B6803F6BC331846FFF7C6FF9C
:1031A0007B6803F6FC307B6803F658537A6819464F
:1031B00007F03AFA7B6803F65853184607F0D2FE38
:1031C0007A687B6803F6FC3319461046FFF70DFF5B
:1031D0007B6818460C37BD4690BD00BFC4E70208A7
:1031E00080B586B002AFF860B9607A603B60F8687D
:1031F000BB8B01933B8B00933B687A68B968FFF700
:1032000049FD044AFB681A60FB6818461037BD4642
:1032100080BD00BF00EA020880B586B002AFF8604A
:10322000B9607A603B60F868BB8B01933B8B00937D
:103230003B687A68B968FFF7D3FF044AFB681A60F5
:10324000FB6818461037BD4680BD00BF78E602080F
:1032500080B483B000AF7860044A7B681A607B68F2
:1032600018460C37BD465DF8047B704760E60208DF
:1032700080B582B000AF78607B681846FFF7E8FF42
:10328000034A7B681A607B6818460837BD4680BDD4
:1032900048E6020890B585B002AF00F059FD04463B
:1032A00000F060FD0346194600230093002300222E
:1032B00020461BF051FD0948FFF77CFB002007F07A
:1032C000FDF807481BF0B0FCFFF7BEFE786005482C
:1032D000FEF7A2FD00BF0C37BD4690BD601F002465
:1032E00008000024641F002480B500AF024815F0D8
:1032F000D4F900BF80BD00BF641F002480B582B038
:1033000000AF7860104A7B681A607B6803F6FC3374
:103310001846FFF735FE7B6803F6BC33184600F00D
:1033200027F87B682C33184600F044F87B68143388
:10333000184600F063F87B681846FFF7B1FE7B681B
:1033400018460837BD4680BDC4E7020880B582B084
:1033500000AF78607868FFF7D1FF40F65C5178687D
:1033600029F055F97B6818460837BD4680BD000036
:1033700080B582B000AF7860054A7B681A607B68D0
:10338000184614F062F97B6818460837BD4680BDC0
:10339000D8E7020880B582B000AF78607868FFF7A0
:1033A000E7FF4021786829F032F97B681846083732
:1033B000BD4680BD80B582B000AF7860054A7B68AD
:1033C0001A607B68184614F040F97B681846083785
:1033D000BD4680BD0CE8020880B582B000AF7860C1
:1033E0007868FFF7E7FF4FF43961786829F00FF943
:1033F0007B6818460837BD4680BD000080B582B0A6
:1034000000AF7860054A7B681A607B68184614F044
:103410001CF97B6818460837BD4680BD40E80208A5
:1034200080B582B000AF78607868FFF7E7FF1821B9
:10343000786829F0ECF87B6818460837BD4680BDEF
:1034400080B582B000AF7860054A7B681A607B68FF
:103450001846FFF7BFFA7B6818460837BD4680BD9F
:10346000D8EA020880B582B000AF78607868FFF7CC
:10347000E7FF0421786829F0CAF87B681846083706
:10348000BD4680BD80B582B000AF7860054A7B68DC
:103490001A607B681846FFF75FFB7B6818460837A1
:1034A000BD4680BD8CFE020880B582B000AF78605A
:1034B0007868FFF7E7FF8421786829F0A8F87B682F
:1034C00018460837BD4680BD80B584B002AF78602D
:1034D00039607B68012B19D13B684FF6FF7293422C
:1034E00014D11848FFF7C4FE1748FEF725FF174808
:1034F0001FF004FF4FF4887301934FF4F0730093AF
:10350000104B124A10491248FFF786FE7B68002BC9
:1035100013D13B684FF6FF7293420ED10C48FEF771
:10352000F3FC0C48FFF78CFF0848FFF7ABFF064899
:10353000FEF72CFF0348FEF71BFA00BF0837BD4615
:1035400080BD00BF381100243C110024DC1E002483
:10355000641F00240800002480B582B000AF7860AA
:10356000054A7B681A607B681846FFF73DFB7B685D
:1035700018460837BD4680BD30E9020880B582B0E4
:1035800000AF78607868FFF7E7FF1021786829F0CE
:103590003EF87B6818460837BD4680BD80B483B0CE
:1035A00000AF7860012318460C37BD465DF8047BF8
:1035B000704780B483B000AF7860382318460C376A
:1035C000BD465DF8047B704780B483B000AF78607F
:1035D0000B467B807A881346DB009B1ADB0008339E
:1035E0007A68134418460C37BD465DF8047B704773
:1035F00080B483B000AF78600B467B807A88134636
:10360000DB009B1ADB0008337A68134418460C373A
:10361000BD465DF8047B704780B483B000AF78602E
:10362000012318460C37BD465DF8047B704780B413
:1036300083B000AF786040F6883318460C37BD463B
:103640005DF8047B704780B483B000AF78600B46B0
:103650007B807B8840F6883202FB03F308337A686C
:10366000134418460C37BD465DF8047B704780B4A0
:1036700083B000AF78600B467B807B8840F6883251
:1036800002FB03F308337A68134418460C37BD462F
:103690005DF8047B704780B483B000AF786001238D
:1036A00018460C37BD465DF8047B704780B483B084
:1036B00000AF7860102318460C37BD465DF8047BD8
:1036C000704780B483B000AF78600B467B807B8806
:1036D0001B0108337A68134418460C37BD465DF861
:1036E000047B704780B483B000AF78600B467B806A
:1036F0007B881B0108337A68134418460C37BD4693
:103700005DF8047B704780B582B000AF78607B685D
:103710005B687A68D268521099187B68DB6803F09E
:103720000103002B02D17B689B680AE07B685B6821
:103730007A68D268521013441B687A6892681344FE
:103740001B680846984700BF0837BD4680BD80B457
:1037500083B000AF78607B685B68002B10D07B681B
:103760009B68002B07D17B68DB6803F00103002B0B
:1037700001D1012300E00023012B01D0012300E04F
:10378000002318460C37BD465DF8047B704780B5B2
:1037900000AF4FF6FF710120FFF796FE80BD80B5A8
:1037A00000AF4FF6FF710020FFF78EFE80BD80B5A1
:1037B00082B000AF78607B681B6820331B68786834
:1037C000984700BF0837BD4680BD80B483B000AFC6
:1037D00078607B6893F86A300133DAB27B6883F8EB
:1037E0006A2000BF0C37BD465DF8047B70470000BF
:1037F00080B483B000AF0346FB80B7F90630002BDE
:103800000BDBFB8803F01F020749B7F906305B09A1
:10381000012000FA02F241F8232000BF0C37BD4618
:103820005DF8047B704700BF00E100E080B483B026
:1038300000AF0346FB80B7F90630002B12DBFB8894
:1038400003F01F020A49B7F906305B09012000FAAC
:1038500002F2203341F82320BFF34F8F00BFBFF3A4
:103860006F8F00BF00BF0C37BD465DF8047B70470B
:1038700000E100E080B483B000AF03463960FB8014
:10388000B7F90630002B0ADB3B68DAB20C49B7F90E
:1038900006301201D2B20B4483F800230AE03B68E1
:1038A000DAB20849FB8803F00F03043B1201D2B2DD
:1038B0000B441A7600BF0C37BD465DF8047B704799
:1038C00000E100E000ED00E0B0B582B000AF78604C
:1038D0007B68184614F0CDFE7D687B681B686433F6
:1038E0001C6818F057F8034619462846A047786820
:1038F0007B681B6888331C680023044A4FF05041E2
:10390000A04700BF0837BD46B0BD00BF000020D0B3
:1039100080B582B000AF786009215A20FFF7AAFF76
:1039200009215820FFF7A6FF00BF0837BD4680BD1C
:1039300080B582B000AF78605A20FFF759FF582059
:10394000FFF756FF00BF0837BD4680BD80B582B087
:1039500000AF78605A20FFF769FF5820FFF766FF35
:1039600000BF0837BD4680BD80B483B000AF78602B
:10397000114BDB689BB2C3F30A039BB2013B9AB2C3
:103980000E4B1A800C4B1B699BB2C3F30A039BB20C
:10399000013B9AB20A4B1A80084B1A88064B1A64EC
:1039A000054B5B6B044A43F00103536300BF0C37C4
:1039B000BD465DF8047B704700100050E01F0024F6
:1039C000E21F002480B582B000AF78607B681846A3
:1039D00014F036FE034618460837BD4680BD80B554
:1039E00082B000AF78607B68184614F035FE00BFE7
:1039F0000837BD4680BD000080B483B000AF78605A
:103A0000034B9B6A18460C37BD465DF8047B704734
:103A10008410005080B483B000AF78603960064AEB
:103A20003B689362054B01225A6200BF0C37BD46CA
:103A30005DF8047B704700BF8410005000100050F8
:103A400080B586B000AF786039607B683968184609
:103A500014F0BFFD244B5B6903F48033002B14BFCB
:103A600001230023DBB2002B3AD01F4B0022C3F806
:103A70008420BFF34F8F00BF1B4BD3F880307B6196
:103A80007B695B0BC3F30E033B617B69DB08C3F30C
:103A90000903FB603B695A0143F6E0731340FA687F
:103AA000920711491343C1F87432FB685A1EFA6039
:103AB000002B14BF01230023DBB2002BEAD13B69AA
:103AC0005A1E3A61002B14BF01230023DBB2002BE6
:103AD000DBD1BFF34F8F00BFBFF36F8F00BF00BFBD
:103AE00000BF1837BD4680BD00ED00E080B584B052
:103AF00000AFF860B9607A603B60F8683B687A684C
:103B0000B96814F0D8FE034618461037BD4680BD8C
:103B100080B487B000AF7860254B5B6903F48033D5
:103B2000002B14BF01230023DBB2002B3AD0204B23
:103B30000022C3F88420BFF34F8F00BF1C4BD3F883
:103B400080307B617B695B0BC3F30E033B617B6958
:103B5000DB08C3F30903FB603B695A0143F6E073DA
:103B60001340FA68920712491343C1F87432FB6894
:103B70005A1EFA60002B14BF01230023DBB2002B76
:103B8000EAD13B695A1E3A61002B14BF012300237E
:103B9000DBB2002BDBD1BFF34F8F00BFBFF36F8FC2
:103BA00000BF00BF00BF1C37BD465DF8047B7047F7
:103BB00000ED00E080B487B000AF7860254B5B6912
:103BC00003F48033002B14BF01230023DBB2002B4E
:103BD0003AD0204B0022C3F88420BFF34F8F00BFA0
:103BE0001C4BD3F880307B617B695B0BC3F30E0306
:103BF0003B617B69DB08C3F30903FB603B695A0146
:103C000043F6E0731340FA68920712491343C1F870
:103C10007432FB685A1EFA60002B14BF0123002384
:103C2000DBB2002BEAD13B695A1E3A61002B14BF6C
:103C300001230023DBB2002BDBD1BFF34F8F00BF8A
:103C4000BFF36F8F00BF00BF00BF1C37BD465DF8DC
:103C5000047B704700ED00E080B582B000AF786073
:103C60001A4B1B6C1A4A128893420CBF0123002383
:103C7000DBB2002B17D0174B1B88194678680FF062
:103C80005DFAFEF71FFB03461846FFF79EFDFEF7A1
:103C900013FAFEF717FB0346184615F037FA002013
:103CA000FDF7AEFE0EE00A4B1B88194678680FF050
:103CB00045FA0020FDF7C0FEFEF704FB0346184658
:103CC000FFF775FD00BF0837BD4680BD00100050EE
:103CD000E01F0024E21F002480B582B000AF7860AE
:103CE0000B467B807B88052B2CD801A252F823F051
:103CF000093D0008133D00081D3D0008273D000850
:103D0000313D00083B3D000806F050FC03461B68AF
:103D100019E006F04BFC03465B6814E006F046FC35
:103D200003469B680FE006F041FC0346DB680AE0AF
:103D300006F03CFC03461B6905E006F037FC034631
:103D4000DB6800E0002318460837BD4680BD00BF91
:103D500080B400AF024B1846BD465DF8047B704747
:103D6000E4EA020880B400AF0E231846BD465DF8B1
:103D7000047B704780B483B000AF7860044A7B68EE
:103D80001A607B6818460C37BD465DF8047B7047A7
:103D9000C8EF020880B582B000AF78607868FFF79E
:103DA000E9FF1421786828F032FC7B681846083750
:103DB000BD4680BD90B587B000AF78600B467B8074
:103DC0007B88002B01D1002310E000233B610023FE
:103DD000FB737B681B6808331C6807F10F0307F14E
:103DE000100279887868A04778617B6918461C378B
:103DF000BD4690BD80B483B000AF78607B68DB893E
:103E000018460C37BD465DF8047B704780B483B01C
:103E100000AF78607B681B8A18460C37BD465DF89A
:103E2000047B704780B483B000AF78607B68DB8828
:103E300018460C37BD465DF8047B704780B483B0EC
:103E400000AF78607B689B8818460C37BD465DF8EC
:103E5000047B704780B483B000AF78607B689B7A46
:103E6000C3F30603DBB218460C37BD465DF8047B8E
:103E7000704780B483B000AF78607B689B7AC3F3EF
:103E8000C013DBB218460C37BD465DF8047B7047A3
:103E900080B582B000AF7860054A7B681A607B68A5
:103EA0001846FFF767FF7B6818460837BD4680BD98
:103EB00038FB020880B582B000AF78607868FFF701
:103EC000E7FF1C21786828F0A2FB7B6818460837BA
:103ED000BD4680BD80B582B000AF7860054A7B6882
:103EE0001A607B681846FFF7D3FF7B6818460837CF
:103EF000BD4680BD74ED020880B582B000AF786029
:103F00007868FFF7E7FF2C21786828F080FB7B6852
:103F100018460837BD4680BD80B483B000AF7860D6
:103F2000044A7B681A607B6818460C37BD465DF80A
:103F3000047B704704EC020880B582B000AF786063
:103F40007868FFF7E9FF0821786828F060FB7B6854
:103F500018460837BD4680BD80B483B000AF786096
:103F600039603B6818460C37BD465DF8047B7047E6
:103F700080B485B000AFF860084611461A46034683
:103F80007B810B463B811346FB80FB687A891A8054
:103F9000FB683A895A80FB68FA889A80FB683A8BFA
:103FA000DA80FB6818461437BD465DF8047B70471D
:103FB00080B582B000AF7860144A7B681A607B6875
:103FC00004331846FEF7DEFC7B680C331846FEF718
:103FD000D9FC7B6800225A617B6800229A617B6869
:103FE0000022DA617B6800221A847B6800225A84EE
:103FF0007B68002283F824207B68012283F8252037
:104000007B6818460837BD4680BD00BFD0FA02085D
:1040100080B483B000AF7860044A7B681A607B6824
:1040200018460C37BD465DF8047B7047D0FA02088D
:1040300080B582B000AF78607868FFF7E9FF28218B
:10404000786828F0E4FA7B6818460837BD4680BDDA
:1040500080B582B000AF78607B6893F82530002B84
:1040600005D07B681B6814331B687868984700BFCD
:104070000837BD4680BD80B483B000AF78600023B0
:1040800018460C37BD465DF8047B704780B584B098
:1040900000AFF860084611461A4603467B810B467E
:1040A0003B811346FB80B7F90820B7F90A3019465F
:1040B000F86800F044F8B7F91820B7F90630194647
:1040C000F86800F098F800BF1037BD4680BD80B496
:1040D00083B000AF78607B68B3F9063018460C37C0
:1040E000BD465DF8047B704780B483B000AF786054
:1040F0007B68B3F90A3018460C37BD465DF8047B7F
:10410000704780B483B000AF78600B467B807B68DB
:104110007A889A8000BF0C37BD465DF8047B7047F3
:1041200080B483B000AF78600B467B807B687A8870
:10413000DA8000BF0C37BD465DF8047B704780B560
:1041400082B000AF78600B467B8013463B807B6873
:104150001B6830331B68B7F902201146786898470E
:104160007B681B6834331B68B7F9002011467868F8
:10417000984700BF0837BD4680BD80B483B000AF0C
:1041800078600B467B807B687A881A8100BF0C3789
:10419000BD465DF8047B704780B483B000AF7860A3
:1041A0000B467B807B687A885A8100BF0C37BD46FE
:1041B0005DF8047B704780B483B000AF786000BFC7
:1041C0000C37BD465DF8047B704780B483B000AF08
:1041D0007860396000BF0C37BD465DF8047B7047DE
:1041E00080B483B000AF7860396000BF0C37BD4643
:1041F0005DF8047B704780B582B000AF78600B46F5
:104200007B8013463B807B681B6838331B68B7F99B
:1042100002201146786898477B681B683C331B680E
:10422000B7F9002011467868984700BF0837BD46A7
:1042300080BD80B483B000AF7860396000BF0C37B8
:10424000BD465DF8047B704780B483B000AF7860F2
:1042500000BF0C37BD465DF8047B704780B483B067
:1042600000AF78607B6893F8253018460C37BD4660
:104270005DF8047B704780B483B000AF78607B68E2
:1042800093F8243018460C37BD465DF8047B704720
:1042900080B582B000AF78600B467B8013463B80D0
:1042A0007B681B6854331B6879887A68B2F90420EC
:1042B00092B28A1A92B210B239887A68B2F906209C
:1042C00092B28A1A92B212B201467868984700BF39
:1042D0000837BD4680BD80B483B000AF78607B688E
:1042E0004FF6FF729A817B684FF6FF721A847B68E3
:1042F0004FF6FF725A8400BF0C37BD465DF8047B51
:10430000704780B584B000AFF860B9607A60F86833
:10431000FFF7E1FF7B681A68FB68DA617B68FA687F
:104320001A6000BF1037BD4680BD80B582B000AFB7
:1043300078607B680433184617F092FB00BF08379B
:10434000BD4680BD80B400AF0B4B1B6893F858305E
:10435000002B08D0084B1B68DB6C002B03D0064BEE
:104360001B68DB6C02E0044B1B689B681846BD466B
:104370005DF8047B704700BFF0BA002480B584B0BC
:1043800000AFF8607B600B467B8113463B81FB6886
:104390001846FFF763FF0346002B08D0FB6818465A
:1043A000FFF769FF0346002B01D0012300E0002343
:1043B000002B02D0FA687B681A6000BF1037BD4638
:1043C00080BD000080B483B000AF7860074A7B688E
:1043D0001A607B6800225A607B6800221A727B6830
:1043E00018460C37BD465DF8047B704780EC020828
:1043F00080B483B000AF7860044A7B681A607B6841
:1044000018460C37BD465DF8047B704780EC020807
:1044100080B582B000AF78607868FFF7E9FF0C21C3
:10442000786828F0F4F87B6818460837BD4680BDE8
:1044300080B483B000AF786000BF0C37BD465DF834
:10444000047B704780B483B000AF786000BF0C3746
:10445000BD465DF8047B704780B483B000AF7860E0
:1044600000BF0C37BD465DF8047B704780B582B055
:1044700000AF786017F08EFA03461A683C32126873
:104480001846904700BF0837BD4680BD80B483B052
:1044900000AF786039607B683A685A6000BF0C37BB
:1044A000BD465DF8047B704780B584B002AF78608C
:1044B00039603B68B3F908203B68B3F90A300093D0
:1044C0001346002200217868FFF752FD786808370C
:1044D000BD4680BD80B483B000AF7860396000BF56
:1044E0000C37BD465DF8047B7047000080B582B094
:1044F00000AF78607B68184617F084FB094A7B6838
:104500001A607B680022C3F83C217B680022C3F854
:1045100040217B68044A13607B6818460837BD4613
:1045200080BD00BF48E902083CBB002480B483B0D2
:1045300000AF786039607B683A681A6000BF0C375A
:10454000BD465DF8047B704780B483B000AF7860EF
:104550007B6801221A7200BF0C37BD465DF8047BF0
:10456000704780B483B000AF786039607B683A6888
:104570005A6000BF0C37BD465DF8047B70470000F1
:1045800080B582B000AF78607B681846FFF710FDF9
:10459000034A7B681A607B6818460837BD4680BDB1
:1045A0000CED020880B582B000AF7860054A7B68E8
:1045B0001A607B681846FFF72BFD7B6818460837A2
:1045C000BD4680BD0CED020880B582B000AF7860BA
:1045D0007868FFF7E7FF2821786828F018F87B68EB
:1045E00018460837BD4680BD80B584B000AFF8607E
:1045F000B9607A60FB681846FFF778FF164AFB68D7
:104600001A60FB6803F5A273184600F031F9FB68E5
:104610007A68C3F85421FB68BA68C3F85821FDF7DB
:1046200051FE03461A680832126800211846904766
:10463000002005F043FFFFF785FE0346184620F0F3
:104640008CFCFFF77FFE0346184620F001FDFB6857
:1046500018461037BD4680BDDCE8020880B483B040
:1046600000AF786039607B6818460C37BD465DF84E
:10467000047B704780B582B000AF786039607B689A
:104680003A6811461846FFF7E9FF3B685A687B68AD
:104690005A607B683A680833083292E8030083E87E
:1046A00003007B6818460837BD4680BD90B589B0C9
:1046B00000AF78607B6803F5A274104BBB610023E8
:1046C000FB6107F1080007F118030CCB796800F0D3
:1046D000EBF807F1080319462046FFF7CBFF07F177
:1046E00008031846FEF738FF7B6803F5A2727B6863
:1046F000C3F8402100BF2437BD4690BD01470008E4
:1047000080B584B002AF78607B6803F59E717B68EA
:10471000D3F854311A467B68D3F858310093044BD0
:10472000044800F0F3F800BF0837BD4680BD00BF65
:1047300030BB00242CBB002490B589B000AF78605A
:104740007B6803F5A274104BBB610023FB6107F18A
:10475000080007F118030CCB796800F0A5F807F101
:10476000080319462046FFF785FF07F1080318469E
:10477000FEF7F2FE7B6803F5A2727B68C3F8402166
:1047800000BF2437BD4690BD8D47000880B584B07A
:1047900002AF78607B6803F59E717B68D3F8543173
:1047A0001A467B68D3F858310093044B044800F054
:1047B000C7F900BF0837BD4680BD00BF30BB00242D
:1047C0002CBB002490B589B000AF78607B6803F5FE
:1047D000A274104BBB610023FB6107F1080007F1D5
:1047E00018030CCB796800F05FF807F1080319464D
:1047F0002046FFF73FFF07F108031846FEF7ACFE1F
:104800007B6803F5A2727B68C3F8402100BF2437A0
:10481000BD4690BD1948000880B584B002AF7860ED
:104820007B6803F59E717B68D3F854311A467B6828
:10483000D3F858310093044B044800F09DFA00BFB0
:104840000837BD4680BD00BF30BB00242CBB002410
:1048500080B483B000AF7860044A7B681A607B68DC
:1048600018460C37BD465DF8047B70479CE902088A
:1048700080B582B000AF78607B681846FFF7E8FF2C
:10488000084A7B681A607B6800225A607B680022B5
:104890009A607B680022DA607B6818460837BD465C
:1048A00080BD00BF30E9020880B584B000AFF86079
:1048B000B960394681E80C00FB681846FFF7C8FF6D
:1048C000084AFB681A60FB68BA685A60FB680833DC
:1048D0003A4692E8030083E80300FB681846103765
:1048E000BD4680BD30E9020880B582B000AF786077
:1048F0007B681846FFF766FD034A7B681A607B6891
:1049000018460837BD4680BD5CEC020890B58FB0F4
:1049100000AFF860B9607A603B607B689A687B683A
:104920009B681B6820331B6810469847034640F677
:104930008732934205D87D4B7D4AA3217D4827F0DD
:1049400095FE7B685A687B685B681B6820331B6830
:104950001046984703460F2B05D8774B744AA4217D
:10496000744827F083FE7B68DA687B68DB681B6825
:1049700020331B681046984703460B2B05D86F4B16
:104980006B4AA5216B4827F071FEFB68BB62BB68D0
:104990007B623B683B6216F0FDFF03461846FFF75B
:1049A000C4FC3B6A1B68002B08D03B6A1A683B6A50
:1049B0001B681B680C331B68104698473B6A1B68D2
:1049C000002B07D03B6A1A683B6A1B681B681B6890
:1049D00010469847BB6A1B68002B08D0BB6A1A6850
:1049E000BB6A1B681B6814331B68104698477B6AB8
:1049F0001B68002B08D07B6A1A687B6A1B681B68DF
:104A000004331B6810469847BB6A1B68002B07D00D
:104A1000BB6A1A68BB6A1B681B681B68104698470C
:104A20007B6A1B68002B08D07B6A1A687B6A1B684C
:104A30001B6808331B681046984700BF7B68DB681B
:104A40000021184600F0B2FA034619460C20FFF781
:104A500083FA04462046FFF747FF7C637B689B6828
:104A60000021184600F0B5FA0346194640F6883092
:104A7000FFF772FA0446204605F0DCFF3C637B68D2
:104A80005B680021184600F0B7FA0346194610206B
:104A9000FFF762FA0446396B204605F03DFFFC62E1
:104AA0003B687A6B1A60BB68FA6A1A60FB683A6BFB
:104AB0001A60FB6A002B02D0FB6A043300E000237B
:104AC0001946B86CFFF732FDFB6A0433B96C18461F
:104AD000FFF747FD3B6BF96A184600F0A0FA3B6B05
:104AE000FB61FB6ABB617B6B7B61FB691B680C3301
:104AF0001B68F8699847BB691B681B68B8699847C9
:104B00007969F86918F04AFD7B691B6810331B68E6
:104B1000786998477B691B6814331B6878699847E4
:104B200000BFFB6A18463C37BD4690BDD0DB02088B
:104B300060DC020860DD0208A8DD02084CDE020825
:104B400090B58FB000AFF860B9607A603B607B6869
:104B50009A687B689B681B6820331B6810469847DF
:104B6000034640F68732934205D87E4B7E4AA32106
:104B70007E4827F07BFD7B685A687B685B681B6812
:104B800020331B681046984703460F2B05D8784BF7
:104B9000754AA421754827F069FD7B68DA687B684F
:104BA000DB681B6820331B68104698470346372B89
:104BB00005D8704B6C4AA5216C4827F057FDFB685F
:104BC000BB62BB687B623B683B6216F0E3FE034658
:104BD0001846FFF7AAFB3B6A1B68002B08D03B6A0C
:104BE0001A683B6A1B681B680C331B6810469847A1
:104BF0003B6A1B68002B07D03B6A1A683B6A1B683C
:104C00001B681B6810469847BB6A1B68002B08D0BE
:104C1000BB6A1A68BB6A1B681B6814331B681046A2
:104C200098477B6A1B68002B08D07B6A1A687B6AEE
:104C30001B681B6804331B6810469847BB6A1B68D7
:104C4000002B07D0BB6A1A68BB6A1B681B681B680D
:104C5000104698477B6A1B68002B08D07B6A1A684D
:104C60007B6A1B681B6808331B681046984700BFA7
:104C70007B68DB680021184600F0DFF9034619461F
:104C80003820FFF769F904461421204600F01CFA89
:104C90007C637B689B680021184600F09AF9034604
:104CA000194640F68830FFF757F90446204605F0CC
:104CB000C1FE3C637B685B680021184600F09CF9EC
:104CC000034619461020FFF747F90446396B204682
:104CD00005F022FEFC623B687A6B1A60BB68FA6AD8
:104CE0001A60FB683A6B1A60FB6A002B02D0FB6A01
:104CF000043300E000231946B86CFFF717FCFB6A89
:104D00000433B96C1846FFF72CFC3B6BF96A184664
:104D100000F085F93B6BFB61FB6ABB617B6B7B61E0
:104D2000FB691B680C331B68F8699847BB691B68F3
:104D30001B68B86998477969F86918F02FFC7B6996
:104D40001B6810331B68786998477B691B681433AC
:104D50001B687869984700BFFB6A18463C37BD4618
:104D600090BD00BFD0DB0208F0DE020860DD020863
:104D7000A8DD02084CDE020890B58FB000AFF860E5
:104D8000B9607A603B607B689A687B689B681B6847
:104D900020331B68104698470346B3F5777F05D24A
:104DA0007D4B7E4AA3217E4827F060FC7B685A68D1
:104DB0007B685B681B6820331B6810469847034676
:104DC0000F2B05D8774B754AA421754827F04EFC68
:104DD0007B68DA687B68DB681B6820331B681046D9
:104DE00098470346372B05D86F4B6C4AA5216C4872
:104DF00027F03CFCFB68BB62BB687B623B683B62A4
:104E000016F0C8FD03461846FFF78FFA3B6A1B6889
:104E1000002B08D03B6A1A683B6A1B681B680C337E
:104E20001B68104698473B6A1B68002B07D03B6AFB
:104E30001A683B6A1B681B681B6810469847BB6A68
:104E40001B68002B08D0BB6A1A68BB6A1B681B680A
:104E500014331B68104698477B6A1B68002B08D0E8
:104E60007B6A1A687B6A1B681B6804331B681046E0
:104E70009847BB6A1B68002B07D0BB6A1A68BB6ADD
:104E80001B681B681B68104698477B6A1B68002BD1
:104E900008D07B6A1A687B6A1B681B6808331B682A
:104EA0001046984700BF7B68DB680021184600F079
:104EB0004DF9034619463820FFF74EF804461421F1
:104EC000204600F057F97C637B689B6800211846F8
:104ED00000F092F9034619464FF47770FFF73CF85B
:104EE0000446204605F0BAFC3C637B685B68002101
:104EF000184600F094F9034619461020FFF72CF8E5
:104F00000446396B204605F051FCFC623B687A6B25
:104F10001A60BB68FA6A1A60FB683A6B1A60FB6A2F
:104F2000002B02D0FB6A043300E000231946B86C62
:104F3000FFF7FCFAFB6A0433B96C1846FFF711FB64
:104F40003B6BF96A184600F07DF93B6BFB61FB6A2D
:104F5000BB617B6B7B61FB691B680C331B68F86969
:104F60009847BB691B681B68B86998477969F869F5
:104F700018F014FB7B691B6810331B68786998472D
:104F80007B691B6814331B687869984700BFFB6A0C
:104F900018463C37BD4690BDD0DB020804E002084D
:104FA00060DD0208A8DD02084CDE020880B582B090
:104FB00000AF78600B467B807B681B6824331B68DE
:104FC0007A88114678689847034618460837BD46E0
:104FD00080BD80B582B000AF78600B467B807B6877
:104FE0001B6824331B687A88114678689847034603
:104FF00018460837BD4680BD80B582B000AF7860E6
:105000000B467B807B681B6824331B687A881146BB
:1050100078689847034618460837BD4680BD80B477
:1050200083B000AF786039607B683A68DA6300BFAC
:105030000C37BD465DF8047B704780B582B000AF89
:1050400078600B467B807B681B6824331B687A88FA
:10505000114678689847034618460837BD4680BD14
:1050600080B582B000AF78607B681846FFF788FA99
:10507000034A7B681A607B6818460837BD4680BDC6
:10508000A4EC020880B582B000AF7860054A7B6866
:105090001A607B681846FFF785FA7B681846083760
:1050A000BD4680BDA4EC020880B582B000AF786038
:1050B0007868FFF7E7FF2821786827F0A8FA7B686F
:1050C00018460837BD4680BD80B584B002AF786011
:1050D0000B46FB707B681846FFF774F9184A7B682B
:1050E0001A607B68FA785A727B6800229A727B6831
:1050F0000022DA817B68103328220021184627F02D
:10510000BAFC7B6810331846FFF7AAFF0D4B1B88CB
:105110001AB27B689A8100BF7B6803F110000A4BCA
:105120001B881AB2074B1B881BB200931346002240
:105130000021FEF7ABFF7B6818460837BD4680BDEF
:1051400014EC0208E6BA0024E4BA002480B582B068
:1051500000AF78600B467B807B681B6824331B683C
:105160007A88114678689847034618460837BD463E
:1051700080BD000080B584B002AF78600B46FB7044
:105180007B681846FFF71EF9184A7B681A607B682F
:10519000FA785A727B6800229A727B680022DA8160
:1051A0007B68103328220021184627F064FC7B68B6
:1051B00010331846FFF754FF0D4B1B881AB27B685B
:1051C0009A8100BF7B6803F110000A4B1B881AB25A
:1051D000074B1B881BB20093134600220021FEF7E9
:1051E00055FF7B6818460837BD4680BD38EC02087D
:1051F000E6BA0024E4BA002480B582B000AF78603B
:105200000B467B807B681B6824331B687A881146B9
:1052100078689847034618460837BD4680BD80B574
:1052200082B000AF78600B467B807B681B682433BC
:105230001B687A88114678689847034618460837ED
:10524000BD4680BD80B483B000AF786039607B68B4
:105250003A68DA6300BF0C37BD465DF8047B7047DF
:1052600080B582B000AF7860084A7B681A607B68BE
:1052700010331846FFF706FF7B681846FFF7B8F8AB
:105280007B6818460837BD4680BD00BF14EC020895
:1052900080B582B000AF78607868FFF7E1FF382111
:1052A000786827F0B4F97B6818460837BD4680BD9A
:1052B00080B582B000AF7860084A7B681A607B686E
:1052C00010331846FFF7DEFE7B681846FFF790F8AC
:1052D0007B6818460837BD4680BD00BF38EC020821
:1052E00080B582B000AF78607868FFF7E1FF3821C1
:1052F000786827F08CF97B6818460837BD4680BD72
:1053000080B582B000AF7860054A7B681A607B6820
:105310001846FFF76DF87B6818460837BD4680BD14
:105320005CEC020880B582B000AF78607868FFF767
:10533000E7FF0C21786827F06AF97B681846083780
:10534000BD4680BD80B58EB002AF78607B681846E0
:10535000FFF76EF87B689B7A0133DAB27B689A724A
:105360007B689A7A7B685B7A9A4206D97B680122CD
:105370001A727B6800229A7279E07B689B7A98B2F5
:105380007B68B3F90C207B685B7A9BB2002118F034
:105390000BF903461A467B68DA817B68B3F90E3055
:1053A0009BB203F001039BB2002B11D07B68B3F9D1
:1053B0000E309BB27A68B2F90E20002A01DD01227C
:1053C00001E04FF6FF7213449BB21AB27B68DA8198
:1053D0007B6810331846FEF787FE0346FB857B6823
:1053E00003F11000234B1A887B68B3F90E309BB28F
:1053F000D31A9BB21BB21946FEF7CEFE7B68103360
:105400001846FEF771FE03469BB2FA8DD31ABB8590
:105410007B6810331846FEF767FE03461946164BA5
:105420001B881AB2B7F92C3007F10C000093134611
:105430000A460021FEF79CFD7B685B6818467B6886
:105440005B681B6810331B6807F10C021146984714
:1054500000BF7B689B7A012B09D1084B1B78002B7E
:1054600005D016F097FA0346184616F099FA303729
:10547000BD4680BDE6BA0024E4BA0024EEBA00249A
:1054800080B582B000AF78607B6858687B685B68E5
:105490001B6864331B687A6810321146984700BF56
:1054A0000837BD4680BD80B582B000AF78607B68AC
:1054B0001846FEF7D1FF7B6858687B685B681B68FD
:1054C00060331B687A6810321146984700BF08376E
:1054D000BD4680BD80B483B000AF786000BF0C379C
:1054E000BD465DF8047B704780B58EB002AF786032
:1054F0007B681846FEF79CFF7B689B7A0133DAB223
:105500007B689A727B689A7A7B685B7A9A4206D942
:105510007B6801221A727B6800229A727AE07B68AB
:105520009B7A98B27B68B3F90C207B685B7A9BB25C
:10553000002118F039F803461A467B68DA817B6847
:10554000B3F90E309BB203F001039BB2002B11D0D4
:105550007B68B3F90E309BB27A68B2F90E20002A4C
:1055600001DD012201E04FF6FF7213449BB21AB233
:105570007B68DA817B6810331846FEF7A8FD034686
:10558000FB857B6803F11000244B1A887B68B3F914
:105590000E309BB2D31A9BB21BB21946FEF7FCFD2C
:1055A0007B6803F110027B68B3F90E301946104690
:1055B000FEF7B6FD7B68B3F90E309AB2FB8DD31AB5
:1055C000BB85B7F92E20164B1B8819B2B7F92C30C2
:1055D00007F1140000930B460021FEF7C9FC7B681D
:1055E0005B6818467B685B681B6810331B6807F1B3
:1055F00014021146984700BF7B689B7A012B09D1A2
:10560000084B1B78002B05D016F0C4F9034618464A
:1056100016F0C6F93037BD4680BD00BFE6BA00249B
:10562000E4BA0024EEBA002480B582B000AF7860FE
:105630007B6858687B685B681B6864331B687A68A2
:1056400010321146984700BF0837BD4680BD80B56F
:1056500082B000AF78607B681846FEF7FDFE7B687D
:1056600058687B685B681B6860331B687A68103217
:105670001146984700BF0837BD4680BD80B483B04F
:1056800000AF786000BF0C37BD465DF8047B704703
:1056900080B483B000AF78607B685B6A18460C37D3
:1056A000BD465DF8047B704780B483B000AF78607E
:1056B0007B689B6A18460C37BD465DF8047B7047D3
:1056C00080B58EB00AAFF860B96011461A460B4635
:1056D000FB801346BB80F868B988FA88B7F8403079
:1056E0000893BB8F079397F83030069397F82C30C8
:1056F000059397F82830049397F82430039397F88C
:10570000203002933B7F01933B8B00930B46B9689B
:1057100017F0D8FA094AFB681A60FB687A6BDA61FD
:10572000FB68BA6B1A62FB687A6C5A62FB68BA6CE7
:105730009A62FB6818461037BD4680BD74ED0208BA
:1057400080B485B000AF786039607B68DB69FB604E
:105750003B689B88DB0A9BB29B00FA6813441A687B
:105760003B681B68134418461437BD465DF8047B3C
:10577000704780B489B000AFF8600B467A607B81D7
:105780007B68002B03D07B681B7B002B01D100239F
:1057900031E0FB681A6A7B687B617B695B7B1B027B
:1057A0001BB203F4E06319B27B69DB7A1BB20B43D3
:1057B0001BB29BB29B001344FB617B681B7B7B830A
:1057C00013E0FB691B887A899A4203D1FB6993F93C
:1057D000023010E0FB691B887A899A4209D37B8BDF
:1057E000013B7B83FB690433FB617B8B002BE8D19E
:1057F00000E000BF002318462437BD465DF8047B57
:10580000704780B483B000AF786039607B683A68D5
:105810001A607B6818460C37BD465DF8047B7047FC
:1058200080B483B000AF78600B467B807B687A8859
:105830001A807B6818460C37BD465DF8047B7047BC
:1058400080B483B000AF78600B46FB707B68FA7859
:1058500083F8242000BF0C37BD465DF8047B7047F9
:1058600080B582B000AF78607B681846FEF7A0FB79
:10587000054A7B681A607B6800229A627B6818463A
:105880000837BD4680BD00BFBCF3020880B582B0BA
:1058900000AF7860064A7B681A607B68043318465C
:1058A00001F096F87B6818460837BD4680BD00BFFA
:1058B000D4FB020880B582B000AF78607868FFF74B
:1058C000E5FF3C21786826F0A2FE7B681846083781
:1058D000BD4680BD80B483B000AF786000BF0C3798
:1058E000BD465DF8047B704780B483B000AF78603C
:1058F00000BF0C37BD465DF8047B704780B483B0B1
:1059000000AF786000BF0C37BD465DF8047B704780
:1059100080B483B000AF786000BF0C37BD465DF83F
:10592000047B704780B483B000AF78600B46FB7097
:1059300000BF0C37BD465DF8047B704780B582B070
:1059400000AF786039607B6804333968184612F01C
:105950001BF900BF0837BD4680BD000080B582B08E
:1059600000AF78607B68184626231A46002127F08E
:1059700082F87B681846FEF703FE094A7B681A60C6
:105980007B68FF2283F826207B6828330021184695
:10599000FFF737FF7B6818460837BD4680BD00BF5C
:1059A000E4F7020880B483B000AF786039607B68A8
:1059B0003A689A6200BF0C37BD465DF8047B7047B9
:1059C00080B582B000AF786039607B6818462623C6
:1059D0001A46002127F04FF87B681846FEF7D0FDE5
:1059E000094A7B681A607B683A681288DA847B68A7
:1059F000FF2283F828203968786814F08EFA7B68D3
:105A000018460837BD4680BDB8F9020880B582B097
:105A100000AF7860054A7B681A607B681846FEF71D
:105A2000C1FD7B6818460837BD4680BDE4F7020813
:105A300080B582B000AF78607868FFF7E7FF2C216F
:105A4000786826F0E4FD7B6818460837BD4680BDBF
:105A500080B582B000AF78607B681846FFF77EFFA4
:105A6000084A7B681A607B682C3300211846FFF7D0
:105A7000C8FE7B6800221A867B6818460837BD4638
:105A800080BD00BF50F9020880B483B000AF7860D9
:105A900039607B683A68DA6200BF0C37BD465DF852
:105AA000047B704780B483B000AF78600B467B8086
:105AB0007B687A881A8600BF0C37BD465DF8047B88
:105AC0007047000080B483B000AF78600B467B80E5
:105AD000064A7B681A607B687A889A807B681846D9
