:020000040800F2
:100000000000082401190008251700082D17000812
:10001000351700083D1700084517000800000000CC
:1000200000000000000000000000000061BA0008AD
:100030004D17000800000000B1BC000821AD000809
:1000400051190008511900085119000851190008E8
:1000500051190008511900085119000851190008D8
:1000600051190008511900085119000851190008C8
:1000700051190008511900085119000851190008B8
:1000800051190008511900085119000851190008A8
:100090005119000851190008511900085119000898
:1000A0005119000851190008511900085119000888
:1000B0005119000851190008511900085119000878
:1000C0005119000851190008511900085119000868
:1000D0005119000851190008511900085119000858
:1000E00051190008511900080000000051190008BA
:1000F0005119000851190008511900085119000838
:100100005119000851190008511900085119000827
:1001100051190008511900085D170008511900080D
:100120005119000851190008511900085119000807
:1001300051190008511900085119000851190008F7
:1001400051190008511900080000000000000000CB
:1001500051190008511900085119000851190008D7
:1001600051190008511900085119000851190008C7
:100170005119000851190008511900080000000029
:1001800051190008511900085119000851190008A7
:100190005119000851190008511900085119000897
:1001A0007117000851190008851700085119000837
:1001B0009917000851190008511900085119000831
:1001C0005119000851190008511900085119000867
:1001D0005119000851190008511900085119000857
:1001E0005119000851190008511900085119000847
:1001F0005119000851190008511900085119000837
:100200005119000851190008511900085119000826
:100210005119000851190008511900085119000816
:100220005119000851190008511900080000000078
:1002300051190008511900085119000851190008F6
:1002400051190008511900085119000851190008E6
:1002500051190008511900085119000851190008D6
:1002600051190008511900085119000851190008C6
:1002700051190008511900085119000851190008B6
:100280005119000851190008511900080000000018
:08029000511900085119000882
:1002A00010B5054C237833B9044B13B10448AFF3B0
:1002B00000800123237010BD2C01002400000000E9
:1002C00054C0020808B5034B1BB103490348AFF300
:1002D000008008BD000000003001002454C0020866
:1002E00001F0FF01102A2BDB10F0070F08D010F8E7
:1002F000013B013A8B422DD010F0070F42B3F6D1EB
:10030000F0B441EA012141EA014122F007047FF003
:1003100000070023F0E80256083C85EA010586EA5A
:10032000010685FA47F5A3FA87F586FA47F6A5FA96
:1003300087F68EB9EED1F0BC01F0FF0102F00702A2
:1003400032B110F8013B013A83EA010313B1F8D14D
:100350000020704701387047002D06BF354603382E
:10036000073815F0010F07D1013015F4807F02BF67
:10037000013015F4C03F0130F0BC0138704700BFB8
:1003800080B483B000AF87ED010A044A7B68136034
:1003900000BF0C37BD465DF8047B7047000000309D
:1003A00080B483B000AF0346FB71044AFB7913713C
:1003B00000BF0C37BD465DF8047B7047000000307D
:1003C00080B400AF034B5B79DBB21846BD465DF8E5
:1003D000047B70470000003080B400AF034B9B7972
:1003E000DBB21846BD465DF8047B70470000003064
:1003F00080B483B000AF0346FB71044AFB7993716C
:1004000000BF0C37BD465DF8047B7047000000302C
:1004100080B483B000AF78604FF06043D3F8803E83
:1004200003F00103002B13D04FF06043D3F8003EDC
:1004300003F00103002B0BD000E000BF4FF060433E
:100440001B68002BF9D04FF060437A68D2B21A7063
:100450007B6818460C37BD465DF8047B704780B555
:1004600086B000AFF860B9607A6000237B6109E074
:10047000BB685A1CBA601B781846FFF7C9FF7B6936
:1004800001337B617A697B689A42F1DB7B681846AD
:100490001837BD4680BD000080B584B000AF00F0C5
:1004A0001DFC4FF6FF73FB6000BF474B1B6803F456
:1004B0000043002B04D0FB685A1EFA60002BF4DCCA
:1004C000FB68002B01DA00F053FC10F0A9FC00F0EF
:1004D0008DF800F015F93C4BD3F8E0303A4A43F080
:1004E0000073C2F8E030384BD3F8E03003F000730B
:1004F000BB60BB68002011F0DBFB0021002011F085
:10050000F1FB4FF6FF73FB6000BF2F4B1B6803F43A
:100510000043002B04D1FB685A1EFA60002BF4DC68
:10052000FB68002B01DA00F023FC274BD3F8D8300E
:10053000254A43F00103C2F8D830234BD3F8D83012
:1005400003F001037B607B6800F0A4FA00F0CCF9B3
:1005500000F04AFA00F044F900F002F900F022F944
:1005600000F0F0F901F0F5F9184B9A681749184BAB
:1005700013408B60154B9B68144A43F00303936050
:10058000124B9A69114940F2011313438B610F4BCF
:100590001B680E4A43F0010313600AF0DBFB0D4AAF
:1005A00000210D480AF020FC03460C4A13600C4A57
:1005B00000210C480AF018FC03460B4A13600AF0AD
:1005C000EDFB00BFFDE700BF0044025800080040FB
:1005D000F8FFFEFF74CD0208CD0C0008480300248C
:1005E00098CD02085F1900084C03002480B59CB028
:1005F00000AF07F124034C22002118462AF0BBFE6D
:100600003B1D2022002118462AF0B5FE042012F0DE
:10061000E5FE00233B60374BDB6A364A23F00103DB
:10062000D362344BDB6A03F001033B60324B9B69BE
:10063000314A43F4404393612F4B9B6903F4404399
:100640003B603B6800BF2C4B9B6903F40053B3F540
:10065000005FF8D1294B9B6A23F00303274A43F03C
:100660000203936201237B624FF48033BB62022357
:10067000BB640223FB6405233B6590237B65022357
:10068000BB650423FB6504233B6608237B660023CC
:10069000BB660023FB6607F12403184613F0DAFD5E
:1006A0000346002B01D000F063FB3F237B60032354
:1006B000BB600023FB6008233B6140237B61402338
:1006C000BB614FF48063FB6140233B623B1D022111
:1006D000184614F019FA0346002B01D000F048FB2D
:1006E0004FF480220021002014F0C4FB00BF7037BB
:1006F000BD4680BD0004005800480258004402581E
:1007000080B5B0B000AF3B46C022002118462AF0A9
:1007100032FE4FF400224FF00003C7E90023052307
:10072000BB606423FB600A233B610A237B610223D5
:10073000BB618023FB6100233B6200237B620023BB
:10074000C7F8A4303B46184614F016FE0346002BAB
:1007500001D000F00DFB00BFC037BD4680BD0000DA
:1007600080B500AF0D4B0E4A1A600C4B00221A7177
:100770000A4B00225A71094B00225A61074B002292
:100780009A61064B01221A62044810F03FFD0346AD
:10079000002B01D000F0ECFA00BF80BD480100241E
:1007A000004C025880B500AF0B4B0C4A1A600A4B44
:1007B0004FF440325A60084B02229A60064B0022E6
:1007C000DA60054810F014FE0346002B01D000F05B
:1007D000CFFA00BF80BD00BF6C01002400100052A2
:1007E00080B58EB000AF00F0C9FA3B1D3422002165
:1007F00018462AF0C0FD3A4B3A4A1A60384B00229C
:100800005A60374B00229A60354B0022DA60344B35
:1008100000221A61324B28225A61314B09229A6117
:100820002F4B3522DA612E4B0B221A622C4B40F2F1
:1008300015225A622A4B40F21B129A62284B40F250
:100840003522DA62264B40F21D121A63244B002235
:1008500083F83420224B002283F83520204B0022DD
:1008600083F836201E4812F0BDF80346002B01D055
:1008700000F07EFA00237B604FF4F073BB6000232E
:10088000FB604FF488733B6102237B61FF23BB61F4
:100890000023FB614FF480633B6205237B624FF0D2
:1008A0005043BB624FF4F073FB624FF488733B63B9
:1008B000002387F83430002387F83530002387F889
:1008C00036303B1D00221946054812F013FA034644
:1008D000002B01D000F04CFA00BF3837BD4680BD78
:1008E000D40100240010005080B500AF124B134A11
:1008F0001A60114B01225A600F4B01229A600E4B75
:100900001022DA600C4B1A221A610B4B4FF4007262
:100910005A61094B00229A61074B40221A6206482D
:1009200012F0B6FD0346002B01D000F021FA044876
:1009300000F098FA00BF80BD7C02002400500052F5
:10094000710D000880B588B000AF07F10C030022DC
:100950001A605A609A60DA601A613B4600221A6097
:100960005A609A601E4B1F4A1A601D4B00225A6043
:100970001B4B00229A601A4B4FF6FF72DA60184B3D
:1009800000221A61164B00229A61154816F017F9D9
:100990000346002B01D000F0EBF90723FB60402356
:1009A0003B610023FB6107F10C0319460C4816F06C
:1009B000F4FA0346002B01D000F0DAF900233B6083
:1009C0000023BB603B461946054816F055FD03461B
:1009D000002B01D000F0CCF900BF2037BD4680BD10
:1009E000C80200240008004080B588B000AF3B1D5D
:1009F00000221A605A609A60DA601A615A619A613C
:100A0000214B224A1A60204B01225A601E4B0022C1
:100A10009A601D4B0422DA601B4B10221A611A4B9C
:100A200040225A61184B4FF480729A61164B002293
:100A3000DA61154B4FF400621A62134B4FF4805287
:100A40005A62114B00229A6202237B600623BB602C
:100A50000423FB6006233B6102237B610223BB610D
:100A60000223FB613B1D1946074815F0F3FF0346BF
:100A7000002B01D000F07CF9054800F014FA00BF0B
:100A80002037BD4680BD00BF140300244041005202
:100A9000710D000880B590B000AF07F12C03002263
:100AA0001A605A609A60DA601A61814BD3F8E030BC
:100AB0007F4A43F48063C2F8E0307D4BD3F8E030E6
:100AC00003F48063BB62BB6A794BD3F8E030784AA9
:100AD00043F04003C2F8E030754BD3F8E03003F048
:100AE00040037B627B6A724BD3F8E030704A43F478
:100AF0008073C2F8E0306E4BD3F8E03003F48073BB
:100B00003B623B6A6A4BD3F8E030694A43F010031A
:100B1000C2F8E030664BD3F8E03003F01003FB611D
:100B2000FB69634BD3F8E030614A43F40073C2F8C9
:100B3000E0305F4BD3F8E03003F40073BB61BB6976
:100B40005B4BD3F8E0305A4A43F00803C2F8E03078
:100B5000574BD3F8E03003F008037B617B69544BBB
:100B6000D3F8E030524A43F00403C2F8E030504B6F
:100B7000D3F8E03003F004033B613B694C4BD3F8FE
:100B8000E0304B4A43F00103C2F8E030484BD3F861
:100B9000E03003F00103FB60FB68454BD3F8E03025
:100BA000434A43F02003C2F8E030414BD3F8E03031
:100BB00003F02003BB60BB683D4BD3F8E0303C4AF8
:100BC00043F08003C2F8E030394BD3F8E03003F053
:100BD00080037B607B68364BD3F8E030344A43F0C7
:100BE0000203C2F8E030324BD3F8E03003F00203E6
:100BF0003B603B68002240212E4811F03FF808235B
:100C0000FB6200233B6300237B6307F12C0319463F
:100C1000294810F061FD4FF48073FB6202233B63AF
:100C200000237B630023BB630023FB6307F12C03DA
:100C30001946204810F050FD0823FB6200233B6357
:100C400001237B6307F12C0319461C4810F044FD77
:100C50000223FB6200233B6301237B6307F12C0328
:100C60001946174810F038FD4023FB6201233B630F
:100C700000237B630023BB6307F12C0319460D4857
:100C800010F02AFD0823FB6207F12C0319460D48DA
:100C900010F022FD4FF40043FB6207F12C031946CC
:100CA000094810F019FD00BF4037BD4680BD00BFA8
:100CB0000044025800000258002002580018025850
:100CC0000028025800100258001C025880B582B05B
:100CD00000AF786001200AF019F9FBE780B584B015
:100CE00000AF3B4600221A605A609A60DA6010F04A
:100CF00011FA01233B7000237B704FF050437B605F
:100D000013233B7200237B720023BB720323FB720D
:100D100001233B7300237B730123BB730123FB730C
:100D20003B46184610F02EFA01237B704FF010431B
:100D30007B601A233B723B46184610F023FA0420CE
:100D400010F000FA00BF1037BD4680BD80B582B0FC
:100D500000AF78607B681B68044A934201D110F0B1
:100D60009BF800BF0837BD4680BD00BF00100040A3
:100D700080B400AF72B600BF00BFFDE780B58CB095
:100D800000AF364BD3F8E430344A43F00803C2F8DE
:100D9000E430324BD3F8E43003F00803BB61BB69A5
:100DA0002E4BD3F8E0302D4A43F48073C2F8E03084
:100DB0002A4BD3F8E03003F480737B617B69274BC7
:100DC000D3F8E030254A43F40073C2F8E030234BF7
:100DD000D3F8E03003F400733B613B691F4BD3F859
:100DE000E0301E4A43F48063C2F8E0301B4BD3F876
:100DF000E03003F48063FB60FB68184BD3F8E0300D
:100E0000164A43F08003C2F8E030144BD3F8E030C8
:100E100003F08003BB60BB68104BD3F8E0300F4A8F
:100E200043F00803C2F8E0300C4BD3F8E03003F095
:100E300008037B607B688023FB6101233B6207F131
:100E40001C031946064810F047FC01228021044883
:100E500010F014FF00BF3037BD4680BD004402587B
:100E6000000C025880B584B000AF786003233B7358
:100E700001237B734023BB7307F10C031946002049
:100E80000EF088FF0346002B01D07B6898470020B6
:100E90000FF05AF80346002B01D07B68984700BF3B
:100EA0001037BD4680BD80B582B000AF78600020AD
:100EB0000FF0B8FB00200FF059FB0346002B01D0C8
:100EC0007B68984700BF0837BD4680BD80B582B0BB
:100ED00000AF0C4BD3F8F4300A4A43F00203C2F8D7
:100EE000F430084BD3F8F43003F002037B607B68E6
:100EF00000220F216FF0010010F0D6F800BF083774
:100F0000BD4680BD0044025880B485B000AF786013
:100F10007B681B680B4A93420ED10B4BD3F8E03031
:100F2000094A43F40023C2F8E030074BD3F8E0301D
:100F300003F40023FB60FB6800BF1437BD465DF877
:100F4000047B7047004C02580044025880B584B0BE
:100F500000AF78607B681B680E4A934216D10E4B37
:100F6000D3F8D4300C4A43F01003C2F8D4300A4B03
:100F7000D3F8D43003F01003FB60FB680022052196
:100F80005A2010F091F85A2010F0A8F800BF10373E
:100F9000BD4680BD001000520044025880B5BEB06E
:100FA00000AF786007F1E40300221A605A609A608B
:100FB000DA601A6107F12003C022002118462AF0E6
:100FC000DAF97B681B68694A934240F0CB804FF0A6
:100FD00000524FF00003C7E908230523BB64A02398
:100FE000FB6402233B6502237B655323BB654FF4FF
:100FF0000063FB6500233B6600237B6607F120034B
:10100000184614F0B9F90346002B01D0FFF7B0FEE3
:10101000574BD3F8E430564A43F00803C2F8E430A3
:10102000534BD3F8E43003F00803FB61FB69504BEA
:10103000D3F8E0304E4A43F48063C2F8E0304C4BC2
:10104000D3F8E03003F48063BB61BB69484BD3F84D
:10105000E030474A43F48073C2F8E030444BD3F8A1
:10106000E03003F480737B617B69414BD3F8E0305F
:101070003F4A43F40073C2F8E0303D4BD3F8E03010
:1010800003F400733B613B69394BD3F8E030384AD5
:1010900043F08003C2F8E030354BD3F8E03003F082
:1010A0008003FB60FB68FC23C7F8E4300223C7F829
:1010B000E8300023C7F8EC300223C7F8F0300E23E5
:1010C000C7F8F43007F1E40319462A4810F004FB8E
:1010D0004DF20323C7F8E4300223C7F8E8300023B9
:1010E000C7F8EC300223C7F8F0300E23C7F8F4300D
:1010F00007F1E4031946204810F0EEFA4FF6FB73AF
:10110000C7F8E4300223C7F8E8300023C7F8EC3012
:101110000223C7F8F0300E23C7F8F43007F1E403D8
:101120001946164810F0D8FA4FF40073C7F8E430A7
:101130000223C7F8E8300023C7F8EC300223C7F8D1
:10114000F0300E23C7F8F43007F1E40319460C48D9
:1011500010F0C2FA0022052158200FF0A5FF5820F8
:101160000FF0BCFF00BFF837BD4680BD0010005037
:101170000044025800280258002002580024025857
:10118000001C025880B5BEB000AF786007F1E403E0
:1011900000221A605A609A60DA601A6107F120032F
:1011A000C022002118462AF0E6F87B681B68774ABF
:1011B000934240F0E7804FF000724FF00003C7E920
:1011C00008230023FB6607F12003184614F0D4F827
:1011D0000346002B01D0FFF7CBFD6D4BD3F8D43085
:1011E0006B4A43F48043C2F8D430694BD3F8D4300F
:1011F00003F48043FB61FB69654BD3F8E030644A3C
:1012000043F04003C2F8E030614BD3F8E03003F024
:101210004003BB61BB695E4BD3F8E0305C4A43F0EE
:101220002003C2F8E0305A4BD3F8E03003F020033B
:101230007B617B69564BD3F8E030554A43F080031D
:10124000C2F8E030524BD3F8E03003F080033B614A
:101250003B694F4BD3F8E0304D4A43F00803C2F8E6
:10126000E0304B4BD3F8E03003F00803FB60FB6841
:101270004FF48443C7F8E4300223C7F8E830002372
:10128000C7F8EC300323C7F8F0300923C7F8F4306F
:1012900007F1E40319463F4810F01EFA4023C7F84F
:1012A000E4300223C7F8E8300123C7F8EC30032309
:1012B000C7F8F0300A23C7F8F43007F1E403194601
:1012C000344810F009FA4FF49863C7F8E430022369
:1012D000C7F8E8300023C7F8EC300323C7F8F03034
:1012E0000923C7F8F43007F1E40319462A4810F03F
:1012F000F3F94FF40073C7F8E4300223C7F8E8307D
:101300000023C7F8EC300323C7F8F0300A23C7F8EE
:10131000F43007F1E40319461F4810F0DDF90C23FF
:10132000C7F8E4300223C7F8E8300023C7F8EC30F0
:101330000323C7F8F0300923C7F8F43007F1E403BA
:101340001946164810F0C8F94FF40063C7F8E430A6
:101350000223C7F8E8300023C7F8EC300323C7F8AE
:10136000F0300923C7F8F43007F1E40319460C48BC
:1013700010F0B2F9002205215C200FF095FE5C20F0
:101380000FF0ACFE00BFF837BD4680BD00500052E4
:10139000004402580018025800140258001C025859
:1013A000000C025880B58AB000AF786007F11403D2
:1013B00000221A605A609A60DA601A617B681B68C2
:1013C0001A4A93422DD11A4BD3F8E830184A43F009
:1013D0000403C2F8E830164BD3F8E83003F00403F6
:1013E0003B613B69124BD3F8E030114A43F00203F2
:1013F000C2F8E0300E4BD3F8E03003F00203FB609C
:10140000FB68C0237B610223BB610123FB610023D6
:101410003B6202237B6207F114031946054810F072
:101420005BF900BF2837BD4680BD00BF0008004003
:10143000004402580004025880B5B8B000AF07F16C
:10144000CC0300221A605A609A60DA601A61514B2C
:101450001B68002B40F099804E4B01221A6007F167
:101460000803C0220021184629F085FF4FF0807242
:101470004FF00003C7E9022300233B6507F108038F
:10148000184613F079FF0346002B01D0FFF770FCDC
:10149000414BD3F8D430404A43F48053C2F8D4309F
:1014A0003D4BD3F8D43003F480537B607B684FF618
:1014B0008373C7F8CC300223C7F8D0300023C7F8B5
:1014C000D4300323C7F8D8300C23C7F8DC3007F139
:1014D000CC031946314810F0FFF848F23313C7F82F
:1014E000CC300223C7F8D0300023C7F8D430032310
:1014F000C7F8D8300C23C7F8DC3007F1CC03194605
:10150000274810F0E9F84CF20373C7F8CC300223F7
:10151000C7F8D0300023C7F8D4300323C7F8D83039
:101520000C23C7F8DC3007F1CC0319461D4810F036
:10153000D3F84FF63F03C7F8CC300223C7F8D030BA
:101540000023C7F8D4300323C7F8D8300C23C7F8DA
:10155000DC3007F1CC031946134810F0BDF8E02346
:10156000C7F8CC300223C7F8D0300023C7F8D430F6
:101570000323C7F8D8300C23C7F8DC3007F1CC03BD
:1015800019460A4810F0A8F800E000BFE037BD4651
:1015900080BD00BF500300240044025800100258D0
:1015A00000180258000C025800140258001C02587F
:1015B00080B582B000AF7860FFF73EFF00BF08370C
:1015C000BD4680BD80B500AF144B1B68002B23D1F6
:1015D000124B01221A60124BD3F8D430104A23F474
:1015E0008053C2F8D4304FF683710E4810F024FABD
:1015F00048F233110C4810F01FFA4CF203710B48FB
:1016000010F01AFA4FF63F01094810F015FAE021E0
:10161000084810F011FA00E000BF80BD5403002418
:10162000004402580010025800180258000C0258DA
:1016300000140258001C025880B582B000AF7860D8
:10164000FFF7C0FF00BF0837BD4680BD80B590B032
:1016500000AF78607B680F2B27D80022796836208E
:101660000FF022FD36200FF039FD294A7B68136008
:10167000284BD3F8E830274A43F01003C2F8E8308B
:10168000244BD3F8E83003F01003FB60FB6807F14C
:10169000100207F114031146184613F02BFEBB6A23
:1016A000BB63BB6B002B06D101E001232BE013F0E1
:1016B000F5FDF86304E013F0F1FD03465B00FB6306
:1016C000FB6B154AA2FB03239B0C013B7B63134B73
:1016D000134A1A60114B40F2E732DA600F4A7B6B13
:1016E00053600E4B00221A610C4B00229A600B488B
:1016F00015F065FA0346002B04D1084815F0B6FA38
:10170000034600E0012318464037BD4680BD00BFB8
:10171000500000240044025883DE1B435803002479
:101720000010004080B400AF00BFFDE780B400AF00
:1017300000BFFDE780B400AF00BFFDE780B400AF9D
:1017400000BFFDE780B400AF00BFFDE780B400AF8D
:1017500000BFBD465DF8047B7047000080B500AF58
:10176000024815F0FBFA00BF80BD00BF58030024FB
:1017700080B500AF024811F005FA00BF80BD00BF80
:10178000D401002480B500AF02480FF095FE00BFE1
:1017900080BD00BF6C01002480B500AF024811F08D
:1017A000EBFE00BF80BD00BF7C02002480B400AF10
:1017B00001231846BD465DF8047B704780B582B0B2
:1017C00000AF7860396029F0CFFE034616221A6018
:1017D0004FF0FF3318460837BD4680BD80B582B054
:1017E00000AF78604FF0FF317868FFF7E7FF00BF88
:1017F000FDE780B586B000AFF860B9607A6000237D
:101800007B610AE0AFF300800146BB685A1CBA60F6
:10181000CAB21A707B6901337B617A697B689A422C
:10182000F0DB7B6818461837BD4680BD80B483B0B6
:1018300000AF78604FF0FF3318460C37BD465DF8B7
:10184000047B704780B483B000AF786039603B6838
:101850004FF400525A60002318460C37BD465DF81D
:10186000047B704780B483B000AF786001231846D2
:101870000C37BD465DF8047B704780B485B000AF7F
:10188000F860B9607A60002318461437BD465DF8E9
:10189000047B704780B586B000AF7860144A154B62
:1018A000D31A7B617B693B61134B1B68002B02D110
:1018B000114B124A1A60104B1A687B6813443A693C
:1018C0009A4207D229F050FE03460C221A604FF0CC
:1018D000FF3309E0084B1B68FB60074B1A687B6805
:1018E0001344054A1360FB6818461837BD4680BD8F
:1018F0000000082400100000A4030024B0BC002451
:10190000DFF834D00CF05AFE0C480D490D4A002384
:1019100002E0D458C4500433C4188C42F9D30A4AA4
:101920000A4C002301E013600432A242FBD329F0E9
:1019300021FEFEF7B1FD70470000082400000024DE
:101940002C010024D40903082C010024ACBC002481
:10195000FEE780B500AF01F05FFC00BF80BD80B541
:1019600082B000AF786001F081FC00BF0837BD464F
:1019700080BD000080B483B000AF7860044A7B680B
:101980001A607B6818460C37BD465DF8047B7047CB
:10199000DCCD020880B582B000AF78607868FFF7D0
:1019A000E9FF0421786829F0B0FA7B681846083707
:1019B000BD4680BD80B582B000AF786000F0A8FA67
:1019C00000BF0837BD4680BD80B584B000AFF86069
:1019D000B9607A607968B86800F0BEFA03461846C4
:1019E0001037BD4680BD000080B582B000AF786082
:1019F000054A7B681A607B681846FFF7BBFF7B6867
:101A000018460837BD4680BDC4CD020880B582B0F7
:101A100000AF78607868FFF7E7FF0421786829F065
:101A200074FA7B6818460837BD4680BD80B483B021
:101A300000AF0346FB71FB79032B0CD801A252F8CF
:101A400023F000BF551A0008551A0008551A00085F
:101A5000551A000800BF00BF0C37BD465DF8047B77
:101A6000704700BF80B483B000AF0346FB71FB79C1
:101A7000032B0CD801A252F823F000BF8D1A0008E6
:101A80008D1A00088D1A00088D1A000800BF00BFCB
:101A90000C37BD465DF8047B704700BF80B483B04F
:101AA00000AF0346FB71FB79032B0CD801A252F85F
:101AB00023F000BFC51A0008C51A0008C51A00089F
:101AC000C51A000800BF00BF0C37BD465DF8047B97
:101AD000704700BF80B483B000AF7860044A7B6871
:101AE0001A607B6818460C37BD465DF8047B70476A
:101AF000B4E5020880B582B000AF78607868FFF77F
:101B0000E9FF7C21786829F000FA7B6818460837DD
:101B1000BD4680BD80B483B000AF78600B46FB70DB
:101B20007B68FA7883F874207B68012283F875203B
:101B300000BF0C37BD465DF8047B704780B582B0AE
:101B400000AF78600B467B8013463B800C4B1B88B4
:101B50007A889A4204D30B4B1B883A889A4205D262
:101B6000094B0A4A9E210A4829F0FEF9094A7B8856
:101B70001380094A3B88138000BF0837BD4680BDEB
:101B8000C0B80024C2B8002488C00208ECC0020813
:101B900030C10208C6B80024C8B8002480B582B09D
:101BA00000AF78607B6893F87730002B09D07B68B2
:101BB0005A687B685B681B681B6810469847034639
:101BC00000E0002318460837BD4680BD80B582B0CE
:101BD00000AF7860786817F017FD7B681B68A43346
:101BE0001B687868984700BF0837BD4680BD80B441
:101BF00083B000AF78603960002318460C37BD46CB
:101C00005DF8047B7047000080B584B000AFF860D9
:101C1000B9607A603B60BB68002B06D1114B124A59
:101C20004FF42B71114829F09FF9FB68BA68DA6309
:101C3000FB687A681A64FB683A685A647B68002B10
:101C400014BF01230023DAB2094B1A703B68002B42
:101C500014BF01230023DAB2064B1A7000BF1037FD
:101C6000BD4680BD78C10208B0C1020830C102087B
:101C7000CAB80024CBB8002480B483B000AF786029
:101C8000002318460C37BD465DF8047B704780B5CD
:101C900082B000AF78600B467B807B689B6B002B2B
:101CA00004D07B689B6B7A881046984700BF083742
:101CB000BD4680BD80B483B000AF78604FF6FF733F
:101CC00018460C37BD465DF8047B704780B582B07E
:101CD00000AF78607B685A687B685B681B68183364
:101CE0001B6810469847034618460837BD4680BD16
:101CF00080B485B000AF78607B6893F874207B680F
:101D000093F834309A4211D0144B1B78002B1ED11B
:101D1000134B1B88BB81134B1A88114B1A80114A35
:101D2000BB8913800D4B01221A7010E00B4B1B78FE
:101D3000002B0CD00A4B1B88FB810A4B1A88084BDE
:101D40001A80084AFB891380044B00221A7000BFD6
:101D50001437BD465DF8047B704700BFC4B800244B
:101D6000C2B80024C0B8002480B582B000AF78604B
:101D70007B68184616F0FDFD00BF0837BD4680BDE4
:101D800080B582B000AF7860054A7B681A607B68D6
:101D90001846FFF79FFE7B6818460837BD4680BD92
:101DA00044D1020880B582B000AF78607868FFF750
:101DB000E7FF7C21786829F0A8F87B681846083787
:101DC000BD4680BD80B582B000AF78607B681846A4
:101DD000FFF7CAFF00BF0837BD4680BD80B582B09F
:101DE00000AF78607B68184601F030FD00BF08370F
:101DF000BD4680BD80B582B000AF78607B68184674
:101E000001F0BCFD034618460837BD4680BD80B5CD
:101E100082B000AF786039607B683968184601F09D
:101E2000BBFD00BF0837BD4680BD80B582B000AFA6
:101E3000786039607B683968184601F0C3FD00BFDF
:101E40000837BD4680BD80B584B000AFF860B9608A
:101E50007A603B60F8683B687A68B96801F008FE10
:101E6000034618461037BD4680BD80B582B000AF2E
:101E700078607B68184601F00DFD00BF0837BD464D
:101E800080BD80B582B000AF78607B68184601F0F5
:101E900011FD00BF0837BD4680BD80B582B000AFE0
:101EA00078607B68184601F013FD00BF0837BD4617
:101EB00080BD80B582B000AF78607B68184601F0C5
:101EC00015FD00BF0837BD4680BD000080B582B05B
:101ED00000AF7860054A7B681A607B681846FFF798
:101EE0004FFF7B6818460837BD4680BDF4CD020819
:101EF00080B582B000AF78607868FFF7E7FF7C219B
:101F0000786829F002F87B6818460837BD4680BD1E
:101F100080B584B000AF4FF4F0733B604FF488732A
:101F20007B600823BB600023FB603B461946002012
:101F30000EF0FEFC0346002B14BF01230023DBB28E
:101F4000002B03D1034B01221A7000E000BF1037B1
:101F5000BD4680BDA803002480B582B000AF786084
:101F60003960114B1B7883F00103DBB2002B01D0E9
:101F7000002314E00D4900200EF096FD0B4B1B686A
:101F8000002B01D100230AE0084B5B681A467B68EE
:101F90001A60064B9B681A463B681A600123184674
:101FA0000837BD4680BD00BFA8030024AC03002451
:101FB00080B500AF00220121012008F0C2FF0346D6
:101FC0000F4A13600E4B1B68002B05D10D4B0E4AB8
:101FD00028210E4828F0C8FF00220421012009F022
:101FE000CFF803460A4A1360094B1B68002B05D142
:101FF000084B054A2C21054828F0B6FF00BF80BDDC
:10200000B803002400C202084CC202087CC20208C5
:10201000BC0300240CC3020880B500AF044B1B684E
:102020004FF0FF31184609F015F800BF80BD00BF22
:10203000B803002480B500AF034B1B68184609F0B5
:102040005BF800BF80BD00BFB803002480B500AFBF
:10205000034B1B680021184608F0FCFF00BF80BD41
:10206000B803002480B500AF034B1B68184609F085
:1020700043F800BF80BD00BFB803002480B500AFA7
:10208000044B186800230022034909F0EDF800BF53
:1020900080BD00BFBC0300240400002480B582B0D2
:1020A00000AF094B1868391D0023002209F03CF9E4
:1020B000054B1868391D4FF0FF33002209F034F941
:1020C00000BF0837BD4680BDBC03002480B483B088
:1020D00000AF0346FB80B7F90630002B0BDBFB8813
:1020E00003F01F020749B7F906305B09012000FA27
:1020F00002F241F8232000BF0C37BD465DF8047B97
:10210000704700BF00E100E080B483B000AF034639
:10211000FB80B7F90630002B12DBFB8803F01F02AF
:102120000A49B7F906305B09012000FA02F22033B0
:1021300041F82320BFF34F8F00BFBFF36F8F00BF65
:1021400000BF0C37BD465DF8047B704700E100E03E
:1021500080B483B000AF78607B6800221A607B682F
:1021600018460C37BD465DF8047B704780B483B0D9
:1021700000AF78607B681B6818460C37BD465DF879
:10218000047B704780B483B000AF7860044A7B68FA
:102190001A607B6818460C37BD465DF8047B7047B3
:1021A00014CF020880B582B000AF78607868FFF77E
:1021B000E9FF0421786828F0A8FE7B6818460837F4
:1021C000BD4680BD80B582B000AF78607B681B687B
:1021D00044331B687868984700BF0837BD4680BD08
:1021E00080B483B000AF7860044A7B681A607B6873
:1021F00018460C37BD465DF8047B70470CEB0208AF
:1022000080B582B000AF78607868FFF7E9FF0C21F5
:10221000786828F07AFE7B6818460837BD4680BD8E
:1022200080B483B000AF78603960094A7B681A6077
:102230007B683A685A607B6800221A727B680022C9
:102240005A727B6818460C37BD465DF8047B7047B0
:102250000CEB020880B483B000AF7860012318460D
:102260000C37BD465DF8047B704780B582B000AF87
:1022700078607A687B681B6828331B68104698472B
:1022800000BF0837BD4680BD80B400AF034B1B685C
:102290001846BD465DF8047B704700BFCCB80024EB
:1022A00080B582B000AF78607B685A687B685B68F5
:1022B0001B6814331B681046984700BF0837BD469B
:1022C00080BD80B582B000AF7860FFF7DDFF0346C8
:1022D0001846FFF7E5FF00BF0837BD4680BD80B553
:1022E00082B000AF78607B680C331846FFF730FF90
:1022F0007B6818460837BD4680BD0000B0B582B087
:1023000000AF78607A687B680C3319461046FFF797
:1023100087FF0E4A7B681A607B6803F10C007B68BC
:1023200020336022194617F0D5FA7B6820335F24EA
:102330001D4604E02846FFF7D2FF013C2035002C63
:10234000F8DA7B6818460837BD46B0BDC4CE02082F
:1023500080B582B000AF7860094A7B681A605A2065
:10236000FFF7D2FE7B680C33184600F0BFFA7B689B
:102370001846FFF735FF7B6818460837BD4680BD15
:10238000C4CE020880B582B000AF78607868FFF7ED
:10239000DFFF4FF44261786828F0B7FD7B6818468C
:1023A0000837BD4680BD000080B584B000AF7860BE
:1023B000124BD3F8D430114A43F01003C2F8D43092
:1023C0000E4BD3F8D43003F01003FB60FB680B4BCB
:1023D000DB6F0A4A43F01003D367084BDB6F074AF1
:1023E00023F01003D367064B064A1A625A20FFF700
:1023F0006DFE00BF1037BD4680BD00BF00440258CF
:102400006C010024C322000880B584B000AF78605E
:102410000B46FB700023FB60FB780B2B26D801A238
:1024200052F823F0612400085B24000855240008BA
:102430006D2400086D2400086D2400086D24000838
:102440006724000867240008672400086724000840
:10245000672400080023FB600EE00123FB600BE013
:102460000223FB6008E00523FB6005E0054B064AFC
:102470006621064828F078FDFB6818461037BD46EF
:1024800080BD00BF50C302086CC30208B8C3020875
:1024900080B584B000AF78600B46FB700023FB6012
:1024A000FB780A2B21D801A252F823F0E52400087A
:1024B000DF240008D9240008EB240008EB240008DE
:1024C000EB240008EB240008DF240008DF240008C8
:1024D000DF240008DF2400080023FB600BE0012359
:1024E000FB6008E00223FB6005E0054B054A8721FD
:1024F000054828F039FDFB6818461037BD4680BDF9
:1025000050C3020848C40208B8C3020880B483B0AC
:1025100000AF786040F2EF3318460C37BD465DF8E7
:10252000047B704790B589B000AF786039603B6834
:102530005B7F19467868FFF767FFB8613B689B7F50
:1025400019467868FFF760FF78613B689B7F194602
:102550007868FFF79DFF38613B685B8B1A463B68E4
:102560009B8AD21A934B1A643B685B8B1A463B6872
:102570009B8AD21A8F4B9A613B681B8B1A463B6829
:102580009B8AD21A8B4B1A618A4A3B6953633B6818
:10259000DB8A1A463B689B8A1B041A43854B5A64A4
:1025A0003B681A69834BDA633B685A68814BDA608F
:1025B0003B681B68B3F5007F35D0B3F5007F00F2B0
:1025C000DD80B3F5807F14D0B3F5807F00F2D68034
:1025D000802B56D0802B00F2D180402B00F0BA80A7
:1025E000402B00F2CB80042B37D0202B00F0B280A0
:1025F000C4E03B681B7F1A066E496F4B1343CB61E7
:102600003B680C336B4C1846FFF7B0FD0346236262
:10261000684A7B6953623B681A69664B5A61654B2D
:10262000664A1A60C2E03B681B7F1A066149644B28
:102630001343CB613B680C335E4C1846FFF796FDA5
:10264000034623625B4A7B6953623B681A69594BB4
:102650005A61584B594A1A60A8E03B681B7F1A061A
:10266000BB691343534A43F40033D361514A7B6936
:1026700053623B681A694F4B5A614E4B4F4A1A607E
:1026800094E00123FB773B689B68FB60FB681A1DA5
:10269000484BDA623B681B7F1A06BB691343454A05
:1026A00043F40033D361434A7B6953623B681A6940
:1026B000404B5A61FB681B88DBB2002B02D0012B18
:1026C0000DD020E03B4BDA693E4B1340FA6852884C
:1026D000013A12021146374A0B43D3611AE03B68B4
:1026E0001B7FFF2B01D10023FB77324BDA69354B7F
:1026F0001340FA685288013A120213432D4A43F0FC
:102700001003D36106E0304B304A40F211113048DB
:1027100028F02AFC274BDB69264A43F02003D361CB
:1027200000BF244BDB6903F02003002B14BF0123FF
:102730000023DBB2002BF4D11E4B10229A60FB7FEA
:10274000002B03D01B4B1D4A1A602FE0194B214A66
:102750001A602BE03B681B7F1A06BB691343154ABE
:1027600043F40033D361134A7B6953623B681A69AF
:10277000104B5A610F4B114A1A6017E03B681B7FE0
:102780001A06BB6913430B4A43F40033D3613B6819
:102790005A7F3B689B7F9A4203D0064B0D4A1A60D2
:1027A00003E0044B40F201221A6000BF00BF24374F
:1027B000BD4690BD001000520A0002000102020056
:1027C00009000200EF00FFFF94C40208B0C4020831
:1027D000B8C302080102010090B585B000AF78606F
:1027E00039603B689B7F19467868FFF751FEF860B7
:1027F0003A4AFB6853633B68DB8A1A463B689B8A0C
:102800001B041A43354B5A643B681A69334BDA632D
:102810003B685B8B1A463B689B8AD21A2F4B1A6423
:102820003B681B68082B2DD13B685B8B1A463B68C5
:102830009B8AD21A294B9A613B685B8B1A463B688C
:102840009B8AD21A254B1A61244AFB6853623B6863
:102850001B7F1A062149224B1343CB613B680C3383
:102860001E4C1846FFF782FC034623623B681A6938
:102870001A4B5A613B681A69184BDA60174B194AB0
:102880001A6027E0154AFB68D361144B00221A61D5
:102890003B680C331846FFF769FC03461B0A03F438
:1028A00078443B680C331846FFF760FC03465B092D
:1028B00003F4FC631C433B680C331846FFF756FCDB
:1028C0000346DB0803F01F03044A23439363034BCF
:1028D000054A1A6000BF1437BD4690BD0010005273
:1028E00009000100010202000102030080B582B06C
:1028F00000AF7860054A7B681A607B681846FFF76E
:1029000041FC7B6818460837BD4680BD5CEB020879
:1029100080B582B000AF78607868FFF7E7FF1421D8
:10292000786828F0F2FA7B6818460837BD4680BD03
:1029300080B483B000AF78607B6800221A807B6827
:1029400000225A807B6800229A807B680022DA800D
:102950007B6818460C37BD465DF8047B7047000065
:1029600080B483B000AF7860044A7B68136000BF16
:102970000C37BD465DF8047B704700BF28B90024C2
:1029800080B483B000AF7860044A7B681A607B68CB
:1029900018460C37BD465DF8047B704730D10208FD
:1029A00080B582B000AF78607868FFF7E9FF042156
:1029B000786828F0AAFA7B6818460837BD4680BDBB
:1029C00080B485B000AFF860B9607A603B600B4AB4
:1029D000FB681A60FB68BA685A60FB687A689A609C
:1029E000FB683A68DA60FB68BA691A61FB681846E6
:1029F0001437BD465DF8047B704700BF20D1020844
:102A000080B483B000AF7860044A7B681A607B684A
:102A100018460C37BD465DF8047B704720D102088C
:102A200080B582B000AF78607868FFF7E9FF1421C5
:102A3000786828F06AFA7B6818460837BD4680BD7A
:102A400080B483B000AF7860396000BF0C37BD46FA
:102A50005DF8047B704780B483B000AF7860396064
:102A600000BF0C37BD465DF8047B704780B483B06F
:102A700000AF7860396000BF0C37BD465DF8047B5D
:102A8000704780B483B000AF78600B46FB7000BF26
:102A90000C37BD465DF8047B704780B483B000AF4F
:102AA000786000BF0C37BD465DF8047B704780B48A
:102AB00083B000AF786000BF0C37BD465DF8047B83
:102AC0007047000080B483B000AF7860044A7B6830
:102AD0001A607B6818460C37BD465DF8047B70476A
:102AE000F8D0020880B582B000AF78607868FFF750
:102AF000E9FF0421786828F008FA7B68184608374F
:102B0000BD4680BD80B483B000AF7860044A7B6866
:102B10001A607B6818460C37BD465DF8047B704729
:102B200054F1020880B582B000AF78607868FFF792
:102B3000E9FF0821786828F0E8F97B68184608372B
:102B4000BD4680BD80B483B000AF78600B46FB709B
:102B500000BF0C37BD465DF8047B704780B483B07E
:102B600000AF786039607B683A6803F59673106847
:102B7000516803C300BF0C37BD465DF8047B704746
:102B800080B483B000AF7860044A7B681A607B68C9
:102B900018460C37BD465DF8047B7047E0D002084C
:102BA00080B582B000AF78607868FFF7E9FF042154
:102BB000786828F0AAF97B6818460837BD4680BDBA
:102BC00080B483B000AF78607B6800221A807B6895
:102BD00000225A807B6800229A807B680022DA807B
:102BE0007B6800221A817B6800225A817B68002260
:102BF0009A817B6800229A737B6818460C37BD4621
:102C00005DF8047B704780B582B000AF78607B6868
:102C10001846FFF7D5FF7B6800221A617B68002207
:102C20009A827B6818460837BD4680BD80B584B05F
:102C300000AFF860B9607A603B60554AFB681A6083
:102C4000FB68BA685A60FB687A689A60FB683A6801
:102C5000DA60FB6800221A61FB6800225A61FB6897
:102C600000229A61FB681C331846FFF7CCFFFB6813
:102C7000002283F83420FB6800229A63FB6800225C
:102C8000DA63FB6800221A64FB6800225A64FB685E
:102C9000002283F84820FB68012283F84920FB6862
:102CA000002283F84A20FB68002283F84B20FB684F
:102CB0000022DA64FB6850331846FFF739FEFB68E0
:102CC00000229A65FB680022DA65FB6800221A661A
:102CD000FB68012283F86420FB68002283F86520EA
:102CE000FB68002283F86620FB68012283F86720D6
:102CF000FB68002283F86820FB68002283F86920C3
:102D0000FB68002283F86A20FB68002283F86B20AE
:102D1000FB68002283F86C20FB6800221A67FB68BE
:102D2000002283F87420FB68002283F87520FB687A
:102D3000002283F87620FB68012283F87720FB6865
:102D4000012283F87820134AFB681360124A3B8BF8
:102D50001380114B1A88114B1A80114ABB8B1380B8
:102D60000F4B1A880F4B1A800F4B00221A703A8BA8
:102D7000BB8B9A4234BF01230023DBB21A46FB68A7
:102D800083F83420FB6818461037BD4680BD00BF6D
:102D9000B4E50208CCB80024C0B80024C6B80024AA
:102DA000C2B80024C8B80024C4B8002480B582B0DA
:102DB00000AF7860054A7B681A607B681846FFF7A9
:102DC00081FE7B6818460837BD4680BD68F2020860
:102DD00080B582B000AF78607868FFF7E7FF4FF406
:102DE0009C71786828F091F87B6818460837BD46D2
:102DF00080BD80B582B000AF7860786800F004F8DC
:102E000000BF0837BD4680BD80B582B000AF786096
:102E10007B68D3F83C31002B0FD07B68D3F83C2182
:102E20007B68D3F83C311B680C331B68104698470D
:102E30000346002B01D0012300E00023002B0ED01D
:102E40007B68D3F83C217B68D3F83C311B6808339E
:102E50001B68104698477B680022C3F83C2100BFDE
:102E60000837BD4680BD000080B582B000AF7860F5
:102E7000054A7B681A607B681846FFF797FF7B68F6
:102E800018460837BD4680BD9CD0020880B582B088
:102E900000AF78607868FFF7E7FF4FF4A0717868BB
:102EA00028F033F87B6818460837BD4680BD00001F
:102EB00080B582B000AF7860084A7B681A607B6892
:102EC00003F5A073184600F009FB7B681846FFF76E
:102ED000CBFF7B6818460837BD4680BD40D002084E
:102EE00080B582B000AF78607868FFF7E1FF4FF4FB
:102EF000AC71786828F009F87B6818460837BD4639
:102F000080BD000080B582B000AF7860054A7B6864
:102F10001A607B681846FFF7CBFF7B6818460837B6
:102F2000BD4680BDFCCF020880B582B000AF78609E
:102F30007868FFF7E7FF4FF4AC71786827F0E5FF9A
:102F40007B6818460837BD4680BD80B582B000AFAB
:102F500078607B68D3F85431184607F0C7FD7B686A
:102F6000184618F067FD00BF0837BD4680BD80B524
:102F700082B000AF786039603B68184601F01EFBF4
:102F800000BF0837BD4680BD80B586B002AFF8608F
:102F9000B9607A603B60F868BB6900933B687A6807
:102FA000B968FFF70DFD044AFB681A60FB68184614
:102FB0001037BD4680BD00BFE8CF020880B500AF26
:102FC000014800F05DF980BDC003002480B500AF6A
:102FD000114B1B68BFF35B8F03F00103002B0CBF89
:102FE00001230023DBB2002B13D00B4827F08FFF07
:102FF0000346002B14BF01230023DBB2002B08D0B3
:10300000064800F067F8064827F0CCFF024827F092
:103010008AFF024B184680BDA8100024C00300247C
:10302000BD2F000880B582B000AF7860054A7B688C
:103030001A607B681846FFF7E3FC7B681846083780
:10304000BD4680BDE8CF020880B582B000AF786091
:103050007868FFF7E7FF1421786827F056FF7B6850
:1030600018460837BD4680BD80B582B000AF786095
:103070007B68184614F056FC034A7B681A607B682C
:1030800018460837BD4680BDB4CF020880B582B06F
:1030900000AF78607B68184614F044FC034A7B68F4
:1030A0001A607B6818460837BD4680BD80CF02088D
:1030B00080B582B000AF78607B68184614F032FCAF
:1030C000034A7B681A607B6818460837BD4680BD96
:1030D0004CCF020890B585B002AF786078687B6805
:1030E00003F114017B6803F12C027B6803F64C3476
:1030F0007B6803F68C3300932346FFF745FF184A9D
:103100007B681A607B6814331846FFF7ADFF7B6855
:103110002C331846FFF7BAFF7B6803F64C3318468A
:10312000FFF7C6FF7B6803F68C307B6803F6E44349
:103130007A68194607F030F87B6803F6E4431846CE
:1031400007F0C6FC7A687B6803F68C331946104694
:10315000FFF70DFF7B6818460C37BD4690BD00BFDA
:1031600038CF020880B586B002AFF860B9607A60E7
:103170003B60F868BB8B01933B8B00933B687A689C
:10318000B968FFF753FD044AFB681A60FB681846EC
:103190001037BD4680BD00BF44D1020880B586B05F
:1031A00002AFF860B9607A603B60F868BB8B01934E
:1031B0003B8B00933B687A68B968FFF7D3FF044AFA
:1031C000FB681A60FB6818461037BD4680BD00BF1B
:1031D000F4CD020880B483B000AF7860044A7B6805
:1031E0001A607B6818460C37BD465DF8047B704753
:1031F000DCCD020880B582B000AF78607B681846ED
:10320000FFF7E8FF034A7B681A607B6818460837B7
:10321000BD4680BDC4CD020890B585B002AF00F0B8
:1032200059FD044600F060FD034619460023009353
:103230000023002220461BF011FE0948FFF790FBF7
:10324000002006F0F3FE07481BF04AFDFFF7BEFE24
:1032500078600548FEF7C2FD00BF0C37BD4690BD43
:10326000481D0024080000244C1D002480B500AF38
:10327000024815F0E6FB00BF80BD00BF4C1D0024D6
:1032800080B582B000AF7860104A7B681A607B68B6
:1032900003F68C331846FFF735FE7B6803F64C3394
:1032A000184600F027F87B682C33184600F044F8E5
:1032B0007B681433184600F063F87B681846FFF704
:1032C000B1FE7B6818460837BD4680BD38CF02087E
:1032D00080B582B000AF78607868FFF7D1FF40F624
:1032E000E841786827F011FE7B6818460837BD462C
:1032F00080BD000080B582B000AF7860054A7B6871
:103300001A607B68184614F00BFB7B681846083778
:10331000BD4680BD4CCF020880B582B000AF78605A
:103320007868FFF7E7FF4021786827F0EEFD7B68BB
:1033300018460837BD4680BD80B582B000AF7860C2
:10334000054A7B681A607B68184614F0E9FA7B68C6
:1033500018460837BD4680BD80CF020880B582B0D0
:1033600000AF78607868FFF7E7FF4FF43261786864
:1033700027F0CBFD7B6818460837BD4680BD0000AE
:1033800080B582B000AF7860054A7B681A607B68C0
:10339000184614F0C5FA7B6818460837BD4680BD4C
:1033A000B4CF020880B582B000AF78607868FFF7CC
:1033B000E7FF1821786827F0A8FD7B6818460837D2
:1033C000BD4680BD80B582B000AF7860054A7B689D
:1033D0001A607B681846FFF7D3FA7B6818460837EF
:1033E000BD4680BD14D2020880B582B000AF7860BF
:1033F0007868FFF7E7FF0421786827F086FD7B688F
:1034000018460837BD4680BD80B582B000AF7860F1
:10341000054A7B681A607B681846FFF773FB7B6878
:1034200018460837BD4680BDF803030880B582B052
:1034300000AF78607868FFF7E7FF7821786827F0B9
:1034400064FD7B6818460837BD4680BD80B584B0F2
:1034500002AF786039607B68012B19D13B684FF669
:10346000FF72934214D11848FFF7C4FE1748FEF7C5
:1034700045FF17481EF0BAFD4FF4887301934FF4CF
:10348000F0730093104B124A10491248FFF786FE62
:103490007B68002B13D13B684FF6FF7293420ED12D
:1034A0000C48FEF713FD0C48FFF78CFF0848FFF7A8
:1034B000ABFF0648FEF74CFF0348FEF795FA00BF46
:1034C0000837BD4680BD00BFAC100024B0100024FA
:1034D000D01C00244C1D00240800002480B582B0BC
:1034E00000AF7860054A7B681A607B681846FFF772
:1034F00047FB7B6818460837BD4680BD84D002086C
:1035000080B582B000AF78607868FFF7E7FF1021E0
:10351000786827F0FAFC7B6818460837BD4680BDFE
:1035200080B483B000AF7860012318460C37BD46E5
:103530005DF8047B704780B483B000AF78603823B7
:1035400018460C37BD465DF8047B704780B483B0E5
:1035500000AF78600B467B807A881346DB009B1AAD
:10356000DB0008337A68134418460C37BD465DF813
:10357000047B704780B483B000AF78600B467B80DB
:103580007A881346DB009B1ADB0008337A68134401
:1035900018460C37BD465DF8047B704780B483B095
:1035A00000AF7860012318460C37BD465DF8047BF8
:1035B000704780B483B000AF786040F61833184687
:1035C0000C37BD465DF8047B704780B483B000AF14
:1035D00078600B467B807B8840F6183202FB03F351
:1035E00008337A68134418460C37BD465DF8047BEF
:1035F000704780B483B000AF78600B467B807B88D7
:1036000040F6183202FB03F308337A681344184675
:103610000C37BD465DF8047B704780B483B000AFC3
:103620007860012318460C37BD465DF8047B70476F
:1036300080B483B000AF7860102318460C37BD46C5
:103640005DF8047B704780B483B000AF78600B46B0
:103650007B807B881B0108337A68134418460C373B
:10366000BD465DF8047B704780B483B000AF7860DE
:103670000B467B807B881B0108337A68134418460D
:103680000C37BD465DF8047B704780B582B000AF53
:1036900078607B685B687A68D268521099187B689A
:1036A000DB6803F00103002B02D17B689B680AE012
:1036B0007B685B687A68D268521013441B687A682A
:1036C000926813441B680846984700BF0837BD46F8
:1036D00080BD80B483B000AF78607B685B68002BEE
:1036E00010D07B689B68002B07D17B68DB6803F0F8
:1036F0000103002B01D1012300E00023012B01D0A5
:10370000012300E0002318460C37BD465DF8047B1A
:10371000704780B500AF4FF6FF710120FFF796FEAE
:1037200080BD80B500AF4FF6FF710020FFF78EFE21
:1037300080BD80B582B000AF78607B681B682033A5
:103740001B687868984700BF0837BD4680BD80B4C5
:1037500083B000AF78607B6893F866300133DAB2EB
:103760007B6883F8662000BF0C37BD465DF8047B9C
:103770007047000080B483B000AF0346FB80B7F908
:103780000630002B0BDBFB8803F01F020749B7F95B
:1037900006305B09012000FA02F241F8232000BF45
:1037A0000C37BD465DF8047B704700BF00E100E0C8
:1037B00080B483B000AF0346FB80B7F90630002B1E
:1037C00012DBFB8803F01F020A49B7F906305B09D8
:1037D000012000FA02F2203341F82320BFF34F8F7B
:1037E00000BFBFF36F8F00BF00BF0C37BD465DF851
:1037F000047B704700E100E080B483B000AF034673
:103800003960FB80B7F90630002B0ADB3B68DAB27F
:103810000C49B7F906301201D2B20B4483F80023E9
:103820000AE03B68DAB20849FB8803F00F03043B67
:103830001201D2B20B441A7600BF0C37BD465DF8B8
:10384000047B704700E100E000ED00E0B0B582B01D
:1038500000AF78607B68184615F0E1F87D687B68FA
:103860001B6860331C6818F011FA03461946284695
:10387000A04778687B681B6884331C680023044A6F
:103880004FF05041A04700BF0837BD46B0BD00BF54
:10389000000020D080B582B000AF786009215A20A6
:1038A000FFF7AAFF09215820FFF7A6FF00BF08373E
:1038B000BD4680BD80B582B000AF78605A20FFF76A
:1038C00059FF5820FFF756FF00BF0837BD4680BD9F
:1038D00080B582B000AF78605A20FFF769FF5820AA
:1038E000FFF766FF00BF0837BD4680BD80B483B0D8
:1038F00000AF7860114BDB689BB2C3F30A039BB245
:10390000013B9AB20E4B1A800C4B1B699BB2C3F35E
:103910000A039BB2013B9AB20A4B1A80084B1A88E1
:10392000064B1A64054B5B6B044A43F00103536377
:1039300000BF0C37BD465DF8047B70470010005097
:10394000C81D0024CA1D002480B582B000AF786075
:103950007B68184615F04AF8034618460837BD46F6
:1039600080BD80B582B000AF78607B68184615F0E6
:1039700049F800BF0837BD4680BD000080B483B061
:1039800000AF7860034B9B6A18460C37BD465DF864
:10399000047B70478410005080B483B000AF78601F
:1039A0003960064A3B689362054B01225A6200BFA8
:1039B0000C37BD465DF8047B704700BF8410005093
:1039C0000010005080B586B000AF786039607B6829
:1039D0003968184614F0D3FF244B5B6903F4803335
:1039E000002B14BF01230023DBB2002B3AD01F4B66
:1039F0000022C3F88420BFF34F8F00BF1B4BD3F8C6
:103A000080307B617B695B0BC3F30E033B617B6999
:103A1000DB08C3F30903FB603B695A0143F6E0731B
:103A20001340FA68920711491343C1F87432FB68D6
:103A30005A1EFA60002B14BF01230023DBB2002BB7
:103A4000EAD13B695A1E3A61002B14BF01230023BF
:103A5000DBB2002BDBD1BFF34F8F00BFBFF36F8F03
:103A600000BF00BF00BF1837BD4680BD00ED00E0BD
:103A700080B584B000AFF860B9607A603B60F868E8
:103A80003B687A68B96815F0E6F8034618461037BF
:103A9000BD4680BD80B487B000AF7860254B5B69C0
:103AA00003F48033002B14BF01230023DBB2002B6F
:103AB0003AD0204B0022C3F88420BFF34F8F00BFC1
:103AC0001C4BD3F880307B617B695B0BC3F30E0327
:103AD0003B617B69DB08C3F30903FB603B695A0167
:103AE00043F6E0731340FA68920712491343C1F892
:103AF0007432FB685A1EFA60002B14BF01230023A6
:103B0000DBB2002BEAD13B695A1E3A61002B14BF8D
:103B100001230023DBB2002BDBD1BFF34F8F00BFAB
:103B2000BFF36F8F00BF00BF00BF1C37BD465DF8FD
:103B3000047B704700ED00E080B487B000AF786090
:103B4000254B5B6903F48033002B14BF0123002352
:103B5000DBB2002B3AD0204B0022C3F88420BFF305
:103B60004F8F00BF1C4BD3F880307B617B695B0BB0
:103B7000C3F30E033B617B69DB08C3F30903FB60FE
:103B80003B695A0143F6E0731340FA689207124901
:103B90001343C1F87432FB685A1EFA60002B14BF3D
:103BA00001230023DBB2002BEAD13B695A1E3A61A4
:103BB000002B14BF01230023DBB2002BDBD1BFF3AA
:103BC0004F8F00BFBFF36F8F00BF00BF00BF1C3718
:103BD000BD465DF8047B704700ED00E080B582B023
:103BE00000AF78601A4B1B6C1A4A128893420CBFC4
:103BF00001230023DBB2002B17D0174B1B8819467B
:103C000078680FF0B5F8FEF73FFB03461846FFF75C
:103C10009EFDFEF733FAFEF737FB0346184615F014
:103C2000F3FC0020FDF702FF0EE00A4B1B8819464B
:103C300078680FF09DF80020FDF714FFFEF724FBD5
:103C400003461846FFF775FD00BF0837BD4680BD27
:103C500000100050C81D0024CA1D002480B582B089
:103C600000AF78600B467B807B88052B2CD801A2A7
:103C700052F823F08D3C0008973C0008A13C000856
:103C8000AB3C0008B53C0008BF3C000806F046FA13
:103C900003461B6819E006F041FA03465B6814E02E
:103CA00006F03CFA03469B680FE006F037FA03463D
:103CB000DB680AE006F032FA03461B6805E006F00E
:103CC0002DFA03461B6900E0002318460837BD465D
:103CD00080BD00BF80B400AF024B1846BD465DF802
:103CE000047B704720D2020880B400AF0E23184630
:103CF000BD465DF8047B704780B483B000AF786048
:103D0000044A7B681A607B6818460C37BD465DF82C
:103D1000047B7047C4D6020880B582B000AF7860DB
:103D20007868FFF7E9FF1021786827F0EEF87B68E4
:103D300018460837BD4680BD90B587B000AF7860A3
:103D40000B467B807B88002B01D1002310E00023F1
:103D50003B610023FB737B681B6808331C6807F119
:103D60000F0307F1100279887868A04778617B69B2
:103D700018461C37BD4690BD80B483B000AF786054
:103D80007B685B8918460C37BD465DF8047B70473D
:103D900080B483B000AF78607B689B8918460C378D
:103DA000BD465DF8047B704780B483B000AF786097
:103DB0007B689B8818460C37BD465DF8047B7047CE
:103DC00080B483B000AF78607B689B887A68927912
:103DD00013449BB218460C37BD465DF8047B704710
:103DE00080B483B000AF78607B68DB79C3F30603EF
:103DF000DBB218460C37BD465DF8047B704780B4D3
:103E000083B000AF78607B68DB79C3F3C013DBB2AB
:103E100018460C37BD465DF8047B704780B582B00C
:103E200000AF7860054A7B681A607B681846FFF728
:103E300063FF7B6818460837BD4680BD2CF5020835
:103E400080B582B000AF78607868FFF7E7FF18218F
:103E5000786827F05AF87B6818460837BD4680BD59
:103E600080B582B000AF7860054A7B681A607B68D5
:103E70001846FFF7D3FF7B6818460837BD4680BD5C
:103E80000CD5020880B582B000AF78607868FFF783
:103E9000E7FF2821786827F038F87B68184608374C
:103EA000BD4680BD80B483B000AF7860044A7B68B3
:103EB0001A607B6818460C37BD465DF8047B704776
:103EC00040D3020880B582B000AF78607868FFF711
:103ED000E9FF0821786827F018F87B68184608374A
:103EE000BD4680BD80B483B000AF786039603B6868
:103EF00018460C37BD465DF8047B704780B485B02A
:103F000000AFF860084611461A4603467B810B460F
:103F10003B811346FB80FB687A891A80FB683A89EB
:103F20005A80FB68FA889A80FB683A8BDA80FB68D3
:103F300018461437BD465DF8047B704780B582B0E3
:103F400000AF7860144A7B681A607B6804331846B7
:103F5000FEF7EEFC7B680C331846FEF7E9FC7B6845
:103F600000225A617B6800229A617B680022DA6134
:103F70007B6800221A847B6800225A847B680022B6
:103F800083F824207B68012283F825207B6818466B
:103F90000837BD4680BD00BFC8F4020880B483B0B6
:103FA00000AF7860044A7B681A607B6818460C375B
:103FB000BD465DF8047B7047C8F4020880B582B046
:103FC00000AF78607868FFF7E9FF2821786826F06D
:103FD0009CFF7B6818460837BD4680BD80B483B01F
:103FE00000AF7860002318460C37BD465DF8047BAF
:103FF000704780B483B000AF78607B6804331846A4
:104000000C37BD465DF8047B704780B584B000AFC7
:10401000F860084611461A4603467B810B463B81F1
:104020001346FB80B7F90820B7F90A301946F8683B
:1040300000F044F8B7F91820B7F906301946F868C7
:1040400000F098F800BF1037BD4680BD80B483B043
:1040500000AF78607B68B3F9063018460C37BD4670
:104060005DF8047B704780B483B000AF78607B68F4
:10407000B3F90A3018460C37BD465DF8047B70472B
:1040800080B483B000AF78600B467B807B687A8811
:104090009A8000BF0C37BD465DF8047B704780B442
:1040A00083B000AF78600B467B807B687A88DA80CB
:1040B00000BF0C37BD465DF8047B704780B582B009
:1040C00000AF78600B467B8013463B807B681B68A3
:1040D0002C331B68B7F902201146786898477B6833
:1040E0001B6830331B68B7F9002011467868984781
:1040F00000BF0837BD4680BD80B483B000AF786094
:104100000B467B807B687A881A8100BF0C37BD46DE
:104110005DF8047B704780B483B000AF78600B46D5
:104120007B807B687A885A8100BF0C37BD465DF87A
:10413000047B704780B483B000AF786000BF0C3759
:10414000BD465DF8047B704780B483B000AF7860F3
:10415000396000BF0C37BD465DF8047B704780B402
:1041600083B000AF7860396000BF0C37BD465DF8A2
:10417000047B704780B582B000AF78600B467B80CF
:1041800013463B807B681B6834331B68B7F90220F9
:104190001146786898477B681B6838331B68B7F905
:1041A000002011467868984700BF0837BD4680BD9B
:1041B00080B483B000AF7860396000BF0C37BD4673
:1041C0005DF8047B704780B483B000AF786000BFB7
:1041D0000C37BD465DF8047B704780B483B000AFF8
:1041E00078607B6893F8253018460C37BD465DF83B
:1041F000047B704780B483B000AF78607B6893F82D
:10420000243018460C37BD465DF8047B704780B5F6
:1042100082B000AF78600B467B8013463B807B68A2
:104220001B6850331B6879887A68B2F9042092B20F
:104230008A1A92B210B239887A68B2F9062092B21C
:104240008A1A92B212B201467868984700BF0837BE
:10425000BD4680BD80B483B000AF78607B684FF608
:10426000FF729A817B684FF6FF721A847B684FF663
:10427000FF725A8400BF0C37BD465DF8047B70475F
:1042800080B584B000AFF860B9607A60F868FFF775
:10429000E1FF7B681A68FB68DA617B68FA681A607C
:1042A00000BF1037BD4680BD80B400AF0B4B1B680C
:1042B00093F87630002B08D0084B1B68DB6C002B82
:1042C00003D0064B1B68DB6C02E0044B1B689B6849
:1042D0001846BD465DF8047B704700BFCCB800248B
:1042E00080B483B000AF7860074A7B681A607B684F
:1042F00000225A607B6800221A727B6818460C37CD
:10430000BD465DF8047B7047E8D4020880B483B0F2
:1043100000AF7860044A7B681A607B6818460C37E7
:10432000BD465DF8047B7047E8D4020880B582B0D2
:1043300000AF78607868FFF7E9FF0C21786826F015
:10434000E4FD7B6818460837BD4680BD80B483B065
:1043500000AF786000BF0C37BD465DF8047B704746
:1043600080B483B000AF786000BF0C37BD465DF805
:10437000047B704780B483B000AF786000BF0C3717
:10438000BD465DF8047B704780B582B000AF7860B1
:1043900017F07CFC03461A683032126818469047C2
:1043A00000BF0837BD4680BD80B483B000AF7860E1
:1043B00039607B683A685A6000BF0C37BD465DF8CB
:1043C000047B704780B582B000AF78607B68184688
:1043D00017F0C6FC094A7B681A607B680022C3F8A4
:1043E00038217B680022C3F83C217B68044A1360B3
:1043F0007B6818460837BD4680BD00BF9CD00208C8
:1044000018B9002480B483B000AF786039607B684D
:104410003A681A6000BF0C37BD465DF8047B7047F0
:1044200080B483B000AF78607B6801221A7200BF4D
:104430000C37BD465DF8047B704780B584B000AF93
:10444000F8607B600B467B8113463B81FB68184616
:10445000FFF7C3FE0346002B08D0FB681846FFF7A2
:10446000C9FE0346002B01D0012300E00023002BEE
:1044700002D0FA687B681A6000BF1037BD4680BD65
:1044800080B483B000AF786039607B683A685A6066
:1044900000BF0C37BD465DF8047B704780B582B025
:1044A00000AF78607B681846FFF748FD034A7B68D9
:1044B0001A607B6818460837BD4680BD60D4020884
:1044C00080B582B000AF7860054A7B681A607B686F
:1044D0001846FFF763FD7B6818460837BD4680BD68
:1044E00060D4020880B582B000AF78607868FFF7CA
:1044F000E7FF2821786826F008FD7B681846083712
:10450000BD4680BD80B584B000AFF860B9607A6008
:10451000FB681846FFF756FF134AFB681A60FB68F2
:1045200003F5A073184600F02BF9FB687A68C3F80E
:104530005021FB68BA68C3F85421FDF7A5FE034675
:104540001A6808321268002118469047002005F0CA
:104550006DFDFFF7A9FE034618461FF092FBFB68AE
:1045600018461037BD4680BD40D0020880B483B0E5
:1045700000AF786039607B6818460C37BD465DF83F
:10458000047B704780B582B000AF786039607B688B
:104590003A6811461846FFF7E9FF3B685A687B689E
:1045A0005A607B683A680833083292E8030083E86F
:1045B00003007B6818460837BD4680BD90B589B0BA
:1045C00000AF78607B6803F5A074104BBB610023DB
:1045D000FB6107F1080007F118030CCB796800F0C4
:1045E000EBF807F1080319462046FFF7CBFF07F168
:1045F00008031846FEF772FF7B6803F5A0727B681C
:10460000C3F83C2100BF2437BD4690BD11460008C9
:1046100080B584B002AF78607B6803F59C717B68DD
:10462000D3F850311A467B68D3F854310093044BC9
:10463000044800F0F3F800BF0837BD4680BD00BF56
:104640000CB9002408B9002490B589B000AF786097
:104650007B6803F5A074104BBB610023FB6107F17D
:10466000080007F118030CCB796800F0A5F807F1F2
:10467000080319462046FFF785FF07F1080318468F
:10468000FEF72CFF7B6803F5A0727B68C3F83C2122
:1046900000BF2437BD4690BD9D46000880B584B05C
:1046A00002AF78607B6803F59C717B68D3F850316A
:1046B0001A467B68D3F854310093044B044800F049
:1046C000C7F900BF0837BD4680BD00BF0CB9002444
:1046D00008B9002490B589B000AF78607B6803F515
:1046E000A074104BBB610023FB6107F1080007F1C8
:1046F00018030CCB796800F05FF807F1080319463E
:104700002046FFF73FFF07F108031846FEF7E6FED5
:104710007B6803F5A0727B68C3F83C2100BF243797
:10472000BD4690BD2947000880B584B002AF7860CF
:104730007B6803F59C717B68D3F850311A467B681F
:10474000D3F854310093044B044800F09DFA00BFA5
:104750000837BD4680BD00BF0CB9002408B900244D
:1047600080B483B000AF7860044A7B681A607B68CD
:1047700018460C37BD465DF8047B7047E0D0020850
:1047800080B582B000AF78607B681846FFF7E8FF1D
:10479000084A7B681A607B6800225A607B680022A6
:1047A0009A607B680022DA607B6818460837BD464D
:1047B00080BD00BF84D0020880B584B000AFF8602F
:1047C000B960394681E80C00FB681846FFF7C8FF5E
:1047D000084AFB681A60FB68BA685A60FB680833CD
:1047E0003A4692E8030083E80300FB681846103756
:1047F000BD4680BD84D0020880B582B000AF78602D
:104800007B681846FFF76CFD034A7B681A607B687B
:1048100018460837BD4680BDC4D4020890B58FB095
:1048200000AFF860B9607A603B607B689A687B682B
:104830009B681B6820331B6810469847034640F668
:104840001732934205D87D4B7D4AA3217D4826F03F
:104850008BFB7B685A687B685B681B6820331B682E
:104860001046984703460F2B05D8774B744AA4216E
:10487000744826F079FB7B68DA687B68DB681B6824
:1048800020331B681046984703460B2B05D86F4B07
:104890006B4AA5216B4826F067FBFB68BB62BB68CF
:1048A0007B623B683B6217F0F1F90346184617F04C
:1048B0003BFA3B6A1B68002B08D03B6A1A683B6ACC
:1048C0001B681B680C331B68104698473B6A1B68C3
:1048D000002B07D03B6A1A683B6A1B681B681B6881
:1048E00010469847BB6A1B68002B08D0BB6A1A6841
:1048F000BB6A1B681B6814331B68104698477B6AA9
:104900001B68002B08D07B6A1A687B6A1B681B68CF
:1049100004331B6810469847BB6A1B68002B07D0FE
:10492000BB6A1A68BB6A1B681B681B6810469847FD
:104930007B6A1B68002B08D07B6A1A687B6A1B683D
:104940001B6808331B681046984700BF7B68DB680C
:104950000021184600F0B2FA034619460C20FFF772
:10496000C1FA04462046FFF747FF7C637B689B68DB
:104970000021184600F0B5FA0346194640F61830F3
:10498000FFF7B0FA0446204605F00CFE3C637B6856
:104990005B680021184600F0B7FA0346194610205C
:1049A000FFF7A0FA0446396B204605F06DFDFC6266
:1049B0003B687A6B1A60BB68FA6A1A60FB683A6BEC
:1049C0001A60FB6A002B02D0FB6A043300E000236C
:1049D0001946B86CFFF716FDFB6A0433B96C18462C
:1049E000FFF74EFD3B6BF96A184600F0A0FA3B6BEF
:1049F000FB61FB6ABB617B6B7B61FB691B680C33F2
:104A00001B68F8699847BB691B681B68B8699847B9
:104A10007969F86918F0CEFD7B691B6810331B6853
:104A2000786998477B691B6814331B6878699847D5
:104A300000BFFB6A18463C37BD4690BDF0C4020873
:104A400080C502084CC6020894C6020838C702088E
:104A500090B58FB000AFF860B9607A603B607B685A
:104A60009A687B689B681B6820331B6810469847D0
:104A7000034640F61732934205D87E4B7E4AA32167
:104A80007E4826F071FA7B685A687B685B681B6811
:104A900020331B681046984703460F2B05D8784BE8
:104AA000754AA421754826F05FFA7B68DA687B684E
:104AB000DB681B6820331B68104698470346372B7A
:104AC00005D8704B6C4AA5216C4826F04DFAFB685E
:104AD000BB62BB687B623B683B6217F0D7F803465A
:104AE000184617F021F93B6A1B68002B08D03B6A77
:104AF0001A683B6A1B681B680C331B681046984792
:104B00003B6A1B68002B07D03B6A1A683B6A1B682C
:104B10001B681B6810469847BB6A1B68002B08D0AF
:104B2000BB6A1A68BB6A1B681B6814331B68104693
:104B300098477B6A1B68002B08D07B6A1A687B6ADF
:104B40001B681B6804331B6810469847BB6A1B68C8
:104B5000002B07D0BB6A1A68BB6A1B681B681B68FE
:104B6000104698477B6A1B68002B08D07B6A1A683E
:104B70007B6A1B681B6808331B681046984700BF98
:104B80007B68DB680021184600F0DFF90346194610
:104B90003820FFF7A7F904461421204600F01CFA3C
:104BA0007C637B689B680021184600F09AF90346F5
:104BB000194640F61830FFF795F90446204605F0EF
:104BC000F1FC3C637B685B680021184600F09CF9AF
:104BD000034619461020FFF785F90446396B204635
:104BE00005F052FCFC623B687A6B1A60BB68FA6A9B
:104BF0001A60FB683A6B1A60FB6A002B02D0FB6AF2
:104C0000043300E000231946B86CFFF7FBFBFB6A96
:104C10000433B96C1846FFF733FC3B6BF96A18464E
:104C200000F085F93B6BFB61FB6ABB617B6B7B61D1
:104C3000FB691B680C331B68F8699847BB691B68E4
:104C40001B68B86998477969F86918F0B3FC7B6903
:104C50001B6810331B68786998477B691B6814339D
:104C60001B687869984700BFFB6A18463C37BD4609
:104C700090BD00BFF0C40208DCC702084CC60208A1
:104C800094C6020838C7020890B58FB000AFF8602C
:104C9000B9607A603B607B689A687B689B681B6838
:104CA00020331B68104698470346B3F5707F05D242
:104CB0007D4B7E4AA3217E4826F056F97B685A68D0
:104CC0007B685B681B6820331B6810469847034667
:104CD0000F2B05D8774B754AA421754826F044F967
:104CE0007B68DA687B68DB681B6820331B681046CA
:104CF00098470346372B05D86F4B6C4AA5216C4863
:104D000026F032F9FB68BB62BB687B623B683B62A2
:104D100016F0BCFF0346184617F006F83B6A1B68FE
:104D2000002B08D03B6A1A683B6A1B681B680C336F
:104D30001B68104698473B6A1B68002B07D03B6AEC
:104D40001A683B6A1B681B681B6810469847BB6A59
:104D50001B68002B08D0BB6A1A68BB6A1B681B68FB
:104D600014331B68104698477B6A1B68002B08D0D9
:104D70007B6A1A687B6A1B681B6804331B681046D1
:104D80009847BB6A1B68002B07D0BB6A1A68BB6ACE
:104D90001B681B681B68104698477B6A1B68002BC2
:104DA00008D07B6A1A687B6A1B681B6808331B681B
:104DB0001046984700BF7B68DB680021184600F06A
:104DC0004DF9034619463820FFF78CF804461421A4
:104DD000204600F08BF97C637B689B6800211846B5
:104DE00000F0C6F9034619464FF47070FFF77AF8E1
:104DF0000446204605F0EAFA3C637B685B680021C4
:104E0000184600F0C8F9034619461020FFF76AF863
:104E10000446396B204605F081FAFC623B687A6BE8
:104E20001A60BB68FA6A1A60FB683A6B1A60FB6A20
:104E3000002B02D0FB6A043300E000231946B86C53
:104E4000FFF7E0FAFB6A0433B96C1846FFF718FB6A
:104E50003B6BF96A184600F0B1F93B6BFB61FB6AEA
:104E6000BB617B6B7B61FB691B680C331B68F8695A
:104E70009847BB691B681B68B86998477969F869E6
:104E800018F098FB7B691B6810331B68786998479A
:104E90007B691B6814331B687869984700BFFB6AFD
:104EA00018463C37BD4690BDF0C40208BCC8020895
:104EB0004CC6020894C6020838C7020880B582B002
:104EC00000AF78600B467B807B681B6824331B68CF
:104ED0007A88114678689847034618460837BD46D1
:104EE00080BD80B582B000AF78600B467B807B6868
:104EF0001B6824331B687A881146786898470346F4
:104F000018460837BD4680BD80B582B000AF7860D6
:104F10000B467B807B681B6824331B687A881146AC
:104F200078689847034618460837BD4680BD80B468
:104F300083B000AF786039607B683A68DA6300BF9D
:104F40000C37BD465DF8047B704780B582B000AF7A
:104F500078600B467B807B681B6824331B687A88EB
:104F6000114678689847034618460837BD4680BD05
:104F700080B582B000AF78607B681846FFF78EFA84
:104F8000034A7B681A607B6818460837BD4680BDB7
:104F900074D3020880B582B000AF7860054A7B68A0
:104FA0001A607B681846FFF78BFA7B68184608374B
:104FB000BD4680BD74D3020880B582B000AF786072
:104FC0007868FFF7E7FF2821786825F09EFF7B6867
:104FD00018460837BD4680BD80B584B002AF786002
:104FE0000B46FB707B681846FFF77AF9184A7B6816
:104FF0001A607B68FA785A727B6800229A727B6822
:105000000022DA817B68103328220021184626F01E
:10501000B2F97B6810331846FFF7AAFF0D4B1B88C7
:105020001AB27B689A8100BF7B6803F110000A4BBB
:105030001B881AB2074B1B881BB200931346002231
:105040000021FEF7E2FF7B6818460837BD4680BDA9
:1050500050D30208C2B80024C0B8002480B582B082
:1050600000AF78600B467B807B681B6824331B682D
:105070007A88114678689847034618460837BD462F
:1050800080BD000080B582B000AF78607B681846B4
:10509000FFF704FA034A7B681A607B6818460837F2
:1050A000BD4680BDFCD3020880B582B000AF7860F9
:1050B000054A7B681A607B681846FFF701FA7B682F
:1050C00018460837BD4680BDFCD3020880B582B0C3
:1050D00000AF78607868FFF7E7FF2821786825F04F
:1050E00014FF7B6818460837BD4680BD80B584B084
:1050F00002AF78600B46FB707B681846FFF7F0F84C
:10510000184A7B681A607B68FA785A727B680022BA
:105110009A727B680022DA817B6810332822002192
:10512000184626F028F97B6810331846FFF7AAFFC7
:105130000D4B1B881AB27B689A8100BF7B6803F114
:1051400010000A4B1B881AB2074B1B881BB2009336
:10515000134600220021FEF758FF7B6818460837E7
:10516000BD4680BDD8D30208C2B80024C0B8002410
:1051700080B582B000AF78600B467B807B681B688F
:1051800024331B687A881146786898470346184686
:105190000837BD4680BD80B582B000AF78600B4651
:1051A0007B807B681B6824331B687A88114678688B
:1051B0009847034618460837BD4680BD80B483B083
:1051C00000AF786039607B683A68DA6300BF0C37FB
:1051D000BD465DF8047B704780B582B000AF786053
:1051E000084A7B681A607B6810331846FFF7D2FEC6
:1051F0007B681846FFF78AF87B6818460837BD4673
:1052000080BD00BF50D3020880B582B000AF786087
:105210007868FFF7E1FF3821786825F076FE7B6833
:1052200018460837BD4680BD80B582B000AF7860B3
:10523000084A7B681A607B6810331846FFF734FF12
:105240007B681846FFF762F87B6818460837BD464A
:1052500080BD00BFD8D3020880B582B000AF7860AF
:105260007868FFF7E1FF3821786825F04EFE7B680B
:1052700018460837BD4680BD80B582B000AF786063
:10528000054A7B681A607B681846FFF73FF87B6821
:1052900018460837BD4680BDC4D4020880B582B028
:1052A00000AF78607868FFF7E7FF0C21786825F099
:1052B0002CFE7B6818460837BD4680BD90B593B07C
:1052C00002AF78607B681846FFF740F87B689B7AEE
:1052D0000133DAB27B689A727B689A7A7B685B7A70
:1052E0009A422AD87B689B7A18467B68B3F90C20CF
:1052F0007B685B7A002118F063F903461A467B68E5
:10530000DA817B68B3F90E309BB203F001039BB2E4
:10531000002B19D07B68B3F90E309BB27A68B2F9D2
:105320000E20002A01DD012201E04FF6FF72134436
:105330009BB21AB27B68DA8106E07B6801221A729E
:105340007B6800229A727EE07B6810331846FEF775
:105350008AFE03467B877B6803F110003B4B1A886B
:105360007B68B3F90E309BB2D31A9BB21BB21946BD
:10537000FEF7D1FE7B6810331846FEF774FE034635
:105380009BB27A8FD31A3B877B6810331846FEF79F
:105390006AFE034619462E4B1B881AB2B7F93830FD
:1053A00007F11800009313460A460021FEF7A6FDF8
:1053B0007B685B6818467B685B681B6810331B68FA
:1053C00007F118021146984700BF7B689B7A012BB2
:1053D00039D1204B1B78002B35D07B681033184611
:1053E000FEF707FE024607F110031068516803C379
:1053F000FCF74AFF03461A68303212681846904795
:10540000F86307F108031846FDF792FA00233B8181
:1054100000237B810E4B1B881BB2BB810B4B1B886F
:105420001BB2FB81FCF730FFFEF73EFF03680C3335
:105430001C6807F1100307F1080200210191FF2108
:105440000091F96BA0474437BD4690BDC2B8002417
:10545000C0B80024CAB8002480B582B000AF78601C
:105460007B6858687B685B681B6860331B687A6878
:1054700010321146984700BF0837BD4680BD80B541
:1054800082B000AF78607B681846FEF773FF7B68D8
:1054900058687B685B681B685C331B687A681032ED
:1054A0001146984700BF0837BD4680BD80B483B021
:1054B00000AF786000BF0C37BD465DF8047B7047D5
:1054C00080B483B000AF7860396000BF0C37BD4650
:1054D0005DF8047B704780B584B002AF78603960B6
:1054E0003B68B3F908203B68B3F90A3000931346D0
:1054F000002200217868FEF701FD78680837BD4674
:1055000080BD000090B593B002AF78607B6818460C
:10551000FEF71CFF7B689B7A0133DAB27B689A72D4
:105520007B689A7A7B685B7A9A422AD87B689B7AF6
:1055300018467B68B3F90C207B685B7A002118F071
:105540003FF803461A467B68DA817B68B3F90E3070
:105550009BB203F001039BB2002B19D07B68B3F917
:105560000E309BB27A68B2F90E20002A01DD0122CA
:1055700001E04FF6FF7213449BB21AB27B68DA81E6
:1055800006E07B6801221A727B6800229A727FE033
:105590007B6810331846FEF759FD03467B877B680E
:1055A00003F110003C4B1A887B68B3F90E309BB2B4
:1055B000D31A9BB21BB21946FEF7ADFD7B6803F10F
:1055C00010027B68B3F90E3019461046FEF767FDEE
:1055D0007B68B3F90E309AB27B8FD31A3B87B7F949
:1055E0003A202E4B1B8819B2B7F9383007F120004A
:1055F00000930B460021FEF781FC7B685B68184630
:105600007B685B681B6810331B6807F1200211463A
:10561000984700BF7B689B7A012B39D1204B1B78C0
:10562000002B35D07B6810331846FEF7E2FC0246AB
:1056300007F110031068516803C3FCF725FE034609
:105640001A683032126818469047F86307F1080369
:105650001846FDF76DF900233B8100237B810F4B3A
:105660001B881BB2BB810C4B1B881BB2FB81FCF758
:105670000BFEFEF719FE03680C331C6807F11003DC
:1056800007F1080200210191FF210091F96BA04769
:105690004437BD4690BD00BFC2B80024C0B8002446
:1056A000CAB8002480B582B000AF78607B685868C3
:1056B0007B685B681B6860331B687A681032114630
:1056C000984700BF0837BD4680BD80B582B000AFA7
:1056D00078607B681846FEF74DFE7B6858687B68EB
:1056E0005B681B685C331B687A6810321146984708
:1056F00000BF0837BD4680BD80B483B000AF78607E
:1057000000BF0C37BD465DF8047B704780B483B0A2
:1057100000AF7860396000BF0C37BD465DF8047B90
:10572000704780B584B002AF786039603B68B3F9E8
:1057300008203B68B3F90A30009313460022002189
:105740007868FEF7DBFB78680837BD4680BD80B41B
:1057500083B000AF78607B681B6A18460C37BD4683
:105760005DF8047B704780B483B000AF78607B68DD
:105770005B6A18460C37BD465DF8047B7047000035
:1057800080B58CB008AFF860B96011461A460B4678
:10579000FB801346BB80F868B988FA883B8F069374
:1057A000BB8E059397F82830049397F82430039321
:1057B00097F8203002933B7F01933B7E00930B468A
:1057C000B96817F0D7FA0A4AFB681A60FB68FA6AE8
:1057D0009A61FB683A6BDA61FB68FA6B1A62FB68E4
:1057E0003A6C5A62FB6818461037BD4680BD00BF50
:1057F0000CD5020880B485B000AF786039607B6852
:105800009B69FB603B689B88DB0A9BB29B00FA6844
:1058100013441A683B681B68134418461437BD4686
:105820005DF8047B704780B489B000AFF8600B4628
:105830007A607B817B68002B03D07B681B7B002B0D
:1058400001D1002331E0FB68DA697B687B617B6909
:105850005B7B1B021BB203F4E06319B27B69DB7A4A
:105860001BB20B431BB29BB29B001344FB617B68D2
:105870001B7B7B8313E0FB691B887A899A4203D1E7
:10588000FB6993F9023010E0FB691B887A899A4220
:1058900009D37B8B013B7B83FB690433FB617B8BEF
:1058A000002BE8D100E000BF002318462437BD4696
:1058B0005DF8047B704780B483B000AF78603960D6
:1058C0007B683A681A607B6818460C37BD465DF8FD
:1058D000047B704780B483B000AF78600B467B8058
:1058E0007B687A881A807B6818460C37BD465DF85D
:1058F000047B704780B483B000AF78600B46FB70C8
:105900007B68FA7883F8242000BF0C37BD465DF829
:10591000047B704780B582B000AF78607B68184622
:10592000FEF70CFB054A7B681A607B6800229A62CE
:105930007B6818460837BD4680BD00BF00DE020800
:1059400080B582B000AF7860064A7B681A607B68D9
:105950000433184601F012F87B6818460837BD4634
:1059600080BD00BFC0F5020880B582B000AF78608E
:105970007868FFF7E5FF3C21786825F0C6FA7B6878
:1059800018460837BD4680BD80B483B000AF78604C
:1059900000BF0C37BD465DF8047B704780B483B010
:1059A00000AF786000BF0C37BD465DF8047B7047E0
:1059B00080B483B000AF786000BF0C37BD465DF89F
:1059C000047B704780B483B000AF786000BF0C37B1
:1059D000BD465DF8047B704780B483B000AF78604B
:1059E0000B46FB7000BF0C37BD465DF8047B70476B
:1059F00080B582B000AF786039607B680433396865
:105A0000184612F08FFA00BF0837BD4680BD00006F
:105A100080B582B000AF78607B68184626231A46AE
:105A2000002125F0A8FC7B681846FEF737FD094ADF
:105A30007B681A607B68FF2283F826207B68283306
:105A400000211846FFF737FF7B6818460837BD4628
:105A500080BD00BF74EE020880B483B000AF7860F0
:105A600039607B683A689A6200BF0C37BD465DF8C2
:105A7000047B704780B582B000AF786039607B6886
:105A8000184626231A46002125F075FC7B68184627
:105A9000FEF704FD094A7B681A607B683A68128841
:105AA000DA847B68FF2283F828203968786814F04C
:105AB000DEFB7B6818460837BD4680BDECF0020867
:105AC00080B582B000AF7860054A7B681A607B6859
:105AD0001846FEF7F5FC7B6818460837BD4680BDC2
