:020000040800F2
:1000000000000824A1180008991600089F1600088F
:10001000A5160008AB160008B11600080000000085
:1000200000000000000000000000000081BA00088D
:10003000B716000800000000D1BC00084DAD000854
:10004000F1180008F1180008F1180008F11800086C
:10005000F1180008F1180008F1180008F11800085C
:10006000F1180008F1180008F1180008F11800084C
:10007000F1180008F1180008F1180008F11800083C
:10008000F1180008F1180008F1180008F11800082C
:10009000F1180008F1180008F1180008F11800081C
:1000A000F1180008F1180008F1180008F11800080C
:1000B000F1180008F1180008F1180008F1180008FC
:1000C000F1180008F1180008F1180008F1180008EC
:1000D000F1180008F1180008F1180008F1180008DC
:1000E000F1180008F118000800000000F1180008DD
:1000F000F1180008F1180008F1180008F1180008BC
:10010000F1180008F1180008F1180008F1180008AB
:10011000F1180008F1180008C5160008F1180008C9
:10012000F1180008F1180008F1180008F11800088B
:10013000F1180008F1180008F1180008F11800087B
:10014000F1180008F118000800000000000000008D
:10015000F1180008F1180008F1180008F11800085B
:10016000F1180008F1180008F1180008F11800084B
:10017000F1180008F1180008F1180008000000004C
:10018000F1180008F1180008F1180008F11800082B
:10019000F1180008F1180008F1180008F11800081B
:1001A000D9160008F1180008ED160008F11800082B
:1001B00001170008F1180008F1180008F1180008EC
:1001C000F1180008F1180008F1180008F1180008EB
:1001D000F1180008F1180008F1180008F1180008DB
:1001E000F1180008F1180008F1180008F1180008CB
:1001F000F1180008F1180008F1180008F1180008BB
:10020000F1180008F1180008F1180008F1180008AA
:10021000F1180008F1180008F1180008F11800089A
:10022000F1180008F1180008F1180008000000009B
:10023000F1180008F1180008F1180008F11800087A
:10024000F1180008F1180008F1180008F11800086A
:10025000F1180008F1180008F1180008F11800085A
:10026000F1180008F1180008F1180008F11800084A
:10027000F1180008F1180008F1180008F11800083A
:10028000F1180008F1180008F1180008000000003B
:08029000F1180008F118000844
:1002A00010B5054C237833B9044B13B10448AFF3B0
:1002B00000800123237010BD2C01002400000000E9
:1002C00044C0020808B5034B1BB103490348AFF310
:1002D000008008BD000000003001002444C0020876
:1002E00001F0FF01102A2BDB10F0070F08D010F8E7
:1002F000013B013A8B422DD010F0070F42B3F6D1EB
:10030000F0B441EA012141EA014122F007047FF003
:1003100000070023F0E80256083C85EA010586EA5A
:10032000010685FA47F5A3FA87F586FA47F6A5FA96
:1003300087F68EB9EED1F0BC01F0FF0102F00702A2
:1003400032B110F8013B013A83EA010313B1F8D14D
:100350000020704701387047002D06BF354603382E
:10036000073815F0010F07D1013015F4807F02BF67
:10037000013015F4C03F0130F0BC0138704700BFB8
:1003800080B483B000AF87ED010A044A7B68136034
:1003900000BF0C37BD465DF8047B7047000000309D
:1003A00080B483B000AF0346FB71044AFB7913713C
:1003B00000BF0C37BD465DF8047B7047000000307D
:1003C00080B400AF034B5B79DBB21846BD465DF8E5
:1003D000047B70470000003080B400AF034B9B7972
:1003E000DBB21846BD465DF8047B70470000003064
:1003F00080B483B000AF0346FB71044AFB7993716C
:1004000000BF0C37BD465DF8047B7047000000302C
:1004100080B584B000AF00F01BFC4FF6FF73FB60AB
:1004200000BF464B1B6803F40043002B04D0FB685D
:100430005A1EFA60002BF4DCFB68002B01DA00F096
:1004400051FC10F0B7FC00F08BF800F013F93B4BB7
:10045000D3F8E030394A43F00073C2F8E030374B4C
:10046000D3F8E03003F00073BB60BB68002011F0EC
:100470000BFC0021002011F021FC4FF6FF73FB6004
:1004800000BF2E4B1B6803F40043002B04D1FB6814
:100490005A1EFA60002BF4DCFB68002B01DA00F036
:1004A00021FC264BD3F8D830244A43F00103C2F88C
:1004B000D830224BD3F8D83003F001037B607B683F
:1004C00000F0A2FA00F0CAF900F048FA00F042F990
:1004D00000F000F900F020F900F0EEF901F009FA5F
:1004E000174B9A681649174B13408B60144B9B6847
:1004F000134A43F003039360114B9A69104940F289
:10050000011313438B610E4B1B680D4A43F001032B
:1005100013600AF035FC0C4A00210C480AF07AFC02
:1005200003460B4A13600B4A00210B480AF072FC89
:1005300003460A4A13600AF047FCFEE700440258EB
:1005400000080040F8FFFEFFD0CD0208410C000873
:1005500048030024F4CD0208FF1800084C030024CF
:1005600080B59CB000AF07F124034C22002118464F
:100570002AF0EDFE3B1D2022002118462AF0E7FE5E
:10058000042012F017FF00233B60374BDB6A364A2A
:1005900023F00103D362344BDB6A03F001033B60B9
:1005A000324B9B69314A43F4404393612F4B9B6923
:1005B00003F440433B603B6800BF2C4B9B6903F452
:1005C0000053B3F5005FF8D1294B9B6A23F0030376
:1005D000274A43F00203936201237B624FF4803386
:1005E000BB620223BB640223FB6405233B659023AB
:1005F0007B650223BB650423FB6504233B6608235C
:100600007B660023BB660023FB6607F124031846C4
:1006100013F00CFE0346002B01D000F063FB3F23D8
:100620007B600323BB600023FB6008233B61402306
:100630007B614023BB614FF48063FB6140233B62DD
:100640003B1D0221184614F04BFA0346002B01D043
:1006500000F048FB4FF480220021002014F0F6FB4C
:1006600000BF7037BD4680BD0004005800480258E6
:100670000044025880B5B0B000AF3B46C022002114
:1006800018462AF064FE4FF400224FF00003C7E939
:1006900000230523BB606423FB600A233B610A231C
:1006A0007B610223BB618023FB6100233B6200234B
:1006B0007B620023C7F8A4303B46184614F04AFE7C
:1006C0000346002B01D000F00DFB00BFC037BD4634
:1006D00080BD000080B500AF0D4B0E4A1A600C4B78
:1006E00000221A710A4B00225A71094B00225A61EA
:1006F000074B00229A61064B01221A62044810F04F
:1007000071FD0346002B01D000F0ECFA00BF80BD64
:1007100048010024004C025880B500AF0B4B0C4A36
:100720001A600A4B4FF440325A60084B02229A601A
:10073000064B0022DA60054810F046FE0346002B07
:1007400001D000F0CFFA00BF80BD00BF6C010024D3
:100750000010005280B58EB000AF00F0C9FA3B1D0A
:100760003422002118462AF0F2FD3A4B3A4A1A6028
:10077000384B00225A60374B00229A60354B0022DA
:10078000DA60344B00221A61324B28225A61314B15
:1007900009229A612F4B3522DA612E4B0B221A6205
:1007A0002C4B40F215225A622A4B40F21B129A62DD
:1007B000284B40F23522DA62264B40F21D121A63B2
:1007C000244B002283F83420224B002283F835206A
:1007D000204B002283F836201E4812F0EFF8034623
:1007E000002B01D000F07EFA00237B604FF4F07301
:1007F000BB600023FB604FF488733B6102237B6185
:10080000FF23BB610023FB614FF480633B62052340
:100810007B624FF05043BB624FF4F073FB624FF4C6
:1008200088733B63002387F83430002387F8353022
:10083000002387F836303B1D00221946054812F088
:1008400045FA0346002B01D000F04CFA00BF3837C0
:10085000BD4680BDD40100240010005080B500AF1B
:10086000124B134A1A60114B01225A600F4B01229E
:100870009A600E4B1022DA600C4B1A221A610B4B55
:100880004FF400725A61094B00229A61074B4022D3
:100890001A62064812F0E8FD0346002B01D000F072
:1008A00021FA044800F098FA00BF80BD7C020024C1
:1008B00000500052E50C000880B588B000AF07F189
:1008C0000C0300221A605A609A60DA601A613B4693
:1008D00000221A605A609A601E4B1F4A1A601D4B14
:1008E00000225A601B4B00229A601A4B4FF6FF728F
:1008F000DA60184B00221A61164B00229A611548E3
:1009000016F04BF90346002B01D000F0EBF907235A
:10091000FB6040233B610023FB6107F10C03194698
:100920000C4816F028FB0346002B01D000F0DAF942
:1009300000233B600023BB603B461946054816F088
:1009400089FD0346002B01D000F0CCF900BF203711
:10095000BD4680BDC80200240008004080B588B0B4
:1009600000AF3B1D00221A605A609A60DA601A617B
:100970005A619A61214B224A1A60204B01225A6027
:100980001E4B00229A601D4B0422DA601B4B102282
:100990001A611A4B40225A61184B4FF480729A61C7
:1009A000164B0022DA61154B4FF400621A62134BAA
:1009B0004FF480525A62114B00229A6202237B60EC
:1009C0000623BB600423FB6006233B6102237B619B
:1009D0000223BB610223FB613B1D1946074816F049
:1009E00027F80346002B01D000F07CF9054800F001
:1009F00014FA00BF2037BD4680BD00BF1403002499
:100A000040410052E50C000880B590B000AF07F1FE
:100A10002C0300221A605A609A60DA601A61814BD6
:100A2000D3F8E0307F4A43F48063C2F8E0307D4B76
:100A3000D3F8E03003F48063BB62BB6A794BD3F830
:100A4000E030784A43F04003C2F8E030754BD3F809
:100A5000E03003F040037B627B6A724BD3F8E030F6
:100A6000704A43F48073C2F8E0306E4BD3F8E03044
:100A700003F480733B623B6A6A4BD3F8E030694A07
:100A800043F01003C2F8E030664BD3F8E03003F0D7
:100A90001003FB61FB69634BD3F8E030614A43F418
:100AA0000073C2F8E0305F4BD3F8E03003F400731A
:100AB000BB61BB695B4BD3F8E0305A4A43F0080393
:100AC000C2F8E030574BD3F8E03003F008037B6105
:100AD0007B69544BD3F8E030524A43F00403C2F828
:100AE000E030504BD3F8E03003F004033B613B6946
:100AF0004C4BD3F8E0304B4A43F00103C2F8E030EE
:100B0000484BD3F8E03003F00103FB60FB68454B32
:100B1000D3F8E030434A43F02003C2F8E030414BC1
:100B2000D3F8E03003F02003BB60BB683D4BD3F843
:100B3000E0303C4A43F08003C2F8E030394BD3F850
:100B4000E03003F080037B607B68364BD3F8E03005
:100B5000344A43F00203C2F8E030324BD3F8E030BD
:100B600003F002033B603B68002240212E4811F055
:100B700071F80823FB6200233B6300237B6307F1CA
:100B80002C031946294810F093FD4FF48073FB6243
:100B900002233B6300237B630023BB630023FB63CF
:100BA00007F12C031946204810F082FD0823FB6250
:100BB00000233B6301237B6307F12C0319461C4888
:100BC00010F076FD0223FB6200233B6301237B636D
:100BD00007F12C031946174810F06AFD4023FB6209
:100BE00001233B6300237B630023BB6307F12C03DA
:100BF00019460D4810F05CFD0823FB6207F12C0339
:100C000019460D4810F054FD4FF40043FB6207F104
:100C10002C031946094810F04BFD00BF4037BD4674
:100C200080BD00BF00440258000002580020025856
:100C3000001802580028025800100258001C0258E0
:100C400080B582B000AF786001200AF075F9FBE74B
:100C500080B584B000AF3B4600221A605A609A60AB
:100C6000DA6010F043FA01233B7000237B704FF0F1
:100C700050437B6013233B7200237B720023BB72C3
:100C80000323FB7201233B7300237B730123BB739C
:100C90000123FB733B46184610F060FA01237B707A
:100CA0004FF010437B601A233B723B46184610F00E
:100CB00055FA042010F032FA00BF1037BD4680BD4F
:100CC00080B582B000AF78607B681B68044A9342AD
:100CD00001D110F0CDF800BF0837BD4680BD00BF80
:100CE0000010004080B400AF72B600BFFEE7000005
:100CF00080B58CB000AF364BD3F8E430344A43F0C3
:100D00000803C2F8E430324BD3F8E43003F00803B0
:100D1000BB61BB692E4BD3F8E0302D4A43F480739E
:100D2000C2F8E0302A4BD3F8E03003F480737B61E3
:100D30007B69274BD3F8E030254A43F40073C2F8AF
:100D4000E030234BD3F8E03003F400733B613B69A0
:100D50001F4BD3F8E0301E4A43F48063C2F8E03002
:100D60001B4BD3F8E03003F48063FB60FB68184B47
:100D7000D3F8E030164A43F08003C2F8E030144B59
:100D8000D3F8E03003F08003BB60BB68104BD3F8AE
:100D9000E0300F4A43F00803C2F8E0300C4BD3F8C0
:100DA000E03003F008037B607B688023FB61012354
:100DB0003B6207F11C031946064810F079FC01223A
:100DC0008021044810F046FF00BF3037BD4680BD8B
:100DD00000440258000C025880B584B000AF78601F
:100DE00003233B7301237B734023BB7307F10C0385
:100DF000194600200EF098FF0346002B01D07B68B7
:100E0000984700200FF06AF80346002B01D07B685A
:100E1000984700BF1037BD4680BD80B582B000AF97
:100E2000786000200FF0C8FB00200FF069FB03463C
:100E3000002B01D07B68984700BF0837BD4680BDB6
:100E400080B582B000AF0C4BD3F8F4300A4A43F0BF
:100E50000203C2F8F430084BD3F8F43003F0020375
:100E60007B607B6800220F216FF0010010F008F911
:100E700000BF0837BD4680BD0044025880B485B02D
:100E800000AF78607B681B680B4A93420ED10B4B16
:100E9000D3F8E030094A43F40023C2F8E030074BAE
:100EA000D3F8E03003F40023FB60FB6800BF143785
:100EB000BD465DF8047B7047004C02580044025860
:100EC00080B584B000AF78607B681B680E4A93429F
:100ED00016D10E4BD3F8D4300C4A43F01003C2F8AD
:100EE000D4300A4BD3F8D43003F01003FB60FB6816
:100EF000002205215A2010F0C3F85A2010F0DAF829
:100F000000BF1037BD4680BD00100052004402589B
:100F100080B5BEB000AF786007F1E40300221A602C
:100F20005A609A60DA601A6107F12003C02200213A
:100F300018462AF00CFA7B681B68694A934240F015
:100F4000CB804FF000524FF00003C7E90823052380
:100F5000BB64A023FB6402233B6502237B65532310
:100F6000BB654FF40063FB6500233B6600237B6693
:100F700007F12003184614F0EDF90346002B01D0C9
:100F8000FFF7B0FE574BD3F8E430564A43F008035E
:100F9000C2F8E430534BD3F8E43003F00803FB61AC
:100FA000FB69504BD3F8E0304E4A43F48063C2F8FB
:100FB000E0304C4BD3F8E03003F48063BB61BB6995
:100FC000484BD3F8E030474A43F48073C2F8E0302E
:100FD000444BD3F8E03003F480737B617B69414B71
:100FE000D3F8E0303F4A43F40073C2F8E0303D4BA1
:100FF000D3F8E03003F400733B613B69394BD3F81D
:10100000E030384A43F08003C2F8E030354BD3F883
:10101000E03003F08003FB60FB68FC23C7F8E4309A
:101020000223C7F8E8300023C7F8EC300223C7F8E2
:10103000F0300E23C7F8F43007F1E40319462A48CC
:1010400010F036FB4DF20323C7F8E4300223C7F853
:10105000E8300023C7F8EC300223C7F8F0300E2345
:10106000C7F8F43007F1E4031946204810F020FBDC
:101070004FF6FB73C7F8E4300223C7F8E8300023CB
:10108000C7F8EC300223C7F8F0300E23C7F8F4306D
:1010900007F1E4031946164810F00AFB4FF40073F9
:1010A000C7F8E4300223C7F8E8300023C7F8EC3073
:1010B0000223C7F8F0300E23C7F8F43007F1E40339
:1010C00019460C4810F0F4FA0022052158200FF0C0
:1010D000D7FF58200FF0EEFF00BFF837BD4680BDA8
:1010E0000010005000440258002802580020025806
:1010F00000240258001C025880B5BEB000AF7860D2
:1011000007F1E40300221A605A609A60DA601A61FB
:1011100007F12003C022002118462AF018F97B6845
:101120001B68774A934240F0E7804FF000724FF01F
:101130000003C7E908230023FB6607F120031846D4
:1011400014F008F90346002B01D0FFF7CBFD6D4BDF
:10115000D3F8D4306B4A43F48043C2F8D430694B9F
:10116000D3F8D43003F48043FB61FB69654BD3F8BB
:10117000E030644A43F04003C2F8E030614BD3F8FA
:10118000E03003F04003BB61BB695E4BD3F8E03055
:101190005C4A43F02003C2F8E0305A4BD3F8E03009
:1011A00003F020037B617B69564BD3F8E030554A4E
:1011B00043F08003C2F8E030524BD3F8E03003F044
:1011C00080033B613B694F4BD3F8E0304D4A43F01D
:1011D0000803C2F8E0304B4BD3F8E03003F00803CB
:1011E000FB60FB684FF48443C7F8E4300223C7F880
:1011F000E8300023C7F8EC300323C7F8F0300923A8
:10120000C7F8F43007F1E40319463F4810F050FAEC
:101210004023C7F8E4300223C7F8E8300123C7F8B9
:10122000EC300323C7F8F0300A23C7F8F43007F195
:10123000E4031946344810F03BFA4FF49863C7F8BA
:10124000E4300223C7F8E8300023C7F8EC3003236A
:10125000C7F8F0300923C7F8F43007F1E403194662
:101260002A4810F025FA4FF40073C7F8E43002233F
:10127000C7F8E8300023C7F8EC300323C7F8F03094
:101280000A23C7F8F43007F1E40319461F4810F0A9
:101290000FFA0C23C7F8E4300223C7F8E830002324
:1012A000C7F8EC300323C7F8F0300923C7F8F4304F
:1012B00007F1E4031946164810F0FAF94FF40063F9
:1012C000C7F8E4300223C7F8E8300023C7F8EC3051
:1012D0000323C7F8F0300923C7F8F43007F1E4031B
:1012E00019460C4810F0E4F9002205215C200FF0AB
:1012F000C7FE5C200FF0DEFE00BFF837BD4680BDA4
:1013000000500052004402580018025800140258BD
:10131000001C0258000C025880B58AB000AF7860FB
:1013200007F1140300221A605A609A60DA601A61A9
:101330007B681B681A4A93422DD11A4BD3F8E830C8
:10134000184A43F00403C2F8E830164BD3F8E830EB
:1013500003F004033B613B69124BD3F8E030114AC0
:1013600043F00203C2F8E0300E4BD3F8E03003F054
:101370000203FB60FB68C0237B610223BB61012386
:10138000FB6100233B6202237B6207F114031946D1
:10139000054810F08DF900BF2837BD4680BD00BF5D
:1013A00000080040004402580004025880B5B8B05C
:1013B00000AF07F1CC0300221A605A609A60DA602D
:1013C0001A61514B1B68002B40F099804E4B012253
:1013D0001A6007F10803C0220021184629F0B7FF60
:1013E0004FF080724FF00003C7E9022300233B65F2
:1013F00007F10803184613F0ADFF0346002B01D098
:10140000FFF770FC414BD3F8D430404A43F480538B
:10141000C2F8D4303D4BD3F8D43003F480537B6012
:101420007B684FF68373C7F8CC300223C7F8D030FF
:101430000023C7F8D4300323C7F8D8300C23C7F8EB
:10144000DC3007F1CC031946314810F031F948F28D
:101450003313C7F8CC300223C7F8D0300023C7F8C5
:10146000D4300323C7F8D8300C23C7F8DC3007F199
:10147000CC031946274810F01BF94CF20373C7F848
:10148000CC300223C7F8D0300023C7F8D430032370
:10149000C7F8D8300C23C7F8DC3007F1CC03194665
:1014A0001D4810F005F94FF63F03C7F8CC30022372
:1014B000C7F8D0300023C7F8D4300323C7F8D8309A
:1014C0000C23C7F8DC3007F1CC031946134810F0A1
:1014D000EFF8E023C7F8CC300223C7F8D030002360
:1014E000C7F8D4300323C7F8D8300C23C7F8DC3052
:1014F00007F1CC0319460A4810F0DAF800E000BF03
:10150000E037BD4680BD00BF5003002400440258B0
:101510000010025800180258000C0258001402581B
:10152000001C025880B582B000AF7860FFF73EFF24
:1015300000BF0837BD4680BD80B500AF144B1B68A7
:10154000002B23D1124B01221A60124BD3F8D43056
:10155000104A23F48053C2F8D4304FF683710E48FA
:1015600010F056FA48F233110C4810F051FA4CF2D0
:1015700003710B4810F04CFA4FF63F01094810F088
:1015800047FAE021084810F043FA00E000BF80BDB0
:101590005403002400440258001002580018025856
:1015A000000C025800140258001C025880B582B08A
:1015B00000AF7860FFF7C0FF00BF0837BD4680BDB1
:1015C00080B590B000AF78607B680F2B27D80022E1
:1015D000796836200FF054FD36200FF06BFD294A54
:1015E0007B681360284BD3F8E830274A43F0100398
:1015F000C2F8E830244BD3F8E83003F01003FB6066
:10160000FB6807F1100207F114031146184613F0A6
:101610005FFEBB6ABB63BB6B002B06D101E00123FD
:101620002BE013F029FEF86304E013F025FE0346D7
:101630005B00FB63FB6B154AA2FB03239B0C013B86
:101640007B63134B134A1A60114B40F2E732DA60A6
:101650000F4A7B6B53600E4B00221A610C4B002229
:101660009A600B4815F099FA0346002B04D10848FC
:1016700015F0EAFA034600E0012318464037BD465C
:1016800080BD00BF500000240044025883DE1B438D
:10169000580300240010004080B400AFFEE780B47F
:1016A00000AFFEE780B400AFFEE780B400AFFEE716
:1016B00080B400AFFEE780B400AF00BFBD465DF868
:1016C000047B704780B500AF024815F035FB00BFC2
:1016D00080BD00BF5803002480B500AF024811F060
:1016E0003DFA00BF80BD00BFD401002480B500AF2B
:1016F00002480FF0CDFE00BF80BD00BF6C0100248A
:1017000080B500AF024811F023FF00BF80BD00BFCD
:101710007C02002480B400AF01231846BD465DF86A
:10172000047B704780B582B000AF7860396029F0E3
:1017300007FF034616221A604FF0FF33184608379A
:10174000BD4680BD80B582B000AF78604FF0FF31FC
:101750007868FFF7E7FFFEE780B586B000AFF86076
:10176000B9607A6000237B610AE0AFF30080014634
:10177000BB685A1CBA60CAB21A707B6901337B61BC
:101780007A697B689A42F0DB7B6818461837BD4659
:1017900080BD80B586B000AFF860B9607A60002384
:1017A0007B6109E0BB685A1CBA601B781846AFF32E
:1017B00000807B6901337B617A697B689A42F1DB47
:1017C0007B6818461837BD4680BD80B483B000AF33
:1017D00078604FF0FF3318460C37BD465DF8047B48
:1017E000704780B483B000AF786039603B684FF4D5
:1017F00000525A60002318460C37BD465DF8047B42
:10180000704780B483B000AF7860012318460C376E
:10181000BD465DF8047B704780B485B000AFF860CA
:10182000B9607A60002318461437BD465DF8047B22
:101830007047000080B586B000AF7860144A154B41
:10184000D31A7B617B693B61134B1B68002B02D170
:10185000114B124A1A60104B1A687B6813443A699C
:101860009A4207D229F06CFE03460C221A604FF010
:10187000FF3309E0084B1B68FB60074B1A687B6865
:101880001344054A1360FB6818461837BD4680BDEF
:101890000000082400100000A4030024B0BC0024B1
:1018A000DFF834D00CF05AFE0C480D490D4A0023E5
:1018B00002E0D458C4500433C4188C42F9D30A4A05
:1018C0000A4C002301E013600432A242FBD329F04A
:1018D0003DFEFEF79DFD7047000008240000002437
:1018E0002C010024280A03082C010024ACBC00248D
:1018F000FEE780B500AF01F06BFC00BF80BD80B596
:1019000082B000AF786001F08DFC00BF0837BD46A3
:1019100080BD000080B483B000AF7860044A7B686B
:101920001A607B6818460C37BD465DF8047B70472B
:1019300038CE020880B582B000AF78607868FFF7D3
:10194000E9FF0421786829F0CEFA7B681846083749
:10195000BD4680BD80B582B000AF786000F0A8FAC7
:1019600000BF0837BD4680BD80B584B000AFF860C9
:10197000B9607A607968B86800F0BEFA0346184624
:101980001037BD4680BD000080B582B000AF7860E2
:10199000054A7B681A607B681846FFF7BBFF7B68C7
:1019A00018460837BD4680BD20CE020880B582B0FB
:1019B00000AF78607868FFF7E7FF0421786829F0C6
:1019C00092FA7B6818460837BD4680BD80B483B064
:1019D00000AF0346FB71FB79032B0CD801A252F830
:1019E00023F000BFF5190008F5190008F5190008E3
:1019F000F519000800BF00BF0C37BD465DF8047B39
:101A0000704700BF80B483B000AF0346FB71FB7921
:101A1000032B0CD801A252F823F000BF2D1A0008A6
:101A20002D1A00082D1A00082D1A000800BF00BF4B
:101A30000C37BD465DF8047B704700BF80B483B0AF
:101A400000AF0346FB71FB79032B0CD801A252F8BF
:101A500023F000BF651A0008651A0008651A00081F
:101A6000651A000800BF00BF0C37BD465DF8047B57
:101A7000704700BF80B483B000AF7860044A7B68D1
:101A80001A607B6818460C37BD465DF8047B7047CA
:101A900010E6020880B582B000AF78607868FFF782
:101AA000E9FF7C21786829F01EFA7B681846083720
:101AB000BD4680BD80B483B000AF78600B46FB703C
:101AC0007B68FA7883F874207B68012283F875209C
:101AD00000BF0C37BD465DF8047B704780B582B00F
:101AE00000AF78600B467B8013463B800C4B1B8815
:101AF0007A889A4204D30B4B1B883A889A4205D2C3
:101B0000094B0A4A9E210A4829F01CFA094A7B8897
:101B10001380094A3B88138000BF0837BD4680BD4B
:101B2000C0B80024C2B8002478C00208DCC0020893
:101B300020C10208C6B80024C8B8002480B582B00D
:101B400000AF78607B6893F87730002B09D07B6812
:101B50005A687B685B681B681B6810469847034699
:101B600000E0002318460837BD4680BD80B582B02E
:101B700000AF7860786817F035FD7B681B68A43388
:101B80001B687868984700BF0837BD4680BD80B4A1
:101B900083B000AF78603960002318460C37BD462B
:101BA0005DF8047B7047000080B584B000AFF8603A
:101BB000B9607A603B60BB68002B06D1114B124ABA
:101BC0004FF42B71114829F0BDF9FB68BA68DA634C
:101BD000FB687A681A64FB683A685A647B68002B71
:101BE00014BF01230023DAB2094B1A703B68002BA3
:101BF00014BF01230023DAB2064B1A7000BF10375E
:101C0000BD4680BD68C10208A0C1020820C102080B
:101C1000CAB80024CBB8002480B483B000AF786089
:101C2000002318460C37BD465DF8047B704780B52D
:101C300082B000AF78600B467B807B689B6B002B8B
:101C400004D07B689B6B7A881046984700BF0837A2
:101C5000BD4680BD80B483B000AF78604FF6FF739F
:101C600018460C37BD465DF8047B704780B582B0DE
:101C700000AF78607B685A687B685B681B681833C4
:101C80001B6810469847034618460837BD4680BD76
:101C900080B485B000AF78607B6893F874207B686F
:101CA00093F834309A4211D0144B1B78002B1ED17C
:101CB000134B1B88BB81134B1A88114B1A80114A96
:101CC000BB8913800D4B01221A7010E00B4B1B785F
:101CD000002B0CD00A4B1B88FB810A4B1A88084B3F
:101CE0001A80084AFB891380044B00221A7000BF37
:101CF0001437BD465DF8047B704700BFC4B80024AC
:101D0000C2B80024C0B8002480B582B000AF7860AB
:101D10007B68184616F01BFE00BF0837BD4680BD25
:101D200080B582B000AF7860054A7B681A607B6836
:101D30001846FFF79FFE7B6818460837BD4680BDF2
:101D4000A0D1020880B582B000AF78607868FFF754
:101D5000E7FF7C21786829F0C6F87B6818460837C9
:101D6000BD4680BD80B582B000AF78607B68184604
:101D7000FFF7CAFF00BF0837BD4680BD80B582B0FF
:101D800000AF78607B68184601F03CFD00BF083763
:101D9000BD4680BD80B582B000AF78607B681846D4
:101DA00001F0C8FD034618460837BD4680BD80B522
:101DB00082B000AF786039607B683968184601F0FE
:101DC000C7FD00BF0837BD4680BD80B582B000AFFB
:101DD000786039607B683968184601F0CFFD00BF34
:101DE0000837BD4680BD80B584B000AFF860B960EB
:101DF0007A603B60F8683B687A68B96801F014FE65
:101E0000034618461037BD4680BD80B582B000AF8E
:101E100078607B68184601F019FD00BF0837BD46A1
:101E200080BD80B582B000AF78607B68184601F055
:101E30001DFD00BF0837BD4680BD80B582B000AF34
:101E400078607B68184601F01FFD00BF0837BD466B
:101E500080BD80B582B000AF78607B68184601F025
:101E600021FD00BF0837BD4680BD000080B582B0AF
:101E700000AF7860054A7B681A607B681846FFF7F8
:101E80004FFF7B6818460837BD4680BD50CE02081C
:101E900080B582B000AF78607868FFF7E7FF7C21FB
:101EA000786829F020F87B6818460837BD4680BD61
:101EB00080B584B000AF4FF4F0733B604FF488738B
:101EC0007B600823BB600023FB603B461946002073
:101ED0000EF0F8FC0346002B14BF01230023DBB2F5
:101EE000002B03D1034B01221A7000E000BF103712
:101EF000BD4680BDA803002480B582B000AF7860E5
:101F00003960114B1B7883F00103DBB2002B01D049
:101F1000002314E00D4900200EF090FD0B4B1B68D0
:101F2000002B01D100230AE0084B5B681A467B684E
:101F30001A60064B9B681A463B681A6001231846D4
:101F40000837BD4680BD00BFA8030024AC030024B1
:101F500080B500AF00220121012009F008F80346F6
:101F60000F4A13600E4B1B68002B05D10D4B0E4A18
:101F700028210E4828F0E6FF00220421012009F064
:101F800015F903460A4A1360094B1B68002B05D15B
:101F9000084B054A2C21054828F0D4FF00BF80BD1E
:101FA000B8030024F0C102083CC202086CC2020857
:101FB000BC030024E4C2020880B500AF044B1B68D8
:101FC0004FF0FF31184609F05BF800BF80BD00BF3D
:101FD000B803002480B500AF034B1B68184609F016
:101FE000A1F800BF80BD00BFB803002480B500AFDA
:101FF000034B1B680021184609F042F800BF80BD62
:10200000B803002480B500AF034B1B68184609F0E5
:1020100089F800BF80BD00BFB803002480B500AFC1
:10202000044B186800230022034909F033F900BF6C
:1020300080BD00BFBC0300240400002480B582B032
:1020400000AF094B1868391D0023002209F082F9FE
:10205000054B1868391D4FF0FF33002209F07AF95B
:1020600000BF0837BD4680BDBC03002480B483B0E8
:1020700000AF0346FB80B7F90630002B0BDBFB8873
:1020800003F01F020749B7F906305B09012000FA87
:1020900002F241F8232000BF0C37BD465DF8047BF7
:1020A000704700BF00E100E080B483B000AF03469A
:1020B000FB80B7F90630002B12DBFB8803F01F0210
:1020C0000A49B7F906305B09012000FA02F2203311
:1020D00041F82320BFF34F8F00BFBFF36F8F00BFC6
:1020E00000BF0C37BD465DF8047B704700E100E09F
:1020F00080B483B000AF78607B6800221A607B6890
:1021000018460C37BD465DF8047B704780B483B039
:1021100000AF78607B681B6818460C37BD465DF8D9
:10212000047B704780B483B000AF7860044A7B685A
:102130001A607B6818460C37BD465DF8047B704713
:1021400070CF020880B582B000AF78607868FFF782
:10215000E9FF0421786828F0C6FE7B681846083736
:10216000BD4680BD80B582B000AF78607B681B68DB
:1021700044331B687868984700BF0837BD4680BD68
:1021800080B483B000AF7860044A7B681A607B68D3
:1021900018460C37BD465DF8047B704768EB0208B3
:1021A00080B582B000AF78607868FFF7E9FF0C2156
:1021B000786828F098FE7B6818460837BD4680BDD1
:1021C00080B483B000AF78603960094A7B681A60D8
:1021D0007B683A685A607B6800221A727B6800222A
:1021E0005A727B6818460C37BD465DF8047B704711
:1021F00068EB020880B483B000AF78600123184612
:102200000C37BD465DF8047B704780B582B000AFE7
:1022100078607A687B681B6828331B68104698478B
:1022200000BF0837BD4680BD80B400AF034B1B68BC
:102230001846BD465DF8047B704700BFCCB800244B
:1022400080B582B000AF78607B685A687B685B6855
:102250001B6814331B681046984700BF0837BD46FB
:1022600080BD80B582B000AF7860FFF7DDFF034628
:102270001846FFF7E5FF00BF0837BD4680BD80B5B3
:1022800082B000AF78607B680C331846FFF730FFF0
:102290007B6818460837BD4680BD0000B0B582B0E7
:1022A00000AF78607A687B680C3319461046FFF7F8
:1022B00087FF0E4A7B681A607B6803F10C007B681D
:1022C00020336022194617F0F3FA7B6820335F242D
:1022D0001D4604E02846FFF7D2FF2035013C002CC4
:1022E000F8DA7B6818460837BD46B0BD20CF020833
:1022F00080B582B000AF7860094A7B681A605A20C6
:10230000FFF7D2FE7B680C33184600F0CBFA7B68EF
:102310001846FFF735FF7B6818460837BD4680BD75
:1023200020CF020880B582B000AF78607868FFF7F0
:10233000DFFF4FF44261786828F0D5FD7B681846CE
:102340000837BD4680BD000080B584B000AF78601E
:10235000124BD3F8D430114A43F01003C2F8D430F2
:102360000E4BD3F8D43003F01003FB60FB680B4B2B
:10237000DB6F0A4A43F01003D367084BDB6F074A51
:1023800023F01003D367064B064A1A625A20FFF760
:102390006DFE00BF1037BD4680BD00BF004402582F
:1023A0006C0100246322000880B584B000AF78601F
:1023B0000B46FB700023FB60FB780B2B26D801A299
:1023C00052F823F001240008FB230008F52300083D
:1023D0000D2400080D2400080D2400080D24000819
:1023E0000724000807240008072400080724000821
:1023F000072400080023FB600EE00123FB600BE0D4
:102400000223FB6008E00523FB6005E0054B064A5C
:102410006621064828F096FDFB6818461037BD4631
:1024200080BD00BF28C3020844C3020890C302084D
:1024300080B584B000AF78600B46FB700023FB6072
:10244000FB780A2B21D801A252F823F0852400083A
:102450007F240008792400088B2400088B240008BE
:102460008B2400088B2400087F2400087F240008A8
:102470007F2400087F2400080023FB600BE0012379
:10248000FB6008E00223FB6005E0054B054A87215D
:10249000054828F057FDFB6818461037BD4680BD3B
:1024A00028C3020808C4020890C3020880B483B09D
:1024B00000AF786040F2EF3318460C37BD465DF848
:1024C000047B704790B589B000AF786039603B6895
:1024D0005B7F19467868FFF767FFB8613B689B7FB1
:1024E00019467868FFF760FF78613B689B7F194663
:1024F0007868FFF79DFF38613B685B8B1A463B6845
:102500009B8AD21A924B1A643B685B8B1A463B68D3
:102510009B8AD21A8E4B9A613B681B8B1A463B688A
:102520009B8AD21A8A4B1A61894A3B6953633B687A
:10253000DB8A1A463B689B8A1B041A43844B5A6405
:102540003B681A69824BDA633B685A68804BDA60F1
:102550003B681B68B3F5007F36D0B3F5007F00F20F
:10256000E280B3F5807F14D0B3F5807F00F2DB808A
:10257000802B59D0802B00F2D680402B00F0BE80FB
:10258000402B00F2D080042B39D0202B00F0B680F5
:10259000C9E03B681B7F1B0619466D4A6D4B0B4318
:1025A000D3613B680C336A4C1846FFF7AFFD034616
:1025B0002362674A7B6953623B681A69644B5A61BC
:1025C000634B654A1A60DAE03B681B7F1B061946BD
:1025D0005F4A624B0B43D3613B680C335C4C18463B
:1025E000FFF794FD03462362594A7B6953623B68B7
:1025F0001A69574B5A61564B574A1A60BFE03B68FD
:102600001B7F1B061A46BB691343514A43F4003330
:10261000D3614F4A7B6953623B681A694C4B5A61DC
:102620004B4B4D4A1A60AAE00123FB773B689B683D
:10263000FB60FB681A1D464BDA623B681B7F1B067A
:102640001A46BB691343424A43F40033D361404AFC
:102650007B6953623B681A693D4B5A61FB681B8872
:10266000DBB2002B02D0012B0DD020E0384BDA6911
:102670003B4B1340FA685288013A12021146344A21
:102680000B43D3611AE03B681B7FFF2B01D1002372
:10269000FB772F4BDA69324B1340FA685288013AC4
:1026A000120213432A4A43F01003D36106E02D4B74
:1026B0002D4A40F211112D4828F044FC244BDB69CF
:1026C000234A43F02003D36100BF214BDB6903F0B1
:1026D0002003002B14BF01230023DBB2002BF4D115
:1026E0001B4B10229A60FB7F002B03D0184B1A4A19
:1026F0001A6044E0164B1E4A1A6040E03B681B7F9C
:102700001B061A46BB691343114A43F40033D361D5
:102710000F4A7B6953623B681A690D4B5A610C4B37
:102720000D4A1A602BE03B681B7F1B061A46BB69EB
:102730001343074A43F40033D3613B685A7F3B6835
:102740009B7F9A4216D0024B094A1A6016E000BFDE
:10275000001000520A0002000102020009000200FB
:10276000EF00FFFF54C4020870C4020890C30208BF
:1027700001020100044B40F201221A6000BF00BFB9
:102780002437BD4690BD00BF0010005290B585B003
:1027900000AF786039603B689B7F19467868FFF727
:1027A00047FEF8603B4AFB6853633B68DB8A1A4686
:1027B0003B689B8A1B041A43364B5A643B681A6970
:1027C000344BDA633B685B8B1A463B689B8AD21AB0
:1027D000304B1A643B681B68082B2ED13B685B8B1F
:1027E0001A463B689B8AD21A2A4B9A613B685B8BDC
:1027F0001A463B689B8AD21A264B1A61254AFB6807
:1028000053623B681B7F1B061946224A224B0B432F
:10281000D3613B680C331F4C1846FFF777FC034627
:1028200023623B681A691B4B5A613B681A69194B52
:10283000DA60184B194A1A6027E0164AFB68D36120
:10284000144B00221A613B680C331846FFF75EFCFC
:1028500003461B0A03F478443B680C331846FFF721
:1028600055FC03465B0903F4FC631C433B680C33D3
:102870001846FFF74BFC0346DB0803F01F03054A2D
:1028800023439363034B064A1A6000BF1437BD46C7
:1028900090BD00BF001000520900010001020200BB
:1028A0000102030080B582B000AF7860054A7B6802
:1028B0001A607B681846FFF735FC7B6818460837B6
:1028C000BD4680BDB8EB020880B582B000AF78602D
:1028D0007868FFF7E7FF1421786828F004FB7B682D
:1028E00018460837BD4680BD80B483B000AF78601D
:1028F0007B6800221A807B6800225A807B68002255
:102900009A807B680022DA807B6818460C37BD46C7
:102910005DF8047B7047000080B483B000AF78603E
:10292000044A7B68136000BF0C37BD465DF8047B2A
:10293000704700BF28B9002480B483B000AF78602E
:10294000044A7B681A607B6818460C37BD465DF800
:10295000047B70478CD1020880B582B000AF7860EC
:102960007868FFF7E9FF0421786828F0BCFA7B68F3
:1029700018460837BD4680BD80B485B000AFF8600A
:10298000B9607A603B600B4AFB681A60FB68BA6802
:102990005A60FB687A689A60FB683A68DA60FB689C
:1029A000BA691A61FB6818461437BD465DF8047BA6
:1029B000704700BF7CD1020880B483B000AF78605C
:1029C000044A7B681A607B6818460C37BD465DF880
:1029D000047B70477CD1020880B582B000AF78607C
:1029E0007868FFF7E9FF1421786828F07CFA7B68A3
:1029F00018460837BD4680BD80B483B000AF78600C
:102A0000396000BF0C37BD465DF8047B704780B469
:102A100083B000AF7860396000BF0C37BD465DF809
:102A2000047B704780B483B000AF7860396000BF2A
:102A30000C37BD465DF8047B704780B483B000AFAF
:102A400078600B46FB7000BF0C37BD465DF8047B19
:102A5000704780B483B000AF786000BF0C37BD46CC
:102A60005DF8047B704780B483B000AF786000BF2E
:102A70000C37BD465DF8047B7047000080B483B01E
:102A800000AF7860044A7B681A607B6818460C3790
:102A9000BD465DF8047B704754D1020880B582B012
:102AA00000AF78607868FFF7E9FF0421786828F0C4
:102AB0001AFA7B6818460837BD4680BD80B483B0DB
:102AC00000AF7860044A7B681A607B6818460C3750
:102AD000BD465DF8047B7047B0F1020880B582B056
:102AE00000AF78607868FFF7E9FF0821786828F080
:102AF000FAF97B6818460837BD4680BD80B483B0BC
:102B000000AF78600B46FB7000BF0C37BD465DF828
:102B1000047B704780B483B000AF786039607B6815
:102B20003A6803F596731068516803C300BF0C3709
:102B3000BD465DF8047B704780B483B000AF786019
:102B4000044A7B681A607B6818460C37BD465DF8FE
:102B5000047B70473CD1020880B582B000AF78603A
:102B60007868FFF7E9FF0421786828F0BCF97B68F2
:102B700018460837BD4680BD80B483B000AF78608A
:102B80007B6800221A807B6800225A807B680022C2
:102B90009A807B680022DA807B6800221A817B6839
:102BA00000225A817B6800229A817B6800229A73F6
:102BB0007B6818460C37BD465DF8047B704780B5CE
:102BC00082B000AF78607B681846FFF7D5FF7B685E
:102BD00000221A617B6800229A827B6818460837B7
:102BE000BD4680BD80B584B000AFF860B9607A6042
:102BF0003B60554AFB681A60FB68BA685A60FB681C
:102C00007A689A60FB683A68DA60FB6800221A61A9
:102C1000FB6800225A61FB6800229A61FB681C3342
:102C20001846FFF7CCFFFB68002283F83420FB68CE
:102C300000229A63FB680022DA63FB6800221A64B0
:102C4000FB6800225A64FB68002283F84820FB6876
:102C5000012283F84920FB68002283F84A20FB68A0
:102C6000002283F84B20FB680022DA64FB685033B3
:102C70001846FFF739FEFB6800229A65FB680022C0
:102C8000DA65FB6800221A66FB68012283F864207B
:102C9000FB68002283F86520FB68002283F8662029
:102CA000FB68012283F86720FB68002283F8682014
:102CB000FB68002283F86920FB68002283F86A2001
:102CC000FB68002283F86B20FB68002283F86C20ED
:102CD000FB6800221A67FB68002283F87420FB68F7
:102CE000002283F87520FB68002283F87620FB68B9
:102CF000012283F87720FB68012283F87820134AA9
:102D0000FB681360124A3B8B1380114B1A88114BDE
:102D10001A80114ABB8B13800F4B1A880F4B1A80F5
:102D20000F4B00221A703A8BBB8B9A4234BF01239F
:102D30000023DBB21A46FB6883F83420FB68184690
:102D40001037BD4680BD00BF10E60208CCB8002495
:102D5000C0B80024C6B80024C2B80024C8B80024F3
:102D6000C4B8002480B582B000AF7860054A7B68A3
:102D70001A607B681846FFF781FE7B6818460837A3
:102D8000BD4680BDC4F2020880B582B000AF786055
:102D90007868FFF7E7FF4FF49C71786828F0A3F894
:102DA0007B6818460837BD4680BD80B582B000AF4D
:102DB0007860786800F004F800BF0837BD4680BD31
:102DC00080B582B000AF78607B68D3F83C31002BCF
:102DD0000FD07B68D3F83C217B68D3F83C311B686B
:102DE0000C331B68104698470346002B01D0012383
:102DF00000E00023002B0ED07B68D3F83C217B68D9
:102E0000D3F83C311B6808331B68104698477B6831
:102E10000022C3F83C2100BF0837BD4680BD00003A
:102E200080B582B000AF7860054A7B681A607B6825
:102E30001846FFF797FF7B6818460837BD4680BDE8
:102E4000F8D0020880B582B000AF78607868FFF7EC
:102E5000E7FF4FF4A071786828F045F87B681846C2
:102E60000837BD4680BD000080B582B000AF7860F5
:102E7000084A7B681A607B6803F5A073184600F067
:102E800009FB7B681846FFF7CBFF7B6818460837BD
:102E9000BD4680BD9CD0020880B582B000AF78608E
:102EA0007868FFF7E1FF4FF4AC71786828F01BF801
:102EB0007B6818460837BD4680BD000080B582B0EB
:102EC00000AF7860054A7B681A607B681846FFF798
:102ED000CBFF7B6818460837BD4680BD58D0020836
:102EE00080B582B000AF78607868FFF7E7FF4FF4F5
:102EF000AC71786827F0F7FF7B6818460837BD4645
:102F000080BD80B582B000AF78607B68D3F8543163
:102F1000184607F001FE7B68184618F079FD00BFDF
:102F20000837BD4680BD80B582B000AF786039609B
:102F30003B68184601F020FB00BF0837BD4680BD46
:102F400080B586B002AFF860B9607A603B60F8681F
:102F5000BB6900933B687A68B968FFF70DFD044AC6
:102F6000FB681A60FB6818461037BD4680BD00BF7D
:102F700044D0020880B500AF014800F05DF980BD83
:102F8000C003002480B500AF114B1B68BFF35B8FFB
:102F900003F00103002B0CBF01230023DBB2002B45
:102FA00013D00B4827F0A1FF0346002B14BF0123C9
:102FB0000023DBB2002B08D0064800F067F8064873
:102FC00027F0DEFF024827F09CFF024B184680BD29
:102FD000A8100024C0030024752F000880B582B01B
:102FE00000AF7860054A7B681A607B681846FFF777
:102FF000E3FC7B6818460837BD4680BD44D0020814
:1030000080B582B000AF78607868FFF7E7FF1421E1
:10301000786827F068FF7B6818460837BD4680BD92
:1030200080B582B000AF78607B68184614F068FC09
:10303000034A7B681A607B6818460837BD4680BD26
:1030400010D0020880B582B000AF78607B68184667
:1030500014F056FC034A7B681A607B6818460837F0
:10306000BD4680BDDCCF020880B582B000AF78607D
:103070007B68184614F044FC034A7B681A607B683E
:1030800018460837BD4680BDA8CF020890B585B068
:1030900002AF786078687B6803F114017B6803F104
:1030A0002C027B6803F64C347B6803F68C33009368
:1030B0002346FFF745FF184A7B681A607B68143384
:1030C0001846FFF7ADFF7B682C331846FFF7BAFFB1
:1030D0007B6803F64C331846FFF7C6FF7B6803F6A0
:1030E0008C307B6803F6E4437A68194607F06AF887
:1030F0007B6803F6E443184607F000FD7A687B68B6
:1031000003F68C3319461046FFF70DFF7B6818460F
:103110000C37BD4690BD00BF94CF020880B586B085
:1031200002AFF860B9607A603B60F868BB8B0193CE
:103130003B8B00933B687A68B968FFF753FD044AFC
:10314000FB681A60FB6818461037BD4680BD00BF9B
:10315000A0D1020880B586B002AFF860B9607A608D
:103160003B60F868BB8B01933B8B00933B687A68AC
:10317000B968FFF7D3FF044AFB681A60FB6818467A
:103180001037BD4680BD00BF50CE020880B483B06A
:1031900000AF7860044A7B681A607B6818460C3779
:1031A000BD465DF8047B704738CE020880B582B01A
:1031B00000AF78607B681846FFF7E8FF034A7B683A
:1031C0001A607B6818460837BD4680BD20CE0208CD
:1031D00090B585B002AF00F059FD044600F060FDE7
:1031E00003461946002300930023002220461BF0CB
:1031F00023FE0948FFF790FB002006F02DFF07484B
:103200001BF05CFDFFF7BEFE78600548FEF7B6FDDB
:1032100000BF0C37BD4690BD481D002408000024A7
:103220004C1D002480B500AF024815F0F8FB00BF2C
:1032300080BD00BF4C1D002480B582B000AF786017
:10324000104A7B681A607B6803F68C331846FFF7D8
:1032500035FE7B6803F64C33184600F027F87B6890
:103260002C33184600F044F87B681433184600F0FD
:1032700063F87B681846FFF7B1FE7B68184608378D
:10328000BD4680BD94CF020880B582B000AF7860A3
:103290007868FFF7D1FF40F6E841786827F023FE11
:1032A0007B6818460837BD4680BD000080B582B0F7
:1032B00000AF7860054A7B681A607B68184614F096
:1032C0001DFB7B6818460837BD4680BDA8CF0208A5
:1032D00080B582B000AF78607868FFF7E7FF4021E3
:1032E000786827F000FE7B6818460837BD4680BD29
:1032F00080B582B000AF7860054A7B681A607B6851
:10330000184614F0FBFA7B6818460837BD4680BDA6
:10331000DCCF020880B582B000AF78607868FFF734
:10332000E7FF4FF43261786827F0DDFD7B681846CF
:103330000837BD4680BD000080B582B000AF786020
:10334000054A7B681A607B68184614F0D7FA7B68D8
:1033500018460837BD4680BD10D0020880B582B03F
:1033600000AF78607868FFF7E7FF1821786827F0EA
:10337000BAFD7B6818460837BD4680BD80B582B06F
:1033800000AF7860054A7B681A607B681846FFF7D3
:10339000D3FA7B6818460837BD4680BD70D2020854
:1033A00080B582B000AF78607868FFF7E7FF04214E
:1033B000786827F098FD7B6818460837BD4680BDC1
:1033C00080B582B000AF7860054A7B681A607B6880
:1033D0001846FFF773FB7B6818460837BD4680BD6B
:1033E0005404030880B582B000AF78607868FFF7B6
:1033F000E7FF7821786827F076FD7B681846083764
:10340000BD4680BD80B584B002AF786039607B680E
:10341000012B19D13B684FF6FF72934214D1184823
:10342000FFF7C4FE1748FEF739FF17481EF0CCFD22
:103430004FF4887301934FF4F0730093104B124ACA
:1034400010491248FFF786FE7B68002B13D13B68BA
:103450004FF6FF7293420ED10C48FEF707FD0C4861
:10346000FFF78CFF0848FFF7ABFF0648FEF740FF69
:103470000348FEF789FA00BF0837BD4680BD00BF8C
:10348000AC100024B0100024D01C00244C1D0024DB
:103490000800002480B582B000AF7860054A7B68E0
:1034A0001A607B681846FFF747FB7B6818460837A9
:1034B000BD4680BDE0D0020880B582B000AF786024
:1034C0007868FFF7E7FF1021786827F00CFD7B682C
:1034D00018460837BD4680BD80B483B000AF786021
:1034E000012318460C37BD465DF8047B704780B455
:1034F00083B000AF7860382318460C37BD465DF8BE
:10350000047B704780B483B000AF78600B467B804B
:103510007A881346DB009B1ADB0008337A68134471
:1035200018460C37BD465DF8047B704780B483B005
:1035300000AF78600B467B807A881346DB009B1ACD
:10354000DB0008337A68134418460C37BD465DF833
:10355000047B704780B483B000AF786001231846C5
:103560000C37BD465DF8047B704780B483B000AF74
:10357000786040F6183318460C37BD465DF8047B7A
:10358000704780B483B000AF78600B467B807B8847
:1035900040F6183202FB03F308337A6813441846E6
:1035A0000C37BD465DF8047B704780B483B000AF34
:1035B00078600B467B807B8840F6183202FB03F371
:1035C00008337A68134418460C37BD465DF8047B0F
:1035D000704780B483B000AF7860012318460C3781
:1035E000BD465DF8047B704780B483B000AF78605F
:1035F000102318460C37BD465DF8047B704780B435
:1036000083B000AF78600B467B807B881B0108335A
:103610007A68134418460C37BD465DF8047B704742
:1036200080B483B000AF78600B467B807B881B0141
:1036300008337A68134418460C37BD465DF8047B9E
:10364000704780B582B000AF78607B685B687A684D
:10365000D268521099187B68DB6803F00103002BD5
:1036600002D17B689B680AE07B685B687A68D268F5
:10367000521013441B687A68926813441B6808460A
:10368000984700BF0837BD4680BD80B483B000AF07
:1036900078607B685B68002B10D07B689B68002B90
:1036A00007D17B68DB6803F00103002B01D1012304
:1036B00000E00023012B01D0012300E00023184685
:1036C0000C37BD465DF8047B704780B500AF4FF600
:1036D000FF710120FFF796FE80BD80B500AF4FF669
:1036E000FF710020FFF78EFE80BD80B582B000AF75
:1036F00078607B681B6820331B687868984700BF38
:103700000837BD4680BD80B483B000AF78607B6869
:1037100093F866300133DAB27B6883F8662000BF25
:103720000C37BD465DF8047B7047000080B483B061
:1037300000AF0346FB80B7F90630002B0BDBFB889C
:1037400003F01F020749B7F906305B09012000FAB0
:1037500002F241F8232000BF0C37BD465DF8047B20
:10376000704700BF00E100E080B483B000AF0346C3
:10377000FB80B7F90630002B12DBFB8803F01F0239
:103780000A49B7F906305B09012000FA02F220333A
:1037900041F82320BFF34F8F00BFBFF36F8F00BFEF
:1037A00000BF0C37BD465DF8047B704700E100E0C8
:1037B00080B483B000AF03463960FB80B7F90630B0
:1037C000002B0ADB3B68DAB20C49B7F9063012016C
:1037D000D2B20B4483F800230AE03B68DAB208490E
:1037E000FB8803F00F03043B1201D2B20B441A769C
:1037F00000BF0C37BD465DF8047B704700E100E078
:1038000000ED00E0B0B582B000AF78607B6818468C
:1038100015F0F3F87D687B681B6860331C6818F04E
:1038200023FA034619462846A04778687B681B6838
:1038300084331C680023044A4FF05041A04700BF66
:103840000837BD46B0BD00BF000020D080B582B0B3
:1038500000AF786009215A20FFF7AAFF09215820FC
:10386000FFF7A6FF00BF0837BD4680BD80B582B018
:1038700000AF78605A20FFF759FF5820FFF756FF36
:1038800000BF0837BD4680BD80B582B000AF78600C
:103890005A20FFF769FF5820FFF766FF00BF08377F
:1038A000BD4680BD80B483B000AF7860114BDB684B
:1038B0009BB2C3F30A039BB2013B9AB20E4B1A8030
:1038C0000C4B1B699BB2C3F30A039BB2013B9AB238
:1038D0000A4B1A80084B1A88064B1A64054B5B6B1F
:1038E000044A43F00103536300BF0C37BD465DF843
:1038F000047B704700100050C81D0024CA1D00241E
:1039000080B582B000AF78607B68184615F05CF82F
:10391000034618460837BD4680BD80B582B000AF6B
:1039200078607B68184615F05BF800BF0837BD4625
:1039300080BD000080B483B000AF7860034B9B6A09
:1039400018460C37BD465DF8047B70478410005064
:1039500080B483B000AF78603960064A3B689362F8
:10396000054B01225A6200BF0C37BD465DF8047B4F
:10397000704700BF841000500010005080B586B022
:1039800000AF786039607B683968184614F0E5FF4D
:10399000244B5B6903F48033002B14BF0123002305
:1039A000DBB2002B3AD01F4B0022C3F88420BFF3B8
:1039B0004F8F00BF1B4BD3F880307B617B695B0B63
:1039C000C3F30E033B617B69DB08C3F30903FB60B0
:1039D0003B695A0143F6E0731340FA6892071149B4
:1039E0001343C1F87432FB685A1EFA60002B14BFEF
:1039F00001230023DBB2002BEAD13B695A1E3A6156
:103A0000002B14BF01230023DBB2002BDBD1BFF35B
:103A10004F8F00BFBFF36F8F00BF00BF00BF1837CD
:103A2000BD4680BD00ED00E080B584B000AFF86019
:103A3000B9607A603B60F8683B687A68B96815F0ED
:103A4000F8F8034618461037BD4680BD80B487B0ED
:103A500000AF7860254B5B6903F48033002B14BF03
:103A600001230023DBB2002B3AD0204B0022C3F805
:103A70008420BFF34F8F00BF1C4BD3F880307B6195
:103A80007B695B0BC3F30E033B617B69DB08C3F30C
:103A90000903FB603B695A0143F6E0731340FA687F
:103AA000920712491343C1F87432FB685A1EFA6038
:103AB000002B14BF01230023DBB2002BEAD13B69AA
:103AC0005A1E3A61002B14BF01230023DBB2002BE6
:103AD000DBD1BFF34F8F00BFBFF36F8F00BF00BFBD
:103AE00000BF1C37BD465DF8047B704700ED00E069
:103AF00080B487B000AF7860254B5B6903F48033F6
:103B0000002B14BF01230023DBB2002B3AD0204B43
:103B10000022C3F88420BFF34F8F00BF1C4BD3F8A3
:103B200080307B617B695B0BC3F30E033B617B6978
:103B3000DB08C3F30903FB603B695A0143F6E073FA
:103B40001340FA68920712491343C1F87432FB68B4
:103B50005A1EFA60002B14BF01230023DBB2002B96
:103B6000EAD13B695A1E3A61002B14BF012300239E
:103B7000DBB2002BDBD1BFF34F8F00BFBFF36F8FE2
:103B800000BF00BF00BF1C37BD465DF8047B704717
:103B900000ED00E080B582B000AF78601A4B1B6C7E
:103BA0001A4A128893420CBF01230023DBB2002B78
:103BB00017D0174B1B88194678680FF0C5F8FEF729
:103BC00033FB03461846FFF79EFDFEF727FAFEF784
:103BD0002BFB0346184615F005FD0020FDF7F6FE09
:103BE0000EE00A4B1B88194678680FF0ADF80020EC
:103BF000FDF708FFFEF718FB03461846FFF775FDB3
:103C000000BF0837BD4680BD00100050C81D00240D
:103C1000CA1D002480B582B000AF78600B467B805F
:103C20007B88052B2CD801A252F823F0453C0008D4
:103C30004F3C0008593C0008633C00086D3C0008FC
:103C4000773C000806F080FA03461B6819E006F08E
:103C50007BFA03465B6814E006F076FA03469B683D
:103C60000FE006F071FA0346DB680AE006F06CFA32
:103C700003461B6805E006F067FA03461B6900E08F
:103C8000002318460837BD4680BD00BF80B400AF92
:103C9000024B1846BD465DF8047B70477CD2020893
:103CA00080B400AF0E231846BD465DF8047B704714
:103CB00080B483B000AF7860044A7B681A607B6888
:103CC00018460C37BD465DF8047B704720D70208C4
:103CD00080B582B000AF78607868FFF7E9FF102107
:103CE000786827F000F97B6818460837BD4680BD24
:103CF00090B587B000AF78600B467B807B88002B47
:103D000001D1002310E000233B610023FB737B689B
:103D10001B6808331C6807F10F0307F1100279884C
:103D20007868A04778617B6918461C37BD4690BD0E
:103D300080B483B000AF78607B685B8918460C372D
:103D4000BD465DF8047B704780B483B000AF7860F7
:103D50007B689B8918460C37BD465DF8047B70472D
:103D600080B483B000AF78607B689B8818460C37BE
:103D7000BD465DF8047B704780B483B000AF7860C7
:103D80007B689A887B689B799BB213449BB21846E8
:103D90000C37BD465DF8047B704780B483B000AF3C
:103DA00078607B68DB79C3F30603DBB218460C3717
:103DB000BD465DF8047B704780B483B000AF786087
:103DC0007B68DB79C3F3C013DBB218460C37BD4602
:103DD0005DF8047B7047000080B582B000AF78606A
:103DE000054A7B681A607B681846FFF761FF7B68AD
:103DF00018460837BD4680BD88F5020880B582B0F8
:103E000000AF78607868FFF7E7FF1821786827F03F
:103E10006AF87B6818460837BD4680BD80B582B019
:103E200000AF7860054A7B681A607B681846FFF728
:103E3000D3FF7B6818460837BD4680BD68D50208A9
:103E400080B582B000AF78607868FFF7E7FF28217F
:103E5000786827F048F87B6818460837BD4680BD6B
:103E600080B483B000AF7860044A7B681A607B68D6
:103E700018460C37BD465DF8047B70479CD302089A
:103E800080B582B000AF78607868FFF7E9FF08215D
:103E9000786827F028F87B6818460837BD4680BD4B
:103EA00080B483B000AF786039603B6818460C3747
:103EB000BD465DF8047B704780B485B000AFF86004
:103EC000084611461A4603467B810B463B81134642
:103ED000FB80FB687A891A80FB683A895A80FB6804
:103EE000FA889A80FB683A8BDA80FB6818461437A8
:103EF000BD465DF8047B704780B582B000AF786046
:103F0000144A7B681A607B6804331846FEF7ECFCA1
:103F10007B680C331846FEF7E7FC7B6800225A6189
:103F20007B6800229A617B680022DA617B6800224C
:103F30001A847B6800225A847B68002283F824203C
:103F40007B68012283F825207B6818460837BD4628
:103F500080BD00BF24F5020880B483B000AF786054
:103F6000044A7B681A607B6818460C37BD465DF8CA
:103F7000047B704724F5020880B582B000AF7860FA
:103F80007868FFF7E9FF2821786826F0ACFF7B68A6
:103F900018460837BD4680BD80B483B000AF786056
:103FA000002318460C37BD465DF8047B704780B48B
:103FB00083B000AF78607B68043318460C37BD4689
:103FC0005DF8047B704780B584B000AFF8600846A8
:103FD00011461A4603467B810B463B811346FB8004
:103FE000B7F90820B7F90A301946F86800F044F824
:103FF000B7F91820B7F906301946F86800F098F8B4
:1040000000BF1037BD4680BD80B483B000AF78607C
:104010007B68B3F9063018460C37BD465DF8047B63
:10402000704780B483B000AF78607B68B3F90A3022
:1040300018460C37BD465DF8047B704780B483B0EA
:1040400000AF78600B467B807B687A889A8000BFDF
:104050000C37BD465DF8047B704780B483B000AF79
:1040600078600B467B807B687A88DA8000BF0C37EB
:10407000BD465DF8047B704780B582B000AF7860C4
:104080000B467B8013463B807B681B682C331B6888
:10409000B7F902201146786898477B681B6830336F
:1040A0001B68B7F9002011467868984700BF0837A9
:1040B000BD4680BD80B483B000AF78600B467B8086
:1040C0007B687A881A8100BF0C37BD465DF8047B97
:1040D000704780B483B000AF78600B467B807B680C
:1040E0007A885A8100BF0C37BD465DF8047B704763
:1040F00080B483B000AF786000BF0C37BD465DF878
:10410000047B704780B483B000AF7860396000BF33
:104110000C37BD465DF8047B704780B483B000AFB8
:104120007860396000BF0C37BD465DF8047B70478E
:1041300080B582B000AF78600B467B8013463B8031
:104140007B681B6834331B68B7F902201146786816
:1041500098477B681B6838331B68B7F90020114605
:104160007868984700BF0837BD4680BD80B483B0EB
:1041700000AF7860396000BF0C37BD465DF8047B46
:10418000704780B483B000AF786000BF0C37BD4685
:104190005DF8047B704780B483B000AF78607B68C3
:1041A00093F8253018460C37BD465DF8047B704700
:1041B00080B483B000AF78607B6893F824301846F1
:1041C0000C37BD465DF8047B704780B582B000AF08
:1041D00078600B467B8013463B807B681B685033BE
:1041E0001B6879887A68B2F9042092B28A1A92B26E
:1041F00010B239887A68B2F9062092B28A1A92B25D
:1042000012B201467868984700BF0837BD4680BDA6
:1042100080B483B000AF78607B684FF6FF729A81FC
:104220007B684FF6FF721A847B684FF6FF725A84E0
:1042300000BF0C37BD465DF8047B704780B584B085
:1042400000AFF860B9607A60F868FFF7E1FF7B685B
:104250001A68FB68DA617B68FA681A6000BF103779
:10426000BD4680BD80B400AF0B4B1B6893F8763021
:10427000002B08D0084B1B68DB6C002B03D0064BCF
:104280001B68DB6C02E0044B1B689B681846BD464C
:104290005DF8047B704700BFCCB8002480B483B0C5
:1042A00000AF7860074A7B681A607B6800225A601A
:1042B0007B6800221A727B6818460C37BD465DF891
:1042C000047B704744D5020880B483B000AF7860A7
:1042D000044A7B681A607B6818460C37BD465DF857
:1042E000047B704744D5020880B582B000AF786087
:1042F0007868FFF7E9FF0C21786826F0F4FD7B6809
:1043000018460837BD4680BD80B483B000AF7860E2
:1043100000BF0C37BD465DF8047B704780B483B0A6
:1043200000AF786000BF0C37BD465DF8047B704776
:1043300080B483B000AF786000BF0C37BD465DF835
:10434000047B704780B582B000AF786017F08CFCBA
:1043500003461A68303212681846904700BF083783
:10436000BD4680BD80B483B000AF786039607B68A3
:104370003A685A6000BF0C37BD465DF8047B704751
:1043800080B582B000AF78607B68184617F0D6FC25
:10439000094A7B681A607B680022C3F838217B6871
:1043A0000022C3F83C217B68044A13607B681846EE
:1043B0000837BD4680BD00BFF8D0020818B90024F8
:1043C00080B483B000AF786039607B683A681A6067
:1043D00000BF0C37BD465DF8047B704780B483B0E6
:1043E00000AF78607B6801221A7200BF0C37BD46AF
:1043F0005DF8047B704780B584B000AFF8607B60E7
:104400000B467B8113463B81FB681846FFF7C3FED2
:104410000346002B08D0FB681846FFF7C9FE034689
:10442000002B01D0012300E00023002B02D0FA680A
:104430007B681A6000BF1037BD4680BD80B483B072
:1044400000AF786039607B683A685A6000BF0C370B
:10445000BD465DF8047B704780B582B000AF7860E0
:104460007B681846FFF748FD034A7B681A607B6843
:1044700018460837BD4680BDBCD4020880B582B05E
:1044800000AF7860054A7B681A607B681846FFF7C2
:1044900063FD7B6818460837BD4680BDBCD4020862
:1044A00080B582B000AF78607868FFF7E7FF282119
:1044B000786826F018FD7B6818460837BD4680BD31
:1044C00080B584B000AFF860B9607A60FB681846C8
:1044D000FFF756FF134AFB681A60FB6803F5A073E9
:1044E000184600F02BF9FB687A68C3F85021FB6886
:1044F000BA68C3F85421FDF797FE03461A680832DC
:104500001268002118469047002005F0A5FDFFF72E
:10451000A9FE034618461FF0A2FBFB681846103799
:10452000BD4680BD9CD0020880B483B000AF7860E7
:1045300039607B6818460C37BD465DF8047B7047D0
:1045400080B582B000AF786039607B683A68114608
:104550001846FFF7E9FF3B685A687B685A607B683A
:104560003A680833083292E8030083E803007B6866
:1045700018460837BD4680BD90B589B000AF786059
:104580007B6803F5A074104BBB610023FB6107F14E
:10459000080007F118030CCB796800F0EBF807F17D
:1045A000080319462046FFF7CBFF07F1080318461A
:1045B000FEF770FF7B6803F5A0727B68C3F83C21AF
:1045C00000BF2437BD4690BDCD45000880B584B0FE
:1045D00002AF78607B6803F59C717B68D3F850313B
:1045E0001A467B68D3F854310093044B044800F01A
:1045F000F3F800BF0837BD4680BD00BF0CB90024EA
:1046000008B9002490B589B000AF78607B6803F5E5
:10461000A074104BBB610023FB6107F1080007F198
:1046200018030CCB796800F0A5F807F108031946C8
:104630002046FFF785FF07F108031846FEF72AFF1B
:104640007B6803F5A0727B68C3F83C2100BF243768
:10465000BD4690BD5946000880B584B002AF786071
:104660007B6803F59C717B68D3F850311A467B68F0
:10467000D3F854310093044B044800F0C7F900BF4D
:104680000837BD4680BD00BF0CB9002408B900241E
:1046900090B589B000AF78607B6803F5A074104BCB
:1046A000BB610023FB6107F1080007F118030CCB85
:1046B000796800F05FF807F1080319462046FFF714
:1046C0003FFF07F108031846FEF7E4FE7B6803F599
:1046D000A0727B68C3F83C2100BF2437BD4690BD63
:1046E000E546000880B584B002AF78607B6803F5CA
:1046F0009C717B68D3F850311A467B68D3F85431EB
:104700000093044B044800F09DFA00BF0837BD46F3
:1047100080BD00BF0CB9002408B9002480B483B068
:1047200000AF7860044A7B681A607B6818460C37D3
:10473000BD465DF8047B70473CD1020880B582B06D
:1047400000AF78607B681846FFF7E8FF084A7B688F
:104750001A607B6800225A607B6800229A607B683E
:104760000022DA607B6818460837BD4680BD00BF6E
:10477000E0D0020880B584B000AFF860B960394677
:1047800081E80C00FB681846FFF7C8FF084AFB6881
:104790001A60FB68BA685A60FB6808333A4692E8C8
:1047A000030083E80300FB6818461037BD4680BD50
:1047B000E0D0020880B582B000AF78607B68184610
:1047C000FFF76CFD034A7B681A607B681846083760
:1047D000BD4680BD20D5020890B58FB000AFF8600F
:1047E000B9607A603B607B689A687B689B681B68ED
:1047F00020331B6810469847034640F61732934211
:1048000005D87D4B7D4AA3217D4826F09BFB7B6824
:104810005A687B685B681B6820331B6810469847A2
:1048200003460F2B05D8774B744AA421744826F011
:1048300089FB7B68DA687B68DB681B6820331B6850
:104840001046984703460B2B05D86F4B6B4AA521A2
:104850006B4826F077FBFB68BB62BB687B623B68FA
:104860003B6217F001FA0346184617F04BFA3B6A11
:104870001B68002B08D03B6A1A683B6A1B681B68E0
:104880000C331B68104698473B6A1B68002B07D007
:104890003B6A1A683B6A1B681B681B68104698478E
:1048A000BB6A1B68002B08D0BB6A1A68BB6A1B680E
:1048B0001B6814331B68104698477B6A1B68002BE3
:1048C00008D07B6A1A687B6A1B681B6804331B6804
:1048D00010469847BB6A1B68002B07D0BB6A1A6852
:1048E000BB6A1B681B681B68104698477B6A1B687D
:1048F000002B08D07B6A1A687B6A1B681B68083328
:104900001B681046984700BF7B68DB68002118468B
:1049100000F0B2FA034619460C20FFF7C1FA04462C
:104920002046FFF747FF7C637B689B6800211846A1
:1049300000F0B5FA0346194640F61830FFF7B0FA12
:104940000446204605F044FE3C637B685B6800211A
:10495000184600F0B7FA034619461020FFF7A0FAF0
:104960000446396B204605F0A5FDFC623B687A6B76
:104970001A60BB68FA6A1A60FB683A6B1A60FB6AD5
:10498000002B02D0FB6A043300E000231946B86C08
:10499000FFF716FDFB6A0433B96C1846FFF74EFDAE
:1049A0003B6BF96A184600F0A0FA3B6BFB61FB6AAF
:1049B000BB617B6B7B61FB691B680C331B68F8690F
:1049C0009847BB691B681B68B86998477969F8699B
:1049D00018F0DEFD7B691B6810331B687869984707
:1049E0007B691B6814331B687869984700BFFB6AB2
:1049F00018463C37BD4690BDB0C4020840C5020809
:104A000040C6020888C602082CC7020890B58FB0BD
:104A100000AFF860B9607A603B607B689A687B6839
:104A20009B681B6820331B6810469847034640F676
:104A30001732934205D87E4B7E4AA3217E4826F04A
:104A400081FA7B685A687B685B681B6820331B6847
:104A50001046984703460F2B05D8784B754AA4217A
:104A6000754826F06FFA7B68DA687B68DB681B683C
:104A700020331B68104698470346372B05D8704BE8
:104A80006C4AA5216C4826F05DFAFB68BB62BB68E6
:104A90007B623B683B6217F0E7F80346184617F065
:104AA00031F93B6A1B68002B08D03B6A1A683B6AE5
:104AB0001B681B680C331B68104698473B6A1B68D1
:104AC000002B07D03B6A1A683B6A1B681B681B688F
:104AD00010469847BB6A1B68002B08D0BB6A1A684F
:104AE000BB6A1B681B6814331B68104698477B6AB7
:104AF0001B68002B08D07B6A1A687B6A1B681B68DE
:104B000004331B6810469847BB6A1B68002B07D00C
:104B1000BB6A1A68BB6A1B681B681B68104698470B
:104B20007B6A1B68002B08D07B6A1A687B6A1B684B
:104B30001B6808331B681046984700BF7B68DB681A
:104B40000021184600F0DFF9034619463820FFF728
:104B5000A7F904461421204600F01CFA7C637B6808
:104B60009B680021184600F09AF90346194640F662
:104B70001830FFF795F90446204605F029FD3C63FF
:104B80007B685B680021184600F09CF903461946D3
:104B90001020FFF785F90446396B204605F08AFCA2
:104BA000FC623B687A6B1A60BB68FA6A1A60FB6841
:104BB0003A6B1A60FB6A002B02D0FB6A043300E0F8
:104BC00000231946B86CFFF7FBFBFB6A0433B96C92
:104BD0001846FFF733FC3B6BF96A184600F085F97D
:104BE0003B6BFB61FB6ABB617B6B7B61FB691B6899
:104BF0000C331B68F8699847BB691B681B68B86968
:104C000098477969F86918F0C3FC7B691B68103311
:104C10001B68786998477B691B6814331B6878693F
:104C2000984700BFFB6A18463C37BD4690BD00BFA1
:104C3000B0C40208D0C7020840C6020888C60208ED
:104C40002CC7020890B58FB000AFF860B9607A60E9
:104C50003B607B689A687B689B681B6820331B6895
:104C6000104698470346B3F5707F05D27D4B7E4AC8
:104C7000A3217E4826F066F97B685A687B685B68EA
:104C80001B6820331B681046984703460F2B05D836
:104C9000774B754AA421754826F054F97B68DA6889
:104CA0007B68DB681B6820331B6810469847034607
:104CB000372B05D86F4B6C4AA5216C4826F042F97A
:104CC000FB68BB62BB687B623B683B6216F0CCFF53
:104CD0000346184617F016F83B6A1B68002B08D0ED
:104CE0003B6A1A683B6A1B681B680C331B681046DA
:104CF00098473B6A1B68002B07D03B6A1A683B6ADF
:104D00001B681B681B6810469847BB6A1B68002B12
:104D100008D0BB6A1A68BB6A1B681B6814331B681F
:104D2000104698477B6A1B68002B08D07B6A1A687C
:104D30007B6A1B681B6804331B6810469847BB6A74
:104D40001B68002B07D0BB6A1A68BB6A1B681B680C
:104D50001B68104698477B6A1B68002B08D07B6A4B
:104D60001A687B6A1B681B6808331B6810469847E3
:104D700000BF7B68DB680021184600F04DF9034650
:104D800019463820FFF78CF804461421204600F01D
:104D90008BF97C637B689B680021184600F0C6F99C
:104DA000034619464FF47070FFF77AF80446204620
:104DB00005F022FB3C637B685B680021184600F02D
:104DC000C8F9034619461020FFF76AF80446396B04
:104DD000204605F0B9FAFC623B687A6B1A60BB6842
:104DE000FA6A1A60FB683A6B1A60FB6A002B02D001
:104DF000FB6A043300E000231946B86CFFF7E0FAC1
:104E0000FB6A0433B96C1846FFF718FB3B6BF96A71
:104E1000184600F0B1F93B6BFB61FB6ABB617B6B31
:104E20007B61FB691B680C331B68F8699847BB6999
:104E30001B681B68B86998477969F86918F0A8FB7E
:104E40007B691B6810331B68786998477B691B680E
:104E500014331B687869984700BFFB6A18463C37D3
:104E6000BD4690BDB0C40208E4C8020840C60208AE
:104E700088C602082CC7020880B582B000AF7860EF
:104E80000B467B807B681B6824331B687A8811463D
:104E900078689847034618460837BD4680BD80B5F8
:104EA00082B000AF78600B467B807B681B68243340
:104EB0001B687A8811467868984703461846083771
:104EC000BD4680BD80B582B000AF78600B467B8068
:104ED0007B681B6824331B687A881146786898477A
:104EE000034618460837BD4680BD80B483B000AF86
:104EF000786039607B683A68DA6300BF0C37BD467A
:104F00005DF8047B704780B582B000AF78600B46D7
:104F10007B807B681B6824331B687A88114678681D
:104F20009847034618460837BD4680BD80B582B015
:104F300000AF78607B681846FFF78EFA034A7B68FB
:104F40001A607B6818460837BD4680BDD0D302087A
:104F500080B582B000AF7860054A7B681A607B68D4
:104F60001846FFF78BFA7B6818460837BD4680BDA8
:104F7000D0D3020880B582B000AF78607868FFF7C0
:104F8000E7FF2821786825F0AEFF7B6818460837D0
:104F9000BD4680BD80B584B002AF78600B46FB7023
:104FA0007B681846FFF77AF9184A7B681A607B68B5
:104FB000FA785A727B6800229A727B680022DA8142
:104FC0007B68103328220021184626F0C0F97B6840
:104FD00010331846FFF7AAFF0D4B1B881AB27B68E7
:104FE0009A8100BF7B6803F110000A4B1B881AB23C
:104FF000074B1B881BB20093134600220021FEF7CB
:10500000E2FF7B6818460837BD4680BDACD3020876
:10501000C2B80024C0B8002480B582B000AF786068
:105020000B467B807B681B6824331B687A8811469B
:1050300078689847034618460837BD4680BD00008B
:1050400080B582B000AF78607B681846FFF704FA3D
:10505000034A7B681A607B6818460837BD4680BDE6
:1050600058D4020880B582B000AF7860054A7B68EA
:105070001A607B681846FFF701FA7B681846083704
:10508000BD4680BD58D4020880B582B000AF7860BC
:105090007868FFF7E7FF2821786825F024FF7B6810
:1050A00018460837BD4680BD80B584B002AF786031
:1050B0000B46FB707B681846FFF7F0F8184A7B68D0
:1050C0001A607B68FA785A727B6800229A727B6851
:1050D0000022DA817B68103328220021184626F04E
:1050E00036F97B6810331846FFF7AAFF0D4B1B8873
:1050F0001AB27B689A8100BF7B6803F110000A4BEB
:105100001B881AB2074B1B881BB200931346002260
:105110000021FEF758FF7B6818460837BD4680BD62
:1051200034D40208C2B80024C0B8002480B582B0CC
:1051300000AF78600B467B807B681B6824331B685C
:105140007A88114678689847034618460837BD465E
:1051500080BD80B582B000AF78600B467B807B68F5
:105160001B6824331B687A88114678689847034681
:1051700018460837BD4680BD80B483B000AF786064
:1051800039607B683A68DA6300BF0C37BD465DF86A
:10519000047B704780B582B000AF7860084A7B68B6
:1051A0001A607B6810331846FFF7D2FE7B681846FA
:1051B000FFF78AF87B6818460837BD4680BD00BFF8
:1051C000ACD3020880B582B000AF78607868FFF792
:1051D000E1FF3821786825F086FE7B68184608379D
:1051E000BD4680BD80B582B000AF7860084A7B685C
:1051F0001A607B6810331846FFF734FF7B68184647
:10520000FFF762F87B6818460837BD4680BD00BFCF
:1052100034D4020880B582B000AF78607868FFF7B8
:10522000E1FF3821786825F05EFE7B681846083774
:10523000BD4680BD80B582B000AF7860054A7B680E
:105240001A607B681846FFF73FF87B6818460837F6
:10525000BD4680BD20D5020880B582B000AF786021
:105260007868FFF7E7FF0C21786825F03CFE7B6843
:1052700018460837BD4680BD90B593B002AF786040
:105280007B681846FFF740F87B689B7A0133DAB2F7
:105290007B689A727B689A7A7B685B7A9A422BD891
:1052A0007B689B7A98B27B68B3F90C207B685B7A49
:1052B0009BB2002118F072F903461A467B68DA8126
:1052C0007B68B3F90E309BB203F001039BB2002B55
:1052D00019D07B68B3F90E309BB27A68B2F90E2010
:1052E000002A01DD012201E04FF6FF7213449BB258
:1052F0001AB27B68DA8106E07B6801221A727B6849
:1053000000229A727EE07B6810331846FEF789FE11
:1053100003467B877B6803F110003C4B1A887B684F
:10532000B3F90E309BB2D31A9BB21BB21946FEF7EB
:10533000D0FE7B6810331846FEF773FE03469BB21F
:105340007A8FD31A3B877B6810331846FEF769FEC5
:10535000034619462E4B1B881AB2B7F9383007F1AD
:105360001800009313460A460021FEF7A5FD7B684E
:105370005B6818467B685B681B6810331B6807F125
:1053800018021146984700BF7B689B7A012B39D1E0
:10539000204B1B78002B35D07B6810331846FEF766
:1053A00006FE024607F110031068516803C3FCF7BC
:1053B0003BFF03461A683032126818469047F8637C
:1053C00007F108031846FDF78FFA00233B810023FD
:1053D0007B810F4B1B881BB2BB810C4B1B881BB204
:1053E000FB81FCF721FFFEF73DFF03680C331C68CF
:1053F00007F1100307F1080200210191FF2100913C
:10540000F96BA0474437BD4690BD00BFC2B8002429
:10541000C0B80024CAB8002480B582B000AF78605C
:105420007B6858687B685B681B6860331B687A68B8
:1054300010321146984700BF0837BD4680BD80B581
:1054400082B000AF78607B681846FEF771FF7B681A
:1054500058687B685B681B685C331B687A6810322D
:105460001146984700BF0837BD4680BD80B483B061
:1054700000AF786000BF0C37BD465DF8047B704715
:1054800080B483B000AF7860396000BF0C37BD4690
:105490005DF8047B704780B584B002AF78603960F6
:1054A0003B68B3F908203B68B3F90A300093134610
:1054B000002200217868FEF7FFFC78680837BD46B7
:1054C00080BD000090B593B002AF78607B6818464D
:1054D000FEF71AFF7B689B7A0133DAB27B689A7217
:1054E0007B689A7A7B685B7A9A422BD87B689B7A36
:1054F00098B27B68B3F90C207B685B7A9BB2002181
:1055000018F04CF803461A467B68DA817B68B3F9D9
:105510000E309BB203F001039BB2002B19D07B68C5
:10552000B3F90E309BB27A68B2F90E20002A01DD81
:10553000012201E04FF6FF7213449BB21AB27B685E
:10554000DA8106E07B6801221A727B6800229A7277
:105550007FE07B6810331846FEF756FD03467B87D5
:105560007B6803F110003C4B1A887B68B3F90E305E
:105570009BB2D31A9BB21BB21946FEF7AAFD7B68F9
:1055800003F110027B68B3F90E3019461046FEF79E
:1055900064FD7B68B3F90E309AB27B8FD31A3B87D8
:1055A000B7F93A202D4B1B8819B2B7F9383007F1FB
:1055B000200000930B460021FEF77EFC7B685B68B1
:1055C00018467B685B681B6810331B6807F1200274
:1055D0001146984700BF7B689B7A012B39D1204B3D
:1055E0001B78002B35D07B6810331846FEF7DFFCA4
:1055F000024607F110031068516803C3FCF714FE5C
:1056000003461A683032126818469047F86307F16B
:1056100008031846FDF768F900233B8100237B81CE
:105620000E4B1B881BB2BB810B4B1B881BB2FB8133
:10563000FCF7FAFDFEF716FE03680C331C6807F151
:10564000100307F1080200210191FF210091F96B7D
:10565000A0474437BD4690BDC2B80024C0B800245E
:10566000CAB8002480B582B000AF78607B68586803
:105670007B685B681B6860331B687A681032114670
:10568000984700BF0837BD4680BD80B582B000AFE7
:1056900078607B681846FEF74BFE7B6858687B682D
:1056A0005B681B685C331B687A6810321146984748
:1056B00000BF0837BD4680BD80B483B000AF7860BE
:1056C00000BF0C37BD465DF8047B704780B483B0E3
:1056D00000AF7860396000BF0C37BD465DF8047BD1
:1056E000704780B584B002AF786039603B68B3F929
:1056F00008203B68B3F90A300093134600220021CA
:105700007868FEF7D9FB78680837BD4680BD80B45D
:1057100083B000AF78607B681B6A18460C37BD46C3
:105720005DF8047B704780B483B000AF78607B681D
:105730005B6A18460C37BD465DF8047B7047000075
:1057400080B58CB008AFF860B96011461A460B46B8
:10575000FB801346BB80F868B988FA883B8F0693B4
:10576000BB8E059397F82830049397F82430039361
:1057700097F8203002933B7F01933B7E00930B46CA
:10578000B96817F0E5FA0A4AFB681A60FB68FA6A1A
:105790009A61FB683A6BDA61FB68FA6B1A62FB6824
:1057A0003A6C5A62FB6818461037BD4680BD00BF90
:1057B00068D5020880B485B000AF786039607B6836
:1057C0009B69FB603B689B88DB0A9BB29B00FA6885
:1057D00013441A683B681B68134418461437BD46C7
:1057E0005DF8047B704780B489B000AFF8600B4669
:1057F0007A607B817B68002B03D07B681B7B002B4E
:1058000001D1002331E0FB68DA697B687B617B6949
:105810005B7B1B021BB203F4E06319B27B69DB7A8A
:105820001BB20B431BB29BB29B001344FB617B6812
:105830001B7B7B8313E0FB691B887A899A4203D127
:10584000FB6993F9023010E0FB691B887A899A4260
:1058500009D37B8B013B7B83FB690433FB617B8B2F
:10586000002BE8D100E000BF002318462437BD46D6
:105870005DF8047B704780B483B000AF7860396016
:105880007B683A681A607B6818460C37BD465DF83D
:10589000047B704780B483B000AF78600B467B8098
:1058A0007B687A881A807B6818460C37BD465DF89D
:1058B000047B704780B483B000AF78600B46FB7008
:1058C0007B68FA7883F8242000BF0C37BD465DF86A
:1058D000047B704780B582B000AF78607B68184663
:1058E000FEF70AFB054A7B681A607B6800229A6211
:1058F0007B6818460837BD4680BD00BF5CDE0208E5
:1059000080B582B000AF7860064A7B681A607B6819
:105910000433184601F020F87B6818460837BD4666
:1059200080BD00BF1CF6020880B582B000AF786071
:105930007868FFF7E5FF3C21786825F0D4FA7B68AA
:1059400018460837BD4680BD80B483B000AF78608C
:1059500000BF0C37BD465DF8047B704780B483B050
:1059600000AF786000BF0C37BD465DF8047B704720
:1059700080B483B000AF786000BF0C37BD465DF8DF
:10598000047B704780B483B000AF786000BF0C37F1
:10599000BD465DF8047B704780B483B000AF78608B
:1059A0000B46FB7000BF0C37BD465DF8047B7047AB
:1059B00080B582B000AF786039607B6804333968A5
:1059C000184612F09DFA00BF0837BD4680BD0000A2
:1059D00080B582B000AF78607B68184626231A46EF
:1059E000002125F0B4FC7B681846FEF735FD094A16
:1059F0007B681A607B68FF2283F826207B68283347
:105A000000211846FFF737FF7B6818460837BD4668
:105A100080BD00BFD0EE020880B483B000AF7860D4
:105A200039607B683A689A6200BF0C37BD465DF802
:105A3000047B704780B582B000AF786039607B68C6
:105A4000184626231A46002125F081FC7B6818465B
:105A5000FEF702FD094A7B681A607B683A68128883
:105A6000DA847B68FF2283F828203968786814F08C
:105A7000ECFB7B6818460837BD4680BD48F102083C
:105A800080B582B000AF7860054A7B681A607B6899
:105A90001846FEF7F3FC7B6818460837BD4680BD04
:105AA000D0EE020880B582B000AF78607868FFF76A
:105AB000E7FF2C21786825F016FA7B68184608372E
:105AC000BD4680BD80B582B000AF78607B68184667
:105AD000FFF77EFF084A7B681A607B682C33002141
